:100000000C946D020C9495020C9495020C94F80CCF
:100010000C94F80C0C94F80C0C9495020C9495022A
:100020000C9495020C9495020C9495020C949502F4
:100030000C9495020C9495020C9495020C949502E4
:100040000C947F050C9495020C94EF050C94C90553
:100050000C9495020C9495020C9495020C949502C4
:100060000C94770D0C949502AD08B008B308B6084F
:10007000B908BC08BF080000000800020100000326
:100080000407000000000000000000000000230042
:100090002600290000000000240027002A0000009C
:1000A0000000250028002B000404040404040404B8
:1000B0000202020202020303030303030102040813
:1000C00010204080010204081020010204081020C2
:1000D00047656E3A206372616E62657272790042A2
:1000E0006F617264204F70747300426F617264209C
:1000F000536574757020446F6E6500426F61726461
:1001000020536574757020537461727400504F539E
:100110005420456E6400504F535420426567696E09
:100120000053616D706C6520456E640053616D70A5
:100130006C652053746172740045786974696E67E8
:1001400020746F204D61696E204D656E7500474FBC
:1001500054204120434D443A20005B455D202D2032
:100160004578697420746F204D61696E204D656E0D
:1001700075005B375D202D20536F6C6172205061DC
:100180006E656C20566F6C7461676520286D572909
:10019000005B365D202D20426174746572792056B3
:1001A0006F6C7461676520286D5729005B355D2091
:1001B0002D20535032313220536F6C6172204972BE
:1001C00072616469616E636520286D5729005B3434
:1001D0005D202D204D504C3131354132205072651B
:1001E00073737572652028506129005B335D202D83
:1001F00020484948363133312048756D6964697447
:100200007920282529005B325D202D204849483679
:100210003133312054656D7065726174757265207B
:1002200028634B29005B315D202D204E6F646520D3
:1002300041646472657373000A53656E736F722054
:1002400053616D706C696E67204D656E75005275F7
:100250006E6E696E6720504F5354004C656176692D
:100260006E6720434D44204D6F646500474F542016
:100270004120434D443A20005B535D202D205365BF
:100280006E736F722053616D706C696E67204D657F
:100290006E75005B505D202D2052756E20506F777B
:1002A0006572204F6E2053656C662D546573740023
:1002B0005B455D202D204578697420436F6D6D612D
:1002C0006E64204D6F6465000A456E74657220434C
:1002D0004D44204D6F646500545820486561727428
:1002E0006265617420456E640054582048656172EF
:1002F00074626561742053746172740053616D702F
:100300006C6520545820456E640053616D706C65B7
:1003100020545820537461727400205061005B5067
:100320005D206D706C313135613274315F70726592
:1003300073737572655F70612076616C75653A20C4
:10034000005B505D20436865636B206D706C3131DC
:1003500035613274315F70726573737572655F7089
:10036000612076616C756500206D56005B505D20E4
:1003700061706F6765655F737032313220697272C8
:10038000616469616E63652076616C75653A200011
:100390005B505D20436865636B2061706F676565C6
:1003A0005F53503231325F697272616469616E63AA
:1003B000652076616C756500206D56005B505D2090
:1003C000626174746572792076616C75653A20009B
:1003D0005B505D20436865636B2062617474657275
:1003E000792076616C7565005B505D206E6F646589
:1003F00020616464723A200025005B505D206869CA
:1004000068363133315F68756D69646974795F701E
:1004100063742076616C75653A20005B505D204303
:100420006865636B20686968363133315F68756D64
:1004300069646974795F7063742076616C756500B6
:1004400020634B005B505D20686968363133315F53
:1004500074656D70657261747572655F63656E74E5
:10046000696B2076616C75653A20005B505D2043B6
:100470006865636B20686968363133315F74656D18
:1004800070657261747572655F63656E74696B2007
:1004900076616C756500206D56005B505D20736F52
:1004A0006C61722070616E656C2076616C75653A66
:1004B00020005B505D20636865636B20736F6C6127
:1004C000722070616E656C2073656E736F7220763A
:1004D000616C75650000090FFD0E11241FBECFEF82
:1004E000D8E0DEBFCDBF11E0A0E0B1E0EEE8F4E27D
:1004F00002C005900D92A634B107D9F725E0A6E415
:10050000B1E001C01D92A033B207E1F712E0CCE6E2
:10051000D2E004C02197FE010E942011CB36D10702
:10052000C9F70E94CC0F0C943A120C940000FC0105
:1005300084E091E0918380838091510190915201F8
:10054000E817F90759F4A389B4899C9185898095A6
:1005500089238C9310925201109251010895CF92E9
:10056000DF92EF92FF920F931F93CF93DF936C0173
:100570007A018B01C0E0D0E0CE15DF0581F0D80113
:100580006D918D01D601ED91FC910190F081E02DEE
:10059000C6010995892B11F02196EECF7E01C70186
:1005A000DF91CF911F910F91FF90EF90DF90CF904F
:1005B00008958CEF91E00E94220B21E0892B09F431
:1005C00020E0822F08950E943512EF92FF920F9340
:1005D0001F93CF93DF93EC0181E0888F9B8D8C8DEF
:1005E000981305C0E889F989808185FD26C0F62E1B
:1005F0000B8D10E00F5F1F4F0F731127E02E8C8DB6
:10060000E8120CC00FB607FCFACFE889F98980819F
:1006100085FFF5CFCE010E94D60CF1CF8B8DFE0168
:10062000E80FF11DE35AFF4FF0829FB7F8940B8F4C
:10063000EA89FB89808180620AC09FB7F894EE89BD
:10064000FF896083E889F989808183708064808371
:100650009FBF81E090E0DF91CF911F910F91FF90BC
:10066000EF900895CF93DF93EC01888D8823C9F034
:10067000EA89FB89808185FD05C0A889B9898C91AB
:1006800086FD0FC00FB607FCF5CF808185FFF2CF46
:10069000A889B9898C9185FFEDCFCE010E94D60C37
:1006A000E7CFDF91CF910895009769F0FC010190A9
:1006B0000020E9F73197AF01481B590BBC018CEFC3
:1006C00091E00C94AF0280E090E008950F931F93A7
:1006D000CF93DF938C01C0E0D0E0F801EC0FFD1F59
:1006E0006491662341F08CEF91E00E94E502892B32
:1006F00011F02196F2CFCE01DF91CF911F910F9192
:100700000895CF93DF930E946603EC018EE391E09E
:100710000E9454038C0F9D1FDF91CF910895A091EB
:10072000E001B091E101ED91FC9111970190F08110
:10073000E02D682FCD010994CF9393E8980F923064
:1007400020F0982F9D7F913131F4C82F8DE70E94C2
:100750008F0380E28C27CF910C948F038F929F920E
:10076000AF92BF920F931F93CF93DF93CDB7DEB7B6
:10077000A1970FB6F894DEBF0FBECDBF19A24230CD
:1007800008F44AE08E010F5D1F4F842E912CA12C9E
:10079000B12CA50194010E94FE10E62FB901CA01F7
:1007A00001501109EA3014F4E05D01C0E95CD801A0
:1007B000EC93232B242B252B61F7C8010E945403B3
:1007C000A1960FB6F894DEBF0FBECDBFDF91CF91DB
:1007D0001F910F91BF90AF909F908F900895CF92EF
:1007E000DF92EF92FF92CF93DF9397FF1BC06B01D5
:1007F0007C016DE28CEF91E00E94E502EC0166273E
:100800007727CB016C197D098E099F094AE00E9468
:10081000AE038C0F9D1FDF91CF91FF90EF90DF9083
:10082000CF9008954AE0DF91CF91FF90EF90DF9055
:10083000CF900C94AE03ECEFF1E0A089B18982E097
:100840008C93A485B5851C92A685B78587E68C9385
:10085000108EA489B58986E08C93A289B3898C9186
:1008600080618C93A289B3898C9188608C93A289D2
:10087000B3898C9180688C930288F389E02D808104
:100880008F7D8083089590E0FC01EA58FF4F24910A
:10089000FC01E454FF4F3491FC01E855FF4FE49113
:1008A000EE2309F43CC0222339F1233091F038F4CF
:1008B0002130A9F0223001F584B58F7D12C0273098
:1008C00091F02830A1F02430B9F4809180008F7D20
:1008D00003C0809180008F77809380000DC084B525
:1008E0008F7784BD09C08091B0008F7703C080915D
:1008F000B0008F7D8093B000F0E0EE0FFF1FE25656
:10090000FF4FA591B4919FB7F894611104C08C91E9
:100910003095382302C0EC913E2B3C939FBF089545
:10092000CF93DF93EC011B821A8288EE93E0A0E064
:10093000B0E08C839D83AE83BF8384E091E0998394
:1009400088831F8A1E8A198E188E1B8E1A8E1D8E02
:100950001C8E6E8D6E7F6D7F6E8F6695617081E0EF
:10096000682781E10E944304EDECF0E02491E9EB7B
:10097000F0E08491882399F090E0880F991FFC01A2
:10098000EC56FF4FA591B491FC01E256FF4F8591C3
:1009900094918FB7F894EC91E22BEC938FBFEDEC30
:1009A000F0E0E491E88BE9EBF0E0E491F0E0EE0FA9
:1009B000FF1FE256FF4F859194919A8B898BEEEB46
:1009C000F0E02491EAEAF0E084918823C9F090E015
:1009D000880F991FFC01EC56FF4F45915491FC0183
:1009E000E256FF4FA591B4919FB7F894FA01808128
:1009F0002095822380838C91E22FE823EC939FBF84
:100A00008E8D81FD04C061E082E00E94430482E09B
:100A10008C87EEEBF0E0E491ED87EAEAF0E0E49118
:100A2000F0E0EE0FFF1FE657FF4F859194919F87EF
:100A30008E87DF91CF9108951092500110924F014F
:100A400010924E0110924D0110924C0181E0809362
:100A50004B0110924A0161E082E10E94430461E08F
:100A600083E10E944304E9EBF0E080818E7F808384
:100A700080818D7F808380E28093B80085E48093BD
:100A8000BC0089E49CE090934901809348018AE48A
:100A90009CE0909347018093460108953FB7F894F6
:100AA0008091F5029091F602A091F702B091F802C0
:100AB00026B5A89B05C02F3F19F00196A11DB11DB9
:100AC0003FBFBA2FA92F982F8827820F911DA11DF4
:100AD000B11DBC01CD0143E0660F771F881F991F30
:100AE0004A95D1F708952FB7F8946091F10270916B
:100AF000F2028091F3029091F4022FBF08951F92A9
:100B00000F920FB60F9211242F933F938F939F93C1
:100B1000AF93BF938091F1029091F202A091F30202
:100B2000B091F4023091F00226E0230F2D3720F42B
:100B30000296A11DB11D05C029E8230F0396A11D32
:100B4000B11D2093F0028093F1029093F202A093E2
:100B5000F302B093F4028091F5029091F602A09115
:100B6000F702B091F8020196A11DB11D8093F50224
:100B70009093F602A093F702B093F802BF91AF9161
:100B80009F918F913F912F910F900FBE0F901F90CB
:100B900018951F920F920FB60F9211242F933F9327
:100BA0004F935F936F937F938F939F93AF93BF9375
:100BB000EF93FF938CEF91E00E94D60CFF91EF91A1
:100BC000BF91AF919F918F917F916F915F914F9165
:100BD0003F912F910F900FBE0F901F9018951F926D
:100BE0000F920FB60F9211242F938F939F93EF9331
:100BF000FF93E0910C02F0910D028081E0911202CE
:100C0000F091130282FD12C09081809115028F5FD6
:100C10008F7320911602821751F0E0911502F0E0D7
:100C2000E450FE4F958F8093150201C08081FF91A3
:100C3000EF919F918F912F910F900FBE0F901F906A
:100C4000189580E090E00895EF92FF921F93CF9364
:100C5000DF93CDB7DEB763970FB6F894DEBF0FBE54
:100C6000CDBF20E12B8321E02C839E838D836F8376
:100C70008AE391E09A838983188619861A861B86EF
:100C80001C861D861E861F868EEF9FEF998B888B94
:100C90001A8A1B8A8EE70E948F031F818CE0810FC6
:100CA00090E00296892F0E949C038EE0810F0E94A3
:100CB0009C038B810E949C038C810E949C031B815E
:100CC0008C81180FE12CF12C8F81845F90E0E81665
:100CD000F9068CF46E2DCE0101960E943C0B0E9409
:100CE0009C036E2DCE0101960E943C0B180F8FEFD6
:100CF000E81AF80AE9CF812F80950E949C03809121
:100D0000E0019091E101DC01ED91FC910680F78119
:100D1000E02D099563960FB6F894DEBF0FBECDBFE8
:100D2000DF91CF911F91FF90EF90089580ED93E0B8
:100D30000E9481038CEB93E00E9466034AE060EA24
:100D40007FE080E090E00E94AE0388EB93E00C949B
:100D5000810381E493E00E9481038EE193E00E948D
:100D600066034AE060EA76E881E090E00E94AE0324
:100D70008AE193E00C94810380E993E00E9481036F
:100D80008CE693E00E94660360EA7FE080E090E0FA
:100D90000E94EF0388E693E00C9481030F931F9366
:100DA000CF93DF93CDB7DEB7C659D1090FB6F8940C
:100DB000DEBF0FBECDBF8C018AE093E00E948103AD
:100DC000CE01019626E9FC0111922A95E9F7F80176
:100DD000B29626E1DC0101900D922A95E1F766E1D9
:100DE00070E00E942406F801178E168E8CEF92E0B8
:100DF0000E948103CA56DF4F0FB6F894DEBF0FBEC4
:100E0000CDBFDF91CF911F910F910895CF92DF92C7
:100E1000EF92FF920F931F93CF93DF93CDB7DEB77F
:100E2000C659D1090FB6F894DEBF0FBECDBF0E94E0
:100E300073056B017C010E94DC0E8C0189EE92E04F
:100E40000E948103CE01019626E9FC0111922A95A8
:100E5000E9F71C830B83CD82DE82EF82F88620EADD
:100E60003FE03A8729876AE070E00E94240688ED17
:100E700092E00E948103CA56DF4F0FB6F894DEBF9E
:100E80000FBECDBFDF91CF911F910F91FF90EF90DB
:100E9000DF90CF9008958F929F92AF92BF92CF92A2
:100EA000DF92EF92FF92CF93DF93EC010E947305E4
:100EB0006B017C018A8C9B8CAC8CBD8C0E94730571
:100EC000683A73448540910580F4C818D90888EBC6
:100ED000C8168BE0D8064CF00E9473056A8F7B8F92
:100EE0008C8F9D8F81E090E002C080E090E0DF91E8
:100EF000CF91FF90EF90DF90CF90BF90AF909F90F9
:100F00008F9008950F931F93CF93DF93EC010E946E
:100F100073050E891F89288D398DDC01CB01801B5B
:100F2000910BA20BB30B80339547A105B10548F097
:100F30000E9473056E8B7F8B888F998F81E090E084
:100F400002C080E090E0DF91CF911F910F91089552
:100F500086E191E00E9481030E94ED0E0E94B80E8E
:100F60000E94CA0E0E94A9060E94BC060E94960614
:100F70000E94A50E8DE091E00C9481038CEF91E02E
:100F80000C94220BCF93DF93EC0181E491E00E945B
:100F900054030E9473054AE00E94AE0383E491E08B
:100FA0000E9454038EE391E00E9454038CE291E08E
:100FB0000E9481030E9473056EA37FA388A799A74F
:100FC00080EA9FE09BA78AA720E737E13DA72CA7EF
:100FD0009FA78EA780E395E799AB88AB8CE390E061
:100FE0009BAB8AAB80EA96E8A1E0B0E08CAB9DAB0E
:100FF000AEABBFAB81E291E00E9481031F8E1E8EDB
:10100000CE01DF91CF910C94CE060F931F93CF9317
:101010008C0188EC92E00E94810380EB92E00E94B8
:10102000810383E992E00E94810388E792E00E94B5
:1010300081038CEF91E00E94000B0A97D1F78CEFAF
:1010400091E00E94220B892BD1F38CEF91E00E945A
:10105000000BC82F8CE692E00E9466036C2F8CEF89
:1010600091E00E94E5028EE391E00E9454038CEF30
:1010700091E00E94000B0A97D1F7C53439F48BE553
:1010800092E0CF911F910F910C948103C03539F1FB
:10109000C335A9F688E392E00E94810385E292E0DD
:1010A0000E94810386E092E00E9481038BEE91E032
:1010B0000E9481038EEC91E00E9481038CEA91E012
:1010C0000E94810381E991E00E94810382E791E01F
:1010D0000E9481038AE591E00E94810315C08EE49D
:1010E00092E00E948103D8011296ED91FC91139732
:1010F0000995A5CF8C2FCC0F990BAA0BBB0BFC012C
:10110000F197E730F10528F18CEF91E00E94220B76
:10111000892BD1F38CEF91E00E94000BC82F8EE455
:1011200091E00E9466036C2F8CEF91E00E94E50233
:101130008EE391E00E9454038CEF91E00E94000B3B
:101140000A97D1F7C534B1F689E391E00E94810393
:1011500076CFEC5CFF4F0C9420110E94ED0ED4CFA3
:101160000E94B80ED1CF0E94CA0ECECF0E94A9060F
:10117000CBCF0E94BC06C8CF0E949606C5CF0E9466
:10118000A50EC2CF8F929F92AF92BF92CF92DF9265
:10119000EF92FF920F931F93CF93DF93EC010E9486
:1011A0001B048BEF90E00E94810361E084E00E94C9
:1011B00043041092B4021092B3021092B202109241
:1011C000B1021092B0021092AF028DEC90E09093B9
:1011D000B6028093B5029091A502963108F058C0EE
:1011E00025E530E03093B0022093AF022BEC30E0E5
:1011F0003093B2022093B10220E930E03093B40280
:101200002093B30240916800983058F031E09E304E
:1012100008F430E021E0822F01C0880F3A95EAF708
:1012200001C084E0842B80936800983038F09E30B1
:1012300040F0963148F020E030E008C02DE630E084
:1012400005C02BE630E002C02CE630E03093AD0262
:101250002093AC02983030F481E001C0880F9A9559
:10126000EAF70EC0292F30E09E3018F428503109DB
:1012700002C02E50310981E001C0880F2A95EAF79B
:101280008093AE028091B5029091B6020197F1F77A
:101290008091B3029091B402892B49F1E091510100
:1012A000F091520122E0E939F20709F1309739F063
:1012B000A389B4899C918589809589238C93809199
:1012C000B7028E7F8093B7021092AB041092AC04E9
:1012D00089E992E09093520180935101E091AC0230
:1012E000F091AD0290818091AE02892B808389E9D3
:1012F00092E09093E1018093E00161E083E00E943D
:1013000043040E941C050E941C050E941C050E94AB
:101310001C051092BA000E941C051092BA000E948F
:101320001C0581E08093660480E68093450410925A
:101330004E0110924D0164E083E591E00E94A30C00
:1013400090914D01913208F044C080914C0181117F
:10135000FCCF82E080934C0181E080934B018FEFC2
:10136000809387041092A9049093A804A6E4B4E0A3
:10137000E8E8F4E080E0981721F02D9121938F5F49
:10138000FACF1092AA048091AA04806C8093AA04D8
:1013900080914A01813061F410924A018091AA043F
:1013A0008093BB008091BC0083FDF8CF85EC01C029
:1013B00085EE8093BC0080914C018230E1F38091F6
:1013C00087048F3F31F080918704803211F0809143
:1013D000870410924E0110924D0110926604809184
:1013E0004C018111FCCF81E080934C0180934B0133
:1013F0009FEF909387041092A90497E09093A8041C
:101400008093AA048091AA04806C8093AA0480919E
:101410004A01813061F410924A018091AA048093BC
:10142000BB008091BC0083FDF8CF85EC01C085EE48
:101430008093BC0080914C018130E1F38091A9043C
:10144000883018F49091A90401C098E0A8E8B4E0AD
:10145000E7E6F4E080E0891721F02D9121938F5F7A
:10146000FACF1092500180934F010E94720DA82E66
:101470000E94720DB82E0E94720DC82E0E94720D2D
:10148000E82E0E94720DD82E0E94720D082F0E9425
:10149000720DF82E0E94720D182F6B2D70E07A29B4
:1014A000072E000C880B990B0E943C1120E030E0C5
:1014B00040E05EE30E9477116093EC017093ED01D0
:1014C0008093EE019093EF016E2D70E07C29072E42
:1014D000000C880B990B0E943C1120E030E040E0AA
:1014E00059E30E9477116093F0017093F1018093AA
:1014F000F2019093F301602F70E07D29072E000C1C
:10150000880B990B0E943C1120E030E040E858E342
:101510000E9477116093F4017093F5018093F601B6
:101520009093F701612F70E07F2976956795769506
:101530006795072E000C880B990B0E943C1120E048
:1015400030E040E854E30E9477116093F801709313
:10155000F9018093FA019093FB010E94DC0E99A39C
:1015600088A30E944E054B015C0194E6C92ED12C44
:10157000E12CF12C0E944E05DC01CB018819990960
:10158000AA09BB09883E9340A105B10598F381E003
:10159000C81AD108E108F10828EE820E23E0921E55
:1015A000A11CB11CC114D104E104F10419F78AEEA5
:1015B00090E0DF91CF911F910F91FF90EF90DF901E
:1015C000CF90BF90AF909F908F900C9481030E941A
:1015D0001B048FED90E00E94810380ED90E00C945D
:1015E0008103FC01538D448D252F30E0842F90E042
:1015F000821B930B541710F0CF960895019708950E
:10160000FC01918D828D981761F0828DDF01A80F0A
:10161000B11D5D968C91928D9F5F9F73928F90E02C
:1016200008958FEF9FEF0895FC01918D828D98179B
:1016300031F0828DE80FF11D858D90E008958FEFD8
:101640009FEF0895FC01918D228D892F90E0805CA1
:101650009F4F821B91098F739927089580E090E036
:10166000892B29F00E94D90281110C940000089561
:10167000FC018681845F0895FC01611102C08285AE
:101680000895613011F481850895623011F48085E8
:101690000895633011F487810895643011F48685CC
:1016A0000895653011F485850895663011F48485B8
:1016B0000895673011F483850895683011F48089A6
:1016C0000895693011F4878508956A3011F481898D
:1016D00008956B3011F4828908950480F581E02D1E
:1016E000E60FF11D3C9780810895209151013091C2
:1016F00052012817390771F49091AC048091AB0422
:10170000981741F0E091AC04F0E0E051FB4F80818C
:1017100090E008958FEF9FEF089508951F93CF9362
:10172000DF93DC015C968D919C915D97009739F475
:1017300021E030E013963C932E9312973BC05196D4
:10174000ED91FC91529750962C915097322F3095F5
:101750001FB75E964C915E97742F727041FD609535
:10176000F8944081772311F0422B01C0432340833A
:10177000EC012197F1F748E0508160FF02C0522B45
:1017800001C053235083EC012197F1F76695415036
:1017900099F78081772319F08323808302C0282B57
:1017A00020831FBF5C968D919C915D970197F1F707
:1017B00081E090E0DF91CF911F9108952091510138
:1017C000309152012817390771F48091AB042091B0
:1017D000AC0490E0805C9F4F821B910960E470E054
:1017E0000E94EA10089580E090E008952091510150
:1017F0003091520128173907B9F49091AC048091C7
:10180000AB04981789F0E091AC04F0E0E051FB4F95
:1018100080812091AC0430E02F5F3F4F2F7333273E
:101820002093AC0490E008958FEF9FEF089585ED2D
:101830008093BC008091BC0084FDFCCF10924C01D1
:1018400008954091CD04262F30E0240F311D213220
:101850003105DCF420914C012430C9F4FC0180E016
:1018600090E0861758F43091CD042191DC01A35506
:10187000BB4FA30FB11D2C930196F3CF8091CD04E4
:10188000680F6093CD0480E0089581E0089582E0C0
:10189000089508950895E091500180914F01E8174F
:1018A00030F4F0E0E959FB4F808190E008958FEF2C
:1018B0009FEF08959091500180914F01981750F437
:1018C000E92FF0E0E959FB4F208130E09F5F9093D2
:1018D000500102C02FEF3FEFC901089580914F01E1
:1018E00090E020915001821B91090895CF92DF92E0
:1018F000EF92FF920F931F93CF93DF937C01CB0165
:101900008A0120916604222389F0EB016B01C40E49
:10191000D51ECC15DD0569F06991D701ED91FC91DB
:101920000190F081E02DC7010995F3CF642F0E944B
:10193000210CC801DF91CF911F910F91FF90EF9083
:10194000DF90CF900895CF93DF931F92CDB7DEB78E
:101950006983209166042223D1F020914D01203229
:1019600040F021E030E0FC013383228380E090E00E
:1019700015C080914E01E82FF0E0EA5BFB4F9981A2
:1019800090838F5F80934E0180934D0105C061E08D
:10199000CE0101960E94210C81E090E00F90DF9132
:1019A000CF910895089580E090E00895FC01848D22
:1019B000DF01A80FB11DA35ABF4F2C91848D90E079
:1019C00001968F739927848FA689B7892C93A08954
:1019D000B1898C91837080648C93938D848D9813DE
:1019E00006C00288F389E02D80818F7D8083089571
:1019F0001F920F920FB60F9211242F933F934F9384
:101A00005F936F937F938F939F93AF93BF93EF9366
:101A1000FF93E0915101F0915201309709F451C0C8
:101A2000968DA685B785858591FF04C09C918923F5
:101A300029F447C09C91892309F043C0A389B48944
:101A40009C918589809589238C93868997890197B4
:101A5000F1F7608D718DA685B785558538E020E05A
:101A6000CB010197F1F7822F90E095958795282F6C
:101A70004C91452309F02068315091F7868D81FD06
:101A800020958091AB0490E001968F739927309157
:101A9000AC04381749F0A091AB04B0E0A051BB4FA3
:101AA0002C938093AB0403C0868D8160868F828DDA
:101AB000938D0197F1F7A389B4899C918589892B2E
:101AC0008C93FF91EF91BF91AF919F918F917F91F7
:101AD0006F915F914F913F912F910F900FBE0F909B
:101AE0001F90189583E591E00E945A0C08951F926B
:101AF0000F920FB60F9211242F933F934F935F9342
:101B00006F937F938F939F93AF93BF93EF93FF93C5
:101B10008091B900887F803609F49CC068F58832CE
:101B200009F45BC090F4803109F454C038F4882380
:101B300009F4F6C0883009F44DC0F6C0883109F4C4
:101B40004CC0803209F45DC0EFC0803409F468C035
:101B500048F4803309F455C0883309F0E5C0809318
:101B60008704D8C0803509F44FC0883509F45DC0BA
:101B7000883409F0D9C0D6C0883909F4C7C0A8F4A0
:101B8000883709F467C038F4883609F463C08037B1
:101B900009F460C0C9C0883809F4B8C0803909F4B4
:101BA0005FC0803809F0C0C05BC0803B09F486C0CC
:101BB00038F4803A09F466C0883A09F47FC0B4C0AA
:101BC000803C09F4A7C0883C09F4A4C0883B09F410
:101BD0008AC0AAC08091AA0410C09091A9048091E3
:101BE000A804981770F5E091A90481E08E0F809306
:101BF000A904F0E0E857FB4F80818093BB0085EC9F
:101C000086C0809387048EC0E091A90481E08E0F86
:101C10008093A9048091BB00F0E0E857FB4F8083DC
:101C20009091A9048091A8046EC0E091A90481E07C
:101C30008E0F8093A9048091BB00F0E0E857FB4F22
:101C4000808380914B0181116DC081E080934A01B6
:101C500084EA61C083E080934C011092EF04CFCFFF
:101C60008091EF04803208F051C0E091EF0481E0F0
:101C70008E0F8093EF048091BB00F0E0E153FB4FA7
:101C80008083BDCF85EC8093BC0010924C01809185
:101C9000EF04803230F4E091EF04F0E0E153FB4FC9
:101CA00010826091EF0470E0E0914601F0914701ED
:101CB0008FEC94E009951092EF0436C084E0809395
:101CC0004C011092CE041092CD04E0914801F091A5
:101CD000490109958091CD04811105C081E080936F
:101CE000CD041092AD04E091CE0481E08E0F80937C
:101CF000CE04F0E0E355FB4F80818093BB009091D0
:101D0000CE048091CD04981708F479CF85E88093AC
:101D1000BC000AC085EC8093BC0010924C0104C04A
:101D2000109287040E94170CFF91EF91BF91AF9121
:101D30009F918F917F916F915F914F913F912F91E3
:101D40000F900FBE0F901F90189582EB94E00E94A9
:101D500081038AE994E00E9466034AE060E777E144
:101D600080E090E00E94AE0386E994E00C94810349
:101D70008BE694E00E94810384E494E00E94660371
:101D800060E375E780E090E00E94EF0380E494E078
:101D90000C9481038BE194E00E9481038AEF93E02D
:101DA0000E9466036CE370E080E090E00E94EF0325
:101DB00088EF93E00C948103CF9382E090E00E943F
:101DC000E210C82F83E090E00E94E2102C2F30E058
:101DD000A901582BCA01CF91089588EE93E00E9483
:101DE00066030E94DC0EBC01990F880B990B0E94C0
:101DF000EF038EE391E00C94540385EF93E00E948F
:101E0000970284E194E00E94970289E992E00C94A1
:101E100097020F931F93CF93DF93CCEFD1E01B82F8
:101E20001A8288EE93E0A0E0B0E08C839D83AE83BD
:101E3000BF8326E131E03983288325EC30E03D87FC
:101E40002C8724EC30E03F872E8720EC30E0398B64
:101E5000288B21EC30E03B8B2A8B22EC30E03D8B51
:101E60002C8B26EC30E03F8B2E8B198E1A8E1B8E1E
:101E70001C8EE3E5F1E01382128284839583A683AE
:101E8000B78388E291E091838083EFE5F1E008E495
:101E900000831482138218E011831282ECE3F4E0D1
:101EA00027E2208380E090E0A0E8BFE38183928373
:101EB000A383B48385839683A783B087E3E3F4E0A9
:101EC000208381839283A383B48385839683A783AE
:101ED000B087E4E6F1E01286118614861586178233
:101EE0001086158282E791E091838083D093E1018F
:101EF000C093E00189E992E00E949004E2EEF1E0F3
:101F000000831482138211831282E7EEF1E00083D2
:101F10001482138211831282ECEEF1E0108211829E
:101F200012821382148215821682178210861186FD
:101F3000128613861486158616861786E9EFF2E058
:101F4000128611861486158617821086158287E000
:101F500093E091838083D0937603C093750384E1EB
:101F600094E00E949004E7E7F3E01286118614865D
:101F7000158617821086158285E893E09183808309
:101F8000D093F403C093F30385EF93E0DF91CF91F7
:101F90001F910F910C949004789484B5826084BD55
:101FA00084B5816084BD85B5826085BD85B581605D
:101FB00085BD80916E00816080936E0010928100DB
:101FC0008091810082608093810080918100816096
:101FD0008093810080918000816080938000809157
:101FE000B10084608093B1008091B00081608093E3
:101FF000B00080917A00846080937A0080917A00AA
:10200000826080937A0080917A008E7F80937A003C
:1020100080917A00806880937A001092C10087EEE8
:102020009AE09093C1028093C00282EC98E0909372
:10203000B9028093B80288EA97E09093BB0280933C
:10204000BA028EEC96E09093C3028093C20281E2C2
:1020500096E09093C5028093C40282EC97E090933F
:10206000BD028093BC0282E897E09093C702809300
:10207000C60285E098E09093BF028093BE028EEB8B
:1020800097E09093C9028093C8028BE497E0909305
:10209000CB028093CA0286E097E09093CD028093B2
:1020A000CC021092D7021092D6021092D90210924E
:1020B000D8021092CE021092CF021092D00210924B
:1020C000D10282E090E09093DB028093DA020E94DA
:1020D000DC0E9093DD028093DC021092DE021092FF
:1020E000DF021092E0021092E1021092E3021092DD
:1020F000E2021092E5021092E4021092E7021092BE
:10210000E6021092E9021092E8021092EB0210929D
:10211000EA021092EC021092ED021092EE0210927E
:10212000EF020E94E70AE091B802F091B90288EB51
:1021300092E00995E091BA02F091BB020995E09115
:10214000C602F091C70288EB92E00995892B39F01D
:10215000E091BC02F091BD0288EB92E00995E0911C
:10216000C402F091C50288EB92E00995892B39F001
:10217000E091C202F091C30288EB92E00995E091F0
:10218000C802F091C90288EB92E00995892B39F0D9
:10219000E091BE02F091BF0288EB92E00995E091D8
:1021A000CA02F091CB0288EB92E00995892B39F0B5
:1021B000E091CC02F091CD0288EB92E009950E946B
:1021C0002E0BBDCFF999FECF92BD81BDF89A99270C
:1021D00080B5089597FB072E16F4009407D077FD7D
:1021E00009D00E94261107FC05D03EF490958195F8
:1021F0009F4F0895709561957F4F0895A1E21A2E23
:10220000AA1BBB1BFD010DC0AA1FBB1FEE1FFF1F9A
:10221000A217B307E407F50720F0A21BB30BE40BEA
:10222000F50B661F771F881F991F1A9469F7609531
:102230007095809590959B01AC01BD01CF010895EB
:10224000EE0FFF1F0590F491E02D0994AA1BBB1B14
:1022500051E107C0AA1FBB1FA617B70710F0A61BA6
:10226000B70B881F991F5A95A9F780959095BC01C7
:10227000CD010895E89409C097FB3EF490958095B0
:10228000709561957F4F8F4F9F4F9923A9F0F92F3C
:1022900096E9BB279395F695879577956795B795BA
:1022A000F111F8CFFAF4BB0F11F460FF1BC06F5FA0
:1022B0007F4F8F4F9F4F16C0882311F096E911C0B2
:1022C000772321F09EE8872F762F05C0662371F0D3
:1022D00096E8862F70E060E02AF09A95660F771FE7
:1022E000881FDAF7880F9695879597F908950E94C9
:1022F0008A110C94FB110E94ED1138F00E94F41128
:1023000020F0952311F00C94E4110C94EA1111249F
:102310000C942F120E940C1270F3959FC1F3950F2D
:1023200050E0551F629FF001729FBB27F00DB11D59
:10233000639FAA27F00DB11DAA1F649F6627B00DE9
:10234000A11D661F829F2227B00DA11D621F739FD2
:10235000B00DA11D621F839FA00D611D221F749FE0
:102360003327A00D611D231F849F600D211D822F27
:10237000762F6A2F11249F5750409AF0F1F088234E
:102380004AF0EE0FFF1FBB1F661F771F881F91507B
:102390005040A9F79E3F510580F00C94E4110C9435
:1023A0002F125F3FE4F3983ED4F3869577956795B7
:1023B000B795F795E7959F5FC1F7FE2B880F911DA5
:1023C0009695879597F9089597F99F6780E870E04B
:1023D00060E008959FEF80EC089500240A9416169B
:1023E000170618060906089500240A941216130603
:1023F000140605060895092E0394000C11F4882391
:1024000052F0BB0F40F4BF2B11F460FF04C06F5FAC
:102410007F4F8F4F9F4F089557FD9058440F551F82
:1024200059F05F3F71F04795880F97FB991F61F056
:102430009F3F79F087950895121613061406551FCD
:10244000F2CF4695F1DF08C0161617061806991F39
:10245000F1CF86957105610508940895E894BB272E
:1024600066277727CB0197F9089581E090E0F894EB
:102470000C943A1212E0CCE6D2E004C0FE010E94B5
:0E24800020112196CD36D107C9F7F894FFCF71
:10248E00000000008E0BAF02D30C8D0BDE0BF60B93
:10249E00750B00000000E502AF02F10A3203220BB9
:1024AE00000B140B00000000A30C760CD30C8D0B4C
:1024BE006E0C5A0C4B0C000000003C0B380B0D0A36
:0624CE00005B005D000050
:00000001FF
