:100000000C947B010C94A5010C94A5010C94A50102
:100010000C94A5010C94A5010C94A5010C94A501C8
:100020000C94A5010C94A5010C94A5010C94A501B8
:100030000C94A5010C94A5010C94A5010C94A501A8
:100040000C94A5010C94A5010C94B60A0C94A5017E
:100050000C942A0B0C94000B0C94A5010C94A50194
:100060000C94A5010C94A5010C94F8070C94A5011F
:100070000C94A5010C94A5010C94A5010C94A50168
:100080000C94A5010C94A5010C94A5013E0941090D
:100090003409380958095809450949094F095309CC
:1000A00047656E3A206775617661323300426F6151
:1000B0007264204F70747300426F617264205365E4
:1000C00074757020446F6E6500426F6172642053D6
:1000D0006574757020537461727400504F535420CE
:1000E000456E6400206D56005B505D20736F6C613F
:1000F000722070616E656C2076616C75653A2000C7
:100100005B505D20626174746572792076616C75F4
:10011000653A20005B505D2061706F6765655F73B5
:100120007032313220736F6C617220697272616457
:1001300069616E63652076616C75653A2000204BBD
:10014000005B505D20424D453238302054656D7063
:10015000657261747572652076616C75653A200010
:100160005B505D20094572726F723A205072657360
:1001700073757265206F7574206F662072616E678B
:1001800065005B505D20424D45323830205072652D
:1001900073737572652076616C75653A20005B50EB
:1001A0005D20424D453238302048756D6964697470
:1001B000792076616C75653A20005B505D206E6F2A
:1001C000646520616464723A2000504F53542042A9
:1001D0006567696E0053616D706C6520456E6400E3
:1001E00053616D706C652053746172740052756E4A
:1001F0006E696E6720504F535400434D44204D6F3D
:10020000646520636D64004C656176696E672043A8
:100210004D44206D6F646500474F54204120434D8D
:10022000443A2000456E74657220434D44204D6F62
:100230006465005458204865617274626561742079
:10024000456E64005458204865617274626561743B
:100250002053746172740053616D706C6520545842
:1002600020456E640053616D706C652054582053B6
:10027000746172740000002100240027002A00002D
:10028000002200250028002B00000020002300266B
:100290000029000202020202020202040404040411
:1002A0000404040303030303030303010101010125
:1002B000010101010204081020408001020408101D
:1002C0002040800102040810204080010204081030
:1002D0002040800000000203000A0B00000000051F
:1002E00004090800000000000000000000000000F9
:1002F00000000000BF0E11241FBECFEFD0E4DEBF10
:10030000CDBF11E0A0E0B1E0EAE3FFE100E00BBF08
:1003100002C007900D92AE33B107D9F724E0AEE3E7
:10032000B1E001C01D92A838B207E1F711E0CBE7B8
:10033000D1E004C02197FE010E948D0FCA37D1077A
:10034000C9F70E949C0D0C949B0F0C940000FC01BB
:10035000918D828D981731F0828DE80FF11D858D7A
:1003600090E008958FEF9FEF0895FC01918D228D0D
:10037000892F90E0805C9F4F821B91098F73992792
:10038000089580E090E0892B21F00E94850781117B
:100390000DC080E090E0892B71F080E090E0892B27
:1003A00051F00E940000811104C008950E940000D5
:1003B000F0CF0C9400000895FC018681845F0895BD
:1003C000FC01611102C082850895613011F48185BC
:1003D0000895623011F480850895633011F48781A7
:1003E0000895643011F486850895653011F485858B
:1003F0000895663011F484850895673011F483857B
:100400000895683011F480890895693011F4878562
:1004100008956A3011F4818908956B3011F482894E
:1004200008950480F581E02DE60FF11D3C97808151
:10043000089508958FEE92E00C94B50180E090E06D
:100440000895CF9382E090E00E94630FC82F83E06D
:1004500090E00E94630F2C2F30E0A901582BCA01B5
:10046000CF910895EF92FF921F93CF93DF93CDB773
:10047000DEB763970FB6F894DEBF0FBECDBF20E1A5
:100480002B8321E02C839E838D836F8384E091E016
:100490009A838983188619861A861B861C861D8670
:1004A0001E861F868EEF9FEF998B888B1A8A1B8A78
:1004B0008EE70E949B0B1F818CE0810F90E00296DB
:1004C000892F0E94A80B8EE0810F0E94A80B8B81C0
:1004D0000E94A80B8C810E94A80B1B818C81180F95
:1004E000E12CF12C8F81845F90E0E816F9068CF402
:1004F0006E2DCE0101960E94E0010E94A80B6E2D88
:10050000CE0101960E94E001180F8FEFE81AF80A59
:10051000E9CF812F80950E94A80B8091BC02909119
:10052000BD02DC01ED91FC910680F781E02D09957B
:1005300063960FB6F894DEBF0FBECDBFDF91CF91AB
:100540001F91FF90EF9008950F931F93CF93DF9328
:10055000CDB7DEB7C659D1090FB6F894DEBF0FBECE
:10056000CDBF8C0185E692E00E948D0B61E086E1B3
:100570000E945909CE01019626E9FC0111922A95A3
:10058000E9F7F801B29626E1DC0101900D922A9577
:10059000E1F766E170E00E943202F801178E168ED4
:1005A00087E592E00E948D0B60E086E10E94590988
:1005B000CA56DF4F0FB6F894DEBF0FBECDBFDF9136
:1005C000CF911F910F910895CF92DF92EF92FF92FA
:1005D0000F931F93CF93DF93CDB7DEB7C659D109E1
:1005E0000FB6F894DEBF0FBECDBF0E94AA0A6B0102
:1005F0007C010E9421028C0184E492E00E948D0B18
:1006000061E084E10E945909CE01019626E9FC01CE
:1006100011922A95E9F71C830B83CD82DE82EF824B
:10062000F8862BE232E03A8729876AE070E00E9480
:10063000320283E392E00E948D0B60E084E10E942D
:100640005909CA56DF4F0FB6F894DEBF0FBECDBFB3
:10065000DF91CF911F910F91FF90EF90DF90CF909E
:100660000895CF93DF93EC010E94AA0A2A8D3B8D57
:10067000621B730B683B7B404CF00E94AA0A6A8F96
:100680007B8F8C8F9D8F81E090E002C080E090E0B6
:10069000DF91CF9108950F931F93CF93DF93EC01D8
:1006A0000E94AA0A0E891F89288D398DDC01CB0191
:1006B000801B910BA20BB30B80339547A105B105AD
:1006C00048F00E94AA0A6E8B7F8B888F998F81E0F9
:1006D00090E002C080E090E0DF91CF911F910F91F8
:1006E00008950F931F93CF938C0184E292E00E94B0
:1006F0008D0B8FEE92E00E946F070A97D1F78FEE75
:1007000092E00E94B501892BD1F38FEE92E00E9416
:100710006F07C82F88E192E00E94720B6C2F8FEE5A
:1007200092E00E948F078CE291E00E94600B8FEEB6
:1007300092E00E946F070A97D1F7C53439F487E039
:1007400092E0CF911F910F910C948D0BC03539F031
:10075000C435A9F68AEF91E00E948D0BD0CF8DEEC3
:1007600091E00E948D0BD8011296ED91FC911397A8
:100770000995C5CFCF93DF93EC018FE291E00E9402
:10078000600B0E94AA0A4AE00E94BA0B81E391E042
:100790000E94600B80EE91E00E948D0B0E94AA0ADD
:1007A0006EA37FA388A799A78BE292E09BA78AA755
:1007B0009DA78CA740E157E260E070E04EA75FA7DD
:1007C00068AB79AB24E630E03BAB2AAB22E330E008
:1007D0003DAB2CAB9FAB8EAB88A199A19DA38CA305
:1007E00085ED91E00E948D0B1F8E1E8ECE01DF9154
:1007F000CF910C94A4028AEC91E00E948D0B61E0F1
:1008000086E10E9459098AEB91E00E94720B0E94D6
:100810002102BC01990F880B990B97FF03C00E941E
:100820000F0C03C04AE00E94BA0B8CE291E00E94D8
:10083000600B8EE991E00E94720B82E390E00E94CF
:10084000FB0B84E391E00E94010C82E891E00E949E
:10085000720B4AE060E177E280E090E00E94BA0B20
:1008600086E391E00E94010C80E691E00E948D0BEE
:1008700081E491E00E94720B84E690E00E94FB0B01
:100880008EE391E00E948D0B84E191E00E94720B57
:100890008BE292E00E94FB0B8AE391E00E94010C44
:1008A00080E091E00E94720B8BE292E00E94FB0BD1
:1008B0008AE391E00E94010C88EE90E00E94720BA6
:1008C0008BE292E00E94FB0B84EE90E00E948D0B85
:1008D00060E086E10E9459098BED90E00C948D0B4D
:1008E0001F93CF93DF93EC010E94300C89EC90E0D2
:1008F0000E948D0B0E94300C8FEE92E09093BD020F
:100900008093BC0260E08DE10E94340A60E088E1DF
:100910000E94340A60E089E10E94340A87E78093EC
:10092000BE028091C7028F3FA1F510924401109240
:100930004301109211021092330210920F0281E0D3
:1009400080930E021092E90161E081E10E94590951
:1009500061E080E10E9459098091B9008E7F809307
:10096000B9008091B9008D7F8093B90088E48093AD
:10097000B80085E48093BC0084E896E09093400141
:1009800080933F0185E896E0909342018093410176
:100990004EC061E00E94590961E08091C7020E9447
:1009A000340A8091CA028F3F09F034C01FB7F8940F
:1009B00080913E01811127C0E7E9F2E08491E7EBE5
:1009C000F2E09491E82FF0E0EE0FFF1FEB58FD4F9F
:1009D000A591B491EC91E92321F461E084E00E94B7
:1009E000590961E084E00E94340A8CB580618CBDB5
:1009F0008CB580648CBD61E087E00E94340A61E0C0
:100A000085E00E94340A80913E018F5F80933E0111
:100A10001FBF0DC061E00E94340A61E08091C802EE
:100A20000E94340A60E08091C9020E94340A80ED7D
:100A30000E948809803609F0EDC066EB80EE0E94C6
:100A4000140D6CE271E080E090E00E94700A83EF88
:100A50000E94880980FF05C064E670E080E090E0B5
:100A6000F4CF88E80E94D3099093CC028093CB0204
:100A70008AE80E94D3099093CE028093CD028CE83D
:100A80000E94D3099093D0028093CF028EE80E94F7
:100A9000D3099093D2028093D10280E90E94D309B6
:100AA0009093D4028093D30282E90E94D309909359
:100AB000D6028093D50284E90E94D3099093D8028C
:100AC0008093D70286E90E94D3099093DA0280933B
:100AD000D90288E90E94D3099093DC028093DB025B
:100AE0008AE90E94D3099093DE028093DD028CE9AB
:100AF0000E94D3099093E0028093DF028EE90E9466
:100B0000D3099093E2028093E10281EA0E9488096E
:100B10008093E30281EE0E94D3099093E5028093D3
:100B2000E40283EE0E9488098093E60284EE0E942C
:100B30008809182F85EE0E94880940E1149F9001D2
:100B400011248F70282B3093E8022093E70286EE61
:100B50000E948809182F85EE0E94880990E1199F4C
:100B60009001112490E044E0959587954A95E1F72E
:100B7000822B932B9093EA028093E90287EE0E94E6
:100B800088098093EB028DEE8093ED028091EE0256
:100B90008F71806A8093EE028091EC02807C80935A
:100BA000EC0265E082EF0E94140D9091EC02692F37
:100BB000677040E2649F90011124892F8695869585
:100BC0008695877048E0849FB0011124622B732BB7
:100BD00097FB992790F9692B85EF0E94140D90914E
:100BE000ED02692F677080E2689F90011124892FC0
:100BF000869586958695877048E0849FB00111247C
:100C0000622B732B9295969596959370692B84EF32
:100C10000E94140D61E084E10E94340A61E086E1E3
:100C20000E94340A0E94210299A388A364E670E01E
:100C300080E090E00E94700A88EB90E0DF91CF9115
:100C40001F910C948D0B0E94300C8DEA90E00E9455
:100C50008D0B80EA90E00C948D0BFC01848DDF01FC
:100C6000A80FB11DA35ABF4F2C91848D90E001961F
:100C70008F739927848FA689B7892C93A089B1890E
:100C80008C9180648C93938D848D981306C0028818
:100C9000F389E02D80818F7D8083089508958CBD38
:100CA0009DBD089585ED8093BC008091BC0084FDBE
:100CB000FCCF10920F0208954091A601262F30E03C
:100CC000240F311D21323105DCF420910F02243034
:100CD000C9F4FC0180E090E0861758F43091A60139
:100CE0002191DC01AA57BE4FA30FB11D2C93019691
:100CF000F3CF8091A601680F6093A60180E008956C
:100D000081E0089582E00895089508950895E0919E
:100D1000440180914301E81730F4F0E0E753FE4FBF
:100D2000808190E008958FEF9FEF089590914401A6
:100D300080914301981750F4E92FF0E0E753FE4FFC
:100D4000208130E09F5F9093440102C02FEF3FEF7E
:100D5000C90108958091430190E020914401821BD4
:100D600091090895CF92DF92EF92FF920F931F9314
:100D7000CF93DF937C01CB018A01209110022223C3
:100D800089F0EB016B01C40ED51ECC15DD0569F0B1
:100D90006991D701ED91FC910190F081E02DC7019F
:100DA0000995F3CF642F0E945C06C801DF91CF91B3
:100DB0001F910F91FF90EF90DF90CF900895CF9308
:100DC000DF931F92CDB7DEB76983209110022223F3
:100DD000D1F020913302203240F021E030E0FC01DC
:100DE0003383228380E090E015C080911102E82FC8
:100DF000F0E0EE5EFD4F998190838F5F809311024A
:100E00008093330205C061E0CE0101960E945C062A
:100E100081E090E00F90DF91CF9108953FB7F89473
:100E20008091820190918301A0918401B09185010C
:100E300026B5A89B05C02F3F19F00196A11DB11D35
:100E40003FBFBA2FA92F982F8827820F911DA11D70
:100E5000B11DBC01CD0142E0660F771F881F991FAD
:100E60004A95D1F70895CF92DF92EF92FF920F93B8
:100E70001F93CF93DF936C017A018B01C0E0D0E028
:100E8000CE15DF0581F0D8016D918D01D601ED9170
:100E9000FC910190F081E02DC6010995892B11F09C
:100EA0002196EECF7E01C701DF91CF911F910F9167
:100EB000FF90EF90DF90CF90089580E090E008954C
:100EC000FC01538D448D252F30E0842F90E0821B50
:100ED000930B541710F0CF96089501970895FC01D5
:100EE000918D828D981761F0828DDF01A80FB11D61
:100EF0005D968C91928D9F5F9F73928F90E0089585
:100F00008FEF9FEF08950E94960F8FEE92E00E9460
:100F1000B50121E0892B09F420E0822F0895EF929A
:100F2000FF920F931F93CF93DF93EC0181E0888FA3
:100F30009B8D8C8D981305C0E889F989808185FD8A
:100F400024C0F62E0B8D10E00F5F1F4F0F7311277B
:100F5000E02E8C8DE8120CC00FB607FCFACFE889A2
:100F6000F989808185FFF5CFCE010E942D06F1CF52
:100F70008B8DFE01E80FF11DE35AFF4FF0820B8FBE
:100F8000EA89FB898081806207C0EE89FF896083DE
:100F9000E889F98980818064808381E090E0DF9135
:100FA000CF911F910F91FF90EF900895CF93DF9312
:100FB000EC01888D8823C9F0EA89FB89808185FD51
:100FC00005C0A889B9898C9186FD0FC00FB607FCB2
:100FD000F5CF808185FFF2CFA889B9898C9185FFF3
:100FE000EDCFCE010E942D06E7CFDF91CF9108957E
:100FF0001F920F920FB60F9211240BB60F922F93E0
:101000003F934F935F936F937F938F939F93AF9390
:10101000BF93EF93FF938091B900887F803609F4E6
:101020009CC068F5883209F45BC090F4803109F403
:1010300054C038F4882309F4F6C0883009F44DC050
:10104000F6C0883109F44CC0803209F45DC0EFC0AD
:10105000803409F468C048F4803309F455C08833FB
:1010600009F0E5C080930D02D8C0803509F44FC067
:10107000883509F45DC0883409F0D9C0D6C08839F4
:1010800009F4C7C0A8F4883709F467C038F4883673
:1010900009F463C0803709F460C0C9C0883809F416
:1010A000B8C0803909F45FC0803809F0C0C05BC0A7
:1010B000803B09F486C038F4803A09F466C0883A67
:1010C00009F47FC0B4C0803C09F4A7C0883C09F48F
:1010D000A4C0883B09F48AC0AAC08091EA0110C06C
:1010E00090910C0280910B02981770F5E0910C0220
:1010F00081E08E0F80930C02F0E0E551FE4F80817D
:101100008093BB0085EC86C080930D028EC0E09179
:101110000C0281E08E0F80930C028091BB00F0E006
:10112000E551FE4F808390910C0280910B026EC0BE
:10113000E0910C0281E08E0F80930C028091BB0045
:10114000F0E0E551FE4F808380910E0281116DC069
:1011500081E08093E90184EA61C083E080930F021B
:101160001092C801CFCF8091C801803208F051C0E1
:10117000E091C80181E08E0F8093C8018091BB008F
:10118000F0E0E855FE4F8083BDCF85EC8093BC0036
:1011900010920F028091C801803230F4E091C801B2
:1011A000F0E0E855FE4F10826091C80170E0E091D8
:1011B0004101F091420188EA91E009951092C8013D
:1011C00036C084E080930F021092A7011092A6010E
:1011D000E0913F01F091400109958091A6018111B4
:1011E00005C081E08093A60110928601E091A701DD
:1011F00081E08E0F8093A701F0E0EA57FE4F8081D7
:101200008093BB009091A7018091A601981708F4E4
:1012100079CF85E88093BC000AC085EC8093BC0040
:1012200010920F0204C010920D020E945206FF910C
:10123000EF91BF91AF919F918F917F916F915F914E
:101240004F913F912F910F900BBE0F900FBE0F90BB
:101250001F90189590E0FC013297EA30F10540F5B7
:10126000EA5BFF4F0C948D0F809180008F7703C055
:10127000809180008F7D80938000089584B58F7762
:1012800002C084B58F7D84BD08958091B0008F77B2
:1012900003C08091B0008F7D8093B000089580914D
:1012A00090008F7703C0809190008F7D8093900095
:1012B00008951F93CF93DF93282F30E0F901ED526B
:1012C000FD4F8491F901ED54FD4FD491F901ED5694
:1012D000FD4FC491CC23C1F0162F81110E942A0921
:1012E000EC2FF0E0EE0FFF1FE158FD4FA591B491F8
:1012F0009FB7F894111104C08C91D095D82302C0E7
:10130000EC91DE2BDC939FBFDF91CF911F9108956D
:10131000CF93C82F8091C7028F3F11F58091BE02F5
:1013200091E0909310028093320210921102109279
:1013300033026C2F84E392E00E94DF0681E00E947A
:10134000B80C61E08091BE020E945A0D10924401D7
:101350008093430184E392E00E949606C82F20C048
:101360008091CA028F3F21F482E591E00E944F06EE
:1013700060E08091C7020E9459098C2F80680E940A
:10138000580C80E00E94580CC82F61E08091C70281
:101390000E9459098091CA028F3F11F40E944E06A3
:1013A0008C2FCF910895CF93DF93C82F8091C702E0
:1013B0008F3F61F58091BE0291E09093100280937F
:1013C000320210921102109233026C2F84E392E0E9
:1013D0000E94DF0681E00E94B80C62E08091BE02AC
:1013E0000E945A0D109244018093430184E392E0DD
:1013F0000E949606C82F84E392E00E94960620E0A1
:1014000030E03C2FE901C82BD92B29C08091CA02BA
:101410008F3F21F482E591E00E944F0660E08091C9
:10142000C7020E9459098C2F80680E94580C80E0E6
:101430000E94580CC82F80E00E94580C2C2F30E0DE
:10144000322F2227E901C82B61E08091C7020E9458
:1014500059098091CA028F3F11F40E944E069C2FB9
:101460008D2FDF91CF910895CF93DF9390E0FC0112
:10147000ED54FD4F2491FC01ED56FD4F84918823DE
:1014800061F190E0880F991FFC01EB58FD4FC59169
:10149000D491FC01E158FD4FA591B491611109C0AF
:1014A0009FB7F8948881209582238883EC912E231E
:1014B0000BC0623061F49FB7F8948881322F309569
:1014C00083238883EC912E2B2C939FBF06C08FB76C
:1014D000F894E8812E2B28838FBFDF91CF91089558
:1014E0008F929F92AF92BF92CF92DF92EF92FF9234
:1014F0006B017C010E940E074B015C01C114D104F9
:10150000E104F104F1F00E940E07DC01CB0188191F
:101510009909AA09BB09883E9340A105B10570F35A
:1015200021E0C21AD108E108F10888EE880E83E0B4
:10153000981EA11CB11CC114D104E104F10419F7D7
:10154000DDCFFF90EF90DF90CF90BF90AF909F9056
:101550008F9008952FB7F89460917E0170917F016C
:1015600080918001909181012FBF08951F920F9269
:101570000FB60F9211242F933F938F939F93AF93A6
:10158000BF9380917E0190917F01A0918001B091E5
:10159000810130917D0123E0230F2D3720F4019646
:1015A000A11DB11D05C026E8230F0296A11DB11D86
:1015B00020937D0180937E0190937F01A093800111
:1015C000B09381018091820190918301A091840167
:1015D000B09185010196A11DB11D80938201909368
:1015E0008301A0938401B0938501BF91AF919F9136
:1015F0008F913F912F910F900FBE0F901F901895D4
:101600001F920F920FB60F9211240BB60F922F93C9
:101610003F934F935F936F937F938F939F93AF937A
:10162000BF93EF93FF938FEE92E00E942D06FF9100
:10163000EF91BF91AF919F918F917F916F915F914A
:101640004F913F912F910F900BBE0F900FBE0F90B7
:101650001F9018951F920F920FB60F9211240BB680
:101660000F922F938F939F93EF93FF93E091FF023D
:10167000F09100038081E0910503F091060382FD63
:1016800012C09081809108038F5F8F7320910903AE
:10169000821751F0E0910803F0E0E151FD4F958F82
:1016A0008093080301C08081FF91EF919F918F91FA
:1016B0002F910F900BBE0F900FBE0F901F9018959B
:1016C000009769F0FC0101900020E9F73197AF0124
:1016D000481B590BBC018FEE92E00C94330780E05D
:1016E00090E008950F931F93CF93DF938C01C0E098
:1016F000D0E0F801EC0FFD1F6491662341F08FEEFE
:1017000092E00E948F07892B11F02196F2CFCE0133
:10171000DF91CF911F910F910895CF93DF930E9496
:10172000720BEC018CE291E00E94600B8C0F9D1F0C
:10173000DF91CF910895A091BC02B091BD02ED91CF
:10174000FC9111970190F081E02D682FCD01099453
:10175000CF9393E8980F923020F0982F9D7F91318E
:1017600031F4C82F8DE70E949B0B80E28C27CF912C
:101770000C949B0B8F929F92AF92BF920F931F93EB
:10178000CF93DF93CDB7DEB7A1970FB6F894DEBF46
:101790000FBECDBF19A2423008F44AE08E010F5DA2
:1017A0001F4F842E912CA12CB12CA50194010E94D5
:1017B0006B0FE62FB901CA0101501109EA3014F488
:1017C000E05D01C0E95CD801EC93232B242B252B91
:1017D00061F7C8010E94600BA1960FB6F894DEBFB6
:1017E0000FBECDBFDF91CF911F910F91BF90AF90F2
:1017F0009F908F900895BC0180E090E04AE00C94A7
:10180000BA0BCF93DF930E94600BEC018CE291E066
:101810000E94600B8C0F9D1FDF91CF910895CF9296
:10182000DF92EF92FF92CF93DF936B017C016DE229
:101830008FEE92E00E948F07EC0166277727CB019D
:101840006C197D098E099F094AE00E94BA0B8C0F22
:101850009D1FDF91CF91FF90EF90DF90CF90089583
:10186000EFEEF2E0A089B18982E08C93A485B58582
:101870001C92A685B7858FEC8C93108EA489B589B0
:1018800086E08C93A289B3898C9180618C93A28924
:10189000B3898C9188608C93A289B3898C9180687C
:1018A0008C930288F389E02D80818F7D8083089559
:1018B000CF92DF92EF92FF920F931F93CF93DF931C
:1018C0009091CA029F3F39F48EBD00000DB407FE0F
:1018D000FDCF8EB544C0E82EF12CC7E0D0E001E08A
:1018E00010E0FF0C60E08091CA020E945909B80123
:1018F0000C2E01C0660F0A94EAF76E218091C8028F
:101900000E94590961E08091CA020E945909209100
:10191000C90230E0F901ED52FD4F8491F901ED5417
:10192000FD4FD490F901ED56FD4FC490CC2071F0DD
:1019300081110E942A09EC2DF0E0EE0FFF1FE757FE
:10194000FD4FA591B491EC91DE2229F4219708F086
:10195000C8CF8F2D04C08F2D8160F82EF7CFDF9177
:10196000CF911F910F91FF90EF90DF90CF9008954E
:10197000282F30913302313208F04AC080910F0293
:101980008111FCCF9091320242E040930F022093EC
:101990000E022FEF20930D0210920C0230930B02D7
:1019A000E2E1F2E0ABEEB1E020E0321721F041914C
:1019B0004D932F5FFACF1092EA012091EA01990F1F
:1019C000922B9093EA019091E901913061F4109289
:1019D000E9019091EA019093BB009091BC0093FDC6
:1019E000F8CF95EC01C095EE9093BC0090910F025A
:1019F0009230E1F390910D029F3F79F080910D02BA
:101A0000803241F080910D02803331F084E005C0D6
:101A100081E003C082E001C083E0109211021092C5
:101A20003302109210020895CF93DF93D82FC62F60
:101A30008091C7028F3FD1F48091BE0291E09093D4
:101A400010028093320210921102109233026D2F15
:101A500084E392E00E94DF066C2F84E392E00E9410
:101A6000DF0681E0DF91CF910C94B80C8091CA021F
:101A70008F3F21F482E591E00E944F0660E0809163
:101A8000C7020E9459098D2F8F770E94580C8C2F06
:101A90000E94580C61E08091C7020E945909809110
:101AA000CA028F3F21F4DF91CF910C944E06DF9153
:101AB000CF91089590910F029111FCCF91E09093F6
:101AC0000F0290930E022FEF20930D0210920C0242
:101AD000260F20930B029093EA019091EA01880F60
:101AE000892B8093EA018091E901813061F41092A1
:101AF000E9018091EA018093BB008091BC0083FDE5
:101B0000F8CF85EC01C085EE8093BC0080910F0278
:101B10008130E1F380910C02861710F460910C0281
:101B2000ABEEB1E0E9ECF1E080E0861721F09D91A9
:101B300091938F5FFACF0895789484B5826084BDC5
:101B400084B5816084BD85B5826085BD85B58160C1
:101B500085BD80916E00816080936E00109281003F
:101B600080918100826080938100809181008160FA
:101B700080938100809180008160809380008091BB
:101B8000B10084608093B1008091B0008160809347
:101B9000B0008091910082608093910080919100CB
:101BA000816080939100809190008160809390008B
:101BB00080917A00846080937A0080917A008260BC
:101BC00080937A0080917A00816080937A0080917E
:101BD0007A00806880937A001092C10083E296E0D8
:101BE00090934E0180934D0180E794E090934601DD
:101BF000809345018BEF93E09093480180934701D8
:101C000084EA92E09093500180934F018EE192E03C
:101C100090935201809351018AEB93E090934A0193
:101C2000809349018BE493E0909354018093530196
:101C300081E793E090934C0180934B018AE192E01D
:101C4000909356018093550181E393E0909358015E
:101C50008093570184EE92E090935A01809359014A
:101C60001092640110926301109266011092650156
:101C700010925B0110925C0110925D0110925E0166
:101C800084E090E0909368018093670110926A016C
:101C90001092690110926B0110926C0110926D010B
:101CA00010926E011092700110926F0110927201E9
:101CB00010927101109273011092740110927501CB
:101CC00010927601109278011092770110927A01A9
:101CD0001092790110927C0110927B010E942306E0
:101CE000E0914501F091460185E491E00995E0918C
:101CF0004701F09148010995E0915301F091540199
:101D000085E491E00995892B39F0E0914901F09142
:101D10004A0185E491E00995E0915101F091520169
:101D200085E491E00995892B39F0E0914F01F0911C
:101D3000500185E491E00995E0915501F09156013B
:101D400085E491E00995892B39F0E0914B01F09100
:101D50004C0185E491E00995E0915701F09158011B
:101D600085E491E00995892B39F0E0915901F091D2
:101D70005A0185E491E009950E94C101BDCFE4E3D9
:101D8000F2E01382128288EE93E0A0E0B0E0848358
:101D90009583A683B7832CE031E031832083EFEE77
:101DA000F2E01382128284839583A683B7838EE147
:101DB00091E09183808385EC90E09587848784EC23
:101DC00090E09787868780EC90E0918B808B81EC08
:101DD00090E0938B828B82EC90E0958B848B86ECE9
:101DE00090E0978B868B118E128E138E148EA0E44A
:101DF000B2E01A961C921A9719961C9219971C9683
:101E00001C921C971D961C921D9717961C92179753
:101E100018961C92189715961C9215978EE492E0CE
:101E20008D939C93F093BD02E093BC02AEEBB2E0C5
:101E30008FEF19968C9319971A968C931A971B9675
:101E40008C931B971C968C93ACE8B3E01A961C926B
:101E50001A9719961C9219971C961C921C971D96FE
:101E60001C921D9717961C92179718961C921897FC
:101E700015961C9215978AE993E08D939C93F093A5
:101E80000904E0930804AAE0B4E01A961C921A9799
:101E900019961C9219971C961C921C971D961C92C1
:101EA0001D9717961C92179718961C9218971596BF
:101EB0001C92159788E194E08D939C93F09387048E
:101EC000E09386040895F999FECF92BD81BDF89AFA
:101ED000992780B50895A1E21A2EAA1BBB1BFD010C
:101EE0000DC0AA1FBB1FEE1FFF1FA217B307E407F9
:101EF000F50720F0A21BB30BE40BF50B661F771F51
:101F0000881F991F1A9469F7609570958095909530
:101F10009B01AC01BD01CF010895EE0FFF1F00240E
:101F2000001C0BBE0790F691E02D099481E090E033
:0A1F3000F8940C949B0FF894FFCF77
:101F3A0000000000E001DC0100000000DF06B2063C
:101F4A005D078606AA0696068706000000008F0728
:101F5A0033076007D607B5016F07A7010D0A005BB3
:0E1F6A00005D2000250020506100206D560013
:00000001FF
