:100000000C94F5010C941D020C941D020C94E7074E
:100010000C94E7070C94E7070C941D020C941D0246
:100020000C941D020C941D020C941D020C941D02D4
:100030000C941D020C941D020C941D020C941D02C4
:100040000C943F0F0C941D020C94AF0F0C94890F6D
:100050000C941D020C941D020C941D020C941D02A4
:100060000C9461080C941D0247656E3A206472611D
:10007000676F6E667275697400426F617264204FBB
:1000800070747300426F61726420536574757020E0
:10009000446F6E6500426F617264205365747570C1
:1000A000205374617274005B505D206E6F64652034
:1000B000616464723A200020634B005B505D206DE8
:1000C000706C313135613274315F74656D70657299
:1000D00061747572655F63656E74696B2076616CBF
:1000E00075653A20005B505D20436865636B206D49
:1000F000706C313135613274315F74656D70657269
:1001000061747572655F63656E74696B2076616C8E
:100110007565005B505D20094572726F723A206808
:100120006968363133312068756D69646974792086
:100130006F7574206F662072616E67650025005BC5
:10014000505D20686968363133315F68756D696468
:100150006974795F7063742076616C75653A20000C
:100160005B505D20436865636B2068696836313396
:10017000315F68756D69646974795F706374207646
:10018000616C756500205061005B505D206D706C86
:10019000313135613274315F7072657373757265B8
:1001A0005F70612076616C75653A20005B505D2060
:1001B000436865636B206D706C3131356132743129
:1001C0005F70726573737572655F70612076616CC4
:1001D0007565005B505D20094572726F723A20614F
:1001E000706F67656520697272616469616E6365CD
:1001F000206F7574206F662072616E676500206DD8
:1002000056005B505D2061706F6765655F7370328B
:10021000313520697272616469616E63652076614F
:100220006C75653A20005B505D20436865636B2008
:1002300061706F6765655F53503231355F69727207
:10024000616469616E63652076616C756500206D1F
:1002500056005B505D20626174746572792076612E
:100260006C75653A20005B505D20436865636B20C8
:10027000626174746572792076616C7565005B509B
:100280005D20094552524F523A20736F6C617220C3
:1002900070616E656C2076616C7565206F75742079
:1002A0006F662072616E676500206D56005B505D61
:1002B00020736F6C61722070616E656C2076616C6A
:1002C00075653A20005B505D20636865636B207341
:1002D0006F6C61722070616E656C2073656E736FF8
:1002E000722076616C756500504F535420456E64E2
:1002F00000504F535420426567696E0053616D7022
:100300006C6520456E640053616D706C652053749C
:100310006172740052756E6E696E6720504F53544F
:1003200000434D44204D6F646520636D6400474F6A
:1003300054204120434D443A2000456E746572209C
:10034000434D44204D6F64650054582048656172E8
:10035000746265617420456E64005458204865617C
:100360007274626561742053746172740053616DBC
:10037000706C6520545820456E640053616D706C3C
:1003800065205458205374617274000000000024EA
:100390000027002A000000000800020100000304FA
:1003A00007000000000000000000000000230026FD
:1003B00000290000000000250028002B0004040490
:1003C00004040404040202020202020303030303FE
:1003D00003010204081020408001020408102001DB
:1003E00002040810200079126D1211241FBECFEFF5
:1003F000D8E0DEBFCDBF11E0A0E0B1E0E4E4FBE275
:1004000002C005900D92A634B107D9F725E0A6E405
:10041000B1E001C01D92AA32B207E1F711E0C4EFCA
:10042000D1E004C02197FE010E947A13C33FD10797
:10043000C9F70E9453110C9495150C94000080E0AC
:1004400090E0892B29F00E94730C81110C9400001C
:100450000895FC018681845F0895FC01611102C04A
:1004600082850895613011F481850895623011F418
:1004700080850895633011F487810895643011F404
:1004800086850895653011F485850895663011F4E8
:1004900084850895673011F483850895683011F4D8
:1004A00080890895693011F4878508956A3011F4C0
:1004B000818908956B3011F4828908950480F58153
:1004C000E02DE60FF11D3C978081089520917F0279
:1004D000309180022817390771F49091CA018091F8
:1004E000C901981741F0E091CA01F0E0E757FE4FCB
:1004F000808190E008958FEF9FEF089508951F93F6
:10050000CF93DF93DC015C968D919C915D97009772
:1005100039F421E030E013963C932E9312973BC0C0
:100520005196ED91FC91529750962C915097322F05
:1005300030951FB75E964C915E97742F727041FD97
:100540006095F8944081772311F0422B01C043233A
:100550004083EC012197F1F748E0508160FF02C031
:10056000522B01C053235083EC012197F1F766957C
:10057000415099F78081772319F08323808302C04B
:10058000282B20831FBF5C968D919C915D970197CE
:10059000F1F781E090E0DF91CF911F9108952091D4
:1005A0007F02309180022817390771F48091C901C8
:1005B0002091CA0190E0805C9F4F821B910960E40A
:1005C00070E00E943013089580E090E0089520913B
:1005D0007F023091800228173907B9F49091CA013F
:1005E0008091C901981789F0E091CA01F0E0E757BE
:1005F000FE4F80812091CA0130E02F5F3F4F2F7363
:1006000033272093CA0190E008958FEF9FEF08955C
:1006100085ED8093BC008091BC0084FDFCCF1092DE
:100620005A02089540916601262F30E0240F311DB3
:1006300021323105DCF420915A022430C9F4FC0146
:1006400080E090E0861758F4309166012191DC013A
:10065000AA5BBE4FA30FB11D2C930196F3CF8091DF
:100660006601680F6093660180E0089581E0089557
:1006700082E0089508950895E09113028091120296
:10068000E81730F4F0E0EC5EFD4F808190E00895D3
:100690008FEF9FEF089590911302809112029817A7
:1006A00050F4E92FF0E0EC5EFD4F208130E09F5FD9
:1006B0009093130202C02FEF3FEFC901089581E824
:1006C00092E00E944B0308958091120290E02091E5
:1006D0001302821B91090895CF92DF92EF92FF924D
:1006E0000F931F93CF93DF937C01CB018A0120915D
:1006F0005B02222389F0EB016B01C40ED51ECC15E1
:10070000DD0569F06991D701ED91FC910190F081CF
:10071000E02DC7010995F3CF642F0E941203C80191
:10072000DF91CF911F910F91FF90EF90DF90CF90CD
:100730000895CF93DF931F92CDB7DEB769832091E1
:100740005B022223D1F020917E02203240F021E092
:1007500030E0FC013383228380E090E015C080917B
:100760005C02E82FF0E0E35AFD4F998190838F5FA0
:1007700080935C0280937E0205C061E0CE01019609
:100780000E94120381E090E00F90DF91CF910895D5
:10079000089580E090E0089580E090E00895AF92A1
:1007A000BF92CF92DF92EF92FF920F931F93CF935E
:1007B000DF93EC0181E080935B0280E680937D0211
:1007C00010925C0210927E0264E081E892E00E9446
:1007D00099030E94AB1068E070E080E690E00E9410
:1007E00049110E945F03A82E0E945F03B82E0E9449
:1007F0005F03C82E0E945F03E82E0E945F03D82E7D
:100800000E945F03082F0E945F03F82E0E945F037F
:10081000182F6B2D70E07A29072E000C880B990B8E
:100820000E94971420E030E040E05EE30E94231530
:10083000688379838A839B836E2D70E07C29072EE1
:10084000000C880B990B0E94971420E030E040E0E8
:1008500059E30E9423156C837D838E839F83602FD1
:1008600070E07D29072E000C880B990B0E949714CD
:1008700020E030E040E858E30E942315688779873C
:100880008A879B87612F70E07F297695679576959B
:100890006795072E000C880B990B0E94971420E097
:1008A00030E040E854E30E9423156C877D878E87F3
:1008B0009F87DF91CF911F910F91FF90EF90DF9075
:1008C000CF90BF90AF9008958F929F92AF92BF92BA
:1008D000CF92DF92EF92FF9281E080935B0288E4F7
:1008E00080937D0210925C0210927E0263E070E0C1
:1008F00088E490E00E9449119091120280911302C5
:100900009817C9F081E892E00E944B036C01990F9F
:10091000EE08FF0888249C2CAD2CBE2C81E892E0C8
:100920000E944B036C01990FEE08FF08C80CD91CFC
:10093000EA1CFB1C06C08BE2C82E82E0D82EE12CFC
:10094000F12C0E94AB10C701B6010E94951420E063
:1009500030E44CE955E40E94231520E03EEF4FEFD0
:1009600056E40E94ED130E946614FF90EF90DF9012
:10097000CF90BF90AF909F908F9008954F925F92CD
:100980006F927F928F929F92AF92BF92CF92DF929F
:10099000EF92FF920F931F93CF93DF938C016B0124
:1009A0007A01D1E0D0935B02C0E6C0937D02109241
:1009B0005C0210927E0262E181E892E00E9499035B
:1009C00060E081E892E00E9499030E94AB1065E02C
:1009D00070E080E090E00E94550ED0935B02C093DF
:1009E0007D0210925C0210927E0260E081E892E04B
:1009F0000E9499030E94AB1064E070E080E690E0F2
:100A00000E9449110E945F03D82F0E945F03C82FE4
:100A10000E945F03B82E0E945F036B2D70E0762F5B
:100A20006627682B26E0769567952A95E1F780E0A2
:100A300090E00E9495144B015C01F80124853585F6
:100A4000468557850E942315F8012481358146810A
:100A500057810E9481132B013C016C2F70E07D2B8C
:100A6000EB0136E0D695C7953A95E1F7BE0180E0F7
:100A700090E00E9495149B01AC01C301B2010E9459
:100A80002315F80120813181428153810E94811315
:100A90002B013C01F8012085318542855385C50134
:100AA000B4010E9423159B01AC01C301B2010E9455
:100AB000811328E830E242E85DE30E94231520E03C
:100AC00030E048E452E40E948113F60160837183B0
:100AD0008283938320E030E049EF53E4C501B40101
:100AE0000E94801323E333E34BEA50EC0E94ED13A2
:100AF00020E030E048EC51E40E948113F70160836C
:100B0000718382839383DF91CF911F910F91FF9027
:100B1000EF90DF90CF90BF90AF909F908F907F909D
:100B20006F905F904F900895CF93DF93CDB7DEB76E
:100B300028970FB6F894DEBF0FBECDBFAE014F5F52
:100B40005F4FBE016B5F7F4F8BE093E00E94BE045E
:100B500069817A818B819C8123E333E948E853E4FE
:100B60000E94811320E030E048EC52E40E942315FB
:100B70000E946614CB0128960FB6F894DEBF0FBE14
:100B8000CDBFDF91CF910895EF92FF921F93CF9346
:100B9000DF93CDB7DEB763970FB6F894DEBF0FBE15
:100BA000CDBF20E12B8321E02C839E838D836F8337
:100BB00084E091E09A838983188619861A861B86B9
:100BC0001C861D861E861F868EEF9FEF998B888B55
:100BD0001A8A1B8A8EE70E948C101F818CE0810F7D
:100BE00090E00296892F0E9499108EE0810F0E945A
:100BF00099108B810E9499108C810E9499101B8101
:100C00008C81180FE12CF12C8F81845F90E0E81625
:100C1000F9068CF46E2DCE0101960E942D020E94E1
:100C200099106E2DCE0101960E942D02180F8FEFA4
:100C3000E81AF80AE9CF812F80950E9499108091D7
:100C4000090390910A03DC01ED91FC910680F78184
:100C5000E02D099563960FB6F894DEBF0FBECDBFA9
:100C6000DF91CF911F91FF90EF90089585E10E9451
:100C70003E0EBC01990F880B990B0E94971420E03F
:100C800030E44CE955E40E94231520E030EC4FE7B6
:100C900054E40E94ED130E945F14CB0108950F935A
:100CA0001F93CF93DF93CDB7DEB7C659D1090FB6E7
:100CB000F894DEBF0FBECDBF8C018BE793E00E949E
:100CC0007E10CE01019626E9FC0111922A95E9F7E2
:100CD000F801B29628E1DC0101900D922A95E1F726
:100CE00068E170E00E94C405F801178E168E8DE64B
:100CF00093E00E947E10CA56DF4F0FB6F894DEBF15
:100D00000FBECDBFDF91CF911F910F9108958F92AC
:100D10009F92AF92BF92CF92DF92EF92FF92CF93CA
:100D2000DF93EC010E94330F6B017C018A8C9B8C5A
:100D3000AC8CBD8C0E94330F683A7344854091059A
:100D400080F4C818D90888EBC8168BE0D8064CF098
:100D50000E94330F6A8F7B8F8C8F9D8F81E090E094
:100D600002C080E090E0DF91CF91FF90EF90DF90A4
:100D7000CF90BF90AF909F908F9008950F931F9347
:100D8000CF93DF93EC010E94330F0E891F89288DCA
:100D9000398DDC01CB01801B910BA20BB30B80338F
:100DA0009547A105B10548F00E94330F6E8B7F8BEC
:100DB000888F998F81E090E002C080E090E0DF9121
:100DC000CF911F910F9108958BE293E00C94670CE3
:100DD0000F931F93CF938C018AE393E00E947E10C0
:100DE0008BE293E00E94450C0A97D1F78BE293E0E7
:100DF0000E94670C892BD1F38BE293E00E94450C93
:100E0000C82F8EE293E00E9463106C2F8BE293E078
:100E10000E947F0C8EE391E00E9451108BE293E0E0
:100E20000E94450C0A97D1F7C534A1F0C03539F0BE
:100E3000C435E1F681E293E00E947E10D7CF84E1D1
:100E400093E00E947E10D8011296ED91FC911397C9
:100E50000995CCCFCF911F910F9108950F931F93B8
:100E6000CF93DF93CDB7DEB728970FB6F894DEBFE8
:100E70000FBECDBF8C0181E491E00E9451100E9411
:100E8000330F4AE00E94EE0C83E491E00E9451107F
:100E900087E093E00E947E100E94330FF80166A362
:100EA00077A380A791A70E943606F80193A782A78F
:100EB0008EE00E943E0EBC01990F880B990B0E9498
:100EC00097149B01AC010E9481132AE137E64CE99B
:100ED00050E40E9423150E945F14F80175A764A7CF
:100EE000AE014F5F5F4FBE016B5F7F4F8BE193E0C1
:100EF0000E94BE046D817E818F81988520E030E064
:100F00004AE754E40E9423150E946614F80166AB78
:100F100077AB80AF91AF0E949405F80193AB82ABA1
:100F20000E948F0E6091EC037091ED038091EE03AF
:100F30009091EF030E945F14F80175AB64AB0E94BF
:100F40006404F80166A777A780AB91AB8CEF92E0C1
:100F50000E947E10F801178E168EC8010E944F065F
:100F600028960FB6F894DEBF0FBECDBFDF91CF91AC
:100F70001F910F9108950E945B0D89E790E00E94F8
:100F80007E1088E690E00C947E10FC01848DDF01D9
:100F9000A80FB11DA35ABF4F2C91848D90E00196EC
:100FA0008F739927848FA689B7892C93A089B189DB
:100FB0008C91837080648C93938D848D981306C07C
:100FC0000288F389E02D80818F7D808308951F92B0
:100FD0000F920FB60F9211242F933F934F935F936D
:100FE0006F937F938F939F93AF93BF93EF93FF93F1
:100FF000E0917F02F0918002309709F451C0968D04
:10100000A685B785858591FF04C09C91892329F425
:1010100047C09C91892309F043C0A389B4899C915E
:101020008589809589238C93868997890197F1F723
:10103000608D718DA685B785558538E020E0CB01A0
:101040000197F1F7822F90E095958795282F4C9185
:10105000452309F02068315091F7868D81FD209558
:101060008091C90190E001968F7399273091CA0150
:10107000381749F0A091C901B0E0A757BE4F2C9393
:101080008093C90103C0868D8160868F828D938D88
:101090000197F1F7A389B4899C918589892B8C9359
:1010A000FF91EF91BF91AF919F918F917F916F9140
:1010B0005F914F913F912F910F900FBE0F901F9016
:1010C00018951F920F920FB60F9211242F933F93F2
:1010D0004F935F936F937F938F939F93AF93BF9340
:1010E000EF93FF938091B900887F803609F49CC00C
:1010F00068F5883209F45BC090F4803109F454C07B
:1011000038F4882309F4F6C0883009F44DC0F6C0DD
:10111000883109F44CC0803209F45DC0EFC08034DE
:1011200009F468C048F4803309F455C0883309F0E5
:10113000E5C080935802D8C0803509F44FC0883587
:1011400009F45DC0883409F0D9C0D6C0883909F4E3
:10115000C7C0A8F4883709F467C038F4883609F4A2
:1011600063C0803709F460C0C9C0883809F4B8C0CA
:10117000803909F45FC0803809F0C0C05BC0803B93
:1011800009F486C038F4803A09F466C0883A09F454
:101190007FC0B4C0803C09F4A7C0883C09F4A4C057
:1011A000883B09F48AC0AAC08091350210C0909192
:1011B000570280915602981770F5E091570281E02E
:1011C0008E0F80935702F0E0EA5CFD4F80818093A0
:1011D000BB0085EC86C0809358028EC0E091570218
:1011E00081E08E0F809357028091BB00F0E0EA5CB3
:1011F000FD4F808390915702809156026EC0E0911E
:10120000570281E08E0F809357028091BB00F0E07F
:10121000EA5CFD4F80838091590281116DC081E0AD
:101220008093340284EA61C083E080935A02109272
:101230008801CFCF80918801803208F051C0E091C1
:10124000880181E08E0F809388018091BB00F0E0DF
:10125000E859FE4F8083BDCF85EC8093BC0010928F
:101260005A0280918801803230F4E0918801F0E0E8
:10127000E859FE4F10826091880170E0E091CB0147
:10128000F091CC0188E691E009951092880136C072
:1012900084E080935A021092670110926601E091F7
:1012A000CD01F091CE01099580916601811105C0B3
:1012B00081E08093660110924601E091670181E030
:1012C0008E0F80936701F0E0EA5BFE4F8081809390
:1012D000BB009091670180916601981708F479CF5F
:1012E00085E88093BC000AC085EC8093BC00109216
:1012F0005A0204C0109258020E940803FF91EF9115
:10130000BF91AF919F918F917F916F915F914F911D
:101310003F912F910F900FBE0F901F901895CF9374
:1013200082E090E00E942813C82F83E090E00E94A2
:1013300028132C2F30E0A901582BCA01CF91089512
:101340008F929F92AF92BF92EF92FF920F931F9353
:10135000CF93DF93CDB7DEB7C659D1090FB6F89456
:10136000DEBF0FBECDBF0E94330F4B015C010E9458
:1013700036068C010E948F097C018AE593E00E9469
:101380007E10CE01019626E9FC0111922A95E9F71B
:10139000FC82EB828D829E82AF82B8861A87098793
:1013A0006AE070E00E94C40589E493E00E947E1028
:1013B000CA56DF4F0FB6F894DEBF0FBECDBFDF9128
:1013C000CF911F910F91FF90EF90BF90AF909F90A2
:1013D0008F900895CF92DF92EF92FF920F931F9319
:1013E000CF93DF93CDB7DEB728970FB6F894DEBF63
:1013F0000FBECDBF81EF92E00E947E1087EA90E0A1
:101400000E9463100E948F09BC01990F880B990BF1
:101410000E942F0D8EE391E00E94511085EE90E026
:101420000E947E100E9494058C018BEB90E00E943C
:101430006310B80180E090E04AE00E94EE0C87EB78
:1014400090E00E947E1080E691E00E947E100E9453
:101450008F0E6091EC037091ED038091EE039091FB
:10146000EF030E945F146B017C018FE391E00E9407
:101470006310B6010D2C000C880B990B0E942F0DE8
:101480008DE391E00E947E10D7FE04C083E191E0DD
:101490000E947E108CEA91E00E947E10AE014F5FA8
:1014A0005F4FBE016B5F7F4F8BE193E00E94BE04F4
:1014B000CD80DE80EF80F88489E891E00E9463109F
:1014C00020E030E04AE754E4C701B6010E9423154A
:1014D0000E9466144AE00E94EE0C85E891E00E94AA
:1014E0007E1086E292E00E947E100E9464046B01EE
:1014F0007C0182E092E00E946310B6010D2C000C8A
:10150000880B990B0E942F0D8EEF91E00E947E10A8
:10151000D7FE04C083ED91E00E947E1086E692E043
:101520000E947E100E9436068C0182E592E00E94A5
:101530006310B80180E090E04AE00E94EE0C8EE477
:1015400092E00E947E1085EC92E00E947E108EE078
:101550000E943E0EBC01990F880B990B0E949714B4
:101560009B01AC010E9481132AE137E64CE950E46B
:101570000E9423150E945F146B017C018B018DEA90
:1015800092E00E946310B60180E090E04AE00E9481
:10159000EE0C89EA92E00E947E100436110520F4D8
:1015A0008EE792E00E947E1088EE92E00E947E100C
:1015B00028960FB6F894DEBF0FBECDBFDF91CF9156
:1015C0001F910F91FF90EF90DF90CF900895CF93F0
:1015D000DF93EC010E945B0D85E990E00E947E1094
:1015E00061E084E00E94830D1092E3031092E20315
:1015F0001092E1031092E0031092DF031092DE03D9
:101600008DE991E09093E5038093E4039091D403F6
:10161000963108F058C02DEB30E03093DF03209373
:10162000DE032BE931E03093E1032093E0032CE269
:1016300031E03093E3032093E20340916800983057
:1016400058F031E09E3008F430E021E0822F01C0F4
:10165000880F3A95EAF701C084E0842B80936800F4
:10166000983038F09E3040F0963148F020E030E07D
:1016700008C02DE630E005C02BE630E002C02CE6C5
:1016800030E03093DC032093DB03983030F481E0CA
:1016900001C0880F9A95EAF70EC0292F30E09E30DE
:1016A00018F42850310902C02E50310981E001C0E0
:1016B000880F2A95EAF78093DD038091E4039091E7
:1016C000E5030197F1F78091E2039091E303892B01
:1016D00049F1E0917F02F091800283E0E83CF80755
:1016E00009F1309739F0A389B4899C918589809557
:1016F00089238C938091E6038E7F8093E60310927A
:10170000C9011092CA0188EC93E090938002809303
:101710007F02E091DB03F091DC0390818091DD0397
:10172000892B808388EC93E090930A0380930903CC
:1017300061E083E00E94830D61E08FE00E94020E71
:1017400060E08FE00E94830D60E080E10E94020E65
:1017500060E081E10E94020E0E94D00D1092BA005A
:101760000E94D00D8BE093E00E94CF030E94D00D29
:101770008BE193E00E94CF0360E085E10E94020EBE
:1017800060E08EE00E94020E0E94D00D81E0809306
:101790005B0288E480937D0210925C0210927E02CC
:1017A0006CE881E892E00E9499030E94AB100E94CD
:1017B0008F0999A388A364E670E080E090E00E941E
:1017C000550E84E890E0DF91CF910C947E103FB7E6
:1017D000F89480910E0290910F02A0911002B091A6
:1017E000110226B5A89B05C02F3F19F00196A11D37
:1017F000B11D3FBFBA2FA92F982F8827820F911DA7
:10180000A11DB11DBC01CD0142E0660F771F881FED
:10181000991F4A95D1F70895CF92DF92EF92FF92E8
:101820000F931F93CF93DF936C017A018B01C0E07C
:10183000D0E0CE15DF0581F0D8016D918D01D60184
:10184000ED91FC910190F081E02DC6010995892B65
:1018500011F02196EECF7E01C701DF91CF911F914C
:101860000F91FF90EF90DF90CF900895FC01538D82
:10187000448D252F30E0842F90E0821B930B54176A
:1018800010F0CF96089501970895FC01918D828DF7
:10189000981761F0828DDF01A80FB11D5D968C91C4
:1018A000928D9F5F9F73928F90E008958FEF9FEFCF
:1018B0000895FC01918D828D981731F0828DE80F8B
:1018C000F11D858D90E008958FEF9FEF0895FC0145
:1018D000918D228D892F90E0805C9F4F821B910912
:1018E0008F73992708958BE293E00E94670C21E0A3
:1018F000892B09F420E0822F08950E949015EF9221
:10190000FF920F931F93CF93DF93EC0181E0888FB9
:101910009B8D8C8D981305C0E889F989808185FDA0
:1019200026C0F62E0B8D10E00F5F1F4F0F7311278F
:10193000E02E8C8DE8120CC00FB607FCFACFE889B8
:10194000F989808185FFF5CFCE010E94C507F1CFCF
:101950008B8DFE01E80FF11DE35AFF4FF0829FB718
:10196000F8940B8FEA89FB89808180620AC09FB757
:10197000F894EE89FF896083E889F9898081837012
:10198000806480839FBF81E090E0DF91CF911F91C1
:101990000F91FF90EF900895CF93DF93EC01888D26
:1019A0008823C9F0EA89FB89808185FD05C0A88963
:1019B000B9898C9186FD0FC00FB607FCF5CF8081E9
:1019C00085FFF2CFA889B9898C9185FFEDCFCE0133
:1019D0000E94C507E7CFDF91CF9108958F929F9224
:1019E000AF92BF920F931F93CF93DF93CDB7DEB724
:1019F000A1970FB6F894DEBF0FBECDBF19A242303B
:101A000008F44AE08E010F5D1F4F842E912CA12C0B
:101A1000B12CA50194010E944413E62FB901CA011B
:101A200001501109EA3014F4E05D01C0E95CD8010D
:101A3000EC93232B242B252B61F7C8010E94511016
:101A4000A1960FB6F894DEBF0FBECDBFDF91CF9148
:101A50001F910F91BF90AF909F908F900895CF925C
:101A6000DF92EF92FF92CF93DF9397FF1BC06B0142
:101A70007C016DE28BE293E00E947F0CEC01662713
:101A80007727CB016C197D098E099F094AE00E94D6
:101A9000EE0C8C0F9D1FDF91CF91FF90EF90DF90A8
:101AA000CF9008954AE0DF91CF91FF90EF90DF90C3
:101AB000CF900C94EE0CEBE2F3E0A089B18982E0C8
:101AC0008C93A485B5851C92A685B7858FEC8C93E5
:101AD000108EA489B58986E08C93A289B3898C91F4
:101AE00080618C93A289B3898C9188608C93A28940
:101AF000B3898C9180688C930288F389E02D808172
:101B00008F7D8083089590E0FC01EB56FC4F24917B
:101B1000FC01EF52FC4F3491FC01E354FC4FE49183
:101B2000EE2309F43CC0222339F1233091F038F43C
:101B30002130A9F0223001F584B58F7D12C0273005
:101B400091F02830A1F02430B9F4809180008F7D8D
:101B500003C0809180008F77809380000DC084B592
:101B60008F7784BD09C08091B0008F7703C08091CA
:101B7000B0008F7D8093B000F0E0EE0FFF1FED54BA
:101B8000FC4FA591B4919FB7F894611104C08C915A
:101B90003095382302C0EC913E2B3C939FBF0895B3
:101BA000109213021092120210925C0210927E02A6
:101BB00010925A0281E0809359021092340261E03F
:101BC00082E10E94830D61E083E10E94830DE9EBD5
:101BD000F0E080818E7F808380818D7F808388E4A8
:101BE0008093B80085E48093BC008AE393E09093EF
:101BF000CE018093CD018BE393E09093CC01809351
:101C0000CB010895CF93DF9390E0FC01EF52FC4F9E
:101C10002491FC01E354FC4F8491882361F190E00E
:101C2000880F991FFC01E557FC4FC591D491FC0129
:101C3000ED54FC4FA591B491611109C09FB7F89480
:101C40008881209582238883EC912E230BC06230FB
:101C500061F49FB7F8948881322F3095832388836D
:101C6000EC912E2B2C939FBF06C08FB7F894E88180
:101C70002E2B28838FBFDF91CF9108958E3008F0EF
:101C80008E508770806480937C0080917A0080649D
:101C900080937A0080917A0086FDFCCF8091780055
:101CA0002091790090E0922B08958F929F92AF92AD
:101CB000BF92CF92DF92EF92FF926B017C010E9464
:101CC000E70B4B015C01C114D104E104F104F1F014
:101CD0000E94E70BDC01CB0188199909AA09BB090D
:101CE000883E9340A105B10570F321E0C21AD108E6
:101CF000E108F10888EE880E83E0981EA11CB11C53
:101D0000C114D104E104F10419F7DDCFFF90EF9085
:101D1000DF90CF90BF90AF909F908F900895AF923B
:101D2000BF92CF92DF92EF92FF920F931F93CF93C8
:101D3000DF938091E70391E090935B0280937D02B3
:101D400010925C0210927E020E94AB1062E370E07F
:101D500080E090E00E94550E64E08091E7030E94CD
:101D600007111092130280931202811104C00E9485
:101D7000AB1080E16DC081E892E00E944B03EC0162
:101D80006C01DD2436E0D594C7943A95E1F781E8FB
:101D900092E00E944B03B82E81E892E00E944B0330
:101DA0008C0181E892E00E944B037C010E94AB1001
:101DB000C1104DC0BE016F737727762F66276B0D5C
:101DC000711D80E090E00E94951420E03CEF4FE709
:101DD00056E40E94ED1320E030E048EC52E40E940B
:101DE00023156093EC037093ED038093EE039093BF
:101DF000EF03112796E0000F111F9A95E1F7B70145
:101E000077277595679575956795600F711F80E0C9
:101E100090E00E94951420E03CEF4FE756E40E94CA
:101E2000ED1320E030E045E253E40E94231520E06A
:101E300030E040E252E40E9480136093E803709324
:101E4000E9038093EA039093EB0380E001C08C2DBB
:101E5000DF91CF911F910F91FF90EF90DF90CF9086
:101E6000BF90AF9008952FB7F89460910A027091D7
:101E70000B0280910C0290910D022FBF08951F92CA
:101E80000F920FB60F9211242F933F938F939F932E
:101E9000AF93BF9380910A0290910B02A0910C0224
:101EA000B0910D023091090223E0230F2D3720F469
:101EB0000196A11DB11D05C026E8230F0296A11DA4
:101EC000B11D2093090280930A0290930B02A09304
:101ED0000C02B0930D0280910E0290910F02A0911E
:101EE0001002B09111020196A11DB11D80930E0246
:101EF00090930F02A0931002B0931102BF91AF9183
:101F00009F918F913F912F910F900FBE0F901F9037
:101F100018951F920F920FB60F9211242F933F9393
:101F20004F935F936F937F938F939F93AF93BF93E1
:101F3000EF93FF938BE293E00E94C507FF91EF912F
:101F4000BF91AF919F918F917F916F915F914F91D1
:101F50003F912F910F900FBE0F901F9018951F92D9
:101F60000F920FB60F9211242F938F939F93EF939D
:101F7000FF93E0913B03F0913C038081E0914103AA
:101F8000F091420382FD12C09081809144038F5FE3
:101F90008F7320914503821751F0E0914403F0E0E4
:101FA000E55DFC4F958F8093440301C08081FF91D4
:101FB000EF919F918F912F910F900FBE0F901F90D7
:101FC0001895FC018CE091E09183808380917F02E1
:101FD00090918002E817F90759F4A389B4899C917C
:101FE0008589809589238C931092800210927F02BC
:101FF0000895CF93DF93EC011B821A8288EE93E061
:10200000A0E0B0E08C839D83AE83BF838CE091E041
:10201000998388831F8A1E8A198E188E1B8E1A8EAA
:102020001D8E1C8E6E8D6E7F6D7F6E8F66956170BE
:1020300081E0682788E00E94830D61E088E00E94CB
:10204000020EE9EDF3E0E491E88BE5ECF3E0E491D6
:10205000F0E0EE0FFF1FED54FC4F859194919A8BA9
:10206000898B60E082E00E94020E8E8D81FD04C0AB
:1020700061E082E00E94830D82E08C87E3EDF3E073
:10208000E491ED87EFEBF3E0E491F0E0EE0FFF1F5A
:10209000E755FC4F859194919F878E87DF91CF9173
:1020A0000895009769F0FC0101900020E9F731974D
:1020B000AF01481B590BBC018BE293E00C940C0C54
:1020C00080E090E008950F931F93CF93DF938C01EE
:1020D000C0E0D0E0F801EC0FFD1F6491662341F0F1
:1020E0008BE293E00E947F0C892B11F02196F2CFB6
:1020F000CE01DF91CF911F910F910895CF93DF9380
:102100000E946310EC018EE391E00E9451108C0F4D
:102110009D1FDF91CF910895A0910903B0910A030B
:10212000ED91FC9111970190F081E02D682FCD0188
:102130000994CF9393E8980F923020F0982F9D7FC9
:10214000913131F4C82F8DE70E948C1080E28C27EA
:10215000CF910C948C1030917E02313208F04BC03C
:1021600080915A028111FCCF90917D0222E0209350
:102170005A0221E0209359022FEF20935802109227
:10218000570230935602EDE5F2E0A6E3B2E020E01C
:10219000321721F041914D932F5FFACF1092350203
:1021A00020913502990F922B909335029091340231
:1021B000913061F410923402909135029093BB00FB
:1021C0009091BC0093FDF8CF95EC01C095EE9093F3
:1021D000BC0090915A029230E1F3909158029F3FD7
:1021E00079F080915802803241F08091580280331A
:1021F00031F084E005C081E003C082E001C083E0EB
:1022000010925C0210927E0210925B0208959091EF
:102210005A029111FCCF91E090935A029093590287
:102220002FEF2093580210925702260F2093560248
:102230009093350290913502880F892B8093350257
:1022400080913402813061F4109234028091350221
:102250008093BB008091BC0083FDF8CF85EC01C06A
:1022600085EE8093BC0080915A028130E1F3809129
:102270005702861710F460915702A6E3B2E0E4E13A
:10228000F2E080E0861721F09D9191938F5FFACF65
:102290000895613208F060E20E9407111092130263
:1022A000809312020895789484B5826084BD84B5C9
:1022B000816084BD85B5826085BD85B5816085BD41
:1022C00080916E00816080936E00109281008091F9
:1022D0008100826080938100809181008160809381
:1022E0008100809180008160809380008091B100A6
:1022F00084608093B1008091B00081608093B000D1
:1023000080917A00846080937A0080917A00826064
:1023100080937A0080917A00816080937A00809126
:102320007A00806880937A001092C1008BEB97E06E
:102330009093D8018093D70187EE9AE09093D001D3
:102340008093CF018AEE99E09093D2018093D101DE
:102350008FE496E09093DA018093D9018CEC93E0BE
:102360009093DC018093DB018EE297E09093D4019F
:102370008093D3018EEB96E09093DE018093DD0194
:1023800088EE96E09093D6018093D50184EE96E096
:102390009093E0018093DF0187E896E09093E2015B
:1023A0008093E10180EA99E09093E4018093E30156
:1023B0001092EE011092ED011092F0011092EF01D7
:1023C0001092E5011092E6011092E7011092E801E7
:1023D00083E090E09093F2018093F1010E948F09D5
:1023E0009093F4018093F3011092F5011092F6019D
:1023F0001092F7011092F8011092FA011092F9016F
:102400001092FC011092FB011092FD011092FE014E
:102410001092FF011092000210920202109201022B
:10242000109204021092030210920502109206020A
:1024300010920702109208020E94BB07E091CF01A0
:10244000F091D0018FEC91E00995E091D101F091EC
:10245000D2010995E091DD01F091DE018FEC91E070
:102460000995892B39F0E091D301F091D4018FECDB
:1024700091E00995E091DB01F091DC018FEC91E0B6
:102480000995892B39F0E091D901F091DA018FECAF
:1024900091E00995E091DF01F091E0018FEC91E08E
:1024A0000995892B39F0E091D501F091D6018FEC97
:1024B00091E00995E091E101F091E2018FEC91E06A
:1024C0000995892B39F0E091E301F091E4018FEC5B
:1024D00091E009950E941F02BDCF8CEE94E00E940E
:1024E000E10F8BE095E00E94E10F88EC93E00C9403
:1024F000E10FCF93DF93CBE2D3E01B821A8288EE09
:1025000093E0A0E0B0E08C839D83AE83BF832EE197
:1025100031E03983288325EC30E03D872C8724EC9B
:1025200030E03F872E8720EC30E0398B288B21EC80
:1025300030E03B8B2A8B22EC30E03D8B2C8B26EC61
:1025400030E03F8B2E8B198E1A8E1B8E1C8EE1E88D
:10255000F2E01382128284839583A683B78380E39B
:1025600091E091838083E7EEF3E087E2808380E06F
:1025700090E0A0E8BFE381839283A383B483858343
:102580009683A783B087EDE8F2E012861186148661
:1025900015861782108615828BE992E091838083DD
:1025A000D0930A03C093090388EC93E00E94F90FCB
:1025B000EBE0F3E010821182128213821482158202
:1025C0001682178210861186128613861486158647
:1025D00016861786EBE1F3E01082118212821382D5
:1025E000148215821682178210861186128613862F
:1025F0001486158616861786E0EFF3E0128611869C
:10260000148615861782108615828EEF93E09183CB
:102610008083D0936D04C0936C048BE095E00E949E
:10262000F90FEEE6F4E012861186148615861782FD
:10263000108615828CE794E091838083D093EB041D
:10264000C093EA048CEE94E0DF91CF910C94F90FE3
:10265000F999FECF92BD81BDF89A992780B508956A
:1026600097FB072E16F4009407D077FD09D00E943F
:10267000661307FC05D03EF4909581959F4F089511
:10268000709561957F4F0895A1E21A2EAA1BBB1B7E
:10269000FD010DC0AA1FBB1FEE1FFF1FA217B3072E
:1026A000E407F50720F0A21BB30BE40BF50B661F44
:1026B000771F881F991F1A9469F760957095809508
:1026C00090959B01AC01BD01CF010895AA1BBB1BD6
:1026D00051E107C0AA1FBB1FA617B70710F0A61B22
:1026E000B70B881F991F5A95A9F780959095BC0143
:1026F000CD010895EE0FFF1F0590F491E02D099490
:102700005058BB27AA270E9498130C94E9140E94E2
:10271000DB1438F00E94E21420F039F49F3F19F4E2
:1027200026F40C94D8140EF4E095E7FB0C94D21424
:10273000E92F0E94FA1458F3BA1762077307840747
:10274000950720F079F4A6F50C941C150EF4E0958D
:102750000B2EBA2FA02D0B01B90190010C01CA015B
:10276000A0011124FF27591B99F0593F50F4503E06
:1027700068F11A16F040A22F232F342F4427585FF8
:10278000F3CF469537952795A795F0405395C9F710
:102790007EF41F16BA0B620B730B840BBAF09150C8
:1027A000A1F0FF0FBB1F661F771F881FC2F70EC067
:1027B000BA0F621F731F841F48F48795779567953A
:1027C000B795F7959E3F08F0B0CF9395880F08F026
:1027D0009927EE0F9795879508950E9401140C9400
:1027E000E9140E94E21458F00E94DB1440F029F42E
:1027F0005F3F29F00C94D21451110C941D150C94C8
:10280000D8140E94FA1468F39923B1F3552391F375
:10281000951B550BBB27AA2762177307840738F04F
:102820009F5F5F4F220F331F441FAA1FA9F335D0AC
:102830000E2E3AF0E0E832D091505040E695001C60
:10284000CAF72BD0FE2F29D0660F771F881FBB1F1A
:10285000261737074807AB07B0E809F0BB0B802DF8
:10286000BF01FF2793585F4F3AF09E3F510578F024
:102870000C94D2140C941D155F3FE4F3983ED4F3EE
:10288000869577956795B795F7959F5FC9F7880FF8
:10289000911D9695879597F90895E1E0660F771F4A
:1028A000881FBB1F621773078407BA0720F0621BDB
:1028B000730B840BBA0BEE1F88F7E09508950E9406
:1028C00066146894B1110C941D1508950E940215A8
:1028D00088F09F5798F0B92F9927B751B0F0E1F0E1
:1028E000660F771F881F991F1AF0BA95C9F714C091
:1028F000B13091F00E941C15B1E008950C941C15A4
:10290000672F782F8827B85F39F0B93FCCF38695C9
:1029100077956795B395D9F73EF490958095709526
:1029200061957F4F8F4F9F4F0895E89409C097FBA3
:102930003EF490958095709561957F4F8F4F9F4F96
:102940009923A9F0F92F96E9BB279395F6958795DA
:1029500077956795B795F111F8CFFAF4BB0F11F49D
:1029600060FF1BC06F5F7F4F8F4F9F4F16C0882344
:1029700011F096E911C0772321F09EE8872F762F7A
:1029800005C0662371F096E8862F70E060E02AF0BB
:102990009A95660F771F881FDAF7880F96958795A7
:1029A00097F9089597F99F6780E870E060E00895CF
:1029B0009FEF80EC089500240A9416161706180657
:1029C0000906089500240A94121613061406050633
:1029D0000895092E0394000C11F4882352F0BB0FC4
:1029E00040F4BF2B11F460FF04C06F5F7F4F8F4F27
:1029F0009F4F089557FD9058440F551F59F05F3F62
:102A000071F04795880F97FB991F61F09F3F79F010
:102A100087950895121613061406551FF2CF469592
:102A2000F1DF08C0161617061806991FF1CF869514
:102A30007105610508940895E894BB2766277727F8
:102A4000CB0197F908950E9436150C94E9140E9461
:102A5000DB1438F00E94E21420F0952311F00C945E
:102A6000D2140C94D81411240C941D150E94FA143D
:102A700070F3959FC1F3950F50E0551F629FF001D1
:102A8000729FBB27F00DB11D639FAA27F00DB11DEA
:102A9000AA1F649F6627B00DA11D661F829F222773
:102AA000B00DA11D621F739FB00DA11D621F839FFA
:102AB000A00D611D221F749F3327A00D611D231FD0
:102AC000849F600D211D822F762F6A2F11249F571E
:102AD00050409AF0F1F088234AF0EE0FFF1FBB1F21
:102AE000661F771F881F91505040A9F79E3F5105E0
:102AF00080F00C94D2140C941D155F3FE4F3983EC3
:102B0000D4F3869577956795B795F795E7959F5F89
:102B1000C1F7FE2B880F911D9695879597F908951B
:102B200081E090E0F8940C94951511E0C4EFD1E0A9
:102B300004C0FE010E947A132196C53FD107C9F750
:042B4000F894FFCF37
:102B4400000000002D022902000000007F020C0C8E
:102B5400C9037E02CF02E7026602000000007F0C78
:102B64000C0C360CCC0C670C450C590C0000000006
:102B740099036C03C9037E0264034B033C030D0AEF
:062B8400005B005D200073
:00000001FF
