:100000000C94BF020C94E7020C94E7020C94B30426
:100010000C94B3040C94B3040C94E7020C94E70220
:100020000C94E7020C94E7020C94E7020C94E702AC
:100030000C94E7020C94E7020C94E7020C94E7029C
:100040000C94F50F0C94E7020C9465100C943F107F
:100050000C94E7020C94E7020C94E7020C94E7027C
:100060000C944B060C94E702240B270B2A0B2D0B48
:10007000300B330B360B5B505D206E6F6465206177
:100080006464723A20005B505D20094572726F72A1
:100090003A20686968363133312068756D69646962
:1000A0007479206F7574206F662072616E676500C9
:1000B00025005B505D20686968363133315F6875B3
:1000C0006D69646974795F7063742076616C7565BD
:1000D0003A20005B505D20436865636B2068696867
:1000E000363133315F68756D69646974795F706347
:1000F000742076616C7565005B505D2009457272F5
:100100006F723A20686968363133312074656D70DA
:10011000206F7574206F662072616E6765002063C2
:100120004B005B505D20686968363133315F746520
:100130006D70657261747572655F63656E74696B0D
:100140002076616C75653A20005B505D20436865E0
:10015000636B20686968363133315F74656D706533
:100160007261747572655F63656E74696B20766128
:100170006C7565005B505D20094552524F523A2024
:10018000736F6C61722070616E656C2076616C7546
:1001900065206F7574206F662072616E6765002040
:1001A0006D56005B505D20736F6C61722070616EE4
:1001B000656C2076616C75653A20005B505D20634C
:1001C0006865636B20736F6C61722070616E656C23
:1001D0002073656E736F722076616C75650047657C
:1001E0006E3A206372616E626572727900426F616D
:1001F0007264204F70747300426F617264205365A3
:1002000074757020446F6E6500426F617264205394
:100210006574757020537461727400504F5354208C
:10022000456E6400504F535420426567696E005319
:10023000616D706C6520456E640053616D706C6516
:100240002053746172740045786974696E67207414
:100250006F204D61696E204D656E7500474F5420CB
:100260004120434D443A20005B455D202D204578D8
:10027000697420746F204D61696E204D656E750044
:100280005B375D202D20536F6C61722050616E656D
:100290006C20566F6C7461676520286D5729005B70
:1002A000365D202D204261747465727920566F6C22
:1002B0007461676520286D5729005B355D202D200E
:1002C000535032313220536F6C6172204972726127
:1002D0006469616E636520286D5729005B345D2079
:1002E0002D204D504C3131354132205072657373A1
:1002F0007572652028506129005B335D202D2048F0
:100300004948363133312048756D69646974792004
:10031000282529005B325D202D204849483631339D
:10032000312054656D706572617475726520286343
:100330004B29005B315D202D204E6F6465204164A8
:100340006472657373000A53656E736F7220536134
:100350006D706C696E67204D656E750052756E6EBE
:10036000696E6720504F5354004C656176696E6723
:1003700020434D44204D6F646500474F5420412079
:10038000434D443A20005B535D202D2053656E732E
:100390006F722053616D706C696E67204D656E756C
:1003A000005B505D202D2052756E20506F77657276
:1003B000204F6E2053656C662D54657374005B4549
:1003C0005D202D204578697420436F6D6D616E64EA
:1003D000204D6F6465000A456E74657220434D447C
:1003E000204D6F64650054582048656172746265E1
:1003F000617420456E6400545820486561727462CF
:100400006561742053746172740053616D706C6522
:1004100020545820456E640053616D706C65205403
:100420005820537461727400205061005B505D204D
:100430006D706C313135613274315F707265737318
:100440007572655F70612076616C75653A20005B3E
:10045000505D20436865636B206D706C3131356190
:100460003274315F70726573737572655F7061208D
:1004700076616C7565005B505D20094572726F7224
:100480003A2061706F6765652069727261646961A5
:100490006E65206F7574206F662072616E676500EF
:1004A000206D56005B505D2061706F6765655F73FE
:1004B0007032313220697272616469616E636520E5
:1004C00076616C75653A20005B505D20436865631A
:1004D0006B2061706F6765655F53503231325F69C1
:1004E0007272616469616E63652076616C75650026
:1004F000206D56005B505D206261747465727920D6
:1005000076616C75653A20005B505D2043686563D9
:100510006B20626174746572792076616C75650018
:1005200000000008000201000003040700000000B2
:100530000000000000000000230026002900000049
:100540000000240027002A000000000025002800E9
:100550002B00040404040404040402020202020244
:100560000303030303030102040810204080010277
:1005700004081020010204081020E213D6131124ED
:100580001FBECFEFD8E0DEBFCDBF11E0A0E0B1E0ED
:10059000E0E3FEE202C005900D92A634B107D9F760
:1005A00025E0A6E4B1E001C01D92A033B207E1F757
:1005B00012E0CEEBD2E004C02197FE010E94E314CA
:1005C000CD3BD107C9F70E94C0120C940B170C94B5
:1005D000000080E090E0892B29F00E94D20D81116B
:1005E0000C9400000895FC018681845F0895FC014D
:1005F000611102C082850895613011F481850895EA
:10060000623011F480850895633011F48781089574
:10061000643011F486850895653011F48585089558
:10062000663011F484850895673011F48385089548
:10063000683011F480890895693011F48785089530
:100640006A3011F4818908956B3011F4828908951C
:100650000480F581E02DE60FF11D3C97808108951F
:1006600020917D0230917E022817390771F4909114
:10067000470180914601981741F0E0914701F0E071
:10068000E557FE4F808190E008958FEF9FEF08952A
:1006900008951F93CF93DF93DC015C968D919C911D
:1006A0005D97009739F421E030E013963C932E9348
:1006B00012973BC05196ED91FC91529750962C9118
:1006C0005097322F30951FB75E964C915E97742FDE
:1006D000727041FD6095F8944081772311F0422BB0
:1006E00001C043234083EC012197F1F748E050819A
:1006F00060FF02C0522B01C053235083EC012197AD
:10070000F1F76695415099F78081772319F083239B
:10071000808302C0282B20831FBF5C968D919C9103
:100720005D970197F1F781E090E0DF91CF911F9104
:10073000089520917D0230917E022817390771F4C7
:10074000809146012091470190E0805C9F4F821B81
:10075000910960E470E00E94AD14089580E090E09B
:10076000089520917D0230917E0228173907B9F44F
:100770009091470180914601981789F0E0914701D7
:10078000F0E0E557FE4F80812091470130E02F5F78
:100790003F4F2F7333272093470190E008958FEF49
:1007A0009FEF08958091CF0190E02091D001821BAE
:1007B0009109089585ED8093BC008091BC0084FD73
:1007C000FCCF10925802089540916801262F30E026
:1007D000240F311D21323105DCF4209158022430E0
:1007E000C9F4FC0180E090E0861758F4309168016C
:1007F0002191DC01A85BBE4FA30FB11D2C93019684
:10080000F3CF80916801680F6093680180E00895DC
:1008100081E0089582E0089508950895E091D0015F
:100820008091CF01E81730F4F0E0EF52FE4F808165
:1008300090E008958FEF9FEF08959091D0018091FF
:10084000CF01981750F4E92FF0E0EF52FE4F2081CE
:1008500030E09F5F9093D00102C02FEF3FEFC901BE
:100860000895CF92DF92EF92FF920F931F93CF9351
:10087000DF937C01CB018A0120915902222389F068
:10088000EB016B01C40ED51ECC15DD0569F0699135
:10089000D701ED91FC910190F081E02DC701099500
:1008A000F3CF642F0E94E403C801DF91CF911F9121
:1008B0000F91FF90EF90DF90CF900895CF93DF934B
:1008C0001F92CDB7DEB76983209159022223D1F060
:1008D00020917C02203240F021E030E0FC013383A3
:1008E000228380E090E015C080915A02E82FF0E06A
:1008F000E55AFD4F998190838F5F80935A028093D0
:100900007C0205C061E0CE0101960E94E40381E013
:1009100090E00F90DF91CF910895089580E090E0EE
:100920000895FC01848DDF01A80FB11DA35ABF4FAC
:100930002C91848D90E001968F739927848FA689DE
:10094000B7892C93A089B1898C91837080648C9332
:10095000938D848D981306C00288F389E02D8081E1
:100960008F7D808308951F920F920FB60F921124EE
:100970002F933F934F935F936F937F938F939F93A7
:10098000AF93BF93EF93FF93E0917D02F0917E02CE
:10099000309709F451C0968DA685B785858591FF5E
:1009A00004C09C91892329F447C09C91892309F0B4
:1009B00043C0A389B4899C918589809589238C93B0
:1009C000868997890197F1F7608D718DA685B78526
:1009D000558538E020E0CB010197F1F7822F90E0B8
:1009E00095958795282F4C91452309F02068315023
:1009F00091F7868D81FD20958091460190E00196CA
:100A00008F73992730914701381749F0A09146011B
:100A1000B0E0A557BE4F2C938093460103C0868D4E
:100A20008160868F828D938D0197F1F7A389B489B8
:100A30009C918589892B8C93FF91EF91BF91AF9108
:100A40009F918F917F916F915F914F913F912F91E6
:100A50000F900FBE0F901F9018958F929F92AF929C
:100A6000BF92CF92DF92EF92FF920F931F93CF939B
:100A7000DF937C01FC01808191E090935902809387
:100A80007B0210925A0210927C020E94641262E36E
:100A900070E080E090E00E94AF0F64E0F701808199
:100AA0000E944D0E1092D0018093CF01811104C09D
:100AB0000E94641280E16AC08FE792E00E941D04E8
:100AC0006C015C01BB2446E0B594A7944A95E1F71C
:100AD0008FE792E00E941D04982E8FE792E00E941B
:100AE0001D04EC018FE792E00E941D048C010E941E
:100AF0006412A1104AC0B6016F737727762F66275C
:100B0000690D711D80E090E00E940B1620E03CEF23
:100B10004FE756E40E946A1520E030E048EC52E4CA
:100B20000E949916F7016583768387839087DD2776
:100B3000CE0126E0880F991F2A95E1F7B8017727A3
:100B40007595679575956795EB01C80FD91FBE011F
:100B500080E090E00E940B1620E03CEF4FE756E467
:100B60000E946A1520E030E045E253E40E949916A5
:100B700020E030E040E252E40E94FD14F70161837E
:100B800072838383948380E001C08A2DDF91CF91AB
:100B90001F910F91FF90EF90DF90CF90BF90AF909B
:100BA0009F908F900895682F8FE792E00C945E04D9
:100BB0008FE792E00E941D040895FF920F931F9308
:100BC000CF93DF938C01FC0183819481613059F0D4
:100BD00038F0623059F0633061F0836891600BC087
:100BE0008368916408C08368916505C083689166D5
:100BF00002C083689167EC01D068F8018081FF240E
:100C0000F394F092590280937B0210925A02109250
:100C10007C0281E00E94D3058D2F0E94D3058C2F8A
:100C20000E94D3050E946412F801618170E080E0A7
:100C300090E00E94AF0FF801C081F0925902C0937A
:100C40007B0210925A0210927C0280E00E94D3052F
:100C50000E94641262E08C2F0E944D0E1092D0010F
:100C60008093CF010E94D805C82F0E94D8052C2F51
:100C700030E0322F2227A901482BCA01F801028057
:100C800002C0969587950A94E2F7DF91CF911F9164
:100C90000F91FF9008951F920F920FB60F9211249B
:100CA0002F933F934F935F936F937F938F939F9374
:100CB000AF93BF93EF93FF938091B900887F803605
:100CC00009F49CC068F5883209F45BC090F4803167
:100CD00009F454C038F4882309F4F6C0883009F4C4
:100CE0004DC0F6C0883109F44CC0803209F45DC0B3
:100CF000EFC0803409F468C048F4803309F455C06B
:100D0000883309F0E5C080935602D8C0803509F4D5
:100D10004FC0883509F45DC0883409F0D9C0D6C009
:100D2000883909F4C7C0A8F4883709F467C038F4D3
:100D3000883609F463C0803709F460C0C9C08838B8
:100D400009F4B8C0803909F45FC0803809F0C0C028
:100D50005BC0803B09F486C038F4803A09F466C071
:100D6000883A09F47FC0B4C0803C09F4A7C0883C2D
:100D700009F4A4C0883B09F48AC0AAC08091330258
:100D800010C09091550280915402981770F5E0912F
:100D9000550281E08E0F80935502F0E0EC5CFD4F30
:100DA00080818093BB0085EC86C0809356028EC004
:100DB000E091550281E08E0F809355028091BB0037
:100DC000F0E0EC5CFD4F80839091550280915402DD
:100DD0006EC0E091550281E08E0F809355028091A4
:100DE000BB00F0E0EC5CFD4F8083809157028111E5
:100DF0006DC081E08093320284EA61C083E0809319
:100E0000580210928A01CFCF80918A01803208F077
:100E100051C0E0918A0181E08E0F80938A01809118
:100E2000BB00F0E0E659FE4F8083BDCF85EC809398
:100E3000BC001092580280918A01803230F4E09117
:100E40008A01F0E0E659FE4F108260918A0170E05D
:100E5000E091CB01F091CC018AE691E009951092E6
:100E60008A0136C084E08093580210926901109282
:100E70006801E091CD01F091CE0109958091680162
:100E8000811105C081E08093680110924801E091D2
:100E9000690181E08E0F80936901F0E0E85BFE4F0D
:100EA00080818093BB0090916901809168019817BF
:100EB00008F479CF85E88093BC000AC085EC809364
:100EC000BC001092580204C0109256020E94DA032D
:100ED000FF91EF91BF91AF919F918F917F916F9112
:100EE0005F914F913F912F910F900FBE0F901F90E8
:100EF000189563E08BE892E00E94DD05BC0180E07C
:100F000090E00E940B1620E030E04CE353E40E9496
:100F1000991620E030E04AE754E40E946A150E94E6
:100F2000DC15CB010895CF93DF938BEB91E00E940A
:100F300037120E947907EC0183EA91E00E941C12AB
:100F4000BE0180E090E04AE00E948F0E8FE991E0C0
:100F50000E943712C436D10530F484E791E0DF9166
:100F6000CF910C943712DF91CF910895CF92DF92F9
:100F7000EF92FF92CF93DF9389E491E00E943712C2
:100F80008DEE93E00E942D0520E030E048EC52E425
:100F90006091EE037091EF038091F0039091F10363
:100FA0000E94991620E036E645ED56E40E94FE14B4
:100FB0000E94DC156B017C0182E291E00E941C1210
:100FC000B6010D2C000C880B990B0E94D00E8EE1FF
:100FD00091E00E943712D7FE0AC088EF90E0DF91BF
:100FE000CF91FF90EF90DF90CF900C943712DF916C
:100FF000CF91FF90EF90DF90CF900895CF92DF9246
:10100000EF92FF92CF93DF9383ED90E00E9437122F
:1010100084EE93E00E942D056091E9037091EA034C
:101020008091EB039091EC030E94DC156B017C0135
:1010300082EB90E00E941C12B6010D2C000C880B74
:10104000990B0E94D00E80EB90E00E943712D7FEE1
:101050000AC086E890E0DF91CF91FF90EF90DF909B
:10106000CF900C943712DF91CF91FF90EF90DF90EB
:10107000CF900895CF9382E090E00E94A514C82FEE
:1010800083E090E00E94A5142C2F30E0A901582B9A
:10109000CA01CF91089586E790E00E941C120E9439
:1010A0003A08BC01990F880B990B0E94D00E8EE371
:1010B00091E00C940A1280E090E00895EF92FF9284
:1010C0001F93CF93DF93CDB7DEB763970FB6F89436
:1010D000DEBF0FBECDBF20E12B8321E02C839E839A
:1010E0008D836F8384E091E09A83898318861986C3
:1010F0001A861B861C861D861E861F868EEF9FEF16
:10110000998B888B1A8A1B8A8EE70E9445121F8151
:101110008CE0810F90E00296892F0E9452128EE09F
:10112000810F0E9452128B810E9452128C810E9468
:1011300052121B818C81180FE12CF12C8F81845F5E
:1011400090E0E816F9068CF46E2DCE0101960E940F
:10115000F7020E9452126E2DCE0101960E94F702F4
:10116000180F8FEFE81AF80AE9CF812F80950E94B7
:10117000521280910C0390910D03DC01ED91FC91D2
:101180000680F781E02D099563960FB6F894DEBFCF
:101190000FBECDBFDF91CF911F91FF90EF900895CB
:1011A00062E08EE093E00E94DD05BC0180E090E00B
:1011B0000E940B1620E030E04CE353E40E949916A5
:1011C0009B01AC010E94FE1420E030E04AE754E4A9
:1011D0000E946A150E94DC15CB010895CF93DF931E
:1011E00088E095E00E9437120E94D008EC0184EF5D
:1011F00094E00E941C12BE0180E090E04AE00E9450
:101200008F0E80EF94E0DF91CF910C94371260E065
:1012100083E193E00E94DD05BC0180E090E00E9444
:101220000B1620E030E04CE353E40E94991620E0D6
:1012300030E04AE754E40E946A150E94DC15CB01B5
:101240000895CF93DF9388EC94E00E9437120E94B8
:101250000709EC0184EA94E00E941C12BE010D2EE5
:10126000000C880B990B0E94D00E80EA94E00E943B
:101270003712D7FF06C086E794E0DF91CF910C9438
:101280003712DF91CF910895CF92DF92EF92FF92C4
:10129000CF93DF93CDB7DEB728970FB6F894DEBFB4
:1012A0000FBECDBF8FE494E00E943712BE016F5F86
:1012B0007F4FCE0105960E949710CD80DE80EF8093
:1012C000F8848CE294E00E941C1220E030E04AE7AF
:1012D00054E4C701B6010E9499160E94DC154AE049
:1012E0000E948F0E88E294E00E94371228960FB673
:1012F000F894DEBF0FBECDBFDF91CF91FF90EF908E
:10130000DF90CF9008950F931F93CF93DF93CDB7C6
:10131000DEB7C659D1090FB6F894DEBF0FBECDBFF8
:101320008C0188E194E00E943712CE01019626E9F3
:10133000FC0111922A95E9F7F801B29626E1DC0149
:1013400001900D922A95E1F766E170E00E945E0837
:10135000F801178E168E8AE094E00E943712CA5662
:10136000DF4F0FB6F894DEBF0FBECDBFDF91CF9138
:101370001F910F9108958F929F92AF92BF92EF921B
:10138000FF920F931F93CF93DF93CDB7DEB7C6596C
:10139000D1090FB6F894DEBF0FBECDBF0E94E90F92
:1013A0004B015C010E94D0088C010E943A087C012C
:1013B00087EF93E00E943712CE01019626E9FC01E7
:1013C00011922A95E9F7FC82EB828D829E82AF8290
:1013D000B8861A8709876AE070E00E945E0886EE88
:1013E00093E00E943712CA56DF4F0FB6F894DEBF63
:1013F0000FBECDBFDF91CF911F910F91FF90EF9066
:10140000BF90AF909F908F9008958F929F92AF92D0
:10141000BF92CF92DF92EF92FF92CF93DF93EC01D6
:101420000E94E90F6B017C018A8C9B8CAC8CBD8C7B
:101430000E94E90F683A73448540910580F4C8180A
:10144000D90888EBC8168BE0D8064CF00E94E90F4B
:101450006A8F7B8F8C8F9D8F81E090E002C080E04F
:1014600090E0DF91CF91FF90EF90DF90CF90BF9011
:10147000AF909F908F9008950F931F93CF93DF931A
:10148000EC010E94E90F0E891F89288D398DDC013E
:10149000CB01801B910BA20BB30B80339547A105A9
:1014A000B10548F00E94E90F6E8B7F8B888F998F72
:1014B00081E090E002C080E090E0DF91CF911F9149
:1014C0000F91089584E292E00E9437120E944B0827
:1014D0000E94B6070E94FE070E9444090E9421094B
:1014E0000E94EE080E9493078BE192E00C94371261
:1014F00088E293E00C94C60D0F931F93CF938C0159
:1015000086ED93E00E9437128EEB93E00E94371233
:1015100081EA93E00E94371286E893E00E94371236
:1015200088E293E00E94A40D0A97D1F788E293E045
:101530000E94C60D892BD1F388E293E00E94A40D8E
:10154000C82F8AE793E00E941C126C2F88E293E078
:101550000E94DE0D8EE391E00E940A1288E293E081
:101560000E94A40D0A97D1F7C53439F489E693E0B7
:10157000CF911F910F910C943712C03539F1C335BB
:10158000A9F686E493E00E94371283E393E00E9479
:10159000371284E193E00E94371289EF92E00E94B3
:1015A00037128CED92E00E9437128AEB92E00E9493
:1015B00037128FE992E00E94371280E892E00E9491
:1015C000371288E692E00E94371215C08CE593E04E
:1015D0000E943712D8011296ED91FC91139709954C
:1015E000A5CF8C2FCC0F990BAA0BBB0BFC01F1974D
:1015F000E730F10528F188E293E00E94C60D892BBF
:10160000D1F388E293E00E94A40DC82F8CE592E00C
:101610000E941C126C2F88E293E00E94DE0D8EE384
:1016200091E00E940A1288E293E00E94A40D0A97BA
:10163000D1F7C534B1F687E492E00E94371276CF35
:10164000EC5CFF4F0C94E3140E944B08D4CF0E9433
:10165000B607D1CF0E94FE07CECF0E944409CBCF60
:101660000E942109C8CF0E94EE08C5CF0E949307AF
:10167000C2CF0F931F93CF93DF93CDB7DEB72897D9
:101680000FB6F894DEBF0FBECDBF8C0181E491E0B0
:101690000E940A120E94E90F4AE00E948F0E83E422
:1016A00091E00E940A128EE391E00E940A128AE3FE
:1016B00092E00E9437120E94E90FF80166A377A317
:1016C00080A791A70E94D008F80193A782A70E9443
:1016D0007907F80195A784A70E940709F80197A741
:1016E00086A78DEE93E00E942D0520E030E048ECC7
:1016F00052E46091EE037091EF038091F0039091BA
:10170000F1030E94991620E036E645ED56E40E946A
:10171000FE140E94DC15F80171AB60AB84EE93E01F
:101720000E942D056091E9037091EA038091EB031B
:101730009091EC030E94DC15F80173AB62ABBE0123
:101740006F5F7F4FCE0105960E9497106D817E815D
:101750008F81988520E030E04AE754E40E94991692
:101760000E94DC15F80164AB75AB86AB97AB8FE2DA
:1017700092E00E943712F801178E168EC8010E945F
:10178000830928960FB6F894DEBF0FBECDBFDF9158
:10179000CF911F910F9108950E94080F8DEE91E057
:1017A0000E9437128EED91E00C943712AF92BF92E7
:1017B000CF92DF92EF92FF920F931F93CF93DF931D
:1017C000EC010E94080F89E092E00E94371261E06C
:1017D00084E00E94300F1092E0031092DF03109219
:1017E000DE031092DD031092DC031092DB038DEC1C
:1017F00090E09093E2038093E1039091D1039631BE
:1018000008F058C025E530E03093DC032093DB037B
:101810002BEC30E03093DE032093DD0320E930E051
:101820003093E0032093DF0340916800983058F034
:1018300031E09E3008F430E021E0822F01C0880FB3
:101840003A95EAF701C084E0842B809368009830D1
:1018500038F09E3040F0963148F020E030E008C08B
:101860002DE630E005C02BE630E002C02CE630E08B
:101870003093D9032093D803983030F481E001C02D
:10188000880F9A95EAF70EC0292F30E09E3018F4A1
:101890002850310902C02E50310981E001C0880F63
:1018A0002A95EAF78093DA038091E1039091E203AD
:1018B0000197F1F78091DF039091E003892B49F1C3
:1018C000E0917D02F0917E0283E0E53CF80709F1AA
:1018D000309739F0A389B4899C91858980958923B3
:1018E0008C938091E3038E7F8093E30310924601F3
:1018F0001092470185EC93E090937E0280937D02E5
:10190000E091D803F091D90390818091DA03892B7B
:10191000808385EC93E090930D0380930C0361E04A
:1019200083E00E94300F0E947D0F0E947D0F0E9475
:101930007D0F0E947D0F1092BA000E947D0F1092C1
:10194000BA000E947D0F81E08093590280E6809367
:101950007B0210925A0210927C0284E00E94D3050E
:101960000E94641288E090E00E94FC0E0E94D8055C
:10197000A82E0E94D805B82E0E94D805C82E0E9415
:10198000D805E82E0E94D805D82E0E94D805082F29
:101990000E94D805F82E0E94D805182F6B2D70E0F4
:1019A0007A29072E000C880B990B0E940D1620E057
:1019B00030E040E05EE30E94991660931803709354
:1019C000190380931A0390931B036E2D70E07C29FA
:1019D000072E000C880B990B0E940D1620E030E0BA
:1019E00040E059E30E94991660931C0370931D0315
:1019F00080931E0390931F03602F70E07D29072EB4
:101A0000000C880B990B0E940D1620E030E040E896
:101A100058E30E94991660932003709321038093EA
:101A2000220390932303612F70E07F2976956795B9
:101A300076956795072E000C880B990B0E940D1662
:101A400020E030E040E854E30E94991660932403BC
:101A50007093250380932603909327030E943A08EE
:101A600099A388A364E670E080E090E00E94AF0F45
:101A700088EF91E0DF91CF911F910F91FF90EF9050
:101A8000DF90CF90BF90AF900C9437123FB7F8948F
:101A900080912E0290912F02A0913002B0913102DC
:101AA00026B5A89B05C02F3F19F00196A11DB11DB9
:101AB0003FBFBA2FA92F982F8827820F911DA11DF4
:101AC000B11DBC01CD0143E0660F771F881F991F30
:101AD0004A95D1F70895CF92DF92EF92FF920F933C
:101AE0001F93CF93DF936C017A018B01C0E0D0E0AC
:101AF000CE15DF0581F0D8016D918D01D601ED91F4
:101B0000FC910190F081E02DC6010995892B11F01F
:101B10002196EECF7E01C701DF91CF911F910F91EA
:101B2000FF90EF90DF90CF900895FC01538D448D8E
:101B3000252F30E0842F90E0821B930B541710F078
:101B4000CF96089501970895FC01918D828D981785
:101B500061F0828DDF01A80FB11D5D968C91928D91
:101B60009F5F9F73928F90E008958FEF9FEF08958E
:101B7000FC01918D828D981731F0828DE80FF11D57
:101B8000858D90E008958FEF9FEF0895FC01918D72
:101B9000228D892F90E0805C9F4F821B91098F736B
:101BA0009927089588E293E00E94C60D21E0892BD1
:101BB00009F420E0822F08950E940617EF92FF9209
:101BC0000F931F93CF93DF93EC0181E0888F9B8D60
:101BD0008C8D981305C0E889F989808185FD26C020
:101BE000F62E0B8D10E00F5F1F4F0F731127E02EA5
:101BF0008C8DE8120CC00FB607FCFACFE889F98982
:101C0000808185FFF5CFCE010E949104F1CF8B8DAD
:101C1000FE01E80FF11DE35AFF4FF0829FB7F894E1
:101C20000B8FEA89FB89808180620AC09FB7F89494
:101C3000EE89FF896083E889F989808183708064F7
:101C400080839FBF81E090E0DF91CF911F910F9142
:101C5000FF90EF900895CF93DF93EC01888D882358
:101C6000C9F0EA89FB89808185FD05C0A889B98909
:101C70008C9186FD0FC00FB607FCF5CF808185FFE4
:101C8000F2CFA889B9898C9185FFEDCFCE010E9452
:101C90009104E7CFDF91CF9108959091580291116F
:101CA000FCCF91E090935802909357022FEF20932E
:101CB000560210925502260F20935402909333023D
:101CC00090913302880F892B8093330280913202E6
:101CD000813061F410923202809133028093BB0014
:101CE0008091BC0083FDF8CF85EC01C085EE809328
:101CF000BC00809158028130E1F380915502861733
:101D000010F460915502A4E3B2E0E1EDF1E080E06F
:101D1000861721F09D9191938F5FFACF08958F924E
:101D20009F92AF92BF920F931F93CF93DF93CDB744
:101D3000DEB7A1970FB6F894DEBF0FBECDBF19A2D4
:101D4000423008F44AE08E010F5D1F4F842E912C23
:101D5000A12CB12CA50194010E94C114E62FB90158
:101D6000CA0101501109EA3014F4E05D01C0E95CD8
:101D7000D801EC93232B242B252B61F7C8010E945B
:101D80000A12A1960FB6F894DEBF0FBECDBFDF9149
:101D9000CF911F910F91BF90AF909F908F9008951A
:101DA000CF92DF92EF92FF92CF93DF9397FF1BC00A
:101DB0006B017C016DE288E293E00E94DE0DEC0194
:101DC00066277727CB016C197D098E099F094AE0A8
:101DD0000E948F0E8C0F9D1FDF91CF91FF90EF908F
:101DE000DF90CF9008954AE0DF91CF91FF90EF9080
:101DF000DF90CF900C948F0E813208F080E2682F34
:101E000080E60E944D0E1092D0018093CF0108957C
:101E1000E8E2F3E0A089B18982E08C93A485B585DE
:101E20001C92A685B78587E68C93108EA489B58908
:101E300086E08C93A289B3898C9180618C93A2896E
:101E4000B3898C9188608C93A289B3898C918068C6
:101E50008C930288F389E02D80818F7D80830895A3
:101E600090E0FC01E05EFA4F2491FC01EA59FA4F40
:101E70003491FC01EE5AFA4FE491EE2309F43CC090
:101E8000222339F1233091F038F42130A9F02230A7
:101E900001F584B58F7D12C0273091F02830A1F074
:101EA0002430B9F4809180008F7D03C08091800040
:101EB0008F77809380000DC084B58F7784BD09C073
:101EC0008091B0008F7703C08091B0008F7D8093A8
:101ED000B000F0E0EE0FFF1FE85BFA4FA591B49160
:101EE0009FB7F894611104C08C913095382302C0DB
:101EF000EC913E2B3C939FBF08951092D00110921D
:101F0000CF0110925A0210927C021092580281E086
:101F1000809357021092320261E082E10E94300FFA
:101F200061E083E10E94300FE9EBF0E080818E7F79
:101F3000808380818D7F808380E28093B80085E4F8
:101F40008093BC008CE094E09093CE018093CD010F
:101F50008DE094E09093CC018093CB0108958F9213
:101F60009F92AF92BF92CF92DF92EF92FF926B015E
:101F70007C010E94460D4B015C01C114D104E104B7
:101F8000F104F1F00E94460DDC01CB01881999099A
:101F9000AA09BB09883E9340A105B10570F321E071
:101FA000C21AD108E108F10888EE880E83E0981E75
:101FB000A11CB11CC114D104E104F10419F7DDCF57
:101FC000FF90EF90DF90CF90BF90AF909F908F9059
:101FD00008952FB7F89460912A0270912B02809196
:101FE0002C0290912D022FBF08951F920F920FB6D1
:101FF0000F9211242F933F938F939F93AF93BF938F
:1020000080912A0290912B02A0912C02B0912D0276
:102010003091290226E0230F2D3720F40296A11DCE
:10202000B11D05C029E8230F0396A11DB11D209302
:10203000290280932A0290932B02A0932C02B09342
:102040002D0280912E0290912F02A0913002B0912A
:1020500031020196A11DB11D80932E0290932F0293
:10206000A0933002B0933102BF91AF919F918F91B5
:102070003F912F910F900FBE0F901F9018951F92B8
:102080000F920FB60F9211242F933F934F935F93AC
:102090006F937F938F939F93AF93BF93EF93FF9330
:1020A00088E293E00E949104FF91EF91BF91AF917C
:1020B0009F918F917F916F915F914F913F912F9160
:1020C0000F900FBE0F901F9018951F920F920FB692
:1020D0000F9211242F938F939F93EF93FF93E0918F
:1020E0003803F09139038081E0913E03F0913F0382
:1020F00082FD12C09081809141038F5F8F73209188
:102100004203821751F0E0914103F0E0E85DFC4F9B
:10211000958F8093410301C08081FF91EF919F9142
:102120008F912F910F900FBE0F901F9018954F9287
:102130005F926F927F928F929F92AF92BF92CF9257
:10214000DF92EF92FF920F931F93CF93DF936C0177
:102150007B01D1E0D0935902C0E6C0937B0210927C
:102160005A0210927C0282E10E94D30580E00E9414
:10217000D3050E94641265E070E080E090E00E9468
:10218000AF0FD0935902C0937B0210925A02109263
:102190007C0280E00E94D3050E94641284E090E0FB
:1021A0000E94FC0E0E94D805D82F0E94D805C82F87
:1021B0000E94D805182F0E94D805612F70E0762F55
:1021C0006627682B26E0769567952A95E1F780E0EB
:1021D00090E00E940B164B015C0108E113E0F8014E
:1021E00024853585468557850E949916F8012481F6
:1021F0003581468157810E94FE142B013C016C2FD2
:1022000070E07D2BEB0136E0D695C7953A95E1F766
:10221000BE0180E090E00E940B169B01AC01C3015F
:10222000B2010E949916F8012081318142815381C7
:102230000E94FE142B013C01F80120853185428566
:102240005385C501B4010E9499169B01AC01C301DD
:10225000B2010E94FE1428E830E242E85DE30E94E9
:10226000991620E030E048E452E40E94FE14F601A2
:10227000608371838283938320E030E049EF53E4ED
:10228000C501B4010E94FD1423E333E34BEA50EC93
:102290000E946A1520E030E048EC51E40E94FE14F0
:1022A000F7016083718382839383DF91CF911F91C4
:1022B0000F91FF90EF90DF90CF90BF90AF909F90E5
:1022C0008F907F906F905F904F900895FC018CE00D
:1022D00091E09183808380917D0290917E02E81746
:1022E000F90759F4A389B4899C918589809589233C
:1022F0008C9310927E0210927D020895CF93DF930B
:10230000EC011B821A8288EE93E0A0E0B0E08C839F
:102310009D83AE83BF838CE091E0998388831F8A7D
:102320001E8A198E188E1B8E1A8E1D8E1C8E6E8D17
:102330006E7F6D7F6E8F6695617081E0682781E1A9
:102340000E94300FE7E7F5E02491E3E6F5E08491A1
:10235000882399F090E0880F991FFC01E25CFA4F06
:10236000A591B491FC01E85BFA4F859194918FB7E8
:10237000F894EC91E22BEC938FBFE7E7F5E0E49162
:10238000E88BE3E6F5E0E491F0E0EE0FFF1FE85B99
:10239000FA4F859194919A8B898BE8E6F5E0249128
:1023A000E4E5F5E084918823C9F090E0880F991F57
:1023B000FC01E25CFA4F45915491FC01E85BFA4F55
:1023C000A591B4919FB7F894FA018081209582235A
:1023D00080838C91E22FE823EC939FBF8E8D81FD4B
:1023E00004C061E082E00E94300F82E08C87E8E662
:1023F000F5E0E491ED87E4E5F5E0E491F0E0EE0F3F
:10240000FF1FEC5CFA4F859194919F878E87DF9137
:10241000CF910895009769F0FC0101900020E9F741
:102420003197AF01481B590BBC0188E293E00C9433
:102430006B0D80E090E008950F931F93CF93DF938F
:102440008C01C0E0D0E0F801EC0FFD1F6491662321
:1024500041F088E293E00E94DE0D892B11F0219675
:10246000F2CFCE01DF91CF911F910F910895CF93BD
:10247000DF930E941C12EC018EE391E00E940A128D
:102480008C0F9D1FDF91CF910895A0910C03B09107
:102490000D03ED91FC9111970190F081E02D682FD3
:1024A000CD010994CF9393E8980F923020F0982FA4
:1024B0009D7F913131F4C82F8DE70E94451280E253
:1024C0008C27CF910C94451230917C02313208F068
:1024D0004BC0809158028111FCCF90917B0222E089
:1024E0002093580221E0209357022FEF20935602A9
:1024F0001092550230935402EBE5F2E0A4E3B2E00F
:1025000020E0321721F041914D932F5FFACF1092C6
:10251000330220913302990F922B909333029091C2
:102520003202913061F41092320290913302909312
:10253000BB009091BC0093FDF8CF95EC01C095EEE7
:102540009093BC00909158029230E1F39091560222
:102550009F3F79F080915602803241F0809156027F
:10256000803331F084E005C081E003C082E001C027
:1025700083E010925A0210927C0210925902089540
:10258000789484B5826084BD84B5816084BD85B54E
:10259000826085BD85B5816085BD80916E0081605A
:1025A00080936E0010928100809181008260809300
:1025B0008100809181008160809381008091800002
:1025C0008160809380008091B10084608093B1002D
:1025D0008091B00081608093B00080917A00846027
:1025E00080937A0080917A00826080937A00809153
:1025F0007A008E7F80937A0080917A008068809341
:102600007A001092C1008CEC9BE09093FA018093C9
:10261000F90186ED9BE09093F2018093F10182E64F
:102620009AE09093F4018093F30183E899E090930A
:10263000FC018093FB018BE598E09093FE01809371
:10264000FD0189E39BE09093F6018093F5018CE313
:102650009AE0909300028093FF018CE79AE09093B8
:10266000F8018093F70188E79AE090930202809343
:10267000010285E09AE090930402809303028BEBC1
:1026800099E0909306028093050210921002109236
:102690000F02109212021092110210920702109271
:1026A00008021092090210920A0282E090E09093D0
:1026B0001402809313020E943A08909316028093AA
:1026C000150210921702109218021092190210921D
:1026D0001A0210921C0210921B0210921E021092FB
:1026E0001D021092200210921F02109222021092DC
:1026F00021021092240210922302109225021092BD
:10270000260210922702109228020E94CC0BE09120
:10271000F101F091F20181EF91E00995E091F3016F
:10272000F091F4010995E091FF01F091000281EF31
:1027300091E00995892B39F0E091F501F091F601CE
:1027400081EF91E00995E091FD01F091FE0181EFAB
:1027500091E00995892B39F0E091FB01F091FC01A2
:1027600081EF91E00995E0910102F091020281EF81
:1027700091E00995892B39F0E091F701F091F8018A
:1027800081EF91E00995E0910302F091040281EF5D
:1027900091E00995892B39F0E0910502F09106024C
:1027A00081EF91E009950E94E902BDCF82EF94E0AC
:1027B0000E94661181E195E00E94661185EC93E02C
:1027C0000C9466110F931F93CF93DF93C8E2D3E06D
:1027D0001B821A8288EE93E0A0E0B0E08C839D8398
:1027E000AE83BF832EE131E03983288325EC30E0CE
:1027F0003D872C8724EC30E03F872E8720EC30E0AB
:10280000398B288B21EC30E03B8B2A8B22EC30E09B
:102810003D8B2C8B26EC30E03F8B2E8B198E1A8E45
:102820001B8E1C8EEFE7F2E0138212828483958365
:10283000A683B78380E391E091838083EBE8F2E0A5
:1028400008E400831482138218E011831282EDEEF3
:10285000F3E027E2208380E090E0A0E8BFE38183FB
:102860009283A383B48385839683A783B087E4EEA2
:10287000F3E0208381839283A383B483858396834B
:10288000A783B087E0E9F2E01286118614861586E8
:102890001782108615828EE992E091838083D0930F
:1028A0000D03C0930C0385EC93E00E947E11EEE0D3
:1028B000F3E000831482138211831282E3E1F3E0D8
:1028C00000831482138211831282E8E1F3E0108204
:1028D0001182128213821482158216821782108648
:1028E0001186128613861486158616861786E6EFDD
:1028F000F3E01286118614861586178210861582DB
:1029000084E094E091838083D0937304C093720435
:1029100081E195E00E947E11E4E7F4E012861186E1
:102920001486158617821086158282E894E09183BA
:102930008083D093F104C093F00482EF94E0DF91A0
:10294000CF911F910F910C947E11F999FECF92BDFA
:1029500081BDF89A992780B5089597FB072E16F444
:10296000009407D077FD09D00E94E91407FC05D038
:102970003EF4909581959F4F0895709561957F4F96
:102980000895A1E21A2EAA1BBB1BFD010DC0AA1FB0
:10299000BB1FEE1FFF1FA217B307E407F50720F0C8
:1029A000A21BB30BE40BF50B661F771F881F991F43
:1029B0001A9469F760957095809590959B01AC018C
:1029C000BD01CF010895EE0FFF1F0590F491E02D9A
:1029D0000994AA1BBB1B51E107C0AA1FBB1FA61766
:1029E000B70710F0A61BB70B881F991F5A95A9F7B8
:1029F00080959095BC01CD0108955058BB27AA271A
:102A00000E9415150C945F160E94511638F00E9412
:102A1000581620F039F49F3F19F426F40C944E1602
:102A20000EF4E095E7FB0C944816E92F0E9470160F
:102A300058F3BA17620773078407950720F079F4F3
:102A4000A6F50C9492160EF4E0950B2EBA2FA02D3D
:102A50000B01B90190010C01CA01A0011124FF274B
:102A6000591B99F0593F50F4503E68F11A16F04046
:102A7000A22F232F342F4427585FF3CF4695379545
:102A80002795A795F0405395C9F77EF41F16BA0B0A
:102A9000620B730B840BBAF09150A1F0FF0FBB1FB8
:102AA000661F771F881FC2F70EC0BA0F621F731F01
:102AB000841F48F4879577956795B795F7959E3F5E
:102AC00008F0B0CF9395880F08F09927EE0F9795EF
:102AD000879508950E947E150C945F160E945816E3
:102AE00058F00E94511640F029F45F3F29F00C94F1
:102AF000481651110C9493160C944E160E947016A1
:102B000068F39923B1F3552391F3951B550BBB271C
:102B1000AA2762177307840738F09F5F5F4F220F61
:102B2000331F441FAA1FA9F335D00E2E3AF0E0E858
:102B300032D091505040E695001CCAF72BD0FE2FA2
:102B400029D0660F771F881FBB1F26173707480736
:102B5000AB07B0E809F0BB0B802DBF01FF279358EE
:102B60005F4F3AF09E3F510578F00C9448160C9454
:102B700093165F3FE4F3983ED4F386957795679577
:102B8000B795F7959F5FC9F7880F911D9695879523
:102B900097F90895E1E0660F771F881FBB1F621742
:102BA00073078407BA0720F0621B730B840BBA0B00
:102BB000EE1F88F7E09508950E94781688F09F57D9
:102BC00098F0B92F9927B751B0F0E1F0660F771F51
:102BD000881F991F1AF0BA95C9F714C0B13091F047
:102BE0000E949216B1E008950C949216672F782FE8
:102BF0008827B85F39F0B93FCCF38695779567950C
:102C0000B395D9F73EF490958095709561957F4F77
:102C10008F4F9F4F0895E89409C097FB3EF490951D
:102C20008095709561957F4F8F4F9F4F9923A9F0A5
:102C3000F92F96E9BB279395F69587957795679534
:102C4000B795F111F8CFFAF4BB0F11F460FF1BC078
:102C50006F5F7F4F8F4F9F4F16C0882311F096E90B
:102C600011C0772321F09EE8872F762F05C06623B9
:102C700071F096E8862F70E060E02AF09A95660F72
:102C8000771F881FDAF7880F9695879597F908952B
:102C900097F99F6780E870E060E008959FEF80EC0F
:102CA000089500240A9416161706180609060895B2
:102CB00000240A9412161306140605060895092E18
:102CC0000394000C11F4882352F0BB0F40F4BF2B87
:102CD00011F460FF04C06F5F7F4F8F4F9F4F0895C7
:102CE00057FD9058440F551F59F05F3F71F04795BD
:102CF000880F97FB991F61F09F3F79F087950895A2
:102D0000121613061406551FF2CF4695F1DF08C0C0
:102D1000161617061806991FF1CF869571056105DD
:102D200008940895E894BB2766277727CB0197F985
:102D300008950E94AC160C945F160E94511638F04C
:102D40000E94581620F0952311F00C9448160C940C
:102D50004E1611240C9493160E94701670F3959FD2
:102D6000C1F3950F50E0551F629FF001729FBB2782
:102D7000F00DB11D639FAA27F00DB11DAA1F649F1E
:102D80006627B00DA11D661F829F2227B00DA11DD1
:102D9000621F739FB00DA11D621F839FA00D611D57
:102DA000221F749F3327A00D611D231F849F600D78
:102DB000211D822F762F6A2F11249F5750409AF0A1
:102DC000F1F088234AF0EE0FFF1FBB1F661F771F2D
:102DD000881F91505040A9F79E3F510580F00C94F8
:102DE00048160C9493165F3FE4F3983ED4F386950F
:102DF00077956795B795F795E7959F5FC1F7FE2B98
:102E0000880F911D9695879597F9089581E090E038
:102E1000F8940C940B1712E0CEEBD2E004C0FE0144
:102E20000E94E3142196CF3BD107C9F7F894FFCF56
:102E300000000000F702F3020000000049036B0DE0
:102E40008E0448039903B103300300000000DE0D37
:102E50006B0D950D2B0EC60DA40DB80D00000000D6
:102E60005E0431048E044803D2031D040E040D0ACF
:062E7000005B005D0000A4
:00000001FF
