:100000000C9495010C94BD010C94BD010C947B0CD7
:100010000C947B0C0C947B0C0C94BD010C94BD01D6
:100020000C94BD010C94BD010C94BD010C94BD0158
:100030000C94BD010C94BD010C94BD010C94BD0148
:100040000C944A150C94BD010C94E30B0C94BD0B5D
:100050000C94BD010C94BD010C94BD010C94BD0128
:100060000C94AF120C94BD01545820486561727411
:100070006265617420456E64005458204865617261
:1000800074626561742053746172740053616D70A1
:100090006C6520545820456E640053616D706C652A
:1000A0002054582053746172740047656E3A206181
:1000B00070706C65323300426F617264204F7074EF
:1000C0007300426F61726420536574757020446FD1
:1000D0006E6500426F6172642053657475702053C1
:1000E0007461727400504F535420456E64005B502D
:1000F0005D20094552524F523A20736F6C61722055
:1001000070616E656C2076616C7565206F7574200A
:100110006F662072616E676500206D56005B505DF2
:1001200020736F6C61722070616E656C2076616CFB
:1001300075653A20005B505D20094572726F723A16
:100140002062617474657279206F7574206F662007
:1001500072616E6765005B505D20626174746572E8
:10016000792076616C75653A20005B505D20094509
:1001700072726F723A2061706F67656520736F6C81
:10018000617220697272616469616E6365206F7566
:1001900074206F662072616E6765005B505D206140
:1001A000706F6765655F535032313220736F6C61D9
:1001B0007220697272616469616E63652076616C38
:1001C00075653A20002063656C73697573005B5038
:1001D0005D20424D503138302074656D703A2000FA
:1001E0005B505D20094572726F723A20424D50316A
:1001F0003830207072657373757265206F75742066
:100200006F662072616E6765002E005B505D204254
:100210004D503138302076616C75653A20005B5066
:100220005D20094572726F723A2048756D69646984
:100230007479206F7574206F662072616E67650037
:100240005B505D2073687431782076616C75653A17
:1002500020005B505D206E6F646520616464723ABB
:100260002000504F535420426567696E0053616D02
:10027000706C6520456E640053616D706C65205331
:10028000746172740052756E6E696E6720504F53C0
:100290005400434D44204D6F646520636D64004CF1
:1002A000656176696E6720434D44206D6F6465001B
:1002B000474F54204120434D443A2000456E746519
:1002C0007220434D44204D6F6465000000000024FF
:1002D0000027002A0000000000250028002B000055
:1002E0000000002300260029000404040404040480
:1002F00004020202020202030303030303010204D5
:100300000810204080010204081020010204081097
:1003100020000000080002010000030407000000A4
:10032000000000000000AA178C1711241FBECFEF99
:10033000D8E0DEBFCDBF11E0A0E0B1E0EAE2F6E335
:1003400002C005900D92A039B107D9F725E0A0E9C8
:10035000B1E001C01D92A139B207E1F711E0C4E993
:10036000D1E004C02197FE010E94E518C339D107EE
:10037000C9F70E9464160C94081B0C940000CF93DC
:10038000DF93D82FC62F61E00E94B11461E08C2F5B
:100390000E94B11461E08D2F0E94061461E08C2F41
:1003A0000E94061460E08C2FDF91CF910C9406140C
:1003B0001F93CF93DF93182FC62FD42F61E08C2F7C
:1003C0000E94B11461E08D2F0E94B11461E08C2F66
:1003D0000E94061461E08D2F0E94061460E08C2FAD
:1003E0000E94061460E08D2F0E94061461E08D2F9C
:1003F0000E94061461E08C2F0E94061460E08D2F8D
:100400000E940614412F6D2F8C2F0E940B1661E065
:100410008D2F0E94061460E08C2F0E94B1148C2F47
:100420000E94DD1360E08D2F0E9406148C2FDF9157
:10043000CF911F910C94DD13EF92FF920F931F93B6
:10044000CF93DF93E82EF62E08E010E0C0E0D0E076
:1004500061E08F2D0E9406146AE070E080E090E079
:100460000E940415CC0FDD1F8E2D0E94DD13C80FD6
:10047000D91F60E08F2D0E9406140150110941F729
:10048000CE01DF91CF911F910F91FF90EF900895D2
:10049000EF92FF920F931F93CF93DF93C82FF92E04
:1004A000D62FE72E60E00E94B11461E08D2F0E94EC
:1004B000B1146D2F7E2D8C2F9F2D0E941C0200E009
:1004C00010E0182F61E08C2F0E94B11461E08C2F96
:1004D0000E94061460E08C2F0E94061461E08D2FAC
:1004E0000E94061460E08D2F0E94061460E08C2F9D
:1004F0000E94B1146D2F7E2D8C2F9F2D0E941C0207
:10050000802B912BDF91CF911F910F91FF90EF9056
:1005100008951F93CF93DF93182F60E00E94B114CA
:10052000C4E6D0E06AE070E080E090E00E9404154C
:10053000812F0E94DD13892B11F0219799F7DF910C
:10054000CF911F910895DF92EF92FF920F931F9327
:10055000CF93DF93CDB7DEB728970FB6F894DEBF01
:100560000FBECDBF80911C03882309F446C084EEE2
:100570008093BC008091BC0087FFFCCF80ED80930E
:10058000BB0084EC8093BC008091BC0087FFFCCF53
:100590001092BB0084EC8093BC008091BC0087FF6C
:1005A000FCCF84EE8093BC008091BC0087FFFCCF21
:1005B00081ED8093BB0084EC8093BC008091BC00F3
:1005C00087FFFCCFE5E1F3E094EC9093BC008091D1
:1005D000BC0087FFFCCF8091BB00819373E0EC31BE
:1005E000F70799F784E88093BC008091BC0087FFEF
:1005F000FCCF84E98093BC0089C080ED0E94351651
:100600000E94F61561E0809114030E94B11440E04D
:1006100060911303809114030E940B160E94F6153B
:1006200081ED0E9435160E94F61500E010E060E0B2
:10063000809114030E94B11487E0E82EF12CD12C94
:1006400061E0809113030E940614809114030E94BC
:10065000DD1399270E2C01C0880F0A94EAF7D82AD7
:1006600060E0809113030E94061481E0E81AF1080B
:1006700038F7F801ED5EFC4FD28261E080911403FF
:100680000630110549F00E94B11460E08091130317
:100690000E94061460E008C00E94B11460E08091DE
:1006A00013030E94061461E0809114030E94061453
:1006B00061E0809113030E94061460E080911303AF
:1006C0000E94061460E0809114030E94B1140F5F31
:1006D0001F4F0730110509F0AACF61E08091140384
:1006E0000E94B11460E0809114030E94061461E03E
:1006F000809113030E94061461E0809114030E940C
:10070000061460E0809114030E94B11480911503D7
:10071000482F4695469546954E70942F990F990F00
:10072000490F8F70480F80911603382F36953695F4
:1007300036953E70932F990F990F390F8F70380FA0
:1007400080911703282F2F7087FF08C085FB9927FA
:1007500090F98CE0989F200D112409C08073869534
:1007600086958695982F990F990F890F280FE091FC
:1007700018036091190370911A0380911B03562F7F
:100780005695569556955E70952F990F990F590F5E
:100790006F70560F672F6695669566956E70962FEB
:1007A000990F990F690F7F70670F982F92959F701F
:1007B0008F707AE0979F800D112490E08053984FBE
:1007C0009F838E83782F8F819E2F28960FB6F89463
:1007D000DEBF0FBECDBFDF91CF911F910F91FF9074
:1007E000EF90DF900895CF93DF93CDB7DEB72897D2
:1007F0000FB6F894DEBF0FBECDBF0E94A3023A83AE
:100800004B832A3010F480E305C0822F6AE00E94F7
:100810004E18805D80930B013AE0822F632F0E9477
:100820004E18905D90930C018AE380930D012A810C
:100830002A3010F480E305C0822F632F0E944E18E7
:10084000805D80930E013AE0822F632F0E944E1844
:10085000905D90930F018AE3809310012B812A30E1
:1008600010F480E305C0822F632F0E944E18805D34
:1008700080931101822F6AE00E944E18905D909340
:100880001201109213018BE091E028960FB6F894B4
:10089000DEBF0FBECDBFDF91CF910895CF93DF9321
:1008A000CDB7DEB728970FB6F894DEBF0FBECDBF29
:1008B0000E94A3026D837E838F835A3010F480E3FD
:1008C00005C0852F6AE00E944E18805D809300016C
:1008D0003AE0852F632F0E944E18905D909301019E
:1008E0008EE2809302012D812A3010F480E305C04E
:1008F000822F632F0E944E18805D80930301822F08
:100900006AE00E944E18905D909304018EE28093FD
:1009100005012E813F81C90168EE73E00E945A18DB
:10092000605D60930601E4E6F0E0BF010E945A18A2
:1009300080E3860F80930701C901BF010E945A1806
:10094000EAE0F0E0BF010E945A1880E3860F80932E
:100950000801C901BF010E945A18805D80930901F6
:1009600010920A0180E091E028960FB6F894DEBF5D
:100970000FBECDBFDF91CF9108954F925F926F92DE
:100980007F928F929F92AF92BF92CF92DF92EF921F
:10099000FF920F931F93CF93DF93CFEDD2E04A8165
:1009A0005B816881798185E090E00E94D80188812F
:1009B00099810E9489026A817B81888199810E9444
:1009C00048028C016A817B81888199810E94BF01E4
:1009D000B801110F880B990B0E94021A6B017C0160
:1009E00024E533EE45E25DE30E948E1A20E030E01C
:1009F00040E850E40E94EB184B015C0122EA37EE1C
:100A00004BE356EBC701B6010E948E1AA70196016F
:100A10000E948E1A9B01AC01C501B4010E94EC1822
:100A20004B015C014A815B816881798183E090E0C0
:100A30000E94D801888199810E9489026A817B8104
:100A4000888199810E9448028C016A817B8188811A
:100A500099810E94BF01B801110F880B990B0E9468
:100A6000021A2AE037ED43E25CE30E948E1A20E08E
:100A700030E040E252E40E94EB1820E030E048EC25
:100A800051E40E94EB182B013C012CEA35EC47EABB
:100A900058E3C701B6010E948E1A2AE037ED43E2FF
:100AA0005CE30E94EC189B01AC01C301B2010E94FF
:100AB0008E1AA50194010E94EC18DF91CF911F912D
:100AC0000F91FF90EF90DF90CF90BF90AF909F90ED
:100AD0008F907F906F905F904F9008952091FC01D0
:100AE0009091FB01213208F04AC08091D801811118
:100AF000FCCF32E03093D80131E03093D7013FEFA3
:100B00003093D6011092D5012093D401ABEDB1E022
:100B100044EB51E0FA013E2F341B321718F43D919B
:100B20003193F9CF1092B3012091B301990F922B19
:100B30009093B3019091B201913061F41092B2019F
:100B40009091B3019093BB009091BC0093FDF8CFBE
:100B500095EC01C095EE9093BC009091D801923035
:100B6000E1F39091D6019F3F79F08091D6018032D8
:100B700041F08091D601803331F084E005C081E0FE
:100B800003C082E001C083E01092DA011092FC0100
:100B90001092D90108959091D8019111FCCF813222
:100BA00008F080E291E09093D8019093D7012FEF65
:100BB0002093D6011092D501280F2093D401909351
:100BC000B3019091B3019E6E9093B3019091B201E5
:100BD000913061F41092B2019091B3019093BB00F7
:100BE0009091BC0093FDF8CF95EC01C095EE9093E9
:100BF000BC009091D8019130E1F39091D501981704
:100C000010F48091D501A4EBB1E022E931E0F901C3
:100C10009E2F921B981718F49D919193F9CF1092E3
:100C20009101809390010895CF93C82F81E0809324
:100C3000D90187E78093FB011092DA011092FC0141
:100C400064EF83ED92E00E940A126C2F83ED92E034
:100C50000E940A12CF910C946E05CF92DF92EF9210
:100C6000FF920F931F9385EE92E00E94650DAC01F9
:100C700060E070E0E5EEF2E0858996899A01AB01CB
:100C8000281B390B41095109A389B4890E94BE1858
:100C90006B017C018FE0F594E794D794C7948A9513
:100CA000D1F765857685CB01770FAA0BBB0BBC010D
:100CB000CD012BE0660F771F881F991F2A95D1F76A
:100CC000278530898901330F220B330BA901980145
:100CD0002C0D3D1D4E1D5F1D0E949018D701C601B1
:100CE000820F931FA41FB51F0896A11DB11DBC0143
:100CF000CD0134E095958795779567953A95D1F72D
:100D00000E94021A20E030E040E251E40E945819AB
:100D10001F910F91FF90EF90DF90CF9008953F9239
:100D20004F925F926F927F928F929F92AF92BF92FB
:100D3000CF92DF92EF92FF920F931F93CF93DF93A7
:100D4000CDB7DEB728970FB6F894DEBF0FBECDBF84
:100D50008CEF92E00E94650D6C01E12CF12C8091EA
:100D6000FC028295880F880F807C8C5C0E941406A0
:100D70008091FC02811105C065E070E080E090E0A8
:100D800012C0813029F468E070E080E090E00BC090
:100D9000823029F46EE070E080E090E004C06AE107
:100DA00070E080E090E00E94041566EF8CEF92E026
:100DB0000E940B0D4C01A12CB12CBA2CA92C982C03
:100DC000882468EF8CEF92E00E943C0D882A3090D6
:100DD000FC028091110390911203A7019601281B38
:100DE000390B41095109A0910F03B09110030E94E2
:100DF000BE186B017C01AFE0F594E794D794C794DB
:100E0000AA95D1F76091090370910A03CB01770F7E
:100E1000AA0BBB0BBC01CD01BBE0660F771F881F7F
:100E2000991FBA95D1F720910B0330910C038901DA
:100E3000330F220B330BA90198012C0D3D1D4E1DC4
:100E40005F1D0E949018C20ED31EE41EF51E20EAFC
:100E5000C21A2FE0D20AE108F108A7019601C701E2
:100E6000B6010E943E189B01AC011CE055954795C8
:100E7000379527951A95D1F729833A834B835C835D
:100E80000091FD021091FE02A0910103B0910203B6
:100E9000A70196010E94C9182B013C018DE07594B1
:100EA0006794579447948A95D1F7A0910303B09122
:100EB000040329813A814B815C810E94C918BB27B8
:100EC00097FDB095AB2F840D951DA61DB71D0296FD
:100ED000A11DB11D32E0B595A795979587953A95D7
:100EE000D1F79C01AD0130584F4F5F4FA0910D03DA
:100EF000B0910E030E94BE182B013C014FE0769486
:100F00006794579447944A95D1F788E090E0831905
:100F10009109A501940104C05695479537952795E9
:100F20008A95D2F72D833E834F8358874801110F4E
:100F3000AA08BB0852E0880C991CAA1CBB1C5A9535
:100F4000D1F7A0910503B091060329813A814B8125
:100F50005C810E94C9189B01AC016BE055954795D7
:100F6000379527956A95D1F729833A834B835C831C
:100F7000A091FF02B0910003A70196010E94C91839
:100F8000DC01CB017BE0B595A795979587957A9580
:100F9000D1F729813A814B815C81820F931FA41F75
:100FA000B51F880D991DAA1DBB1D032C04C0880FF9
:100FB000991FAA1FBB1F0A94D2F7BC01CD016E5F17
:100FC0007F4F8F4F9F4F24E030E040E050E00E9481
:100FD00090188D819E81AF81B885821B930BA40BE5
:100FE000B50B9C01AD0180E593ECA0E0B0E0BC0145
:100FF000CD0104C096958795779567953A94D2F779
:101000000E943E1897FD0BC0660F771F881F991F1F
:10101000A30192010E946E1869017A010AC0A3011E
:1010200092010E946E1869017A01CC0CDD1CEE1C45
:10103000FF1C9927F7FC9A958F2D7E2D6D2D9B0116
:10104000AC010E943E189B01AC01AEEDBBE00E94DA
:10105000BE184C01BB2497FCB094AB2CA3E4B3EEB8
:10106000A70196010E94CC18BB2797FDB095AB2F26
:10107000880D991DAA1DBB1D8153914FAF4FBF4FC6
:1010800044E0B595A795979587954A95D1F7BC010A
:10109000CD016C0D7D1D8E1D9F1D28960FB6F894F9
:1010A000DEBF0FBECDBFDF91CF911F910F91FF909B
:1010B000EF90DF90CF90BF90AF909F908F907F90F8
:1010C0006F905F904F903F9008958F929F92AF9254
:1010D000BF920F931F93CF93DF93CDB7DEB7A19746
:1010E0000FB6F894DEBF0FBECDBF19A2423008F490
:1010F0004AE08E010F5D1F4F842E912CA12CB12C44
:10110000A50194010E946E18E62FB901CA01015091
:101110001109EA3014F4E05D01C0E95CD801EC93F8
:10112000232B242B252B61F7C8010E949415A1962F
:101130000FB6F894DEBF0FBECDBFDF91CF911F91E8
:101140000F91BF90AF909F908F900895CF92DF92B4
:10115000EF92FF92CF93DF9397FF21C06B017C0149
:10116000E0911D03F0911E030190F081E02D6DE2EE
:101170008DE193E00995EC0166277727CB016C1987
:101180007D098E099F094AE00E9465088C0F9D1F0A
:10119000DF91CF91FF90EF90DF90CF9008954AE0DC
:1011A000DF91CF91FF90EF90DF90CF900C94650886
:1011B000CF93DF930E949415EC018CE791E00E949D
:1011C00094158C0F9D1FDF91CF910895CF92DF92E0
:1011D000EF92FF920F931F93CF93DF936C017A01ED
:1011E0008B01C0E0D0E0CE15DF0589F0D8016D910C
:1011F0008D01D601ED91FC910190F081E02DC601A9
:101200000995892B11F47E0102C02196ECCFC7010C
:10121000DF91CF911F910F91FF90EF90DF90CF90D2
:101220000895FC01538D448D252F30E0842F90E0EC
:10123000821B930B541710F0CF96089501970895D1
:10124000FC01918D828D981761F0828DDF01A80FCE
:10125000B11D5D968C91928D9F5F9F73928F90E0F0
:1012600008958FEF9FEF0895FC01918D828D98175F
:1012700031F0828DE80FF11D858D90E008958FEF9C
:101280009FEF0895FC01918D228D892F90E0805C65
:101290009F4F821B91098F73992708958DE193E0E9
:1012A0000E94420921E0892B09F420E0822F089551
:1012B000FC01848DDF01A80FB11DA35ABF4F2C91F3
:1012C000848D90E001968F739927848FA689B789C2
:1012D0002C93A089B1898C9180648C93938D848D9B
:1012E000981306C00288F389E02D80818F7D80836A
:1012F0000895EF92FF920F931F93CF93DF93EC012A
:1013000081E0888F9B8D8C8D981305C0E889F989C1
:10131000808185FD24C0F62E0B8D10E00F5F1F4FDE
:101320000F731127E02E8C8DE8120CC00FB607FC4E
:10133000FACFE889F989808185FFF5CFCE010E9437
:101340005809F1CF8B8DFE01E80FF11DE35AFF4FD5
:10135000F0820B8FEA89FB898081806207C0EE8969
:10136000FF896083E889F98980818064808381E0D6
:1013700090E0DF91CF911F910F91FF90EF90089532
:10138000CF93DF93EC01888D8823C9F0EA89FB892C
:10139000808185FD05C0A889B9898C9186FD0FC023
:1013A0000FB607FCF5CF808185FFF2CFA889B989F8
:1013B0008C9185FFEDCFCE010E945809E7CFDF91D8
:1013C000CF91089580E090E0892B29F00E944E098A
:1013D00081110C9400000895FC018681845F0895BA
:1013E000FC01611102C082850895613011F481858C
:1013F0000895623011F480850895633011F4878177
:101400000895643011F486850895653011F485855A
:101410000895663011F484850895673011F483854A
:101420000895683011F480890895693011F4878532
:1014300008956A3011F4818908956B3011F482891E
:1014400008950480F581E02DE60FF11D3C97808121
:1014500008952091FF01309100022817390771F497
:101460009091FE018091FD01981741F0E091FE01FD
:10147000F0E0EF5FFD4F808190E008958FEF9FEFE8
:10148000089508951F93CF93DF93DC015C962D910F
:101490003C915D972115310539F481E090E0139678
:1014A0009C938E9312973DC05196ED91FC9152976B
:1014B00050969C915097892F80951FB75E964C91BE
:1014C0005E9741FB772770F941FD6095F894408164
:1014D000772311F0492B01C048234083E90121976C
:1014E000F1F748E0508160FF02C0592B01C058233A
:1014F0005083E9012197F1F76695415099F77723D9
:1015000021F090818923808303C08081982B908370
:101510001FBF5C968D919C915D970197F1F721E03B
:1015200030E0C901DF91CF911F9108952091FF0113
:10153000309100022817390771F48091FD01209144
:10154000FE0190E0805C9F4F821B910960E470E097
:101550000E945A18089580E090E008952091FF01BC
:101560003091000228173907B9F49091FE0180915B
:10157000FD01981789F0E091FE01F0E0EF5FFD4F6B
:1015800080812091FE0130E02F5F3F4F2F73332782
:101590002093FE0190E008958FEF9FEF0895089546
:1015A00080E090E008958F929F92AF92BF92CF9289
:1015B000DF92EF92FF92CF93DF93EC010E943E15F2
:1015C0006B017C018A8C9B8CAC8CBD8C0E943E157F
:1015D000683A73448540910580F4C818D90888EBAF
:1015E000C8168BE0D8064CF00E943E156A8F7B8FA0
:1015F0008C8F9D8F81E090E002C080E090E0DF91D1
:10160000CF91FF90EF90DF90CF90BF90AF909F90E1
:101610008F9008950E94FB1AEF92FF921F93CF9331
:10162000DF93CDB7DEB763970FB6F894DEBF0FBE7A
:10163000CDBF20E12B8321E02C839E838D836F839C
:1016400084E291E09A838983188619861A861B861C
:101650001C861D861E861F868EEF9FEF998B888BBA
:101660001A8A1B8A8EE70E94D5151F812CE0210F54
:1016700030E02E5F3F4F61E0832F0E94E21561E072
:101680008EE0810F0E94E21561E08B810E94E215DD
:1016900061E08C810E94E2151B818C81180FE12C86
:1016A000F12C8F81845F90E0E816F90694F46E2D9A
:1016B000CE0101960E94F00961E00E94E2156E2DB4
:1016C000CE0101960E94F009180F8FEFE81AF80A70
:1016D000E8CF61E0812F80950E94E215809155044A
:1016E00090915604DC01ED91FC910680F781E02D8C
:1016F000099563960FB6F894DEBF0FBECDBFDF919C
:10170000CF911F91FF90EF9008950F931F93CF9368
:10171000DF93CDB7DEB7C659D1090FB6F894DEBF57
:101720000FBECDBF8C018AE990E00E94C715CE01A3
:10173000019626E9FC0111922A95E9F7F801B29683
:1017400020E2DC0101900D922A95E1F760E270E061
:101750000E940C0BF801178E168E8CE890E00E9408
:10176000C715CA56DF4F0FB6F894DEBF0FBECDBF08
:10177000DF91CF911F910F9108951F920F920FB695
:101780000F9211242F933F934F935F936F937F9307
:101790008F939F93AF93BF93EF93FF938DE193E06C
:1017A0000E945809FF91EF91BF91AF919F918F9146
:1017B0007F916F915F914F913F912F910F900FBE4D
:1017C0000F901F9018951F920F920FB60F92112431
:1017D0002F938F939F93EF93FF93E0912D03F091BD
:1017E0002E038081E0913303F091340382FD12C017
:1017F0009081809136038F5F8F732091370382171A
:1018000051F0E0913603F0E0E35EFC4F958F80935A
:10181000360301C08081FF91EF919F918F912F91AD
:101820000F900FBE0F901F9018950F931F93CF939B
:10183000DF93EC01162F042F1B821A8288EE93E0AF
:10184000A0E0B0E08C839D83AE83BF838EE691E001
:10185000998388831F8A1E8A198E188E1B8E1A8E72
:101860001D8E1C8E6E8D6E7F20FB61F96E8F6695CE
:10187000617081E06827842F0E94061461E0802F48
:101880000E94B114402F50E0FA01E350FD4FE49163
:10189000E88BFA01E751FD4FE491F0E0EE0FFF1FF6
:1018A000EB52FD4F859194919A8B898B60E0812F4B
:1018B0000E94B1148E8D81FD04C061E0812F0E94D1
:1018C00006141C87612F70E0FB01E350FD4FE4918B
:1018D000ED87FB01E751FD4FE491F0E0EE0FFF1FB4
:1018E000E152FD4F859194919F878E87DF91CF9133
:1018F0001F910F9108951F920F920FB60F9211240E
:101900002F933F934F935F936F937F938F939F9307
:10191000AF93BF93EF93FF93E091FF01F09100022B
:10192000309709F451C0968DA685B785858591FFBE
:1019300004C09C91892329F447C09C91892309F014
:1019400043C0A389B4899C918589809589238C9310
:10195000868997890197F1F7608D718DA685B78586
:10196000558538E020E0CB010197F1F7822F90E018
:1019700095958795282F4C91452309F02068315083
:1019800091F7868D81FD20958091FD0190E0019673
:101990008F7399273091FE01381749F0A091FD010E
:1019A000B0E0AF5FBD4F2C938093FD0103C0868DE7
:1019B0008160868F828D938D0197F1F7A389B48919
:1019C0009C918589892B8C93FF91EF91BF91AF9169
:1019D0009F918F917F916F915F914F913F912F9147
:1019E0000F900FBE0F901F901895E091FF01F0919E
:1019F0000002E817F90769F4A389B4899C918589E5
:101A0000809589238C93109200021092FF0181E04F
:101A1000089580E00895CF93DF93D1E0D093D9016A
:101A2000C7E7C093FB011092DA011092FC0183ED2D
:101A300092E00E940A120E946E05D093D901C093D1
:101A4000FB011092DA011092FC0182E090E00E940A
:101A5000CB0583ED92E00E94BE11D82F80E0C82F05
:101A600083ED92E00E94BE11C82BD92B0E946E0517
:101A7000CE01DF91CF910895CF93DF93D1E0D09342
:101A8000D901C7E7C093FB011092DA011092FC0163
:101A900083ED92E00E940A120E946E05D093D90154
:101AA000C093FB011092DA011092FC0181E090E0FA
:101AB0000E94CB0583ED92E00E94BE11C82F0E94C8
:101AC0006E058C2FDF91CF910895CF93DF93EC01BA
:101AD0008EE20E94140665E070E080E090E00E94D3
:101AE000041566EFCE01DF91CF910C940B0D8FE0C2
:101AF0000E94ED14BC01990F880B990B0E94021AE9
:101B00009B01AC010E94EC182AE137E64CE950E455
:101B10000E948E1A20E030E04CE852E40E94EC185B
:101B20000E94CA19CB010895CF9382E090E00E94F1
:101B3000001BC82F83E090E00E94001B2C2F30E098
:101B4000A901582BCA01CF91089581E10E94ED149B
:101B5000BC01990F880B990B0E94021A2AE038E207
:101B600040EA5BE30E948E1A20E030E04AE754E44A
:101B70000E948E1A0E94CA19CB010895AF92BF929B
:101B8000CF92DF92EF92FF920F931F93CF93DF9349
:101B9000CDB7DEB7C659D1090FB6F894DEBF0FBE78
:101BA000CDBF0E943E156B017C010E94A50D8C01EA
:101BB0000E94940D5C0189E790E00E94C715FE0128
:101BC000319686E9DF011D928A95E9F7BC82AB82E6
:101BD000CD82DE82EF82F8861A8709876AE070E09C
:101BE000CF010E940C0B88E690E00E94C715CA56F0
:101BF000DF4F0FB6F894DEBF0FBECDBFDF91CF91A0
:101C00001F910F91FF90EF90DF90CF90BF90AF901A
:101C10000895FF920F931F93CF93DF93CDB7DEB755
:101C200028970FB6F894DEBF0FBECDBF0E94A30267
:101C3000F22E032F142F7E838F83EE81FF81852F59
:101C400090E070E0262F30E021503109472F50E01E
:101C50004217530744F4DA01AC5EBE4F4C91840F37
:101C6000911D7F5FF3CF633030F09F0123703327E6
:101C7000232B09F401964DE651E0E49F9001E59F86
:101C8000300DF49F300D112421593342ED5CF740A3
:101C9000F695E795F695E795E20FF31F9F01280F5C
:101CA000391FA8E1B0E00E94AF189B01AC012F0DD5
:101CB000311D411D511DACE3B0E00E94BE189B01D7
:101CC000AC01200F311D411D511D0E94BE18DC01C9
:101CD000CB01810F911DA11DB11DBC01CD0160582B
:101CE0007C4B8249974C28960FB6F894DEBF0FBE06
:101CF000CDBFDF91CF911F910F91FF90089580E0AC
:101D000090E008958DE193E00C9442090F931F93A6
:101D1000CF938C018CEB92E00E94C7158DE193E08C
:101D20000E9420090A97D1F78DE193E00E944209B1
:101D3000892BD1F38DE193E00E942009C82F80EB1D
:101D400092E00E94A615E0911D03F0911E03019000
:101D5000F081E02D6C2F8DE193E009958CE791E007
:101D60000E9494158DE193E00E9420090A97D1F713
:101D7000C53439F48FE992E0CF911F910F910C9403
:101D8000C715C03539F0C43579F682E992E00E9472
:101D9000C715CACF85E892E00E94C715D8011296F0
:101DA000ED91FC9113970995BFCF0F931F93CF939C
:101DB000DF93EC010E943E150E891F89288D398D15
:101DC000DC01CB01801B910BA20BB30B8033954739
:101DD000A105B10548F00E943E156E8B7F8B888F60
:101DE000998F81E090E002C080E090E0DF91CF9198
:101DF0001F910F910895CF93DF93EC018FE791E04E
:101E00000E9494150E943E154AE00E94650881E8F0
:101E100091E00E94941588E792E00E94C7150E9405
:101E20003E156EA37FA388A799A70E94A50D9BA727
:101E30008AA70E94770D9DA78CA70E948F066EA788
:101E40007FA788AB99AB0E942D0688EE93E09BABF1
:101E50008AAB0E94BD040E94CA197DAB6CAB80E1C5
:101E60000E94ED14BC01990F880B990B0E94021A75
:101E70002AE137E64CE950E40E948E1A0E94CA1902
:101E80007FAB6EAB0E944E04092E000CAA0BBB0B5D
:101E900088AF99AFAAAFBBAF0E94F3039DAF8CAFE1
:101EA0000E94090EFE01FE966083718382839383F4
:101EB00088A199A19DA38CA38DE692E00E94C715ED
:101EC0001F8E1E8ECE01DF91CF910C94850BCF9289
:101ED000DF92EF92FF92CF93DF9382E692E00E942F
:101EE000C71582E592E00E94A6150E94940DBC01E0
:101EF000990F880B990B0E94A6088CE791E00E942D
:101F000094150E94BD040E94CA196B017C0180E4F3
:101F100092E00E94A615B6010D2C000C880B990BBF
:101F20000E94A60884E891E00E94D808D7FE04C069
:101F30008EE192E00E94C7150E948F066B017C0122
:101F40008BE092E00E94A615C701B60124E630E0BE
:101F500040E050E00E949018CA01B9010E94A60812
:101F600089E092E00E94A615C701B60126EF3FEF77
:101F70004FEF5FEF0E949018C701B601620F731F09
:101F8000841F951F28EE33E040E050E00E94901837
:101F9000CA01B9010E94A60886E891E00E94D8080B
:101FA00080E8C81688E3D80681E0E806F10424F446
:101FB00080EE91E00E94C7150E942D068EEC91E004
:101FC0000E94A6154AE064E670E080E090E00E947E
:101FD00065088AE891E00E9494154AE06AE570E09D
:101FE00080E090E00E94650885EC91E00E94C715B2
:101FF00080E10E94ED14BC01990F880B990B0E949F
:10200000021A2AE137E64CE950E40E948E1A0E9437
:10201000CA196B017C018BE991E00E94A615B601FB
:102020000D2C000C880B990B0E94A6088CE891E0FF
:102030000E94D808D7FE04C08AE691E00E94C71526
:102040000E94A50D7C0186E591E00E94A615B701CE
:102050000F2C000C880B990B0E94A6088CE891E0CD
:102060000E94D808F7FE04C085E391E00E94C715DE
:102070000E94770D7C018DE191E00E94A615B701C9
:102080000F2C000C880B990B0E94A60889E191E0A7
:102090000E94C71584E6E816F10424F48EEE90E061
:1020A0000E94C7150E944E04BC01990F880B990B22
:1020B0004AE00E9465088CE791E00E9494150E9416
:1020C000F303BC0180E090E04AE00E9465088CE7E1
:1020D00091E00E9494150E94090E4AE00E94650852
:1020E0008CE791E00E94941585EE90E0DF91CF910E
:1020F000FF90EF90DF90CF900C94C715CF93DF93B4
:10210000EC010E94871283ED90E00E94C7151092A7
:10211000D5031092D4031092D3031092D2031092DD
:10212000D1031092D0038DEC90E09093D70380936D
:10213000D6032091C603263108F055C085E590E00E
:102140009093D1038093D0038BEC90E09093D303D2
:102150008093D20380E990E09093D5038093D403D9
:1021600090916800283050F031E02E3008F430E0D3
:1021700081E001C0880F3A95EAF701C084E0892B1D
:1021800080936800283038F02E3040F0263148F037
:1021900080E090E008C08DE690E005C08BE690E01E
:1021A00002C08CE690E09093CE038093CD0328305C
:1021B00030F491E001C0990F2A95EAF70CC0822F04
:1021C00090E02E3010F4089701C00E9791E001C006
:1021D000990F8A95EAF79093CF038091D603909157
:1021E000D7030197F1F78091D4039091D503892B00
:1021F00021F18091FF019091000223E08A3B920738
:10220000E1F0009711F00E94F50C8091D8038E7FC9
:102210008093D8031092FD011092FE018AEB93E0A7
:10222000909300028093FF01E091CD03F091CE03E3
:1022300090818091CF03892B80838AEB93E09093E8
:102240005604809355048CEF92E00E94361485EE7C
:1022500092E00E94361460E080E10E94B11460E0D8
:1022600081E10E94B11460E08FE00E94B11480917E
:102270001403823101F5809113038331E1F481E08D
:1022800080931C0361E082E10E94061461E083E117
:102290000E9406148091B9008E7F8093B9008091CE
:1022A000B9008D7F8093B90082E08093B80085E00B
:1022B0008093BC0007C010921C0361E0809113035F
:1022C0000E94B1140E94940D99A388A364E670E063
:1022D00080E090E00E94041582EC90E0DF91CF91C5
:1022E0000C94C7150E94871287EB90E00E94C715D7
:1022F0008AEA90E00C94C71585ED8093BC0080912C
:10230000BC0084FDFCCF1092D80108954091AE022C
:10231000262F30E0240F311D21323105DCF42091CD
:10232000D8012430C9F4FC0180E090E0861758F40D
:102330003091AE022191DC01A457BD4FA30FB11D16
:102340002C930196F3CF8091AE02680F6093AE029A
:1023500080E0089581E0089582E008950895E09175
:10236000910180919001E81730F4F0E0EE56FE4FB5
:10237000808190E008958FEF9FEF089590919101F3
:1023800080919001981750F4E92FF0E0EE56FE4F3F
:10239000208130E09F5F9093910102C02FEF3FEFCB
:1023A000C90108958091900190E020919101821BD4
:1023B00091090895CF92DF92EF92FF920F931F93AE
:1023C000CF93DF937C01262F972F8A018091D9012B
:1023D000882391F0C62FD72F6E01C40ED51ECC15C1
:1023E000DD0571F06991D701ED91FC910190F081CB
:1023F000E02DC7010995F3CF642F822F0E9486112B
:10240000C801DF91CF911F910F91FF90EF90DF9066
:10241000CF900895CF93DF931F92CDB7DEB7698336
:102420002091D9012223D1F02091FC01203240F0EB
:1024300021E030E0FC013383228380E090E015C08E
:102440008091DA01E82FF0E0E552FE4F9981908308
:102450008F5F8093DA018093FC0105C061E0CE01BB
:1024600001960E94861181E090E00F90DF91CF915C
:102470000895833081F028F4813099F08230A1F002
:1024800008958730A9F08830B9F08430D1F4809174
:1024900080008F7D03C0809180008F7780938000C3
:1024A000089584B58F7702C084B58F7D84BD08956B
:1024B0008091B0008F7703C08091B0008F7D8093B2
:1024C000B00008953FB7F8948091880290918902F6
:1024D000A0918A02B0918B0226B5A89B05C02F3F20
:1024E00019F00196A11DB11D3FBFBA2FA92F982F3A
:1024F0008827820F911DA11DB11DBC01CD0143E0B4
:10250000660F771F881F991F4A95D1F70895EDE14F
:10251000F3E0A089B18982E08C93A485B5851C92F3
:10252000A685B78587E68C93108EA489B58986E049
:102530008C93A289B3898C9180618C93A289B38991
:102540008C9188608C93A289B3898C9180688C93DC
:102550000288F389E02D80818F7D808308951F920A
:102560000F920FB60F9211242F933F934F935F93C7
:102570006F937F938F939F93AF93BF93EF93FF934B
:102580008091B900887F803609F49CC068F5883254
:1025900009F45BC090F4803109F454C038F4882306
:1025A00009F4F6C0883009F44DC0F6C0883109F44A
:1025B0004CC0803209F45DC0EFC0803409F468C0BB
:1025C00048F4803309F455C0883309F0E5C080939E
:1025D000D601D8C0803509F44FC0883509F45DC0F4
:1025E000883409F0D9C0D6C0883909F4C7C0A8F426
:1025F000883709F467C038F4883609F463C0803737
:1026000009F460C0C9C0883809F4B8C0803909F439
:102610005FC0803809F0C0C05BC0803B09F486C051
:1026200038F4803A09F466C0883A09F47FC0B4C02F
:10263000803C09F4A7C0883C09F4A4C0883B09F495
:102640008AC0AAC08091B30110C09091D501809139
:10265000D401981770F5E091D50181E08E0F809339
:10266000D501F0E0EC54FE4F80818093BB0085ECF7
:1026700086C08093D6018EC0E091D50181E08E0F97
:102680008093D5018091BB00F0E0EC54FE4F808335
:102690009091D5018091D4016EC0E091D50181E087
:1026A0008E0F8093D5018091BB00F0E0EC54FE4F7B
:1026B00080838091D70181116DC081E08093B20148
:1026C00084EA61C083E08093D8011092D202CFCF18
:1026D0008091D202803208F051C0E091D20281E0B4
:1026E0008E0F8093D2028091BB00F0E0EE54FD4F3C
:1026F0008083BDCF85EC8093BC001092D80180917F
:10270000D202803230F4E091D202F0E0EE54FD4F7C
:1027100010826091D20270E0E091B002F091B102BB
:1027200082EB92E009951092D20236C084E0809349
:10273000D8011092AF021092AE02E091AC02F0917B
:10274000AD0209958091AE02811105C081E08093B0
:10275000AE0210928C02E091AF0281E08E0F809366
:10276000AF02F0E0E457FD4F80818093BB00909171
:10277000AF028091AE02981708F479CF85E8809374
:10278000BC000AC085EC8093BC001092D80104C044
:102790001092D6010E947C11FF91EF91BF91AF91F1
:1027A0009F918F917F916F915F914F913F912F9169
:1027B0000F900FBE0F901F901895CF93DF93282F87
:1027C00030E0F901EF5EFC4F8491F901E350FD4FD9
:1027D000D491F901E751FD4FC491CC2391F08111BF
:1027E0000E943912EC2FF0E0EE0FFF1FE152FD4F77
:1027F000A591B491EC91ED2381E090E021F480E08B
:1028000002C080E090E0DF91CF9108951F93CF93B5
:10281000DF93282F30E0F901EF5EFC4F8491F9013E
:10282000E350FD4FD491F901E751FD4FC491CC2302
:10283000C9F0162F81110E943912EC2FF0E0EE0F33
:10284000FF1FEB52FD4FA591B4918FB7F894111172
:1028500005C09C91ED2FE095E92302C0EC91ED2B92
:10286000EC938FBFDF91CF911F910895CF93DF93AA
:10287000EC0183E0888310929101109290011092F4
:10288000DA011092FC011092D80181E08093D70107
:102890001092B20161E082E10E94061461E083E1DE
:1028A0000E9406148091B9008E7F8093B9008091B8
:1028B000B9008D7F8093B90080E28093B80085E4F1
:1028C0008093BC0060EDCE010E943C0D853509F07F
:1028D00044C06AEACE010E940B0D9A8389836CEA98
:1028E000CE010E940B0D9C838B836EEACE010E9469
:1028F0000B0D9E838D8360EBCE010E940B0D9A8B96
:10290000898B62EBCE010E940B0D9C8B8B8B64EB51
:10291000CE010E940B0D9E8B8D8B66EBCE010E942B
:102920000B0D98878F8368EBCE010E940B0D9A8761
:1029300089876AEBCE010E940B0D9C878B876CEB1D
:10294000CE010E940B0D9E878D876EEBCE010E94FB
:102950000B0D988B8F8781E001C080E0DF91CF91D4
:102960000895CF93DF9390E0FC01E350FD4F249155
:10297000FC01E751FD4F8491882361F190E0880FBD
:10298000991FFC01E553FD4FC591D491FC01EB5219
:10299000FD4FA591B491611109C09FB7F89488814A
:1029A000209582238883EC912E230BC0623061F442
:1029B0009FB7F8943881822F809583238883EC9188
:1029C0002E2B2C939FBF06C08FB7F894E8812E2B37
:1029D00028838FBFDF91CF9108958E3008F08E50FD
:1029E0008770806480937C0080917A0080648093FB
:1029F0007A0080917A0086FDFCCF8091780020914A
:102A0000790090E0922B08958F929F92AF92BF929F
:102A1000CF92DF92EF92FF926B017C010E946212D3
:102A20004B015C01C114D104E104F104F1F00E94F6
:102A30006212DC01CB0188199909AA09BB09883EF9
:102A40009340A105B10570F321E0C21AD108E10855
:102A5000F10888EE880E83E0981EA11CB11CC114F9
:102A6000D104E104F10419F7DDCFFF90EF90DF907E
:102A7000CF90BF90AF909F908F9008952FB7F8940C
:102A80006091840270918502809186029091870204
:102A90002FBF08951F920F920FB60F9211242F93FC
:102AA0003F938F939F93AF93BF93809184029091B4
:102AB0008502A0918602B09187023091830226E0C0
:102AC000230F2D3720F40296A11DB11D05C029E862
:102AD000230F0396A11DB11D2093830280938402CE
:102AE00090938502A0938602B0938702809188021A
:102AF00090918902A0918A02B0918B020196A11D4A
:102B0000B11D8093880290938902A0938A02B093AA
:102B10008B02BF91AF919F918F913F912F910F9019
:102B20000FBE0F901F901895009769F0FC0101905F
:102B30000020E9F73197AF01481B590BBC018DE12B
:102B400093E00C94E60880E090E008950F931F93C3
:102B5000CF93DF938C01C0E0D0E0F801EC0FFD1FB4
:102B60006491662371F0E0911D03F0911E030190C2
:102B7000F081E02D8DE193E00995892B11F02196EC
:102B8000ECCFCE01DF91CF911F910F910895CF939C
:102B9000DF930E94A615EC018CE791E00E9494154A
:102BA0008C0F9D1FDF91CF910895A0915504B09196
:102BB0005604ED91FC9111970190F081E02D682F62
:102BC000CD010994CF93662371F093E8980F92306A
:102BD00020F0982F9D7F913131F4C82F8DE70E940E
:102BE000D51580E28C27CF910C94D51560E08091AB
:102BF00014030E94B11461E0809113030E94061433
:102C0000809114030E94DD130197D1F360E080915D
:102C100013030C940614EF92FF920F931F93CF931C
:102C2000DF93E82EF62EC7E0D0E0042F10E09801E5
:102C30000C2E02C0359527950A94E2F7B901617010
:102C400077278E2D0E94061461E08F2D0E940614B6
:102C500060E08F2D0E940614219748F7DF91CF91F5
:102C60001F910F91FF90EF9008950F931F93CF93B3
:102C7000DF931F92CDB7DEB7482F03E113E061E089
:102C8000F801818149830E94B11461E0F8018181DA
:102C90000E94061461E0F80180810E94061460E041
:102CA000F80181810E94061460E0F80180810E9491
:102CB00006144981F801608181810F90DF91CF91E5
:102CC0001F910F910C940B16789484B5826084BD8B
:102CD00084B5816084BD85B5826085BD85B5816020
:102CE00085BD80916E00816080936E00109281009E
:102CF0008091810082608093810080918100816059
:102D00008093810080918000816080938000809119
:102D1000B10084608093B1008091B00081608093A5
:102D2000B00080917A00846080937A0080917A006C
:102D3000826080937A0080917A008E7F80937A00FF
:102D400080917A00806880937A001092C10082E7B7
:102D500091E190934A02809349028EE790E190932B
:102D600042028093410287E69FE090934402809361
:102D7000430285E89BE090934C0280934B028FE7DF
:102D80009EE090934E0280934D028BEF9EE09093D5
:102D900046028093450285ED9EE090935002809319
:102DA0004F0286E89EE0909348028093470282E8B3
:102DB0009EE0909352028093510283ED9AE09093AB
:102DC0005402809353028EEB9DE0909356028093C1
:102DD00055021092600210925F02109262021092ED
:102DE00061021092570210925802109259021092EA
:102DF0005A0281E090E09093640280936302109203
:102E00006602109265021092670210926802109298
:102E1000690210926A0210926C0210926B02109278
:102E20006E0210926D0210926F0210927002109258
:102E30007102109272021092740210927302109238
:102E40007602109275021092780210927702109218
:102E5000790210927A0210927B0210927C021092F8
:102E60007E0210927D0210927F02109280021092D8
:102E70008102109282020E947211E0914102F0914F
:102E8000420281E492E00995E0914302F09144020C
:102E90000995E0914F02F091500281E492E009958A
:102EA000892B39F0E0914502F091460281E492E0ED
:102EB0000995E0914D02F0914E0281E492E009956E
:102EC000892B39F0E0914B02F0914C0281E492E0C1
:102ED0000995E0915102F091520281E492E0099546
:102EE000892B39F0E0914702F091480281E492E0A9
:102EF0000995E0915302F091540281E492E0099522
:102F0000892B39F0E0915502F091560281E492E06C
:102F100009950E94E209BDCFCF93DF93CEE6D1E0C1
:102F2000D0935804C093570487E594E00E94F50CB1
:102F3000D093F504C093F40484EF94E00E94F50C60
:102F4000D093BB03C093BA038AEB93E0DF91CF9198
:102F50000C94F50CCF93DF93E3EDF2E01382128231
:102F600088EE93E0A0E0B0E084839583A683B783E6
:102F70002CE231E031832083CDE1D3E01B821A8241
:102F80008C839D83AE83BF838EE391E09983888396
:102F900085EC90E09D878C8784EC90E09F878E87FE
:102FA00080EC90E0998B888B81EC90E09B8B8A8BF6
:102FB00082EC90E09D8B8C8B86EC90E09F8B8E8BCF
:102FC000198E1A8E1B8E1C8EEFEDF2E088E090E0D9
:102FD0009183808387E090E093838283E9EDF3E03F
:102FE000128611861486158617821086158287EE42
:102FF00093E091838083D0935604C093550420E0DE
:1030000049E062E08AEB93E00E94150CE3E1F3E013
:1030100082E1818383E18083E3E1F5E0128611861A
:103020001486158617821086158281E295E09183B9
:103030008083D0939005C0938F0520E049E062E043
:1030400084EF94E00E94150CE6E7F4E01286118606
:103050001486158617821086158284E894E0918381
:103060008083D093F304C093F20420E049E062E04F
:1030700087E594E0DF91CF910C94150CDB018F93E1
:103080009F930E94BE18BF91AF91A29F800D911D8A
:10309000A39F900DB29F900D11240895991B79E084
:1030A00004C0991F961708F0961B881F7A95C9F7D8
:1030B0008095089597FB072E16F4009407D077FDAE
:1030C00009D00E94D11807FC05D03EF49095819557
:1030D0009F4F0895709561957F4F0895A1E21A2E34
:1030E000AA1BBB1BFD010DC0AA1FBB1FEE1FFF1FAC
:1030F000A217B307E407F50720F0A21BB30BE40BFC
:10310000F50B661F771F881F991F1A9469F7609542
:103110007095809590959B01AC01BD01CF010895FC
:10312000052E97FB1EF400940E94A71857FD07D0A8
:103130000E946E1807FC03D04EF40C94A71850950B
:103140004095309521953F4F4F4F5F4F0895909593
:103150008095709561957F4F8F4F9F4F0895A29FE7
:10316000B001B39FC001A39F700D811D1124911D5B
:10317000B29F700D811D1124911D08950E94AF18FA
:10318000A59F900DB49F900DA49F800D911D1124BB
:103190000895B7FF0C94BE180E94BE18821B930BB3
:1031A0000895AA1BBB1B51E107C0AA1FBB1FA6178E
:1031B000B70710F0A61BB70B881F991F5A95A9F7E0
:1031C00080959095BC01CD010895EE0FFF1F0590ED
:1031D000F491E02D09945058BB27AA270E940319A7
:1031E0000C94541A0E94461A38F00E944D1A20F08E
:1031F00039F49F3F19F426F40C94431A0EF4E09529
:10320000E7FB0C943D1AE92F0E94651A58F3BA1790
:10321000620773078407950720F079F4A6F50C94EC
:10322000871A0EF4E0950B2EBA2FA02D0B01B901D1
:1032300090010C01CA01A0011124FF27591B99F02C
:10324000593F50F4503E68F11A16F040A22F232F38
:10325000342F4427585FF3CF469537952795A79588
:10326000F0405395C9F77EF41F16BA0B620B730B2F
:10327000840BBAF09150A1F0FF0FBB1F661F771FA0
:10328000881FC2F70EC0BA0F621F731F841F48F455
:10329000879577956795B795F7959E3F08F0B0CFDE
:1032A0009395880F08F09927EE0F979587950895C5
:1032B0000E946C190C94541A0E944D1A58F00E94E6
:1032C000461A40F029F45F3F29F00C943D1A511141
:1032D0000C94881A0C94431A0E94651A68F3992377
:1032E000B1F3552391F3951B550BBB27AA27621702
:1032F0007307840738F09F5F5F4F220F331F441F0F
:10330000AA1FA9F335D00E2E3AF0E0E832D0915042
:103310005040E695001CCAF72BD0FE2F29D0660F2F
:10332000771F881FBB1F261737074807AB07B0E872
:1033300009F0BB0B802DBF01FF2793585F4F3AF078
:103340009E3F510578F00C943D1A0C94881A5F3F0B
:10335000E4F3983ED4F3869577956795B795F795FE
:103360009F5FC9F7880F911D9695879597F90895E6
:10337000E1E0660F771F881FBB1F62177307840782
:10338000BA0720F0621B730B840BBA0BEE1F88F791
:10339000E09508950E94D1196894B1110C94881A8F
:1033A00008950E946D1A88F09F5798F0B92F9927B9
:1033B000B751B0F0E1F0660F771F881F991F1AF020
:1033C000BA95C9F714C0B13091F00E94871AB1E0E4
:1033D00008950C94871A672F782F8827B85F39F0E3
:1033E000B93FCCF3869577956795B395D9F73EF4B9
:1033F00090958095709561957F4F8F4F9F4F089561
:10340000E89409C097FB3EF490958095709561957E
:103410007F4F8F4F9F4F9923A9F0F92F96E9BB2734
:103420009395F695879577956795B795F111F8CFB0
:10343000FAF4BB0F11F460FF1BC06F5F7F4F8F4F1B
:103440009F4F16C0882311F096E911C0772321F011
:103450009EE8872F762F05C0662371F096E8862FA9
:1034600070E060E02AF09A95660F771F881FDAF700
:10347000880F9695879597F9089597F99F6780E843
:1034800070E060E008959FEF80EC089500240A94B6
:103490001616170618060906089500240A9412162F
:1034A0001306140605060895092E0394000C11F462
:1034B000882352F0BB0F40F4BF2B11F460FF04C00F
:1034C0006F5F7F4F8F4F9F4F089557FD9058440F68
:1034D000551F59F05F3F71F04795880F97FB991F73
:1034E00061F09F3F79F08795089512161306140630
:1034F000551FF2CF4695F1DF08C0161617061806BD
:10350000991FF1CF86957105610508940895E89497
:10351000BB2766277727CB0197F908950E94A11A48
:103520000C94541A0E94461A38F00E944D1A20F04A
:10353000952311F00C943D1A0C94431A11240C9409
:10354000881A0E94651A70F3959FC1F3950F50E099
:10355000551F629FF001729FBB27F00DB11D639F45
:10356000AA27F00DB11DAA1F649F6627B00DA11DEB
:10357000661F829F2227B00DA11D621F739FB00D91
:10358000A11D621F839FA00D611D221F749F332701
:10359000A00D611D231F849F600D211D822F762F9A
:1035A0006A2F11249F5750409AF0F1F088234AF077
:1035B000EE0FFF1FBB1F661F771F881F91505040E3
:1035C000A9F79E3F510580F00C943D1A0C94881A7F
:1035D0005F3FE4F3983ED4F3869577956795B7956A
:1035E000F795E7959F5FC1F7FE2B880F911D969584
:1035F000879597F9089581E090E0F8940C94081B62
:10360000F999FECF92BD81BDF89A992780B50895AA
:1036100011E0C4E9D1E004C0FE010E94E518219642
:0A362000C539D107C9F7F894FFCFB0
:10362A007878787878787878787800787878787888
:10363A00787878001F1C1F1E1F1E1F1F1E1F1E1FAB
:10364A0000000000F009EC09000000000A12DA117B
:10365A00D00AAE11D211BE11AF11000000007909D3
:10366A00E6081109C00942092009340900000000CE
:10367A000A0BE608D00ACF0A0A0B0A0B0A0B00004B
:10368A0000000A0BE608D00ACF0A00000000420A2E
:10369A00E608D00A410A960AAE0A290A0D0A005B10
:1036AA00005D20002500206D62002E00206D56006E
:00000001FF
