:100000000C949E010C94C6010C94C6010C947909C1
:100010000C9479090C9479090C94C6010C94C601CE
:100020000C94C6010C94C6010C94C6010C94C60134
:100030000C94C6010C94C6010C94C6010C94C60124
:100040000C94E0140C94C6010C9450150C942A15D1
:100050000C94C6010C94C6010C94C6010C94C60104
:100060000C94AE0B0C94C60147656E3A206170701B
:100070006C65323300426F617264204F707473009C
:10008000426F61726420536574757020446F6E65B1
:1000900000426F61726420536574757020537461FF
:1000A000727400504F535420456E64005B505D20C5
:1000B000094552524F523A20736F6C617220706141
:1000C0006E656C2076616C7565206F7574206F6647
:1000D0002072616E676500206D56005B505D207375
:1000E0006F6C61722070616E656C2076616C7565F5
:1000F0003A20005B505D20094572726F723A2062AF
:10010000617474657279206F7574206F66207261F6
:100110006E6765005B505D20626174746572792062
:1001200076616C75653A20005B505D2009457272FE
:100130006F723A2061706F67656520736F6C6172D2
:1001400020697272616469616E6365206F757420E5
:100150006F662072616E6765005B505D2061706F35
:100160006765655F535032313220736F6C61722066
:10017000697272616469616E63652076616C756530
:100180003A20002063656C73697573005B505D20D5
:10019000424D453238302074656D703A20005B5016
:1001A0005D20094572726F723A20424D45323830F7
:1001B000207072657373757265206F7574206F6639
:1001C0002072616E6765002E005B505D20424D45D8
:1001D0003238302070726573737572652076616C89
:1001E00075653A20005B505D20094572726F723A66
:1001F0002048756D6964697479206F7574206F6625
:100200002072616E6765005B505D20424D4532385B
:10021000302068756D69646974792076616C7565E4
:100220003A20005B505D206E6F64652061646472EB
:100230003A2000504F535420426567696E00536165
:100240006D706C6520456E640053616D706C652047
:1002500053746172740052756E6E696E6720504FF0
:10026000535400434D44204D6F646520636D64001A
:100270004C656176696E6720434D44206D6F6465FF
:1002800000474F54204120434D443A2000456E74AE
:10029000657220434D44204D6F64650054582048DA
:1002A000656172746265617420456E640054582003
:1002B0004865617274626561742053746172740080
:1002C00053616D706C6520545820456E6400536115
:1002D0006D706C6520545820537461727400000076
:1002E00000080002010000030407000000000000F5
:1002F000000000000000240027002A000000000089
:1003000023002600290000000000250028002B0003
:1003100004040404040404040202020202020303AB
:1003200003030303010204081020408001020408B3
:1003300010200102040810206018541811241FBE58
:10034000CFEFD8E0DEBFCDBF11E0A0E0B1E0EEE13D
:10035000FBE302C005900D92AE35B107D9F725E059
:10036000AEE5B1E001C01D92A735B207E1F711E09B
:10037000CDE9D1E004C02197FE010E94131BCC39C6
:10038000D107C9F70E9438170C94821D0C94000005
:1003900020919A0230919B022817390771F48091BD
:1003A0000A0220910B0290E0805C9F4F821B910912
:1003B00060E470E00E941719089580E090E00895CD
:1003C00020919A0230919B0228173907B9F4909135
:1003D0000B0280910A02981789F0E0910B02F0E07D
:1003E000E653FE4F808120910B0230E02F5F3F4F9C
:1003F0002F73332720930B0290E008958FEF9FEF28
:100400000895089580E090E0089580E090E00895D8
:100410008FE00E948314BC01990F880B990B0E94F6
:10042000361C9B01AC010E941A1B2AE137E64CE9FD
:1004300050E40E94101D20E030E04CE852E40E949D
:100440001A1B0E94F81BCB01089581E10E948314BE
:10045000BC01990F880B990B0E94361C2AE038E2E8
:1004600040EA5BE30E94101D20E030E04AE754E4DC
:100470000E94101D0E94F81BCB010895CF9382E0CB
:1004800090E00E94EB18C82F83E090E00E94EB18E8
:100490002C2F30E0A901582BCA01CF910895EF927B
:1004A000FF921F93CF93DF93CDB7DEB763970FB65D
:1004B000F894DEBF0FBECDBF20E12B8321E02C835B
:1004C0009E838D836F8380E191E09A838983188670
:1004D00019861A861B861C861D861E861F868EEF31
:1004E0009FEF998B888B1A8A1B8A8EE70E943116A0
:1004F0001F818CE0810F90E00296892F0E943E16AA
:100500008EE0810F0E943E168B810E943E168C81E8
:100510000E943E161B818C81180FE12CF12C8F81DB
:10052000845F90E0E816F9068CF46E2DCE010196FA
:100530000E947B130E943E166E2DCE0101960E94F2
:100540007B13180F8FEFE81AF80AE9CF812F8095F7
:100550000E943E168091240390912503DC01ED91C9
:10056000FC910680F781E02D099563960FB6F8940B
:10057000DEBF0FBECDBFDF91CF911F91FF90EF90F7
:100580000895DF92EF92FF920F931F93CF93DF9323
:1005900080916003882309F447C084EE8093BC00F7
:1005A0008091BC0087FFFCCF80ED8093BB0084EC82
:1005B0008093BC008091BC0087FFFCCF1092BB00F1
:1005C00084EC8093BC008091BC0087FFFCCF84EE5C
:1005D0008093BC008091BC0087FFFCCF81ED8093AD
:1005E000BB0084EC8093BC008091BC0087FFFCCFF3
:1005F000E9E5F3E080E693E034EC3093BC00209131
:10060000BC0027FFFCCF2091BB0021938E179F07D2
:10061000A1F784E88093BC008091BC0087FFFCCFE9
:1006200084E98093BC0089C080ED0E948D160E94F1
:10063000501661E0809158030E94471440E0609199
:100640005703809158030E9465160E94501681ED51
:100650000E948D160E94501639E5E32E33E0F32EEA
:10066000C0E0D0E060E0809158030E94471407E0AA
:1006700010E0D12C61E0809157030E94050D80911C
:1006800058030E94DC0C9927002E01C0880F0A94A1
:10069000EAF7D82A60E0809157030E94050D0150C7
:1006A000110940F7F701D1927F0161E08091580371
:1006B000C630D10549F00E94471460E0809157038D
:1006C0000E94050D60E008C00E94471460E0809120
:1006D00057030E94050D61E0809158030E94050DAB
:1006E00061E0809157030E94050D60E080915703FF
:1006F0000E94050D60E0809158030E9447142196E6
:10070000C730D10509F0AECF61E0809158030E9457
:10071000471460E0809158030E94050D61E08091CC
:1007200057030E94050D61E0809158030E94050D5A
:1007300060E0809158030E94471480915903E82F8C
:10074000E695E695E695EE709E2F990F990FE90FC5
:100750008F70E80F80915A03F82FF695F695F6956D
:10076000FE709F2F990F990FF90F8F70F80F8091DE
:100770005B03C82FCF7087FF09C085FB992790F9CD
:100780001C2F8CE0989F100D11240AC08073869551
:1007900086958695982F990F990F890F1C2F180F02
:1007A00070915D03272F2695269526952E70922F02
:1007B000990F990F622F690F80915E03382F36953C
:1007C000369536953E70432F440F440F932F940F68
:1007D000382F3F70390F40915F03842F82958F70BF
:1007E0004F709AE0899F400D112450E04053584FBC
:1007F000272F2F70260F822F90E020E0A32FB0E04C
:100800001197622F70E06A177B0744F460507F4FA6
:10081000EB016881860F911D2F5FF3CF333030F0ED
:100820009A0123703327232B09F401969A012D5C3A
:100830003740B9017695679576956795ADE6B1E055
:100840004A9F90014B9F300D5A9F300D1124215922
:100850003342260F371F280F391FA8E1B0E00E944E
:100860006C199B01AC01210F311D411D511DACE3E1
:10087000B0E00E947B199B01AC012F0F311D411D7F
:10088000511D0E947B19DC01CB018E0F911DA11D12
:10089000B11DBC01CD0160587C4B8249974CDF9162
:1008A000CF911F910F91FF90EF90DF9008950F93DC
:1008B0001F93CF93DF93CDB7DEB7C659D1090FB6DB
:1008C000F894DEBF0FBECDBF8C018EEC92E00E948B
:1008D0002316CE01019626E9FC0111922A95E9F72B
:1008E000F801B2962AE1DC0101900D922A95E1F718
:1008F0006AE170E00E944F02F801178E168E80ECBC
:1009000092E00E942316CA56DF4F0FB6F894DEBF5E
:100910000FBECDBFDF91CF911F910F9108958F92A0
:100920009F92AF92BF92EF92FF920F931F93CF933C
:10093000DF93CDB7DEB7C659D1090FB6F894DEBF45
:100940000FBECDBF0E94D4144B015C010E94250252
:100950008C010E943E027C018DEA92E00E942316E7
:10096000CE01019626E9FC0111922A95E9F7FC8255
:10097000EB828D829E82AF82B8861A8709876AE0F1
:1009800070E00E944F028CE992E00E942316CA5642
:10099000DF4F0FB6F894DEBF0FBECDBFDF91CF9112
:1009A0001F910F91FF90EF90BF90AF909F908F900D
:1009B00008958F929F92AF92BF92CF92DF92EF9263
:1009C000FF92CF93DF93EC010E94D4146B017C0162
:1009D0008A8C9B8CAC8CBD8C0E94D414683A734476
:1009E0008540910580F4C818D90888EBC8168BE0BB
:1009F000D8064CF00E94D4146A8F7B8F8C8F9D8F09
:100A000081E090E002C080E090E0DF91CF91FF9024
:100A1000EF90DF90CF90BF90AF909F908F90089510
:100A20000F931F93CF93DF93EC010E94D4140E8990
:100A30001F89288D398DDC01CB01801B910BA20B06
:100A4000B30B80339547A105B10548F00E94D4143B
:100A50006E8B7F8B888F998F81E090E002C080E061
:100A600090E0DF91CF911F910F91089581E693E07F
:100A70000C94C6120F931F93CF938C018DE892E0D4
:100A80000E94231681E693E00E94A4120A97D1F7F0
:100A900081E693E00E94C612892BD1F381E693E0B0
:100AA0000E94A412C82F81E892E00E9408166C2FC1
:100AB00081E693E00E94FE128AE491E00E94F6151E
:100AC00081E693E00E94A4120A97D1F7C53439F465
:100AD00080E792E0CF911F910F910C942316C035BF
:100AE00039F0C435A9F683E692E00E942316D0CFF0
:100AF00086E592E00E942316D8011296ED91FC91B2
:100B000013970995C5CFCF93DF93EC018DE491E066
:100B10000E94F6150E94D4144AE00E940B0B8FE449
:100B200091E00E94F61589E492E00E9423160E944B
:100B3000D4146EA37FA388A799A70E9425029BA720
:100B40008AA70E9408029DA78CA70E94CC0F0E9432
:100B5000FF1B68AB79AB8AAB9BAB0E942B0E20E0EE
:100B600030E848E853E40E941A1B0E94FF1B7DAB4B
:100B70006CAB0E94C70E0E94FF1B7FAB6EAB80E187
:100B80000E948314BC01990F880B990B0E94361C9C
:100B90002AE137E64CE950E40E94101D0E94F81B40
:100BA0007FA76EA70E94C10268AF79AF8AAF9BAFE3
:100BB00088A199A19DA38CA38EE392E00E942316A5
:100BC0001F8E1E8ECE01DF91CF910C945704CF92D1
:100BD000DF92EF92FF920F931F93CF93DF9383E304
:100BE00092E00E94231683E292E00E9408160E947F
:100BF0003E02BC01990F880B990B0E944C0B8AE4B2
:100C000091E00E94F6150E94C70E0E94FF1B6B0127
:100C10007C0187E092E00E940816B6010D2C000CC2
:100C2000880B990B0E944C0B82E591E00E94780B97
:100C3000D7FE04C085EE91E00E9423160E94CC0FDF
:100C40000E94FF1B6B017C0189EC91E00E94081659
:100C5000C701B60124E630E040E050E00E944D19A3
:100C6000CA01B9010E944C0B87EC91E00E94081662
:100C7000C701B60126EF3FEF4FEF5FEF0E944D191E
:100C8000CA01B9016C0D7D1D8E1D9F1D28EE33E03C
:100C900040E050E00E944D19CA01B9010E944C0B7E
:100CA00084E591E00E94780B80E8C81688E3D806B6
:100CB00081E0E806F10424F48EE991E00E94231615
:100CC0000E942B0E20E030E848E853E40E941A1BF3
:100CD0000E94FF1B6B017C018CE891E00E940816CA
:100CE000CAE0D0E0C601BE010E9403198B0180E07A
:100CF00090E04AE00E940B0B88E591E00E94F61517
:100D0000C601801B910BBE010E94031980E090E098
:100D10004AE00E940B0B83E891E00E94231680E1D9
:100D20000E948314BC01990F880B990B0E94361CFA
:100D30002AE137E64CE950E40E94101D0E94F81B9E
:100D40006B017C0189E591E00E940816B6010D2C2B
:100D5000000C880B990B0E944C0B8AE591E00E94D5
:100D6000780BD7FE04C088E291E00E9423160E940F
:100D70002502EC0184E191E00E940816BE010D2ECF
:100D8000000C880B990B0E944C0B8AE591E00E94A5
:100D9000780BD7FF04C083EF90E00E9423160E94D7
:100DA0000802EC018BED90E00E940816BE010D2EAA
:100DB000000C880B990B0E944C0B87ED90E00E9471
:100DC0002316C436D10524F48CEA90E00E94231641
:100DD0000E94C1024AE00E940B0B8AE491E00E944B
:100DE000F61583EA90E0DF91CF911F910F91FF906C
:100DF000EF90DF90CF900C9423161F93CF93DF9347
:100E0000EC010E94860B81E990E00E94231610926B
:100E100019041092180410921704109216041092DC
:100E20001504109214048DEC90E090931B048093B1
:100E30001A0490910A04963108F058C025E530E074
:100E400030931504209314042BEC30E030931704F6
:100E50002093160420E930E03093190420931804FD
:100E600040916800983058F031E09E3008F430E04E
:100E700021E0822F01C0880F3A95EAF701C084E093
:100E8000842B80936800983038F09E3040F0963183
:100E900048F020E030E008C02DE630E005C02BE649
:100EA00030E002C02CE630E03093120420931104AD
:100EB000983030F481E001C0880F9A95EAF70EC0AF
:100EC000292F30E09E3018F42850310902C02E50EE
:100ED000310981E001C0880F2A95EAF78093130455
:100EE00080911A0490911B040197F1F780911804E6
:100EF00090911904892B49F1E0919A02F0919B029B
:100F000043E0EE3FF40709F1309739F0A389B48943
:100F10009C918589809589238C9380911C048E7F78
:100F200080931C0410920A0210920B028EEF93E041
:100F300090939B0280939A02E0911104F091120425
:100F4000908180911304892B80838EEF93E090939E
:100F500025038093240387E78093260380912F0342
:100F60008F3FA1F5109279021092780210926301DE
:100F7000109264011092770281E0809376021092C1
:100F8000710261E082E10E94050D61E083E10E944F
:100F9000050D8091B9008E7F8093B9008091B900D2
:100FA0008D7F8093B90080E28093B80085E48093C0
:100FB000BC0081E89AE09093600180935F0182E831
:100FC0009AE090936201809361014EC061E00E94BB
:100FD000050D61E080912F030E9447148091320338
:100FE0008F3F09F034C01FB7F89480915E018111E2
:100FF00027C0EAE1F3E08491EEE2F3E09491E82F78
:10100000F0E0EE0FFF1FEE50FD4FA591B491EC9173
:10101000E92321F461E08AE00E94050D61E08AE0A5
:101020000E9447148CB580618CBD8CB580648CBDEA
:1010300061E08DE00E94471461E08BE00E9447145C
:1010400080915E018F5F80935E011FBF0DC061E0E4
:101050000E94471461E0809130030E94471460E0D1
:10106000809131030E94471480ED0E940012803667
:1010700009F0EDC066EB80EE0E94BB116CE271E0FE
:1010800080E090E00E949A1483EF0E94001280FF9B
:1010900005C064E670E080E090E0F4CF88E80E944C
:1010A0008F0D90933403809333038AE80E948F0D51
:1010B00090933603809335038CE80E948F0D9093B4
:1010C0003803809337038EE80E948F0D90933A0384
:1010D0008093390380E90E948F0D90933C038093A5
:1010E0003B0382E90E948F0D90933E0380933D0362
:1010F00084E90E948F0D9093400380933F0386E91B
:101100000E948F0D909342038093410388E90E94CF
:101110008F0D90934403809343038AE90E948F0DBF
:1011200090934603809345038CE90E948F0D909322
:101130004803809347038EE90E948F0D90934A03E2
:101140008093490381EA0E94001280934B0381EE51
:101150000E948F0D90934D0380934C0383EE0E9469
:10116000001280934E0384EE0E940012182F85EE29
:101170000E94001290E1199F900111248F70282B7A
:101180003093500320934F0386EE0E940012182FD5
:1011900085EE0E94001240E1149F9001112490E01E
:1011A00044E0959587954A95E1F7822B932B909390
:1011B00052038093510387EE0E94001280935303E1
:1011C0008DEE80935503809156038F71806A8093D2
:1011D000560380915403807C8093540365E082EF32
:1011E0000E94BB1190915403692F677080E2689F41
:1011F00090011124892F869586958695877048E001
:10120000849FB0011124622B732B97FB992790F9CF
:10121000692B85EF0E94BB1190915503692F677070
:1012200080E2689F90011124892F86958695869586
:10123000877048E0849FB0011124622B732B929534
:10124000969596959370692B84EF0E94BB1160E090
:1012500080E10E94471460E081E10E94471460E051
:101260008FE00E94471480915803823101F58091EC
:1012700057038331E1F481E08093600361E082E110
:101280000E94050D61E083E10E94050D8091B90087
:101290008E7F8093B9008091B9008D7F8093B900D3
:1012A00082E08093B80085E08093BC0007C0109274
:1012B000600361E0809157030E9447140E943E0240
:1012C00099A388A364E670E080E090E00E949A14FD
:1012D00080E890E0DF91CF911F910C9423160E943B
:1012E000860B85E790E00E94231688E690E00C9438
:1012F00023161F920F920FB60F9211242F933F9334
:101300004F935F936F937F938F939F93AF93BF930D
:10131000EF93FF93E0919A02F0919B02309709F4CA
:1013200051C0968DA685B785858591FF04C09C9197
:10133000892329F447C09C91892309F043C0A389DC
:10134000B4899C918589809589238C938689978916
:101350000197F1F7608D718DA685B785558538E0C9
:1013600020E0CB010197F1F7822F90E095958795CA
:10137000282F4C91452309F02068315091F7868D34
:1013800081FD209580910A0290E001968F73992744
:1013900030910B02381749F0A0910A02B0E0A65331
:1013A000BE4F2C9380930A0203C0868D8160868F86
:1013B000828D938D0197F1F7A389B4899C918589DA
:1013C000892B8C93FF91EF91BF91AF919F918F915A
:1013D0007F916F915F914F913F912F910F900FBE31
:1013E0000F901F90189530916401313208F04BC076
:1013F000809177028111FCCF9091C90122E0209366
:10140000770221E0209376022FEF2093750210924D
:10141000740230937302E9EAF1E0A1E5B2E020E062
:10142000321721F041914D932F5FFACF1092720243
:1014300020917202990F922B9093720290917102F7
:10144000913061F410927102909172029093BB00FE
:101450009091BC0093FDF8CF95EC01C095EE909370
:10146000BC00909177029230E1F3909175029F3F1A
:1014700079F080917502803241F08091750280335D
:1014800031F084E005C081E003C082E001C083E068
:1014900010926301109264011092A801089585EDE5
:1014A0008093BC008091BC0084FDFCCF1092770239
:1014B000089540918501262F30E0240F311D2132FF
:1014C0003105DCF4209177022430C9F4FC0180E07E
:1014D00090E0861758F4309185012191DC01AB59D9
:1014E000BE4FA30FB11D2C930196F3CF80918501C0
:1014F000680F6093850180E0089581E0089582E09F
:101500000895089508950895E091790280917802F0
:10151000E81730F4F0E0E658FD4F808190E0089540
:101520008FEF9FEF0895909179028091780298173C
:1015300050F4E92FF0E0E658FD4F208130E09F5F46
:101540009093790202C02FEF3FEFC9010895809177
:10155000780290E020917902821B91090895CF9240
:10156000DF92EF92FF920F931F93CF93DF937C0153
:10157000CB018A012091A801222389F0EB016B01A4
:10158000C40ED51ECC15DD0569F06991D701ED912A
:10159000FC910190F081E02DC7010995F3CF642FF4
:1015A0000E94590AC801DF91CF911F910F91FF90BE
:1015B000EF90DF90CF900895CF93DF931F92CDB738
:1015C000DEB769832091A8012223D1F02091640124
:1015D000203240F021E030E0FC013383228380E0C0
:1015E00090E015C080916301E82FF0E0E755FE4FD1
:1015F000998190838F5F809363018093640105C01C
:1016000061E0CE0101960E94590A81E090E00F90BE
:10161000DF91CF9108958F929F92AF92BF920F93D7
:101620001F93CF93DF93CDB7DEB7A1970FB6F89492
:10163000DEBF0FBECDBF19A2423008F44AE08E01D2
:101640000F5D1F4F842E912CA12CB12CA50194016C
:101650000E942B19E62FB901CA0101501109EA3085
:1016600014F4E05D01C0E95CD801EC93232B242B3A
:10167000252B61F7C8010E94F615A1960FB6F894C4
:10168000DEBF0FBECDBFDF91CF911F910F91BF90F5
:10169000AF909F908F900895CF92DF92EF92FF923C
:1016A000CF93DF9397FF1BC06B017C016DE281E656
:1016B00093E00E94FE12EC0166277727CB016C199C
:1016C0007D098E099F094AE00E940B0B8C0F9D1F1C
:1016D000DF91CF91FF90EF90DF90CF9008954AE097
:1016E000DF91CF91FF90EF90DF90CF900C940B0B98
:1016F000CF93DF930E94F615EC018AE491E00E94FB
:10170000F6158C0F9D1FDF91CF910895E1E6F3E070
:10171000A089B18982E08C93A485B5851C92A685A9
:10172000B78587E68C93108EA489B58986E08C9363
:10173000A289B3898C9180618C93A289B3898C91A1
:1017400088608C93A289B3898C9180688C9302887D
:10175000F389E02D80818F7D808308951F920F9201
:101760000FB60F9211242F933F934F935F936F9374
:101770007F938F939F93AF93BF93EF93FF9380914A
:10178000B900887F803609F49CC068F5883209F476
:101790005BC090F4803109F454C038F4882309F414
:1017A000F6C0883009F44DC0F6C0883109F44CC049
:1017B000803209F45DC0EFC0803409F468C048F499
:1017C000803309F455C0883309F0E5C08093750271
:1017D000D8C0803509F44FC0883509F45DC088341D
:1017E00009F0D9C0D6C0883909F4C7C0A8F4883731
:1017F00009F467C038F4883609F463C0803709F407
:1018000060C0C9C0883809F4B8C0803909F45FC025
:10181000803809F0C0C05BC0803B09F486C038F452
:10182000803A09F466C0883A09F47FC0B4C0803CAD
:1018300009F4A7C0883C09F4A4C0883B09F48AC015
:10184000AAC08091720210C09091740280917302BC
:10185000981770F5E091740281E08E0F8093740206
:10186000F0E0EF5AFD4F80818093BB0085EC86C08D
:10187000809375028EC0E091740281E08E0F809398
:1018800074028091BB00F0E0EF5AFD4F808390918D
:101890007402809173026EC0E091740281E08E0F39
:1018A000809374028091BB00F0E0EF5AFD4F80837B
:1018B0008091760281116DC081E08093710284EA8B
:1018C00061C083E0809377021092A701CFCF80910F
:1018D000A701803208F051C0E091A70181E08E0F8E
:1018E0008093A7018091BB00F0E0E957FE4F808311
:1018F000BDCF85EC8093BC00109277028091A70148
:10190000803230F4E091A701F0E0E957FE4F1082F9
:101910006091A70170E0E0916101F091620187E8B8
:1019200091E009951092A70136C084E08093770278
:101930001092860110928501E0915F01F0916001A3
:10194000099580918501811105C081E08093850111
:1019500010926501E091860181E08E0F80938601EF
:10196000F0E0EB59FE4F80818093BB00909186019F
:1019700080918501981708F479CF85E88093BC00A1
:101980000AC085EC8093BC001092770204C01092CC
:1019900075020E944F0AFF91EF91BF91AF919F9105
:1019A0008F917F916F915F914F913F912F910F9008
:1019B0000FBE0F901F901895CF93DF93282F30E024
:1019C000F901E252FD4F8491F901EC5DFC4FD49195
:1019D000F901E05FFC4FC491CC2391F081110E948A
:1019E0001E14EC2FF0E0EE0FFF1FE450FD4FA59109
:1019F000B491EC91ED2381E090E021F480E002C00D
:101A000080E090E0DF91CF9108951F93CF93DF9313
:101A1000282F30E0F901E252FD4F8491F901EC5D8D
:101A2000FC4FD491F901E05FFC4FC491CC23C1F08D
:101A3000162F81110E941E14EC2FF0E0EE0FFF1FF5
:101A4000EA5FFC4FA591B4919FB7F894111104C0BF
:101A50008C91D095D82302C0EC91DE2BDC939FBFF4
:101A6000DF91CF911F910895CF93DF93C82F80917D
:101A70002F038F3F39F58091260391E09093A801C1
:101A80008093C90110926301109264016C2F8CE95C
:101A900092E00E94DC0A0E94F30962E08091260332
:101AA0000E94EF168CE992E00E94930AC82F8CE9FD
:101AB00092E00E94930A20E030E03C2FE901C82B1D
:101AC000D92B29C0809132038F3F21F481E590E02A
:101AD0000E94831560E080912F030E94050D8C2FDA
:101AE00080680E94AF1680E00E94AF16C82F80E089
:101AF0000E94AF162C2F30E0322F2227E901C82B8D
:101B000061E080912F030E94050D809132038F3F89
:101B100011F40E948215CE01DF91CF9108950E94A9
:101B2000340D98278927982708954F925F926F92D6
:101B30007F928F929F92AF92BF92CF92DF92EF925D
:101B4000FF92CF93C82F80912F038F3F09F040C0A1
:101B50008091260391E09093A8018093C90110928F
:101B60006301109264016C2F8CE992E00E94DC0A00
:101B70000E94F30963E0809126030E94EF168CE92E
:101B800092E00E94930A2C01990F66087708762C40
:101B9000652C542C44248CE992E00E94930A6C0139
:101BA000990FEE08FF08C428D528E628F7288824CE
:101BB0009C2CAD2CBE2C8CE992E00E94930A6C0107
:101BC000990FEE08FF08C828D928EA28FB2833C057
:101BD000809132038F3F21F481E590E00E948315CC
:101BE00060E080912F030E94050D8C2F80680E9479
:101BF000AF1680E00E94AF16C82ED12CE12CF12C3C
:101C0000FE2CED2CDC2CCC2480E00E94AF16C82AE0
:101C1000FE2CED2CDC2CCC2480E00E94AF16C82AD0
:101C200061E080912F030E94050D809132038F3F68
:101C300011F40E948215C701B601CF91FF90EF9079
:101C4000DF90CF90BF90AF909F908F907F906F90DC
:101C50005F904F9008958F929F92AF92BF92CF92D4
:101C6000DF92EF92FF920F931F938AEF0E94950DE0
:101C70006115710520E88207910509F479C000918A
:101C800033031091340320E030E0C72ED82EE92E24
:101C9000FF24E7FCFA94C01AD10AE20AF30ADC0135
:101CA000CB0157E0B595A795979587955A95D1F7AC
:101CB000000F111F221F331F4C015D01801A910A72
:101CC000A20AB30AA5019401A0913503B09136038D
:101CD0000E9486194B015C017BE0B594A794979410
:101CE00087947A95D1F7A7019601C701B6010E94A2
:101CF000F3189B01AC01ECE0559547953795279576
:101D0000EA95D1F7A0913703B09138030E94861964
:101D1000DC01CB01FEE0B595A79597958795FA95DF
:101D2000D1F7A5019401280F391F4A1F5B1F20938B
:101D30002B0330932C0340932D0350932E03A5E0E7
:101D4000B0E00E947B19DC01CB0180589F4FAF4F60
:101D5000BF4F692F7A2F8B2F992787FD9A950E9465
:101D6000361C20E030E048EC52E40E94861B04C0A0
:101D700060E070E080EC9FE71F910F91FF90EF9083
:101D8000DF90CF90BF90AF909F908F9008954F922B
:101D90005F926F927F928F929F92AF92BF92CF92FB
:101DA000DF92EF92FF920E942B0E8DEF0E94340D76
:101DB000A0E0B0E0811520E89207A105B10509F483
:101DC000DAC080902B0390902C03A0902D03B0904C
:101DD0002E033CE2931A31E0A30AB1083EE0880FDB
:101DE000991FAA1FBB1F3A95D1F740914F035091FD
:101DF0005003052E000C660B770BE4E1440F551FD2
:101E0000661F771FEA95D1F76C017D01C41AD50AC8
:101E1000E60AF70AA0915103B0915203A50194017B
:101E20000E948619C61AD70AE80AF90A40E4D40EB5
:101E3000E11CF11CFFE0F594E794D794C794FA9560
:101E4000D1F7A0914E03B0E0A50194010E947B1947
:101E50002B013C01ABE07594679457944794AA9585
:101E6000D1F750E8550E611C711CA09153030A2E46
:101E7000000CBB0BA50194010E948619BAE0959550
:101E8000879577956795BA95D1F7A30192010E943E
:101E9000F318DC01CB012AE0B595A79597958795B6
:101EA0002A95D1F79C01AD01405E5F4FA0914C0394
:101EB000B0914D030E948619DC01CB01905EAF4FBB
:101EC000BF4FBC01CD013EE095958795779567950D
:101ED0003A95D1F7A70196010E94F3186B017C0196
:101EE0004FE095958795779567954A95D1F79B0132
:101EF000AC010E94F3189B01AC0167E05595479532
:101F0000379527956A95D1F7A0914B03B0E00E94D1
:101F10007B19DC01CB0174E0B595A7959795879562
:101F20007A95D1F7A7019601281B390B4A0B5B0B59
:101F3000DA01C90157FF03C080E090E0DC01813085
:101F40009105A10539E1B30724F080E090E0A0E01D
:101F5000B9E1BC01CD012CE0959587957795679502
:101F60002A95D1F70E94361C20E030E040E85AE381
:101F70000E94101D04C060E070E080EC9FE7FF90BD
:101F8000EF90DF90CF90BF90AF909F908F907F9019
:101F90006F905F904F9008952F923F924F925F9273
:101FA0006F927F928F929F92AF92BF92CF92DF9269
:101FB000EF92FF920F931F93CF93DF93CDB7DEB7CE
:101FC00068970FB6F894DEBF0FBECDBF0E942B0EF0
:101FD00087EF0E94950D6B877C878D879E876115A3
:101FE00071058048910509F4A5C180912B0390915A
:101FF0002C03A0912D03B0912E036C017D01FF0CE9
:10200000CC08DC2C76019C01AD016C2D7C2D8C2D37
:102010009C2D345F41405109610971098109910981
:1020200029833A834B835C836D837E83888F9F8B68
:1020300059016A017B018C010E948E192F83388718
:1020400049875A876B8B7C8B8D8B9E8B30913C03A1
:1020500020913B03932F990F990B492F592F692FEB
:10206000792F892F0E948E190CE00E94BE1A190147
:10207000942E852E762E672E582E492E30913E03B3
:1020800020913D03932F990F990BAF80B884C98499
:10209000DA84EB88FC880D891E89492F592F692F16
:1020A000792F892F0E948E1908E00E94D71A5101BA
:1020B000C92CD82CE72CF62C052D142D0E94F51ACE
:1020C00070588F4F9F4F2090390330903A03510141
:1020D000C12CD12CE12CF12C00E010E00E948E19D3
:1020E00001E20E94D71A322E232E4F87588B698B1C
:1020F000472E582E9A8BA0E00E94071B09F41FC19F
:102100003091440320914303932F990F990BAF8093
:10211000B884C984DA84EB88FC880D891E89492F2C
:10212000592F692F792F892F0E948E192F83388775
:102130003A014B0189879A873091420320914103EC
:10214000932F990F990BA980BA80CB80DC80ED800A
:10215000FE80088D1F89492F592F692F792F892FCC
:102160000E948E1901E10E94BE1AAF80B8846301FB
:10217000740109851A850E94F51A59016A017B01CB
:102180008983192F4B855C856D857E8584E07595E7
:102190006795579547958A95D1F780E090E0A0E143
:1021A000B0E0841B950BA60BB70B3C014D01990CBD
:1021B0006608762C43019C01AD01662D762D862D97
:1021C000962D0FE10E94BE1A49014B835A83B62F08
:1021D000A72FF82FE92F3091400320913F03932F31
:1021E000990F990B492F592F692F792F892F03E2C6
:1021F0000E94BE1A09810E94F51A59016A017B01E9
:102200008C0194014B815A816B2F7A2F8F2F9E2F37
:102210000E94FE1AE5E3AE2EFCE0BF2EC12CD12CAD
:10222000E12CF12C00E010E00E948E19A32CB22CBE
:10223000CF84D888E988F42C052D1A890E94E919E1
:1022400028873F8349835A836B837C838D839E8356
:102250000DE00E94D71A922E832E742E652E562ED4
:10226000472E382E292E30914A0320914903932F6F
:10227000990F990BA92CB82CC72CD62CE52CF42C33
:10228000032D122D492F592F692F792F892F0E9445
:102290008E190E948E1909E10E94D71AA884BF8066
:1022A000C980DA80EB80FC800D811E810E94F51AC6
:1022B00019012A013B014C01309148032091470349
:1022C000932F990F990B492F592F692F792F892F08
:1022D0000E948E1903E10E94D71A59016A017B01FD
:1022E0008C019101A201B301C4010E94F51A08E01A
:1022F0000E94D71A59016A017B01E82F192F3091EA
:10230000460320914503932F990F990B492F592F7D
:10231000692F792F892F04E00E94BE1A0E2F0E9488
:10232000F51A0E942E1C20E030E040E85BE30E949A
:10233000101D08C060E070E080EC9FE703C060E023
:1023400070E0CB0168960FB6F894DEBF0FBECDBF2C
:10235000DF91CF911F910F91FF90EF90DF90CF9081
:10236000BF90AF909F908F907F906F905F904F90B5
:102370003F902F900895CF93DF93D82FC62F809151
:102380002F038F3FC9F48091260391E09093A80119
:102390008093C90110926301109264016D2F8CE942
:1023A00092E00E94DC0A6C2F8CE992E00E94DC0A29
:1023B000DF91CF910C94F309809132038F3F21F488
:1023C00081E590E00E94831560E080912F030E94D8
:1023D000050D8D2F8F770E94AF168C2F0E94AF16A0
:1023E00061E080912F030E94050D809132038F3FA1
:1023F00021F4DF91CF910C948215DF91CF91089554
:10240000CF93C82F80912F038F3FE9F4809126034B
:1024100091E09093A8018093C901109263011092FA
:1024200064016C2F8CE992E00E94DC0A0E94F3099F
:1024300061E0809126030E94EF168CE992E00E94F1
:10244000930AC82F20C0809132038F3F21F481E589
:1024500090E00E94831560E080912F030E94050D9B
:102460008C2F80680E94AF1680E00E94AF16C82FA4
:1024700061E080912F030E94050D809132038F3F10
:1024800011F40E9482158C2FCF9108953FB7F894D4
:1024900080914D0290914E02A0914F02B091500256
:1024A00026B5A89B05C02F3F19F00196A11DB11DAF
:1024B0003FBFBA2FA92F982F8827820F911DA11DEA
:1024C000B11DBC01CD0143E0660F771F881F991F26
:1024D0004A95D1F70895CF92DF92EF92FF920F9332
:1024E0001F93CF93DF936C017A018B01C0E0D0E0A2
:1024F000CE15DF0581F0D8016D918D01D601ED91EA
:10250000FC910190F081E02DC6010995892B11F015
:102510002196EECF7E01C701DF91CF911F910F91E0
:10252000FF90EF90DF90CF900895FC01538D448D84
:10253000252F30E0842F90E0821B930B541710F06E
:10254000CF96089501970895FC01918D828D98177B
:1025500061F0828DDF01A80FB11D5D968C91928D87
:102560009F5F9F73928F90E008958FEF9FEF089584
:10257000FC01918D828D981731F0828DE80FF11D4D
:10258000858D90E008958FEF9FEF0895FC01918D68
:10259000228D892F90E0805C9F4F821B91098F7361
:1025A0009927089581E693E00E94C61221E0892BC5
:1025B00009F420E0822F0895FC01848DDF01A80F2B
:1025C000B11DA35ABF4F2C91848D90E001968F735B
:1025D0009927848FA689B7892C93A089B1898C917A
:1025E000837080648C93938D848D981306C00288C9
:1025F000F389E02D80818F7D80830895EF92FF9293
:102600000F931F93CF93DF93EC0181E0888F9B8D15
:102610008C8D981305C0E889F989808185FD26C0D5
:10262000F62E0B8D10E00F5F1F4F0F731127E02E5A
:102630008C8DE8120CC00FB607FCFACFE889F98937
:10264000808185FFF5CFCE010E94DC12F1CF8B8D0A
:10265000FE01E80FF11DE35AFF4FF0829FB7F89497
:102660000B8FEA89FB89808180620AC09FB7F8944A
:10267000EE89FF896083E889F989808183708064AD
:1026800080839FBF81E090E0DF91CF911F910F91F8
:10269000FF90EF900895CF93DF93EC01888D88230E
:1026A000C9F0EA89FB89808185FD05C0A889B989BF
:1026B0008C9186FD0FC00FB607FCF5CF808185FF9A
:1026C000F2CFA889B9898C9185FFEDCFCE010E9408
:1026D000DC12E7CFDF91CF91089580E090E0892B65
:1026E00029F00E94D21281110C9400000895FC017F
:1026F0008681845F0895FC01611102C0828508957E
:10270000613011F481850895623011F48085089557
:10271000633011F487810895643011F4868508953B
:10272000653011F485850895663011F48485089527
:10273000673011F483850895683011F48089089515
:10274000693011F4878508956A3011F481890895FC
:102750006B3011F4828908950480F581E02DE60F35
:10276000F11D3C978081089520919A0230919B023F
:102770002817390771F490910B0280910A0298177B
:1027800041F0E0910B02F0E0E653FE4F808190E0D3
:1027900008958FEF9FEF08951F93CF93DF93DC0190
:1027A0005C968D919C915D97009739F421E030E023
:1027B00013963C932E9312973BC05196ED91FC914A
:1027C000529750962C915097322F30951FB75E96A6
:1027D0004C915E97742F727041FD6095F894408122
:1027E000772311F0422B01C043234083EC01219752
:1027F000F1F748E0508160FF02C0522B01C0532323
:102800005083EC012197F1F76695415099F780814B
:10281000772319F08323808302C0282B20831FBFD6
:102820005C968D919C915D970197F1F781E090E026
:10283000DF91CF911F9108950E947D1D833081F01B
:1028400028F4813099F08230A1F008958730A9F002
:102850008830B9F08430D1F4809180008F7D03C03E
:10286000809180008F7780938000089584B58F7762
:1028700002C084B58F7D84BD08958091B0008F77AC
:1028800003C08091B0008F7D8093B0000895CF93F6
:10289000DF9390E0FC01EC5DFC4F2491FC01E05FD4
:1028A000FC4F8491882361F190E0880F991FFC010F
:1028B000EE50FD4FC591D491FC01EA5FFC4FA5910C
:1028C000B491611109C09FB7F89488812095822343
:1028D0008883EC912E230BC0623061F49FB7F8948B
:1028E0008881322F309583238883EC912E2B2C9373
:1028F0009FBF06C08FB7F894E8812E2B28838FBF27
:10290000DF91CF9108958E3008F08E5087708064EB
:1029100080937C0080917A00806480937A0080911B
:102920007A0086FDFCCF809178002091790090E0BC
:10293000922B08958F929F92AF92BF92CF92DF9287
:10294000EF92FF926B017C010E9446124B015C01E9
:10295000C114D104E104F104F1F00E944612DC013B
:10296000CB0188199909AA09BB09883E9340A105A2
:10297000B10570F321E0C21AD108E108F10888EE30
:10298000880E83E0981EA11CB11CC114D104E1047F
:10299000F10419F7DDCFFF90EF90DF90CF90BF905B
:1029A000AF909F908F9008952FB7F894609149024F
:1029B00070914A0280914B0290914C022FBF089572
:1029C0001F920F920FB60F9211242F933F938F9364
:1029D0009F93AF93BF938091490290914A02A09137
:1029E0004B02B0914C023091480226E0230F2D3764
:1029F00020F40296A11DB11D05C029E8230F0396FE
:102A0000A11DB11D209348028093490290934A0270
:102A1000A0934B02B0934C0280914D0290914E02D4
:102A2000A0914F02B09150020196A11DB11D80935B
:102A30004D0290934E02A0934F02B0935002BF916B
:102A4000AF919F918F913F912F910F900FBE0F905B
:102A50001F9018951F920F920FB60F9211242F936B
:102A60003F934F935F936F937F938F939F93AF9316
:102A7000BF93EF93FF9381E693E00E94DC12FF91F6
:102A8000EF91BF91AF919F918F917F916F915F91E6
:102A90004F913F912F910F900FBE0F901F9018955F
:102AA0001F920F920FB60F9211242F938F939F9323
:102AB000EF93FF93E0917103F09172038081E091B5
:102AC0007703F091780382FD12C0908180917A03A0
:102AD0008F5F8F7320917B03821751F0E0917A030F
:102AE000F0E0EF59FC4F958F80937A0301C080810D
:102AF000FF91EF919F918F912F910F900FBE0F90AB
:102B00001F90189508958CBD9DBD0895FC0188E126
:102B100091E09183808380919A0290919B02E817C3
:102B2000F90759F4A389B4899C91858980958923F3
:102B30008C9310929B0210929A020895CF93DF9388
:102B4000EC011B821A8288EE93E0A0E0B0E08C8357
:102B50009D83AE83BF8388E191E0998388831F8A38
:102B60001E8A198E188E1B8E1A8E1D8E1C8E6E8DCF
:102B70006E7F6D7F6E8F6695617081E0682789E05A
:102B80000E94050D61E089E00E944714EDE2F3E048
:102B9000E491E88BE9E1F3E0E491F0E0EE0FFF1F50
:102BA000EA5FFC4F859194919A8B898B60E082E07B
:102BB0000E9447148E8D81FD04C061E082E00E9476
:102BC000050D82E08C87E6E2F3E0E491ED87E2E137
:102BD000F3E0E491F0E0EE0FFF1FE450FD4F85912C
:102BE00094919F878E87DF91CF910895009769F028
:102BF000FC0101900020E9F73197AF01481B590B08
:102C0000BC0181E693E00C946B1280E090E00895A3
:102C10000F931F93CF93DF938C01C0E0D0E0F801B6
:102C2000EC0FFD1F6491662341F081E693E00E9462
:102C3000FE12892B11F02196F2CFCE01DF91CF91B8
:102C40001F910F910895CF93DF930E940816EC0116
:102C50008AE491E00E94F6158C0F9D1FDF91CF91C1
:102C60000895A0912403B0912503ED91FC91119753
:102C70000190F081E02D682FCD010994CF9393E866
:102C8000980F923020F0982F9D7F913131F4C82F0A
:102C90008DE70E94311680E28C27CF910C9431167B
:102CA00060E0809158030E94471461E080915703CF
:102CB0000E94050D809158030E94DC0C0197D1F30E
:102CC00060E0809157030C94050DEF92FF920F93F3
:102CD0001F93CF93DF93E82EF62EC7E0D0E0042FAA
:102CE00010E0B8010C2E02C0759567950A94E2F7C2
:102CF00061708E2D0E94050D61E08F2D0E94050DE3
:102D000060E08F2D0E94050D219758F7DF91CF913C
:102D10001F910F91FF90EF9008951F93CF93DF9332
:102D2000182FC7E5D3E061E089810E94471461E074
:102D300089810E94050D61E088810E94050D60E097
:102D400089810E94050D60E088810E94050D412F58
:102D500068818981DF91CF911F910C946516EF9264
:102D6000FF920F931F93CF93DF93909132039F3F76
:102D700039F48EBD00000DB407FEFDCF8EB528C01E
:102D8000D82FC0E007E010E0EE24E394F12CCC0F44
:102D900060E0809132030E94050DB701002E01C052
:102DA000660F0A94EAF76D23809130030E94050DA7
:102DB00061E0809132030E94050D809131030E94F1
:102DC000DC0C892B09F0C1600150110900F78C2F30
:102DD000DF91CF911F910F91FF90EF900895909107
:102DE00077029111FCCF613208F060E291E090939C
:102DF0007702909376022FEF20937502109274025F
:102E0000260F209373029093720290917202880FA2
:102E1000892B8093720280917102813061F410924B
:102E20007102809172028093BB008091BC0083FD8F
:102E3000F8CF85EC01C085EE8093BC0080917702CD
:102E40008130E1F380917402861710F4609174026E
:102E5000E1E5F2E0AAE7B2E080E0861721F0919187
:102E60009D938F5FFACF1092790280937802089534
:102E7000789484B5826084BD84B5816084BD85B555
:102E8000826085BD85B5816085BD80916E00816061
:102E900080936E0010928100809181008260809307
:102EA0008100809181008160809381008091800009
:102EB0008160809380008091B10084608093B10034
:102EC0008091B00081608093B00080917A0084602E
:102ED00080937A0080917A00826080937A0080915A
:102EE0007A008E7F80937A0080917A008068809348
:102EF0007A001092C1008FE699E0909315028093BA
:102F000014028DEF96E090930D0280930C0287EEF1
:102F100095E090930F0280930E0287E594E09093E2
:102F200017028093160285E092E090931902809335
:102F3000180283E895E0909311028093100280E1DB
:102F400095E090931B0280931A028AE395E0909398
:102F500013028093120286E395E090931D02809302
:102F60001C0289ED94E090931F0280931E028FE86B
:102F700094E0909321028093200210922B021092F1
:102F80002A0210922D0210922C021092220210920C
:102F90002302109224021092250281E090E0909387
:102FA0002F0280932E021092310210923002109262
:102FB00032021092330210923402109235021092B3
:102FC0003702109236021092390210923802109293
:102FD0003B0210923A0210923C0210923D02109273
:102FE0003E0210923F021092410210924002109253
:102FF0004302109242021092440210924502109233
:103000004602109247020E946F09E0910C02F09173
:103010000D028CE092E00995E0910E02F0910F0212
:103020000995E0911A02F0911B028CE092E009955B
:10303000892B39F0E0911002F09111028CE092E0BE
:103040000995E0911802F09119028CE092E009953F
:10305000892B39F0E0911602F09117028CE092E092
:103060000995E0911C02F0911D028CE092E0099517
:10307000892B39F0E0911202F09113028CE092E07A
:103080000995E0911E02F0911F028CE092E00995F3
:10309000892B39F0E0912002F09121028CE092E03E
:1030A00009950E946D13BDCF89E195E00E948615B8
:1030B00088E395E00E9486158EEF93E00C948615C8
:1030C000CF93DF93ECE9F2E01382128288EE93E073
:1030D000A0E0B0E084839583A683B7832AE231E041
:1030E00031832083C1E6D3E01B821A828C839D83C7
:1030F000AE83BF838CE391E09983888385EC90E075
:103100009D878C8784EC90E09F878E8780EC90E091
:10311000998B888B81EC90E09B8B8A8B82EC90E082
:103120009D8B8C8B86EC90E09F8B8E8B198E1A8EEC
:103130001B8E1C8EE8EAF2E0128611861486158634
:1031400017821086158286EB92E091838083D0935C
:103150002503C09324038EEF93E00E949E15E6E2C0
:10316000F3E08AE081878BE082878CE083878DE0C3
:103170008487E7E5F3E082E1818383E18083EDE109
:10318000F4E0128611861486158617821086158241
:103190008BE294E091838083D0939A04C093990446
:1031A00088E395E00E949E15EBE9F4E01286118613
:1031B0001486158617821086158289EA94E0918319
:1031C0008083D0931805C093170589E195E0DF91BE
:1031D000CF910C949E15F999FECF92BD81BDF89ABE
:1031E000992780B50895DB018F939F930E947B19E7
:1031F000BF91AF91A29F800D911DA39F900DB29F93
:10320000900D11240895AA1BBB1B51E107C0AA1FF2
:10321000BB1FA617B70710F0A61BB70B881F991F77
:103220005A95A9F780959095BC01CD01089597FB1B
:10323000072E16F4009407D077FD09D00E940319D9
:1032400007FC05D03EF4909581959F4F08957095A9
:1032500061957F4F0895A1E21A2EAA1BBB1BFD01A9
:103260000DC0AA1FBB1FEE1FFF1FA217B307E40765
:10327000F50720F0A21BB30BE40BF50B661F771FBD
:10328000881F991F1A9469F760957095809590959D
:103290009B01AC01BD01CF010895052E97FB1EF4E3
:1032A00000940E94641957FD07D00E942B1907FC57
:1032B00003D04EF40C9464195095409530952195A7
:1032C0003F4F4F4F5F4F0895909580957095619552
:1032D0007F4F8F4F9F4F0895A29FB001B39FC001B2
:1032E000A39F700D811D1124911DB29F700D811D32
:1032F0001124911D08950E946C19A59F900DB49FF3
:10330000900DA49F800D911D11240895B7FF0C947A
:103310007B190E947B19821B930B0895DF93CF9337
:103320001F930F939A9DF02D219FF00D8B9DF00D13
:103330008A9DE02DF10D039FF00D029FE00DF11D20
:103340004E9DE00DF11D5E9DF00D4F9DF00D7F93A4
:103350006F93BF92AF925F934F93D5010E946C1908
:103360008B01AC01D7010E946C19EB01E80FF91F2A
:10337000D6010E94DE192F913F91D6010E946C194F
:10338000C60FD71FE81FF91FAF91BF910E94DE192A
:103390002F913F910E946C19C60FD71FE81FF91F8C
:1033A000D6010E946C19E60FF71F9801BE01CF01EC
:1033B00011240F911F91CF91DF9108950E946C19F4
:1033C000460F571FC81FD91F08F4319608956894F7
:1033D00001C0E894F92FF12B12F00C941B1AA0E015
:1033E000B0E0E5EFF9E10C948D1A092E059422F472
:1033F0000E94771A112392F4F0E80F26FFEFE09471
:10340000F09400951095B094C094D094A194BF0A04
:10341000CF0ADF0AEF0AFF0A0F0B1F0B0E94261AC2
:1034200007FC0E94771ACDB7DEB7ECE00C94A91A1E
:10343000689401C0E8948F929F92CF93DF930E948B
:10344000261ADF91CF919F908F9008958824992418
:10345000F401E401B0E49F93AA279A158B049C041D
:10346000ED05FE05CF05D007A10798F4AD2FDC2FA1
:10347000CF2FFE2FE92D982C892E982F872F762F6E
:10348000652F542F432F322F2227B85031F7BF9189
:1034900027C01B2EBF91BB27220F331F441F551F70
:1034A000661F771F881F991F881C991CEE1FFF1F1E
:1034B000CC1FDD1FAA1FBB1F8A149B04EC05FD0552
:1034C000CE05DF05A007B10748F08A189B08EC0974
:1034D000FD09CE09DF09A00BB10B21601A94E1F6BA
:1034E0002EF49401AF01BE01CD01000C089560954A
:1034F00070958095909530954095509521953F4FCA
:103500004F4F5F4F6F4F7F4F8F4F9F4F08952F92B9
:103510003F924F925F926F927F928F929F92AF9263
:10352000BF92CF92DF92EF92FF920F931F93CF93B0
:10353000DF93CDB7DEB7CA1BDB0B0FB6F894DEBF47
:103540000FBECDBF09942A88398848885F846E846D
:103550007D848C849B84AA84B984C884DF80EE80B7
:10356000FD800C811B81AA81B981CE0FD11D0FB6C0
:10357000F894DEBF0FBECDBFED0108950F93083064
:1035800090F0982F872F762F652F542F432F322FAF
:1035900022270850F4CF220F331F441F551F661FE8
:1035A000771F881F991F0A95B2F70F91089597FB0F
:1035B00010F8169400080F93083098F00850232F45
:1035C000342F452F562F672F782F892F902DF4CF2A
:1035D000059497958795779567955795479537956E
:1035E00027950A95AAF70F9108952A0D3B1D4C1DAA
:1035F0005D1D6E1D7F1D801F911F08952A193B09B7
:103600004C095D096E097F09800B910B0895002418
:10361000A7FD00942A173005400550056005700588
:10362000800590050895EE0FFF1F0590F491E02DA1
:1036300009945058BB27AA270E94311B0C94D61C12
:103640000E94C81C38F00E94CF1C20F039F49F3F24
:1036500019F426F40C94B51C0EF4E095E7FB0C94D9
:10366000AF1CE92F0E94E71C58F3BA1762077307D3
:103670008407950720F079F4A6F50C94091D0EF443
:10368000E0950B2EBA2FA02D0B01B90190010C0172
:10369000CA01A0011124FF27591B99F0593F50F48A
:1036A000503E68F11A16F040A22F232F342F4427E2
:1036B000585FF3CF469537952795A795F0405395DA
:1036C000C9F77EF41F16BA0B620B730B840BBAF0AA
:1036D0009150A1F0FF0FBB1F661F771F881FC2F715
:1036E0000EC0BA0F621F731F841F48F48795779529
:1036F0006795B795F7959E3F08F0B0CF9395880FE3
:1037000008F09927EE0F9795879508950E949A1BC8
:103710000C94D61C0E94CF1C58F00E94C81C40F08C
:1037200029F45F3F29F00C94AF1C51110C940A1D31
:103730000C94B51C0E94E71C68F39923B1F3552340
:1037400091F3951B550BBB27AA27621773078407B4
:1037500038F09F5F5F4F220F331F441FAA1FA9F34A
:1037600035D00E2E3AF0E0E832D091505040E69538
:10377000001CCAF72BD0FE2F29D0660F771F881F99
:10378000BB1F261737074807AB07B0E809F0BB0B8C
:10379000802DBF01FF2793585F4F3AF09E3F5105A0
:1037A00078F00C94AF1C0C940A1D5F3FE4F3983E34
:1037B000D4F3869577956795B795F7959F5FC9F789
:1037C000880F911D9695879597F90895E1E0660F0A
:1037D000771F881FBB1F621773078407BA0720F083
:1037E000621B730B840BBA0BEE1F88F7E0950895EC
:1037F0000E94FF1B6894B1110C940A1D08950E9449
:10380000EF1C88F09F5798F0B92F9927B751B0F067
:10381000E1F0660F771F881F991F1AF0BA95C9F754
:1038200014C0B13091F00E94091DB1E008950C94CC
:10383000091D672F782F8827B85F39F0B93FCCF37F
:10384000869577956795B395D9F73EF490958095D1
:10385000709561957F4F8F4F9F4F089597FB16F49A
:103860000E94B81C0C94721CE89409C097FB3EF4AB
:1038700090958095709561957F4F8F4F9F4F9923BD
:10388000A9F0F92F96E9BB279395F695879577953B
:103890006795B795F111F8CFFAF4BB0F11F460FFFB
:1038A0001BC06F5F7F4F8F4F9F4F16C0882311F053
:1038B00096E911C0772321F09EE8872F762F05C067
:1038C000662371F096E8862F70E060E02AF09A9502
:1038D000660F771F881FDAF7880F9695879597F9F7
:1038E0000895E894F92F96EBFF2381F01216130642
:1038F0001406440B9395F69587957795679557959C
:103900004040FF23B9F71BC099270895882351F43D
:103910009850D2F7872B762F652F542F432F322FB5
:1039200020E0B1F3121613061406440B88233AF074
:103930009A95440F551F661F771F881FCAF7552396
:103940004AF4440F551F11F460FF04C06F5F7F4FAE
:103950008F4F9F4F880F9695879597F9089597F900
:103960009F6780E870E060E008959FEF80EC089525
:1039700090958095709560955095409530952195DE
:103980003F4F4F4F5F4F6F4F7F4F8F4F9F4F089568
:1039900000240A941616170618060906089500242E
:1039A0000A9412161306140605060895092E0394A8
:1039B000000C11F4882352F0BB0F40F4BF2B11F41C
:1039C00060FF04C06F5F7F4F8F4F9F4F089557FD7B
:1039D0009058440F551F59F05F3F71F04795880F7D
:1039E00097FB991F61F09F3F79F087950895121614
:1039F00013061406551FF2CF4695F1DF08C01616C0
:103A000017061806991FF1CF869571056105089470
:103A10000895E894BB2766277727CB0197F9089587
:103A20000E94231D0C94D61C0E94C81C38F00E94D2
:103A3000CF1C20F0952311F00C94AF1C0C94B51CF6
:103A400011240C940A1D0E94E71C70F3959FC1F38A
:103A5000950F50E0551F629FF001729FBB27F00D3C
:103A6000B11D639FAA27F00DB11DAA1F649F662791
:103A7000B00DA11D661F829F2227B00DA11D621FE0
:103A8000739FB00DA11D621F839FA00D611D221F9A
:103A9000749F3327A00D611D231F849F600D211D7E
:103AA000822F762F6A2F11249F5750409AF0F1F001
:103AB00088234AF0EE0FFF1FBB1F661F771F881F6A
:103AC00091505040A9F79E3F510580F00C94AF1CD7
:103AD0000C940A1D5F3FE4F3983ED4F386957795E6
:103AE0006795B795F795E7959F5FC1F7FE2B880F10
:103AF000911D9695879597F9089581E090E0F89447
:103B00000C94821D11E0CDE9D1E004C0FE010E94B9
:0E3B1000131B2196CE39D107C9F7F894FFCFC9
:103B1E001F1C1F1E1F1E1F1F1E1F1E1F000000002A
:103B2E007B13771300000000CC136B120202830A82
:103B3E00C801E001B41300000000DC0AAF0A020263
:103B4E00830AA70A930A840A00000000FE126B1271
:103B5E0095124B13C612A412B8120D0A005B005D2B
:0E3B6E0020002500206D62002E00206D560004
:00000001FF
