:100000000C94B8010C94E0010C94E0010C9446149B
:100010000C9446140C9446140C94E0010C94E001EA
:100020000C94E0010C94E0010C94E0010C94E001CC
:100030000C94E0010C94E0010C94E0010C94E001BC
:100040000C9435130C94E0010C94A5130C947F13BD
:100050000C94E0010C94E0010C94E0010C94E0019C
:100060000C94EF090C94E0011D08330833083108A3
:1000700033081B083308330833080F0833083308E4
:1000800024082F082D083308330833082B08476548
:100090006E3A206170706C65323300426F61726439
:1000A000204F7074730031373A35343A3334004F8F
:1000B0006374203231203230313900426F61726412
:1000C00020536574757020446F6E6500426F6172D5
:1000D0006420536574757020537461727400504FBE
:1000E000535420456E64005B505D205254432055AC
:1000F0006E69783A20005B505D20094552524F529C
:100100003A20736F6C61722070616E656C2076614D
:100110006C7565206F7574206F662072616E6765FF
:1001200000206D56005B505D20736F6C6172207013
:10013000616E656C2076616C75653A20005B505D80
:1001400020094572726F723A206261747465727927
:10015000206F7574206F662072616E6765005B505A
:100160005D20626174746572792076616C75653AA0
:1001700020005B505D20094572726F723A206170F9
:100180006F67656520736F6C61722069727261645C
:1001900069616E6365206F7574206F662072616E91
:1001A0006765005B505D2061706F6765655F5350E8
:1001B00032313220736F6C617220697272616469CE
:1001C000616E63652076616C75653A200020636519
:1001D0006C73697573005B505D20424D4532383059
:1001E0002074656D703A20005B505D200945727285
:1001F0006F723A20424D4532383020707265737309
:10020000757265206F7574206F662072616E676508
:10021000002E005B505D20424D4532383020707218
:100220006573737572652076616C75653A20005B45
:10023000505D20424D453238302068756D696469E3
:1002400074792076616C75653A20005B505D206E94
:100250006F646520616464723A2000504F535420EB
:10026000426567696E0053616D706C6520456E6410
:100270000053616D706C6520537461727400527527
:100280006E6E696E6720504F535400434D44204DAD
:100290006F646520636D64004C656176696E6720EC
:1002A000434D44206D6F646500474F542041204307
:1002B0004D443A2000456E74657220434D44204DF4
:1002C0006F6465005458204865617274626561749A
:1002D00020456E64005458204865617274626561FF
:1002E000742053746172740053616D706C65205496
:1002F0005820456E640053616D706C652054582021
:1003000053746172740000000000240027002A006A
:100310001F1C1F1E1F1E1F1F1E1F1E1F0000000868
:1003200000020100000304070000000000000000BC
:100330000000000023002600290000000000250026
:1003400028002B0004040404040404040202020232
:100350000202030303030303010204081020408088
:10036000010204081020010204081020E917DD171B
:1003700011241FBECFEFD8E0DEBFCDBF11E0A0E05B
:10038000B1E0E8EFF9E302C005900D92A235B107A4
:10039000D9F725E0A2E5B1E001C01D92A534B2076E
:1003A000E1F711E0C7EBD1E004C02197FE010E9404
:1003B000D918C63BD107C9F70E94C1160C94EF1C8F
:1003C0000C94000080E090E00895EF92FF921F935C
:1003D000CF93DF93CDB7DEB763970FB6F894DEBF48
:1003E0000FBECDBF20E12B8321E02C839E838D8324
:1003F0006F8384E091E09A838983188619861A8630
:100400001B861C861D861E861F868EEF9FEF998B8E
:10041000888B1A8A1B8A8EE70E949D151F818CE0AB
:10042000810F90E00296892F0E94AA158EE0810F1D
:100430000E94AA158B810E94AA158C810E94AA1580
:100440001B818C81180FE12CF12C8F81845F90E04F
:10045000E816F9068CF46E2DCE0101960E94241246
:100460000E94AA156E2DCE0101960E942412180F2B
:100470008FEFE81AF80AE9CF812F80950E94AA151C
:1004800080911C0390911D03DC01ED91FC9106808D
:10049000F781E02D099563960FB6F894DEBF0FBE85
:1004A000CDBFDF91CF911F91FF90EF90089581E133
:1004B0000E94C310BC01990F880B990B0E94A31BCB
:1004C0002AE038E240EA5BE30E947D1C20E030E055
:1004D0004AE754E40E947D1C0E94651BCB010895ED
:1004E0008F929F92AF92BF92CF92DF92EF92FF9244
:1004F000CF93DF9300D000D000D0CDB7DEB70E94FD
:100500002913C0905301D0905401E0905501F09010
:10051000560120E8C21A23E4D20A2DE6E20A28E3B3
:10052000F20A28EE33E040E050E00E94B718C20E15
:10053000D31EE41EF51E8CE3882E912CA12CB12C29
:10054000C701B601A50194010E94B7186E83CA01C4
:10055000B901A50194010E94B7186D83C701B601C6
:1005600020E13EE040E050E00E94B718CA01B90126
:1005700028E130E040E050E00E94B7186C83C701EA
:10058000B60120E831E541E050E00E94B71840E0B4
:10059000542F537081E009F080E061E0640F90E037
:1005A000FC01E359FE4F2E173F0730F0281B390B93
:1005B0002D563140462FECCF498381E0E82FF0E003
:1005C000E15FFC4FE491511103C0823009F4EF5F09
:1005D000F0E091E0980F2E173F0720F02E1B3F0B05
:1005E000892FECCF8A832F5F2B83CE0101960E9447
:1005F000D71326960FB6F894DEBF0FBECDBFDF919E
:10060000CF91FF90EF90DF90CF90BF90AF909F90F1
:100610008F9008958F929F92AF92BF92CF92DF9268
:10062000EF92FF92CF93DF93EC010E9429136B01AD
:100630007C018A8C9B8CAC8CBD8C0E942913683AFF
:1006400073448540910580F4C818D90888EBC81612
:100650008BE0D8064CF00E9429136A8F7B8F8C8F19
:100660009D8F81E090E002C080E090E0DF91CF912B
:10067000FF90EF90DF90CF90BF90AF909F908F90C2
:1006800008950F931F93CF93DF93EC010E942913DA
:100690000E891F89288D398DDC01CB01801B910BC0
:1006A000A20BB30B80339547A105B10548F00E941A
:1006B00029136E8B7F8B888F998F81E090E002C029
:1006C00080E090E0DF91CF911F910F9108950F93FB
:1006D0001F93CF93DF93CDB7DEB7C659D1090FB6BD
:1006E000F894DEBF0FBECDBF8C0186EF92E00E9472
:1006F0008F15CE01019626E9FC0111922A95E9F7A2
:10070000F801B2962AE1DC0101900D922A95E1F7F9
:100710006AE170E00E94E501F801178E168E88EEFE
:1007200092E00E948F15CA56DF4F0FB6F894DEBFD5
:100730000FBECDBFDF91CF911F910F9108958F9282
:100740009F92AF92BF92EF92FF920F931F93CF931E
:10075000DF93CDB7DEB7C659D1090FB6F894DEBF27
:100760000FBECDBF0E9429134B015C010E945702AE
:100770008C010E94E1147C0185ED92E00E948F15AE
:10078000CE01019626E9FC0111922A95E9F7FC8237
:10079000EB828D829E82AF82B8861A8709876AE0D3
:1007A00070E00E94E50184EC92E00E948F15CA5629
:1007B000DF4F0FB6F894DEBF0FBECDBFDF91CF91F4
:1007C0001F910F91FF90EF90BF90AF909F908F90EF
:1007D00008958FE493E00C946F110F931F93CF93C0
:1007E0008C0185EB92E00E948F158FE493E00E94CC
:1007F0004D110A97D1F78FE493E00E946F11892B76
:10080000D1F38FE493E00E944D11C82F89EA92E062
:100810000E9474156C2F8FE493E00E94A7118EE361
:1008200091E00E9462158FE493E00E944D110A97B7
:10083000D1F7C53439F488E992E0CF911F910F9137
:100840000C948F15C03539F0C435A9F68BE892E0C9
:100850000E948F15D0CF8EE792E00E948F15D801AD
:100860001296ED91FC9113970995C5CFCF93DF9325
:10087000EC0181E491E00E9462150E9429134AE094
:100880000E944D0983E491E00E94621581E792E0A5
:100890000E948F150E9429136EA37FA388A799A792
:1008A0000E9457029BA78AA70E94C4149DA78CA7E9
:1008B0000E940D0E0E946C1B68AB79AB8AAB9BABA0
:1008C0000E946C0C20E030E848E853E40E94871A4C
:1008D0000E946C1B7DAB6CAB0E94080D0E946C1BD0
:1008E0007FAB6EAB80E10E94C310BC01990F880BF7
:1008F000990B0E94A31B2AE137E64CE950E40E94C1
:100900007D1C0E94651B7FA76EA70E94700268AFC6
:1009100079AF8AAF9BAF88A199A19DA38CA386E6EE
:1009200092E00E948F151F8E1E8ECE01DF91CF9117
:100930000C946703CF92DF92EF92FF920F931F9375
:10094000CF93DF938BE592E00E948F158BE492E0CA
:100950000E9474150E94E114BC01990F880B990B39
:1009600097FF03C00E948E0903C04AE00E944D0910
:100970008EE391E00E9462150E94080D6B017C01DC
:100980008FE292E00E947415C701B6010E946C1BB1
:1009900080E090E04AE00E944D0986E491E00E94E8
:1009A000B9090E940D0E0E946C1B6B017C0183E152
:1009B00092E00E947415C701B60124E630E040E0E1
:1009C00050E00E94B718CA01B9014AE00E944D09DF
:1009D00081E192E00E947415C701B6012AE030E07F
:1009E00040E050E00E94B718C701B601621B730BCC
:1009F000840B950B28EE33E040E050E00E94B718DE
:100A0000CA01B9014AE00E944D0988E491E00E94C0
:100A1000B90980E8C81688E3D80681E0E806F10441
:100A200020F488EE91E00E948F150E946C0C20E06B
:100A300030E848E853E40E94871A0E946C1B6B015F
:100A40007C0186ED91E00E947415CAE0D0E0C601F9
:100A5000BE010E948F188B0180E090E04AE00E9466
:100A60004D098CE491E00E946215C601801B910B38
:100A7000BE010E948F1880E090E04AE00E944D097C
:100A80008DEC91E00E948F1580E10E94C310BC01A3
:100A9000990F880B990B0E94A31B2AE137E64CE9BA
:100AA00050E40E947D1C0E94651B6B017C0183EA5F
:100AB00091E00E947415C6010E94AF098EE491E096
:100AC0000E94B909D7FE04C082E791E00E948F1509
:100AD0000E9457027C018EE591E00E947415C701C7
:100AE0000E94AF098EE491E00E94B909F7FE04C0AC
:100AF0008DE391E00E948F150E94C4147C0185E271
:100B000091E00E947415C7010E94AF0981E291E053
:100B10000E948F1584E6E816F10424F486EF90E035
:100B20000E948F150E9470026B017C0187EE90E09D
:100B30000E9474154AE0C701B6010E944D098EE378
:100B400091E00E9462158EED90E0DF91CF911F91B0
:100B50000F91FF90EF90DF90CF900C948F15CF9274
:100B6000DF92EF92FF920F931F93CF93DF93CDB756
:100B7000DEB761970FB6F894DEBF0FBECDBF8C0114
:100B80000E94C7098CEC90E00E948F151092070418
:100B900010920604109205041092040410920304AB
:100BA000109202048DEC90E0909309048093080465
:100BB0009091F803963108F058C025E530E0309365
:100BC0000304209302042BEC30E0309305042093BF
:100BD000040420E930E03093070420930604409198
:100BE0006800983058F031E09E3008F430E021E0A1
:100BF000822F01C0880F3A95EAF701C084E0842B68
:100C000080936800983038F09E3040F0963148F07C
:100C100020E030E008C02DE630E005C02BE630E0F3
:100C200002C02CE630E0309300042093FF0398309C
:100C300030F481E001C0880F9A95EAF70EC0292FA1
:100C400030E09E3018F42850310902C02E5031098E
:100C500081E001C0880F2A95EAF780930104809112
:100C60000804909109040197F1F78091060490918E
:100C70000704892B49F1E0919202F091930243E03D
:100C8000EC3EF40709F1309739F0A389B4899C91BF
:100C90008589809589238C9380910A048E7F809327
:100CA0000A0410929E0110929F018CEE93E09093A3
:100CB000930280939202E091FF03F09100049081EF
:100CC00080910104892B80838CEE93E090931D0327
:100CD00080931C0387E780931E03809127038F3F37
:100CE000A1F51092710210927002109226021092D9
:100CF000480210926F0281E080936E0210926902A6
:100D000061E082E10E94460B61E083E10E94460BB4
:100D10008091B9008E7F8093B9008091B9008D7F5A
:100D20008093B90080E28093B80085E48093BC0092
:100D300083EC98E0909358018093570184EC98E0FD
:100D400090935A01809359014EC061E00E94460B76
:100D500061E0809127030E94871080912A038F3FD2
:100D600009F034C0FFB6F89480915201811127C078
:100D7000EEE4F3E08491E2E6F3E09491E82FF0E012
:100D8000EE0FFF1FEA5FFC4FA591B491EC91E923B0
:100D900021F461E08AE00E94460B61E08AE00E9453
:100DA00087108CB580618CBD8CB580648CBD61E092
:100DB0008DE00E94871061E08BE00E948710809197
:100DC00052018F5F80935201FFBE0DC061E00E940F
:100DD000871061E0809128030E94871060E0809175
:100DE00029030E94871080ED0E944110803609F08F
:100DF000EDC066EB80EE0E94FC0F6CE271E080E0DB
:100E000090E00E94DA1083EF0E94411080FF05C03D
:100E100064E670E080E090E0F4CF88E80E94D00BB8
:100E200090932C0380932B038AE80E94D00B90931D
:100E30002E0380932D038CE80E94D00B90933003F7
:100E400080932F038EE80E94D00B909332038093FF
:100E5000310380E90E94D00B9093340380933303D5
:100E600082E90E94D00B909336038093350384E986
:100E70000E94D00B909338038093370386E90E9439
:100E8000D00B90933A038093390388E90E94D00BEA
:100E900090933C0380933B038AE90E94D00B90938C
:100EA0003E0380933D038CE90E94D00B9093400356
:100EB00080933F038EE90E94D00B9093420380936E
:100EC000410381EA0E9441108093430381EE0E9416
:100ED000D00B909345038093440383EE0E9441100E
:100EE0008093460384EE0E944110F82E85EE0E9406
:100EF000411090E1F99E900111248F70282B3093BE
:100F000048032093470386EE0E944110F82E85EE99
:100F10000E944110E0E1FE9E9001112490E044E027
:100F2000959587954A95E1F7822B932B90934A03E9
:100F30008093490387EE0E94411080934B038DEE0E
:100F400080934D0380914E038F71806A80934E038E
:100F500080914C03807C80934C0365E082EF0E947B
:100F6000FC0F90914C03692F6770F0E26F9F900126
:100F70001124892F869586958695877048E0849FF1
:100F8000B0011124622B732B97FB992790F9692BE1
:100F900085EF0E94FC0F90914D03692F677080E2EE
:100FA000689F90011124892F869586958695877074
:100FB000E8E08E9FB0011124622B732B92959695D9
:100FC00096959370692B84EF0E94FC0F60E080E19E
:100FD0000E94871060E081E10E94871060E08FE04E
:100FE0000E9487104BE050E06FEA70E0CE0101965E
:100FF0000E946E18CE010A960E9439148C87E981EE
:101000008E2FEE0F990BAA0BBB0BFC01E154F109DB
:10101000E331F10540F5EC5CFF4F0C94D9188A815F
:10102000813629F08B818E3621F087E01BC081E06C
:1010300019C086E017C082E015C08B81823711F09D
:1010400088E010C084E00EC08B81823711F085E00B
:1010500009C083E007C089E005C08AE003C08BE0D7
:1010600001C08CE08D87CE0105960E9439148E87D1
:1010700048E050E066EA70E0CE0101960E946E18EA
:10108000CE0101960E9439148F87CE0104960E94EA
:101090003914888BCE0107960E943914898BCE01B2
:1010A0000C960E94D7136B017C010E94291328EE35
:1010B00033E040E050E00E94B718C21AD30AE40AB5
:1010C000F50AC0925301D0925401E0925501F0927A
:1010D00056010E94E114F80191A380A364E670E038
:1010E00080E090E00E94DA108BEB90E00E948F1578
:1010F00061960FB6F894DEBF0FBECDBFDF91CF91E2
:101100001F910F91FF90EF90DF90CF9008950E9474
:10111000C7098BE990E00E948F158EE890E00C944F
:101120008F1585ED8093BC008091BC0084FDFCCFC1
:1011300010926F02089540917B01262F30E0240F1A
:10114000311D21323105DCF420916F022430C9F4C5
:10115000FC0180E090E0861758F430917B012191EA
:10116000DC01A55ABE4FA30FB11D2C930196F3CFFE
:1011700080917B01680F60937B0180E0089581E09E
:10118000089582E00895089508950895E091710208
:1011900080917002E81730F4F0E0EE58FD4F808146
:1011A00090E008958FEF9FEF0895909171028091E4
:1011B0007002981750F4E92FF0E0EE58FD4F2081AF
:1011C00030E09F5F9093710202C02FEF3FEFC901A3
:1011D00008958091700290E020917102821B910924
:1011E0000895CF92DF92EF92FF920F931F93CF93C8
:1011F000DF937C01CB018A0120912502222389F013
:10120000EB016B01C40ED51ECC15DD0569F06991AB
:10121000D701ED91FC910190F081E02DC701099576
:10122000F3CF642F0E949B08C801DF91CF911F91DB
:101230000F91FF90EF90DF90CF900895CF93DF93C1
:101240001F92CDB7DEB76983209125022223D1F00A
:1012500020914802203240F021E030E0FC0133834D
:10126000228380E090E015C080912602E82FF0E014
:10127000E95DFD4F998190838F5F80932602809373
:10128000480205C061E0CE0101960E949B0881E002
:1012900090E00F90DF91CF9108958F929F92AF923F
:1012A000BF920F931F93CF93DF93CDB7DEB7A19774
:1012B0000FB6F894DEBF0FBECDBF19A2423008F4BE
:1012C0004AE08E010F5D1F4F842E912CA12CB12C72
:1012D000A50194010E94B718E62FB901CA01015077
:1012E0001109EA3014F4E05D01C0E95CD801EC9327
:1012F000232B242B252B61F7C8010E946215A19690
:101300000FB6F894DEBF0FBECDBFDF91CF911F9116
:101310000F91BF90AF909F908F900895CF92DF92E2
:10132000EF92FF92CF93DF936B017C016DE28FE42C
:1013300093E00E94A711EC0166277727CB016C1977
:101340007D098E099F094AE00E944D098C0F9D1F5F
:10135000DF91CF91FF90EF90DF90CF900895BC0187
:10136000990F880B990B97FD0C948E094AE00C9409
:101370004D09CF93DF930E946215EC018EE391E05B
:101380000E9462158C0F9D1FDF91CF910895EFE4AD
:10139000F3E0A089B18982E08C93A485B5851C9285
:1013A000A685B78587E68C93108EA489B58986E0DB
:1013B0008C93A289B3898C9180618C93A289B38923
:1013C0008C9188608C93A289B3898C9180688C936E
:1013D0000288F389E02D80818F7D808308951F929C
:1013E0000F920FB60F9211242F933F934F935F9359
:1013F0006F937F938F939F93AF93BF93EF93FF93DD
:101400008091B900887F803609F49CC068F58832E5
:1014100009F45BC090F4803109F454C038F4882397
:1014200009F4F6C0883009F44DC0F6C0883109F4DB
:101430004CC0803209F45DC0EFC0803409F468C04C
:1014400048F4803309F455C0883309F0E5C080932F
:101450006D02D8C0803509F44FC0883509F45DC0ED
:10146000883409F0D9C0D6C0883909F4C7C0A8F4B7
:10147000883709F467C038F4883609F463C08037C8
:1014800009F460C0C9C0883809F4B8C0803909F4CB
:101490005FC0803809F0C0C05BC0803B09F486C0E3
:1014A00038F4803A09F466C0883A09F47FC0B4C0C1
:1014B000803C09F4A7C0883C09F4A4C0883B09F427
:1014C0008AC0AAC080916A0210C090916C0280917B
:1014D0006B02981770F5E0916C0281E08E0F80939B
:1014E0006C02F0E0E75BFD4F80818093BB0085ECF0
:1014F00086C080936D028EC0E0916C0281E08E0FF9
:1015000080936C028091BB00F0E0E75BFD4F80832D
:1015100090916C0280916B026EC0E0916C0281E050
:101520008E0F80936C028091BB00F0E0E75BFD4F73
:10153000808380916E0281116DC081E08093690289
:1015400084EA61C083E080936F0210929D01CFCF47
:1015500080919D01803208F051C0E0919D0181E0B1
:101560008E0F80939D018091BB00F0E0E358FE4F09
:101570008083BDCF85EC8093BC0010926F02809178
:101580009D01803230F4E0919D01F0E0E358FE4F80
:10159000108260919D0170E0E0915901F0915A0133
:1015A0008DE791E0099510929D0136C084E080930B
:1015B0006F0210927C0110927B01E0915701F09133
:1015C0005801099580917B01811105C081E08093CC
:1015D0007B0110925B01E0917C0181E08E0F809392
:1015E0007C01F0E0E55AFE4F80818093BB00909132
:1015F0007C0180917B01981708F479CF85E880936E
:10160000BC000AC085EC8093BC0010926F0204C03D
:1016100010926D020E949108FF91EF91BF91AF91DE
:101620009F918F917F916F915F914F913F912F91FA
:101630000F900FBE0F901F901895833081F028F403
:10164000813099F08230A1F008958730A9F0883078
:10165000B9F08430D1F4809180008F7D03C08091F7
:1016600080008F7780938000089584B58F7702C0C3
:1016700084B58F7D84BD08958091B0008F7703C0BD
:101680008091B0008F7D8093B00008951F93CF9319
:10169000DF93282F30E0F901E45EFC4F8491F901DB
:1016A000E85AFC4FD491F901EC5BFC4FC491CC2378
:1016B000C1F0162F81110E941D0BEC2FF0E0EE0FF0
:1016C000FF1FE65CFC4FA591B4919FB7F8941111F0
:1016D00004C08C91D095D82302C0EC91DE2BDC9312
:1016E0009FBFDF91CF911F910895CF93DF93C82FB4
:1016F000809127038F3F39F580911E0391E09093ED
:1017000025028093470210922602109248026C2F05
:1017100084E992E00E941E090E94651662E08091B1
:101720001E030E941C1684E992E00E94D508C82F6F
:1017300084E992E00E94D50820E030E03C2FE901E6
:10174000C82BD92B29C080912A038F3F21F481E532
:1017500090E00E94C11460E0809127030E94460B34
:101760008C2F80680E94BC1580E00E94BC15C82F99
:1017700080E00E94BC152C2F30E0322F2227E90197
:10178000C82B61E0809127030E94460B80912A03B9
:101790008F3F11F40E94C014CE01DF91CF910895C4
:1017A0000E94750B98278927982708954F925F927A
:1017B0006F927F928F929F92AF92BF92CF92DF9261
:1017C000EF92FF92CF93C82F809127038F3F09F0AC
:1017D00040C080911E0391E09093250280934702C0
:1017E00010922602109248026C2F84E992E00E9427
:1017F0001E090E94651663E080911E030E941C165C
:1018000084E992E00E94D5082C01990F66087708B8
:10181000762C652C542C442484E992E00E94D5084F
:101820006C01990FEE08FF08C428D528E628F72890
:1018300088249C2CAD2CBE2C84E992E00E94D50813
:101840006C01990FEE08FF08C828D928EA28FB2860
:1018500033C080912A038F3F21F481E590E00E94FC
:10186000C11460E0809127030E94460B8C2F806892
:101870000E94BC1580E00E94BC15C82ED12CE12C22
:10188000F12CFE2CED2CDC2CCC2480E00E94BC152D
:10189000C82AFE2CED2CDC2CCC2480E00E94BC1548
:1018A000C82A61E0809127030E94460B80912A0399
:1018B0008F3F11F40E94C014C701B601CF91FF9071
:1018C000EF90DF90CF90BF90AF909F908F907F90E0
:1018D0006F905F904F9008958F929F92AF92BF92BA
:1018E000CF92DF92EF92FF920F931F938AEF0E94A5
:1018F000D60B6115710520E88207910509F479C0BE
:1019000000912B0310912C0320E030E0C72ED82E3D
:10191000E92EFF24E7FCFA94C01AD10AE20AF30A7E
:10192000DC01CB0157E0B595A795979587955A951A
:10193000D1F7000F111F221F331F4C015D01801AC8
:10194000910AA20AB30AA5019401A0912D03B091B6
:101950002E030E94F9184B015C017BE0B594A7941B
:10196000979487947A95D1F7A7019601C701B6019C
:101970000E947F189B01AC01ECE055954795379587
:101980002795EA95D1F7A0912F03B09130030E94DB
:10199000F918DC01CB01FEE0B595A79597958795E1
:1019A000FA95D1F7A5019401280F391F4A1F5B1F33
:1019B000209323033093240340932503509326035D
:1019C000A5E0B0E00E94EE18DC01CB0180589F4FEB
:1019D000AF4FBF4F692F7A2F8B2F992787FD9A958D
:1019E0000E94A31B20E030E048EC52E40E94F31A6E
:1019F00004C060E070E080EC9FE71F910F91FF90C2
:101A0000EF90DF90CF90BF90AF909F908F90089510
:101A10004F925F926F927F928F929F92AF92BF92FE
:101A2000CF92DF92EF92FF920E946C0C8DEF0E949A
:101A3000750BA0E0B0E0811520E89207A105B10583
:101A400009F4DAC08090230390902403A09025032A
:101A5000B09026033CE2931A31E0A30AB1083EE0BD
:101A6000880F991FAA1FBB1F3A95D1F740914703D2
:101A700050914803052E000C660B770BE4E1440FF0
:101A8000551F661F771FEA95D1F76C017D01C41AB7
:101A9000D50AE60AF70AA0914903B0914A03A501C5
:101AA00094010E94F918C61AD70AE80AF90A40E414
:101AB000D40EE11CF11CFFE0F594E794D794C79491
:101AC000FA95D1F7A0914603B0E0A50194010E94D8
:101AD000EE182B013C01ABE0759467945794479442
:101AE000AA95D1F750E8550E611C711CA0914B03CB
:101AF0000A2E000CBB0BA50194010E94F918BAE054
:101B00009595879577956795BA95D1F7A301920139
:101B10000E947F18DC01CB012AE0B595A795979527
:101B200087952A95D1F79C01AD01405E5F4FA0914A
:101B30004403B09145030E94F918DC01CB01905E8B
:101B4000AF4FBF4FBC01CD013EE09595879577958E
:101B500067953A95D1F7A70196010E947F186B010E
:101B60007C014FE095958795779567954A95D1F7D4
:101B70009B01AC010E947F189B01AC0167E0559569
:101B80004795379527956A95D1F7A0914303B0E023
:101B90000E94EE18DC01CB0174E0B595A7959795EE
:101BA00087957A95D1F7A7019601281B390B4A0B27
:101BB0005B0BDA01C90157FF03C080E090E0DC0154
:101BC00081309105A10539E1B30724F080E090E070
:101BD000A0E0B9E1BC01CD012CE095958795779502
:101BE00067952A95D1F70E94A31B20E030E040E8DA
:101BF0005AE30E947D1C04C060E070E080EC9FE727
:101C0000FF90EF90DF90CF90BF90AF909F908F901C
:101C10007F906F905F904F9008952F923F924F92D8
:101C20005F926F927F928F929F92AF92BF92CF926C
:101C3000DF92EF92FF920F931F93CF93DF93CDB775
:101C4000DEB768970FB6F894DEBF0FBECDBF0E9417
:101C50006C0C87EF0E94D60B6B877C878D879E87E5
:101C6000611571058048910509F4A5C18091230390
:101C700090912403A0912503B09126036C017D016E
:101C8000FF0CCC08DC2C76019C01AD016C2D7C2D69
:101C90008C2D9C2D345F41405109610971098109E6
:101CA000910929833A834B835C836D837E83888F7C
:101CB0009F8B59016A017B018C010E9401192F83BE
:101CC000388749875A876B8B7C8B8D8B9E8B3091A5
:101CD000340320913303932F990F990B492F592FD8
:101CE000692F792F892F0E9401190CE00E94311A67
:101CF0001901942E852E762E672E582E492E30915E
:101D0000360320913503932F990F990BAF80B88438
:101D1000C984DA84EB88FC880D891E89492F592FE4
:101D2000692F792F892F0E94011908E00E944A1A11
:101D30005101C92CD82CE72CF62C052D142D0E940E
:101D4000681A70588F4F9F4F2090310330903203A4
:101D50005101C12CD12CE12CF12C00E010E00E94AB
:101D6000011901E20E944A1A322E232E4F87588B06
:101D7000698B472E582E9A8BA0E00E947A1A09F49C
:101D80001FC130913C0320913B03932F990F990B76
:101D9000AF80B884C984DA84EB88FC880D891E89F9
:101DA000492F592F692F792F892F0E9401192F83CD
:101DB00038873A014B0189879A8730913A032091FD
:101DC0003903932F990F990BA980BA80CB80DC80BF
:101DD000ED80FE80088D1F89492F592F692F792F9B
:101DE000892F0E94011901E10E94311AAF80B88445
:101DF0006301740109851A850E94681A59016A01F4
:101E00007B018983192F4B855C856D857E8584E0F8
:101E100075956795579547958A95D1F780E090E03D
:101E2000A0E1B0E0841B950BA60BB70B3C014D0164
:101E3000990C6608762C43019C01AD01662D762D28
:101E4000862D962D0FE10E94311A49014B835A834A
:101E5000B62FA72FF82FE92F3091380320913703A1
:101E6000932F990F990B492F592F692F792F892F6C
:101E700003E20E94311A09810E94681A59016A011D
:101E80007B018C0194014B815A816B2F7A2F8F2F0C
:101E90009E2F0E94711AE5E3AE2EFCE0BF2EC12CEE
:101EA000D12CE12CF12C00E010E00E940119A32CB0
:101EB000B22CCF84D888E988F42C052D1A890E9489
:101EC0005C1928873F8349835A836B837C838D8386
:101ED0009E830DE00E944A1A922E832E742E652E48
:101EE000562E472E382E292E309142032091410341
:101EF000932F990F990BA92CB82CC72CD62CE52C15
:101F0000F42C032D122D492F592F692F792F892F4A
:101F10000E9401190E94011909E10E944A1AA8842D
:101F2000BF80C980DA80EB80FC800D811E810E9419
:101F3000681A19012A013B014C013091400320919C
:101F40003F03932F990F990B492F592F692F792F01
:101F5000892F0E94011903E10E944A1A59016A015E
:101F60007B018C019101A201B301C4010E94681A96
:101F700008E00E944A1A59016A017B01E82F192FD3
:101F800030913E0320913D03932F990F990B492FD8
:101F9000592F692F792F892F04E00E94311A0E2FB3
:101FA0000E94681A0E949B1B20E030E040E85BE33F
:101FB0000E947D1C08C060E070E080EC9FE703C0D9
:101FC00060E070E0CB0168960FB6F894DEBF0FBEFC
:101FD000CDBFDF91CF911F910F91FF90EF90DF90D8
:101FE000CF90BF90AF909F908F907F906F905F90B9
:101FF0004F903F902F900895CF93DF93D82FC62F07
:10200000809127038F3FC9F480911E0391E0909344
:1020100025028093470210922602109248026D2FEB
:1020200084E992E00E941E096C2F84E992E00E94EC
:102030001E09DF91CF910C94651680912A038F3F82
:1020400021F481E590E00E94C11460E080912703B3
:102050000E94460B8D2F8F770E94BC158C2F0E94FB
:10206000BC1561E0809127030E94460B80912A03F2
:102070008F3F21F4DF91CF910C94C014DF91CF9169
:102080000895CF93C82F809127038F3FE9F4809163
:102090001E0391E09093250280934702109226023E
:1020A000109248026C2F84E992E00E941E090E945F
:1020B000651661E080911E030E941C1684E992E07F
:1020C0000E94D508C82F20C080912A038F3F21F499
:1020D00081E590E00E94C11460E0809127030E9496
:1020E000460B8C2F80680E94BC1580E00E94BC15B6
:1020F000C82F61E0809127030E94460B80912A033C
:102100008F3F11F40E94C0148C2FCF910895CF936C
:10211000DF9390E0FC01E85AFC4F2491FC01EC5B5A
:10212000FC4F8491882361F190E0880F991FFC0196
:10213000EA5FFC4FC591D491FC01E65CFC4FA59190
:10214000B491611109C09FB7F894888120958223CA
:102150008883EC912E230BC0623061F49FB7F89412
:102160008881322F309583238883EC912E2B2C93FA
:102170009FBF06C08FB7F894E8812E2B28838FBFAE
:10218000DF91CF9108958E3008F08E508770806473
:1021900080937C0080917A00806480937A008091A3
:1021A0007A0086FDFCCF809178002091790090E044
:1021B000922B08958F929F92AF92BF92CF92DF920F
:1021C000EF92FF926B017C010E9404134B015C01B2
:1021D000C114D104E104F104F1F00E940413DC0104
:1021E000CB0188199909AA09BB09883E9340A1052A
:1021F000B10570F321E0C21AD108E108F10888EEB8
:10220000880E83E0981EA11CB11CC114D104E10406
:10221000F10419F7DDCFFF90EF90DF90CF90BF90E2
:10222000AF909F908F900895CF92DF92EF92FF92A0
:102230000F931F93CF93DF936C017A018B01C0E062
:10224000D0E0CE15DF0581F0D8016D918D01D6016A
:10225000ED91FC910190F081E02DC6010995892B4B
:1022600011F02196EECF7E01C701DF91CF911F9132
:102270000F91FF90EF90DF90CF900895FC01538D68
:10228000448D252F30E0842F90E0821B930B541750
:1022900010F0CF96089501970895FC01918D828DDD
:1022A000981761F0828DDF01A80FB11D5D968C91AA
:1022B000928D9F5F9F73928F90E008958FEF9FEFB5
:1022C0000895FC01918D828D981731F0828DE80F71
:1022D000F11D858D90E008958FEF9FEF0895FC012B
:1022E000918D228D892F90E0805C9F4F821B9109F8
:1022F0008F73992708958FE493E00E946F1121E076
:10230000892B09F420E0822F0895FC01848DDF01E0
:10231000A80FB11DA35ABF4F2C91848D90E0019658
:102320008F739927848FA689B7892C93A089B18947
:102330008C91837080648C93938D848D981306C0E8
:102340000288F389E02D80818F7D80830895EF924C
:10235000FF920F931F93CF93DF93EC0181E0888F5F
:102360009B8D8C8D981305C0E889F989808185FD46
:1023700026C0F62E0B8D10E00F5F1F4F0F73112735
:10238000E02E8C8DE8120CC00FB607FCFACFE8895E
:10239000F989808185FFF5CFCE010E948511F1CFAB
:1023A0008B8DFE01E80FF11DE35AFF4FF0829FB7BE
:1023B000F8940B8FEA89FB89808180620AC09FB7FD
:1023C000F894EE89FF896083E889F98980818370B8
:1023D000806480839FBF81E090E0DF91CF911F9167
:1023E0000F91FF90EF900895CF93DF93EC01888DCC
:1023F0008823C9F0EA89FB89808185FD05C0A88909
:10240000B9898C9186FD0FC00FB607FCF5CF80818E
:1024100085FFF2CFA889B9898C9185FFEDCFCE01D8
:102420000E948511E7CFDF91CF91089580E090E081
:10243000892B29F00E947B1181110C9400000895D2
:10244000FC018681845F0895FC01611102C08285D0
:102450000895613011F481850895623011F480850A
:102460000895633011F487810895643011F48685EE
:102470000895653011F485850895663011F48485DA
:102480000895673011F483850895683011F48089C8
:102490000895693011F4878508956A3011F48189AF
:1024A00008956B3011F4828908950480F581E02D40
:1024B000E60FF11D3C9780810895209192023091A2
:1024C00093022817390771F490919F0180919E0122
:1024D000981741F0E0919F01F0E0E056FE4F8081B7
:1024E00090E008958FEF9FEF08951F93CF93DF93B0
:1024F000DC015C968D919C915D97009739F421E009
:1025000030E013963C932E9312973BC05196ED9179
:10251000FC91529750962C915097322F30951FB7BF
:102520005E964C915E97742F727041FD6095F894A1
:102530004081772311F0422B01C043234083EC01FB
:102540002197F1F748E0508160FF02C0522B01C093
:1025500053235083EC012197F1F76695415099F789
:102560008081772319F08323808302C0282B208366
:102570001FBF5C968D919C915D970197F1F781E06B
:1025800090E0DF91CF911F910895209192023091B8
:1025900093022817390771F480919E0120919F01C1
:1025A00090E0805C9F4F821B910960E470E00E9484
:1025B000A318089580E090E0089520919202309150
:1025C000930228173907B9F490919F0180919E01D9
:1025D000981789F0E0919F01F0E0E056FE4F80816E
:1025E00020919F0130E02F5F3F4F2F7333272093BF
:1025F0009F0190E008958FEF9FEF0895089580E088
:1026000090E008950E94EA1C3FB7F894809121025F
:1026100090912202A0912302B091240226B5A89B9A
:1026200005C02F3F19F00196A11DB11D3FBFBA2F64
:10263000A92F982F8827820F911DA11DB11DBC01C4
:10264000CD0143E0660F771F881F991F4A95D1F788
:1026500008952FB7F89460911D0270911E02809129
:102660001F02909120022FBF08951F920F920FB664
:102670000F9211242F933F938F939F93AF93BF9308
:1026800080911D0290911E02A0911F02B091200224
:1026900030911C0226E0230F2D3720F40296A11D55
:1026A000B11D05C029E8230F0396A11DB11D20937C
:1026B0001C0280931D0290931E02A0931F02B093F0
:1026C00020028091210290912202A0912302B091D8
:1026D00024020196A11DB11D809321029093220234
:1026E000A0932302B0932402BF91AF919F918F9149
:1026F0003F912F910F900FBE0F901F9018951F9232
:102700000F920FB60F9211242F933F934F935F9325
:102710006F937F938F939F93AF93BF93EF93FF93A9
:102720008FE493E00E948511FF91EF91BF91AF91EB
:102730009F918F917F916F915F914F913F912F91D9
:102740000F900FBE0F901F9018951F920F920FB60B
:102750000F9211242F938F939F93EF93FF93E09108
:102760005F03F09160038081E0916503F09166035F
:1027700082FD12C09081809168038F5F8F732091DA
:102780006903821751F0E0916803F0E0E15BFC4FD0
:10279000958F8093680301C08081FF91EF919F9195
:1027A0008F912F910F900FBE0F901F901895EF9261
:1027B000FF920F931F93CF93DF93EC0169813881D0
:1027C000432F50E08A8190E0E0E1F3E021E026171A
:1027D00030F47491870F911D2F5F3196F8CF6330DD
:1027E00018F0337009F401966DE671E0469F900190
:1027F000479F300D569F300D1124215031094D5FF8
:102800005F4F5695479556954795240F351F280FCE
:10281000391FA8E1B0E00E94DF182B817B018C01F9
:10282000E20EF11C011D111DA8019701ACE3B0E0FF
:102830000E94EE182C817B018C01E20EF11C011D1F
:10284000111DA80197010E94EE182D81DC01CB011A
:10285000820F911DA11DB11DBC01CD0160587C4BA3
:102860008249974CDF91CF911F910F91FF90EF908C
:102870000895FC01908190539A3008F090E0818196
:1028800080532AE0929F800D112408951F920F9289
:102890000FB60F9211242F933F934F935F936F9333
:1028A0007F938F939F93AF93BF93EF93FF93E091A9
:1028B0009202F0919302309709F451C0968DA6854B
:1028C000B785858591FF04C09C91892329F447C071
:1028D0009C91892309F043C0A389B4899C9185897F
:1028E000809589238C93868997890197F1F7608D6C
:1028F000718DA685B785558538E020E0CB0101971D
:10290000F1F7822F90E095958795282F4C914523DC
:1029100009F02068315091F7868D81FD20958091D6
:102920009E0190E001968F73992730919F0138178F
:1029300049F0A0919E01B0E0A056BE4F2C93809329
:102940009E0103C0868D8160868F828D938D019755
:10295000F1F7A389B4899C918589892B8C93FF9188
:10296000EF91BF91AF919F918F917F916F915F9107
:102970004F913F912F910F900FBE0F901F90189580
:1029800008958CBD9DBD08958FE00E94C310BC01C9
:10299000990F880B990B0E94A31B9B01AC010E940D
:1029A000871A2AE137E64CE950E40E947D1C20E0BA
:1029B00030E04CE852E40E94871A0E94651BCB016C
:1029C0000895CF9382E090E00E947718C82F83E0AB
:1029D00090E00E9477182C2F30E0A901582BCA01F3
:1029E000CF910895FC018CE091E0918380838091E8
:1029F000920290919302E817F90759F4A389B489D8
:102A00009C918589809589238C93109293021092D2
:102A100092020895CF93DF93EC011B821A8288EE15
:102A200093E0A0E0B0E08C839D83AE83BF838CE015
:102A300091E0998388831F8A1E8A198E188E1B8EB7
:102A40001A8E1D8E1C8E6E8D6E7F6D7F6E8F6695BD
:102A5000617081E0682789E00E94460B61E089E0AF
:102A60000E948710E1E6F3E0E491E88BEDE4F3E007
:102A7000E491F0E0EE0FFF1FE65CFC4F859194912E
:102A80009A8B898B60E082E00E9487108E8D81FD99
:102A900004C061E082E00E94460B82E08C87EAE598
:102AA000F3E0E491ED87E6E4F3E0E491F0E0EE0F8B
:102AB000FF1FE05DFC4F859194919F878E87DF918A
:102AC000CF910895009769F0FC0101900020E9F78B
:102AD0003197AF01481B590BBC018FE493E00C9474
:102AE000141180E090E008950F931F93CF93DF932C
:102AF0008C01C0E0D0E0F801EC0FFD1F649166236B
:102B000041F08FE493E00E94A711892B11F02196E8
:102B1000F2CFCE01DF91CF911F910F910895CF9306
:102B2000DF930E947415EC018EE391E00E94621520
:102B30008C0F9D1FDF91CF910895A0911C03B09140
:102B40001D03ED91FC9111970190F081E02D682F0C
:102B5000CD010994CF9393E8980F923020F0982FED
:102B60009D7F913131F4C82F8DE70E949D1580E241
:102B70008C27CF910C949D15CF92DF92EF92FF920C
:102B80000F931F93CF93DF9390912A039F3F39F4C4
:102B90008EBD00000DB407FEFDCF8EB544C0E82EFB
:102BA000F12CC7E0D0E001E010E0FF0C60E0809184
:102BB0002A030E94460BB8010C2E01C0660F0A942E
:102BC000EAF76E21809128030E94460B61E0809114
:102BD0002A030E94460B2091290330E0F901E45EAC
:102BE000FC4F8491F901E85AFC4FD490F901EC5B59
:102BF000FC4FC490CC2071F081110E941D0BEC2D74
:102C0000F0E0EE0FFF1FE05DFC4FA591B491EC9159
:102C1000DE2229F4219708F0C8CF8F2D04C08F2D14
:102C20008160F82EF7CFDF91CF911F910F91FF9028
:102C3000EF90DF90CF90089590916F029111FCCFAB
:102C4000613208F060E291E090936F0290936E021F
:102C50002FEF20936D0210926C02260F20936B02CF
:102C600090936A0290916A02880F892B80936A027E
:102C700080916902813061F41092690280916A0248
:102C80008093BB008091BC0083FDF8CF85EC01C030
:102C900085EE8093BC0080916F028130E1F38091DA
:102CA0006C02861710F460916C02E9E4F2E0A2E78E
:102CB000B2E080E0861721F091919D938F5FFACF6B
:102CC000109271028093700208953091480231325F
:102CD00008F04BC080916F028111FCCF90914702A8
:102CE00022E020936F0221E020936E022FEF2093C9
:102CF0006D0210926C0230936B02E7E2F2E0A9E4FD
:102D0000B2E020E0321721F041914D932F5FFACFCE
:102D100010926A0220916A02990F922B90936A0294
:102D200090916902913061F41092690290916A0267
:102D30009093BB009091BC0093FDF8CF95EC01C03F
:102D400095EE9093BC0090916F029230E1F39091D8
:102D50006D029F3F79F080916D02803241F0809149
:102D60006D02803331F084E005C081E003C082E071
:102D700001C083E0109226021092480210922502B0
:102D80000895789484B5826084BD84B5816084BDE3
:102D900085B5826085BD85B5816085BD80916E00F9
:102DA000816080936E00109281008091810082602A
:102DB0008093810080918100816080938100809167
:102DC00080008160809380008091B1008460809356
:102DD000B1008091B00081608093B00080917A0052
:102DE000846080937A0080917A00826080937A0078
:102DF00080917A008E7F80937A0080917A0080683B
:102E000080937A001092C10087E898E09093E901DE
:102E10008093E8018FEA95E09093E1018093E001CF
:102E20008AE994E09093E3018093E20187E693E0DE
:102E30009093EB018093EA0182EE91E09093ED0193
:102E40008093EC0186E394E09093E5018093E401A4
:102E500081E493E09093EF018093EE018DEE93E097
:102E60009093E7018093E60189EE93E09093F1015E
:102E70008093F0018AE093E09093F3018093F20154
:102E80008FE993E09093F5018093F4011092FF0194
:102E90001092FE0110920102109200021092F601AF
:102EA0001092F7011092F8011092F90181E090E080
:102EB0009093030280930202109205021092040282
:102EC0001092060210920702109208021092090254
:102ED00010920B0210920A0210920D0210920C0234
:102EE00010920F0210920E02109210021092110214
:102EF00010921202109213021092150210921402F4
:102F000010921702109216021092180210921902D3
:102F100010921A0210921B020E948708E091E001B1
:102F2000F091E10180EE91E00995E091E201F091EC
:102F3000E3010995E091EE01F091EF0180EE91E05F
:102F40000995892B39F0E091E401F091E50180EEDB
:102F500091E00995E091EC01F091ED0180EE91E0B6
:102F60000995892B39F0E091EA01F091EB0180EEAF
:102F700091E00995E091F001F091F10180EE91E08E
:102F80000995892B39F0E091E601F091E70180EE97
:102F900091E00995E091F201F091F30180EE91E06A
:102FA0000995892B39F0E091F401F091F50180EE5B
:102FB00091E009950E941612BDCF87E095E00E942E
:102FC000F21486E295E00E94F2148CEE93E00C94E9
:102FD000F214CF93DF93E4E9F2E01382128288EED9
:102FE00093E0A0E0B0E084839583A683B7832EE1CD
:102FF00031E031832083CFE4D3E01B821A828C83BB
:103000009D83AE83BF8380E391E09983888385ECC1
:1030100090E09D878C8784EC90E09F878E8780EC82
:1030200090E0998B888B81EC90E09B8B8A8B82EC73
:1030300090E09D8B8C8B86EC90E09F8B8E8B198E15
:103040001A8E1B8E1C8EE0EAF2E012861186148620
:1030500015861782108615828EEA92E0918380830E
:10306000D0931D03C0931C038CEE93E00E940A15BD
:10307000EEE1F3E08AE081878BE082878CE0838752
:103080008DE08487EBE0F4E01286118614861586C5
:1030900017821086158289E194E091838083D09312
:1030A0008804C093870486E295E00E940A15E9E847
:1030B000F4E0128611861486158617821086158212
:1030C00087E994E091838083D0930605C09305053A
:1030D00087E095E0DF91CF910C940A15FB01DC01AC
:1030E00002C005900D9241505040D8F70895F999CB
:1030F000FECF92BD81BDF89A992780B50895DB0176
:103100008F939F930E94EE18BF91AF91A29F800D65
:10311000911DA39F900DB29F900D11240895AA1B9D
:10312000BB1B51E107C0AA1FBB1FA617B70710F0B2
:10313000A61BB70B881F991F5A95A9F780959095E4
:10314000BC01CD01089597FB072E16F4009407D01B
:1031500077FD09D00E948F1807FC05D03EF49095AA
:1031600081959F4F0895709561957F4F0895A1E2D5
:103170001A2EAA1BBB1BFD010DC0AA1FBB1FEE1FF1
:10318000FF1FA217B307E407F50720F0A21BB30B3C
:10319000E40BF50B661F771F881F991F1A9469F7B8
:1031A00060957095809590959B01AC01BD01CF0114
:1031B0000895EE0FFF1F0590F491E02D0994A29F52
:1031C000B001B39FC001A39F700D811D1124911DFB
:1031D000B29F700D811D1124911D08950E94DF186A
:1031E000A59F900DB49F900DA49F800D911D11245B
:1031F0000895B7FF0C94EE180E94EE18821B930BF3
:103200000895DF93CF931F930F939A9DF02D219FE5
:10321000F00D8B9DF00D8A9DE02DF10D039FF00DBB
:10322000029FE00DF11D4E9DE00DF11D5E9DF00D24
:103230004F9DF00D7F936F93BF92AF925F934F932B
:10324000D5010E94DF188B01AC01D7010E94DF1865
:10325000EB01E80FF91FD6010E9451192F913F9100
:10326000D6010E94DF18C60FD71FE81FF91FAF91C4
:10327000BF910E9451192F913F910E94DF18C60FF4
:10328000D71FE81FF91FD6010E94DF18E60FF71FAE
:103290009801BE01CF0111240F911F91CF91DF91B1
:1032A00008950E94DF18460F571FC81FD91F08F442
:1032B00031960895689401C0E894F92FF12B12F02B
:1032C0000C948E19A0E0B0E0E8E6F9E10C94001A45
:1032D000092E059422F40E94EA19112392F4F0E8D1
:1032E0000F26FFEFE094F09400951095B094C094F1
:1032F000D094A194BF0ACF0ADF0AEF0AFF0A0F0B8E
:103300001F0B0E94991907FC0E94EA19CDB7DEB77E
:10331000ECE00C941C1A689401C0E8948F929F9280
:10332000CF93DF930E949919DF91CF919F908F9057
:10333000089588249924F401E401B0E49F93AA2716
:103340009A158B049C04ED05FE05CF05D007A10757
:1033500098F4AD2FDC2FCF2FFE2FE92D982C892E3E
:10336000982F872F762F652F542F432F322F222708
:10337000B85031F7BF9127C01B2EBF91BB27220F3A
:10338000331F441F551F661F771F881F991F881CF6
:10339000991CEE1FFF1FCC1FDD1FAA1FBB1F8A1425
:1033A0009B04EC05FD05CE05DF05A007B10748F03D
:1033B0008A189B08EC09FD09CE09DF09A00BB10BA7
:1033C00021601A94E1F62EF49401AF01BE01CD0103
:1033D000000C089560957095809590953095409576
:1033E000509521953F4F4F4F5F4F6F4F7F4F8F4FFE
:1033F0009F4F08952F923F924F925F926F927F92CC
:103400008F929F92AF92BF92CF92DF92EF92FF92F4
:103410000F931F93CF93DF93CDB7DEB7CA1BDB0BA0
:103420000FB6F894DEBF0FBECDBF09942A88398845
:1034300048885F846E847D848C849B84AA84B9844C
:10344000C884DF80EE80FD800C811B81AA81B98158
:10345000CE0FD11D0FB6F894DEBF0FBECDBFED016C
:1034600008950F93083090F0982F872F762F652FAF
:10347000542F432F322F22270850F4CF220F331F0F
:10348000441F551F661F771F881F991F0A95B2F7A3
:103490000F91089597FB10F8169400080F930830C9
:1034A00098F00850232F342F452F562F672F782F51
:1034B000892F902DF4CF05949795879577956795EB
:1034C00057954795379527950A95AAF70F9108952F
:1034D0002A0D3B1D4C1D5D1D6E1D7F1D801F911F04
:1034E00008952A193B094C095D096E097F09800B73
:1034F000910B08950024A7FD00942A17300540057C
:103500005005600570058005900508955058BB274B
:10351000AA270E949E1A0C94431C0E94351C38F066
:103520000E943C1C20F039F49F3F19F426F40C94BF
:10353000221C0EF4E095E7FB0C941C1CE92F0E9462
:10354000541C58F3BA17620773078407950720F0D5
:1035500079F4A6F50C94761C0EF4E0950B2EBA2F98
:10356000A02D0B01B90190010C01CA01A001112489
:10357000FF27591B99F0593F50F4503E68F11A1635
:10358000F040A22F232F342F4427585FF3CF4695C6
:1035900037952795A795F0405395C9F77EF41F16E8
:1035A000BA0B620B730B840BBAF09150A1F0FF0FB2
:1035B000BB1F661F771F881FC2F70EC0BA0F621F9E
:1035C000731F841F48F4879577956795B795F7958E
:1035D0009E3F08F0B0CF9395880F08F09927EE0F23
:1035E0009795879508950E94071B0C94431C0E9491
:1035F0003C1C58F00E94351C40F029F45F3F29F034
:103600000C941C1C51110C94771C0C94221C0E94CD
:10361000541C68F39923B1F3552391F3951B550B73
:10362000BB27AA2762177307840738F09F5F5F4F95
:10363000220F331F441FAA1FA9F335D00E2E3AF0D4
:10364000E0E832D091505040E695001CCAF72BD0EC
:10365000FE2F29D0660F771F881FBB1F261737073D
:103660004807AB07B0E809F0BB0B802DBF01FF276F
:1036700093585F4F3AF09E3F510578F00C941C1C14
:103680000C94771C5F3FE4F3983ED4F386957795CE
:103690006795B795F7959F5FC9F7880F911D969528
:1036A000879597F90895E1E0660F771F881FBB1F84
:1036B000621773078407BA0720F0621B730B840B31
:1036C000BA0BEE1F88F7E09508950E946C1B689472
:1036D000B1110C94771C08950E945C1C88F09F57D0
:1036E00098F0B92F9927B751B0F0E1F0660F771F26
:1036F000881F991F1AF0BA95C9F714C0B13091F01C
:103700000E94761CB1E008950C94761C672F782FE8
:103710008827B85F39F0B93FCCF3869577956795E0
:10372000B395D9F73EF490958095709561957F4F4C
:103730008F4F9F4F089597FB16F40E94251C0C9401
:10374000DF1BE89409C097FB3EF490958095709537
:1037500061957F4F8F4F9F4F9923A9F0F92F96E9DD
:10376000BB279395F695879577956795B795F11152
:10377000F8CFFAF4BB0F11F460FF1BC06F5F7F4FEF
:103780008F4F9F4F16C0882311F096E911C0772301
:1037900021F09EE8872F762F05C0662371F096E80A
:1037A000862F70E060E02AF09A95660F771F881FD9
:1037B000DAF7880F9695879597F90895E894F92F89
:1037C00096EBFF2381F0121613061406440B939513
:1037D000F69587957795679557954040FF23B9F7FC
:1037E0001BC099270895882351F49850D2F7872B4E
:1037F000762F652F542F432F322F20E0B1F312166E
:1038000013061406440B88233AF09A95440F551F6B
:10381000661F771F881FCAF755234AF4440F551FA8
:1038200011F460FF04C06F5F7F4F8F4F9F4F880F71
:103830009695879597F9089597F99F6780E870E0C6
:1038400060E008959FEF80EC0895909580957095C5
:10385000609550954095309521953F4F4F4F5F4F64
:103860006F4F7F4F8F4F9F4F089500240A94161675
:10387000170618060906089500240A94121613065E
:10388000140605060895092E0394000C11F48823EC
:1038900052F0BB0F40F4BF2B11F460FF04C06F5F08
:1038A0007F4F8F4F9F4F089557FD9058440F551FDE
:1038B00059F05F3F71F04795880F97FB991F61F0B2
:1038C0009F3F79F087950895121613061406551F29
:1038D000F2CF4695F1DF08C0161617061806991F95
:1038E000F1CF86957105610508940895E894BB278A
:1038F00066277727CB0197F908950E94901C0C94B6
:10390000431C0E94351C38F00E943C1C20F095237B
:1039100011F00C941C1C0C94221C11240C94771C88
:103920000E94541C70F3959FC1F3950F50E0551FF2
:10393000629FF001729FBB27F00DB11D639FAA2704
:10394000F00DB11DAA1F649F6627B00DA11D661F53
:10395000829F2227B00DA11D621F739FB00DA11D74
:10396000621F839FA00D611D221F749F3327A00D2E
:10397000611D231F849F600D211D822F762F6A2FCA
:1039800011249F5750409AF0F1F088234AF0EE0F2F
:10399000FF1FBB1F661F771F881F91505040A9F75C
:1039A0009E3F510580F00C941C1C0C94771C5F3FCB
:1039B000E4F3983ED4F3869577956795B795F79598
:1039C000E7959F5FC1F7FE2B880F911D9695879510
:1039D00097F9089581E090E0F8940C94EF1C11E0C1
:1039E000C7EBD1E004C0FE010E94D9182196C83B64
:0839F000D107C9F7F894FFCFDD
:1039F80000000000241220120000000075121411AB
:103A0800FF12C508C512DD125D12000000001E0974
:103A1800F108FF12C508E908D508C608000000002B
:103A2800A71114113E11F4116F114D1161110D0AF6
:103A3800005B005D20002500206D62002E00206DD7
:023A4800560026
:00000001FF
