:100000000C948C010C94B4010C94B4010C94311236
:100010000C9431120C9431120C94B4010C94B40170
:100020000C94B4010C94B4010C94B4010C94B4017C
:100030000C94B4010C94B4010C94B4010C94B4016C
:100040000C948F110C94B4010C94FF110C94D911E1
:100050000C94B4010C94B4010C94B4010C94B4014C
:100060000C9449080C94B40147656E3A2061707095
:100070006C65323300426F617264204F707473009C
:10008000426F61726420536574757020446F6E65B1
:1000900000426F61726420536574757020537461FF
:1000A000727400504F535420456E64005B505D20C5
:1000B000094552524F523A20736F6C617220706141
:1000C0006E656C2076616C7565206F7574206F6647
:1000D0002072616E676500206D56005B505D207375
:1000E0006F6C61722070616E656C2076616C7565F5
:1000F0003A20005B505D20094572726F723A2062AF
:10010000617474657279206F7574206F66207261F6
:100110006E6765005B505D20626174746572792062
:1001200076616C75653A20005B505D2009457272FE
:100130006F723A2061706F67656520736F6C6172D2
:1001400020697272616469616E6365206F757420E5
:100150006F662072616E6765005B505D2061706F35
:100160006765655F535032313220736F6C61722066
:10017000697272616469616E63652076616C756530
:100180003A2000204B005B505D20424D4532383014
:100190002054656D70657261747572652076616C4E
:1001A00075653A20005B505D20094572726F723AA6
:1001B000205072657373757265206F7574206F6659
:1001C0002072616E6765005B505D20424D4532389C
:1001D000302050726573737572652076616C756539
:1001E0003A20005B505D20424D4532383020487542
:1001F0006D69646974792076616C75653A20005B7D
:10020000505D206E6F646520616464723A20005016
:100210004F535420426567696E0053616D706C6581
:1002200020456E640053616D706C6520537461727B
:10023000740052756E6E696E6720504F53540043C0
:100240004D44204D6F646520636D64004C6561769C
:10025000696E6720434D44206D6F646500474F54BD
:10026000204120434D443A2000456E74657220437E
:100270004D44204D6F646500545820486561727488
:100280006265617420456E6400545820486561724F
:1002900074626561742053746172740053616D708F
:1002A0006C6520545820456E640053616D706C6518
:1002B0002054582053746172740000000000240020
:1002C00027002A00000000080002010000030407C4
:1002D00000000000000000000000000023002600D5
:1002E000290000000000250028002B00040404045D
:1002F00004040404020202020202030303030303D0
:1003000001020408102040800102040810200102AC
:1003100004081020CC15C01511241FBECFEFD8E063
:10032000DEBFCDBF11E0A0E0B1E0E6EAF5E302C038
:1003300005900D92A035B107D9F725E0A0E5B1E011
:1003400001C01D92AB33B207E1F711E0CBE8D1E079
:1003500004C02197FE010E944818CA38D107C9F786
:100360000E94AC140C94C61A0C94000080E090E03B
:100370000895EF92FF921F93CF93DF93CDB7DEB72F
:1003800063970FB6F894DEBF0FBECDBF20E12B837D
:1003900021E02C839E838D836F8384E091E09A8398
:1003A0008983188619861A861B861C861D861E86DA
:1003B0001F868EEF9FEF998B888B1A8A1B8A8EE798
:1003C0000E9488131F818CE0810F90E00296892F94
:1003D0000E9495138EE0810F0E9495138B810E94DD
:1003E00095138C810E9495131B818C81180FE12C31
:1003F000F12C8F81845F90E0E816F9068CF46E2D65
:10040000CE0101960E947E100E9495136E2DCE01A2
:1004100001960E947E10180F8FEFE81AF80AE9CFB4
:10042000812F80950E949513809112039091130360
:10043000DC01ED91FC910680F781E02D0995639632
:100440000FB6F894DEBF0FBECDBFDF91CF911F91E5
:10045000FF90EF90089581E10E941D0FBC01990F5C
:10046000880B990B0E947A192AE038E240EA5BE394
:100470000E94541A20E030E04AE754E40E94541AE3
:100480000E943C19CB0108950F931F93CF93DF93E4
:10049000CDB7DEB7C659D1090FB6F894DEBF0FBE8F
:1004A000CDBF8C018AEA92E00E947A13CE010196B8
:1004B00026E9FC0111922A95E9F7F801B29626E1A6
:1004C000DC0101900D922A95E1F766E170E00E944F
:1004D000B901F801178E168E8CE992E00E947A130A
:1004E000CA56DF4F0FB6F894DEBF0FBECDBFDF9107
:1004F000CF911F910F9108958F929F92AF92BF92CB
:10050000EF92FF920F931F93CF93DF93CDB7DEB798
:10051000C659D1090FB6F894DEBF0FBECDBF0E94F9
:1005200083114B015C010E942B028C010E94CC12B2
:100530007C0189E892E00E947A13CE01019626E9B7
:10054000FC0111922A95E9F7FC82EB828D829E8252
:10055000AF82B8861A8709876AE070E00E94B90105
:1005600088E792E00E947A13CA56DF4F0FB6F894DC
:10057000DEBF0FBECDBFDF91CF911F910F91FF90D6
:10058000EF90BF90AF909F908F9008958F929F9221
:10059000AF92BF92CF92DF92EF92FF92CF93DF9311
:1005A000EC010E9483116B017C018A8C9B8CAC8CCA
:1005B000BD8C0E948311683A73448540910580F494
:1005C000C818D90888EBC8168BE0D8064CF00E94F2
:1005D00083116A8F7B8F8C8F9D8F81E090E002C0AA
:1005E00080E090E0DF91CF91FF90EF90DF90CF908F
:1005F000BF90AF909F908F9008950F931F93CF93CC
:10060000DF93EC010E9483110E891F89288D398D9B
:10061000DC01CB01801B910BA20BB30B8033954700
:10062000A105B10548F00E9483116E8B7F8B888FE6
:10063000998F81E090E002C080E090E0DF91CF915F
:100640001F910F91089585E493E00C94C90F0F93C7
:100650001F93CF938C0189E692E00E947A1385E480
:1006600093E00E94A70F0A97D1F785E493E00E94D8
:10067000C90F892BD1F385E493E00E94A70FC82FFF
:100680008DE592E00E945F136C2F85E493E00E9459
:1006900001108EE391E00E944D1385E493E00E94E7
:1006A000A70F0A97D1F7C53439F48CE492E0CF91C3
:1006B0001F910F910C947A13C03539F0C435A9F607
:1006C0008FE392E00E947A13D0CF82E392E00E94FF
:1006D0007A13D8011296ED91FC9113970995C5CF25
:1006E000CF93DF93EC0181E491E00E944D130E94CF
:1006F00083114AE00E94A60783E491E00E944D1313
:1007000085E292E00E947A130E9483116EA37FA378
:1007100088A799A70E942B029BA78AA70E94AF12C5
:100720009DA78CA70E94670C0E9443196EA77FA704
:1007300088AB99AB0E94C60A20E030E848E853E451
:100740000E945E180E9443197BAB6AAB0E94620B49
:100750000E9443197DAB6CAB80E10E941D0FBC0170
:10076000990F880B990B0E947A192AE137E64CE918
:1007700050E40E94541A0E943C197FAB6EAB88A1D2
:1007800099A19DA38CA38AE192E00E947A131F8E07
:100790001E8ECE01DF91CF910C944402CF92DF9256
:1007A000EF92FF92CF93DF938FE092E00E947A1353
:1007B0008FEF91E00E945F130E94CC12BC01990F51
:1007C000880B990B0E94E7078EE391E00E944D137E
:1007D0000E94620B6B017C0183EE91E00E945F132B
:1007E000C701B6010E94431980E090E04AE00E94F0
:1007F000A60786E491E00E9413080E94670C0E94FD
:1008000043196B017C0187EC91E00E945F13C701E3
:10081000B6010E94E70788E491E00E94130880E88F
:10082000C81688E3D80681E0E806F10424F485EAD6
:1008300091E00E947A130E94C60A6B017C0186E84F
:1008400091E00E945F1320E030E848E853E4C701DC
:10085000B6010E945E180E94431980E090E04AE0D1
:100860000E94A60783E891E00E947A1380E10E942B
:100870001D0FBC01990F880B990B0E947A192AE170
:1008800037E64CE950E40E94541A0E943C196B016F
:100890007C0189E591E00E945F13B6010D2C000CEC
:1008A000880B990B0E94E7078CE491E00E941308E3
:1008B000D7FE04C088E291E00E947A130E942B02C6
:1008C000EC0184E191E00E945F13BE010D2E000C4B
:1008D000880B990B0E94E7078CE491E00E941308B3
:1008E000D7FF04C083EF90E00E947A130E94AF12FA
:1008F000EC018BED90E00E945F13BE010D2E000C09
:10090000880B990B0E94E70787ED90E00E947A130D
:10091000C436D10524F48CEA90E00E947A1383EA6D
:1009200090E0DF91CF91FF90EF90DF90CF900C940B
:100930007A131F93CF93DF93EC010E94210881E982
:1009400090E00E947A131092FD031092FC03109223
:10095000FB031092FA031092F9031092F8038DE949
:1009600091E09093FF038093FE039091EE03963104
:1009700008F058C02DEB30E03093F9032093F803D2
:100980002BE931E03093FB032093FA032CE231E0B2
:100990003093FD032093FC0340916800983058F099
:1009A00031E09E3008F430E021E0822F01C0880F52
:1009B0003A95EAF701C084E0842B80936800983070
:1009C00038F09E3040F0963148F020E030E008C02A
:1009D0002DE630E005C02BE630E002C02CE630E02A
:1009E0003093F6032093F503983030F481E001C092
:1009F000880F9A95EAF70EC0292F30E09E3018F440
:100A00002850310902C02E50310981E001C0880F01
:100A10002A95EAF78093F7038091FE039091FF03F4
:100A20000197F1F78091FC039091FD03892B49F127
:100A3000E0918802F091890243E0E23EF40709F177
:100A4000309739F0A389B4899C9185898095892351
:100A50008C93809100048E7F809300041092980103
:100A60001092990182EE93E090938902809388021C
:100A7000E091F503F091F60390818091F703892BC3
:100A8000808382EE93E0909313038093120360E0DF
:100A900080E10E94E10E60E081E10E94E10E60E0F1
:100AA0008FE00E94E10E87E78093140380911D037D
:100AB0008F3FA1F5109267021092660210921C02FD
:100AC00010923E021092650281E0809364021092BF
:100AD0005F0261E082E10E94A00961E083E10E947F
:100AE000A0098091B9008E7F8093B9008091B900F0
:100AF0008D7F8093B90088E48093B80085E480936B
:100B0000BC008CE197E090935201809351018DE1FC
:100B100097E090935401809353014EC061E00E948E
:100B2000A00961E080911D030E94E10E80912003E5
:100B30008F3F09F034C01FB7F894809150018111A4
:100B400027C0E6EFF2E08491EAE0F3E09491E82F29
:100B5000F0E0EE0FFF1FE654FD4FA591B491EC912C
:100B6000E92321F461E08AE00E94A00961E08AE0C3
:100B70000E94E10E8CB580618CBD8CB580648CBD0B
:100B800061E08DE00E94E10E61E08BE00E94E10EE9
:100B9000809150018F5F809350011FBF0DC061E0B5
:100BA0000E94E10E61E080911E030E94E10E60E070
:100BB00080911F030E94E10E80ED0E949B0E803603
:100BC00009F0EDC066EB80EE0E94560E6CE271E01B
:100BD00080E090E00E94340F83EF0E949B0E80FF24
:100BE00005C064E670E080E090E0F4CF88E80E9401
:100BF0002A0A90932203809321038AE80E942A0AFA
:100C000090932403809323038CE80E942A0A9093F4
:100C10002603809325038EE80E942A0A90932803D6
:100C20008093270380E90E942A0A90932A038093E5
:100C3000290382E90E942A0A90932C0380932B03B4
:100C400084E90E942A0A90932E0380932D0386E95B
:100C50000E942A0A9093300380932F0388E90E9410
:100C60002A0A90933203809331038AE90E942A0A68
:100C700090933403809333038CE90E942A0A909363
:100C80003603809335038EE90E942A0A9093380335
:100C90008093370381EA0E949B0E8093390381EE93
:100CA0000E942A0A90933B0380933A0383EE0E94AA
:100CB0009B0E80933C0384EE0E949B0E182F85EEC2
:100CC0000E949B0E90E1199F900111248F70282B98
:100CD00030933E0320933D0386EE0E949B0E182F17
:100CE00085EE0E949B0E40E1149F9001112490E03C
:100CF00044E0959587954A95E1F7822B932B909345
:100D0000400380933F0387EE0E949B0E8093410334
:100D10008DEE80934303809144038F71806A8093AA
:100D2000440380914203807C8093420365E082EF1C
:100D30000E94560E90914203692F677080E2689F6F
:100D400090011124892F869586958695877048E0B5
:100D5000849FB0011124622B732B97FB992790F984
:100D6000692B85EF0E94560E90914303692F67709F
:100D700080E2689F90011124892F8695869586953B
:100D8000877048E0849FB0011124622B732B9295E9
:100D9000969596959370692B84EF0E94560E0E944B
:100DA000CC1299A388A364E670E080E090E00E94F2
:100DB000340F80E890E0DF91CF911F910C947A136B
:100DC0000E94210885E790E00E947A1388E690E06F
:100DD0000C947A1385ED8093BC008091BC0084FD57
:100DE000FCCF10926502089540917501262F30E0E6
:100DF000240F311D21323105DCF4209165022430AD
:100E0000C9F4FC0180E090E0861758F43091750138
:100E10002191DC01AB5ABE4FA30FB11D2C9301965B
:100E2000F3CF80917501680F6093750180E008959C
:100E300081E0089582E00895089508950895E0916D
:100E4000670280916602E81730F4F0E0E859FD4F40
:100E5000808190E008958FEF9FEF08959091670251
:100E600080916602981750F4E92FF0E0E859FD4FA1
:100E7000208130E09F5F9093670202C02FEF3FEF29
:100E8000C90108958091660290E020916702821B5B
:100E900091090895CF92DF92EF92FF920F931F93E3
:100EA000CF93DF937C01CB018A0120911B02222387
:100EB00089F0EB016B01C40ED51ECC15DD0569F080
:100EC0006991D701ED91FC910190F081E02DC7016E
:100ED0000995F3CF642F0E94F406C801DF91CF91EA
:100EE0001F910F91FF90EF90DF90CF900895CF93D7
:100EF000DF931F92CDB7DEB7698320911B022223B7
:100F0000D1F020913E02203240F021E030E0FC019F
:100F10003383228380E090E015C080911C02E82F8B
:100F2000F0E0E35EFD4F998190838F5F80931C0218
:100F300080933E0205C061E0CE0101960E94F40656
:100F400081E090E00F90DF91CF9108958F929F9272
:100F5000AF92BF920F931F93CF93DF93CDB7DEB7BE
:100F6000A1970FB6F894DEBF0FBECDBF19A24230D5
:100F700008F44AE08E010F5D1F4F842E912CA12CA6
:100F8000B12CA50194010E947A16E62FB901CA017D
:100F900001501109EA3014F4E05D01C0E95CD801A8
:100FA000EC93232B242B252B61F7C8010E944D13B2
:100FB000A1960FB6F894DEBF0FBECDBFDF91CF91E3
:100FC0001F910F91BF90AF909F908F900895CF92F7
:100FD000DF92EF92FF92CF93DF9397FF1BC06B01DD
:100FE0007C016DE285E493E00E940110EC0166272C
:100FF0007727CB016C197D098E099F094AE00E9471
:10100000A6078C0F9D1FDF91CF91FF90EF90DF908F
:10101000CF9008954AE0DF91CF91FF90EF90DF905D
:10102000CF900C94A607CF93DF930E944D13EC0151
:101030008EE391E00E944D138C0F9D1FDF91CF91A5
:101040000895E5E4F3E0A089B18982E08C93A4855A
:10105000B5851C92A685B7858FEC8C93108EA489DC
:10106000B58986E08C93A289B3898C9180618C9339
:10107000A289B3898C9188608C93A289B3898C9161
:1010800080688C930288F389E02D80818F7D808336
:1010900008951F920F920FB60F9211242F933F9332
:1010A0004F935F936F937F938F939F93AF93BF9370
:1010B000EF93FF938091B900887F803609F49CC03C
:1010C00068F5883209F45BC090F4803109F454C0AB
:1010D00038F4882309F4F6C0883009F44DC0F6C00E
:1010E000883109F44CC0803209F45DC0EFC080340F
:1010F00009F468C048F4803309F455C0883309F016
:10110000E5C080936302D8C0803509F44FC08835AC
:1011100009F45DC0883409F0D9C0D6C0883909F413
:10112000C7C0A8F4883709F467C038F4883609F4D2
:1011300063C0803709F460C0C9C0883809F4B8C0FA
:10114000803909F45FC0803809F0C0C05BC0803BC3
:1011500009F486C038F4803A09F466C0883A09F484
:101160007FC0B4C0803C09F4A7C0883C09F4A4C087
:10117000883B09F48AC0AAC08091600210C0909197
:10118000620280916102981770F5E091620281E03D
:101190008E0F80936202F0E0E15CFD4F80818093CE
:1011A000BB0085EC86C0809363028EC0E091620232
:1011B00081E08E0F809362028091BB00F0E0E15CE1
:1011C000FD4F808390916202809161026EC0E09138
:1011D000620281E08E0F809362028091BB00F0E09A
:1011E000E15CFD4F80838091640281116DC081E0DC
:1011F00080935F0284EA61C083E08093650210926D
:101200009701CFCF80919701803208F051C0E091D3
:10121000970181E08E0F809397018091BB00F0E0F1
:10122000E958FE4F8083BDCF85EC8093BC001092BF
:10123000650280919701803230F4E0919701F0E0EF
:10124000E958FE4F10826091970170E0E0915301E0
:10125000F091540187E791E009951092970136C00B
:1012600084E0809365021092760110927501E091FE
:101270005101F0915201099580917501811105C0CC
:1012800081E08093750110925501E091760181E033
:101290008E0F80937601F0E0EB5AFE4F80818093B1
:1012A000BB009091760180917501981708F479CF71
:1012B00085E88093BC000AC085EC8093BC00109246
:1012C000650204C0109263020E94EA06FF91EF914A
:1012D000BF91AF919F918F917F916F915F914F914E
:1012E0003F912F910F900FBE0F901F901895833054
:1012F00081F028F4813099F08230A1F00895873090
:10130000A9F08830B9F08430D1F4809180008F7DCD
:1013100003C0809180008F7780938000089584B50A
:101320008F7702C084B58F7D84BD08958091B00011
:101330008F7703C08091B0008F7D8093B0000895B7
:101340001F93CF93DF93282F30E0F901EC53FD4F2B
:101350008491F901E050FD4FD491F901E451FD4F22
:10136000C491CC23C1F0162F81110E947709EC2F74
:10137000F0E0EE0FFF1FEE51FD4FA591B4919FB726
:10138000F894111104C08C91D095D82302C0EC912F
:10139000DE2BDC939FBFDF91CF911F910895CF93F8
:1013A000DF93C82F80911D038F3F39F5809114037F
:1013B00091E090931B0280933D0210921C021092C8
:1013C0003E026C2F8AE892E00E9477070E94501438
:1013D00062E0809114030E9407148AE892E00E9460
:1013E0002E07C82F8AE892E00E942E0720E030E006
:1013F0003C2FE901C82BD92B29C0809120038F3FB6
:1014000021F482E591E00E94AC1260E080911D031E
:101410000E94A0098C2F80680E94A71380E00E9480
:10142000A713C82F80E00E94A7132C2F30E0322F83
:101430002227E901C82B61E080911D030E94A009C9
:10144000809120038F3F11F40E94AB12CE01DF91F7
:10145000CF9108950E94CF0998278927982708954A
:101460004F925F926F927F928F929F92AF92BF92B4
:10147000CF92DF92EF92FF92CF93C82F80911D03FE
:101480008F3F09F040C08091140391E090931B02BC
:1014900080933D0210921C0210923E026C2F8AE84B
:1014A00092E00E9477070E94501463E08091140339
:1014B0000E9407148AE892E00E942E072C01990FDF
:1014C00066087708762C652C542C44248AE892E030
:1014D0000E942E076C01990FEE08FF08C428D5283A
:1014E000E628F72888249C2CAD2CBE2C8AE892E0B4
:1014F0000E942E076C01990FEE08FF08C828D92812
:10150000EA28FB2833C0809120038F3F21F482E535
:1015100091E00E94AC1260E080911D030E94A0093E
:101520008C2F80680E94A71380E00E94A713C82E0A
:10153000D12CE12CF12CFE2CED2CDC2CCC2480E0E9
:101540000E94A713C82AFE2CED2CDC2CCC2480E0B2
:101550000E94A713C82A61E080911D030E94A00980
:10156000809120038F3F11F40E94AB12C701B60196
:10157000CF91FF90EF90DF90CF90BF90AF909F9072
:101580008F907F906F905F904F9008958F929F9271
:10159000AF92BF92CF92DF92EF92FF920F931F9381
:1015A0008AEF0E94300A6115710520E882079105D3
:1015B00009F479C0009121031091220320E030E06A
:1015C000C72ED82EE92EFF24E7FCFA94C01AD10AC0
:1015D000E20AF30ADC01CB0157E0B595A795979590
:1015E00087955A95D1F7000F111F221F331F4C0109
:1015F0005D01801A910AA20AB30AA5019401A09183
:101600002303B09124030E94A7164B015C017BE0E9
:10161000B594A794979487947A95D1F7A7019601EA
:10162000C701B6010E9456169B01AC01ECE055952E
:10163000479537952795EA95D1F7A0912503B09165
:1016400026030E94A716DC01CB01FEE0B595A79505
:1016500097958795FA95D1F7A5019401280F391F21
:101660004A1F5B1F2093190330931A0340931B03F7
:1016700050931C03A5E0B0E00E949C16DC01CB0156
:1016800080589F4FAF4FBF4F692F7A2F8B2F9927CD
:1016900087FD9A950E947A1920E030E048EC52E4E8
:1016A0000E94CA1804C060E070E080EC9FE71F91C0
:1016B0000F91FF90EF90DF90CF90BF90AF909F90F1
:1016C0008F9008954F925F926F927F928F929F9228
:1016D000AF92BF92CF92DF92EF92FF920E94C60A22
:1016E0008DEF0E94CF09A0E0B0E0811520E89207BD
:1016F000A105B10509F4DAC08090190390901A038E
:10170000A0901B03B0901C033CE2931A31E0A30AA3
:10171000B1083EE0880F991FAA1FBB1F3A95D1F769
:1017200040913D0350913E03052E000C660B770B54
:10173000E4E1440F551F661F771FEA95D1F76C014E
:101740007D01C41AD50AE60AF70AA0913F03B091B9
:101750004003A50194010E94A716C61AD70AE80AF9
:10176000F90A40E4D40EE11CF11CFFE0F594E79483
:10177000D794C794FA95D1F7A0913C03B0E0A501A6
:1017800094010E949C162B013C01ABE07594679478
:1017900057944794AA95D1F750E8550E611C711CD7
:1017A000A09141030A2E000CBB0BA50194010E94DD
:1017B000A716BAE09595879577956795BA95D1F76D
:1017C000A30192010E945616DC01CB012AE0B595D7
:1017D000A795979587952A95D1F79C01AD01405E15
:1017E0005F4FA0913A03B0913B030E94A716DC0122
:1017F000CB01905EAF4FBF4FBC01CD013EE0959550
:101800008795779567953A95D1F7A70196010E943C
:1018100056166B017C014FE09595879577956795F6
:101820004A95D1F79B01AC010E9456169B01AC0171
:1018300067E055954795379527956A95D1F7A0911B
:101840003903B0E00E949C16DC01CB0174E0B59531
:10185000A795979587957A95D1F7A7019601281BAB
:10186000390B4A0B5B0BDA01C90157FF03C080E05B
:1018700090E0DC0181309105A10539E1B30724F046
:1018800080E090E0A0E0B9E1BC01CD012CE09595AD
:101890008795779567952A95D1F70E947A1920E068
:1018A00030E040E85AE30E94541A04C060E070E05F
:1018B00080EC9FE7FF90EF90DF90CF90BF90AF90CC
:1018C0009F908F907F906F905F904F9008952F9290
:1018D0003F924F925F926F927F928F929F92AF92C0
:1018E000BF92CF92DF92EF92FF920F931F93CF930D
:1018F000DF93CDB7DEB768970FB6F894DEBF0FBEA3
:10190000CDBF0E94C60A87EF0E94300A6B877C8792
:101910008D879E87611571058048910509F4A5C1E1
:101920008091190390911A03A0911B03B0911C039D
:101930006C017D01FF0CCC08DC2C76019C01AD0113
:101940006C2D7C2D8C2D9C2D345F414051096109FB
:1019500071098109910929833A834B835C836D83E3
:101960007E83888F9F8B59016A017B018C010E94C5
:10197000AF162F83388749875A876B8B7C8B8D8B6B
:101980009E8B30912A0320912903932F990F990B55
:10199000492F592F692F792F892F0E94AF160CE0FC
:1019A0000E94DF171901942E852E762E672E582E51
:1019B000492E30912C0320912B03932F990F990BD3
:1019C000AF80B884C984DA84EB88FC880D891E89CD
:1019D000492F592F692F792F892F0E94AF1608E0C0
:1019E0000E94F8175101C92CD82CE72CF62C052D94
:1019F000142D0E94161870588F4F9F4F2090270368
:101A0000309028035101C12CD12CE12CF12C00E0A5
:101A100010E00E94AF1601E20E94F817322E232E2A
:101A20004F87588B698B472E582E9A8BA0E00E94C7
:101A3000281809F41FC13091320320913103932FEC
:101A4000990F990BAF80B884C984DA84EB88FC883D
:101A50000D891E89492F592F692F792F892F0E94AF
:101A6000AF162F8338873A014B0189879A873091C7
:101A7000300320912F03932F990F990BA980BA80DF
:101A8000CB80DC80ED80FE80088D1F89492F592F87
:101A9000692F792F892F0E94AF1601E10E94DF176D
:101AA000AF80B8846301740109851A850E941618F5
:101AB00059016A017B018983192F4B855C856D85EE
:101AC0007E8584E075956795579547958A95D1F7FA
:101AD00080E090E0A0E1B0E0841B950BA60BB70B73
:101AE0003C014D01990C6608762C43019C01AD0127
:101AF000662D762D862D962D0FE10E94DF17490168
:101B00004B835A83B62FA72FF82FE92F30912E033E
:101B100020912D03932F990F990B492F592F692F3E
:101B2000792F892F03E20E94DF1709810E9416187E
:101B300059016A017B018C0194014B815A816B2F01
:101B40007A2F8F2F9E2F0E941F18E5E3AE2EFCE008
:101B5000BF2EC12CD12CE12CF12C00E010E00E9412
:101B6000AF16A32CB22CCF84D888E988F42C052D8D
:101B70001A890E940A1728873F8349835A836B83F7
:101B80007C838D839E830DE00E94F817922E832E16
:101B9000742E652E562E472E382E292E309138035E
:101BA00020913703932F990F990BA92CB82CC72C90
:101BB000D62CE52CF42C032D122D492F592F692FEB
:101BC000792F892F0E94AF160E94AF1609E10E945B
:101BD000F817A884BF80C980DA80EB80FC800D8173
:101BE0001E810E94161819012A013B014C013091F7
:101BF000360320913503932F990F990B492F592FB5
:101C0000692F792F892F0E94AF1603E10E94F817E0
:101C100059016A017B018C019101A201B301C40148
:101C20000E94161808E00E94F81759016A017B010A
:101C3000E82F192F3091340320913303932F990FFC
:101C4000990B492F592F692F792F892F04E00E9472
:101C5000DF170E2F0E9416180E94721920E030E044
:101C600040E85BE30E94541A08C060E070E080EC3A
:101C70009FE703C060E070E0CB0168960FB6F89470
:101C8000DEBF0FBECDBFDF91CF911F910F91FF90AF
:101C9000EF90DF90CF90BF90AF909F908F907F900C
:101CA0006F905F904F903F902F900895CF93DF9368
:101CB000D82FC62F80911D038F3FC9F48091140344
:101CC00091E090931B0280933D0210921C021092AF
:101CD0003E026D2F8AE892E00E9477076C2F8AE817
:101CE00092E00E947707DF91CF910C94501480917D
:101CF00020038F3F21F482E591E00E94AC1260E066
:101D000080911D030E94A0098D2F8F770E94A71339
:101D10008C2F0E94A71361E080911D030E94A009EF
:101D2000809120038F3F21F4DF91CF910C94AB126F
:101D3000DF91CF910895CF93C82F80911D038F3FDE
:101D4000E9F48091140391E090931B0280933D028B
:101D500010921C0210923E026C2F8AE892E00E94C0
:101D600077070E94501461E0809114030E940714C9
:101D70008AE892E00E942E07C82F20C0809120039D
:101D80008F3F21F482E591E00E94AC1260E08091E7
:101D90001D030E94A0098C2F80680E94A71380E079
:101DA0000E94A713C82F61E080911D030E94A00923
:101DB000809120038F3F11F40E94AB128C2FCF91A2
:101DC0000895CF93DF9390E0FC01E050FD4F249104
:101DD000FC01E451FD4F8491882361F190E0880F6C
:101DE000991FFC01E654FD4FC591D491FC01EE51C1
:101DF000FD4FA591B491611109C09FB7F8948881F6
:101E0000209582238883EC912E230BC0623061F4ED
:101E10009FB7F8948881322F309583238883EC9183
:101E20002E2B2C939FBF06C08FB7F894E8812E2BE2
:101E300028838FBFDF91CF9108958E3008F08E50A8
:101E40008770806480937C0080917A0080648093A6
:101E50007A0080917A0086FDFCCF809178002091F5
:101E6000790090E0922B08958F929F92AF92BF924B
:101E7000CF92DF92EF92FF926B017C010E945E1184
:101E80004B015C01C114D104E104F104F1F00E94A2
:101E90005E11DC01CB0188199909AA09BB09883EAA
:101EA0009340A105B10570F321E0C21AD108E10801
:101EB000F10888EE880E83E0981EA11CB11CC114A5
:101EC000D104E104F10419F7DDCFFF90EF90DF902A
:101ED000CF90BF90AF909F908F900895CF92DF9258
:101EE000EF92FF920F931F93CF93DF936C017A01D0
:101EF0008B01C0E0D0E0CE15DF0581F0D8016D91F7
:101F00008D01D601ED91FC910190F081E02DC6018B
:101F10000995892B11F02196EECF7E01C701DF9143
:101F2000CF911F910F91FF90EF90DF90CF90089588
:101F3000FC01538D448D252F30E0842F90E0821BCF
:101F4000930B541710F0CF96089501970895FC0154
:101F5000918D828D981761F0828DDF01A80FB11DE0
:101F60005D968C91928D9F5F9F73928F90E0089504
:101F70008FEF9FEF0895FC01918D828D981731F0BE
:101F8000828DE80FF11D858D90E008958FEF9FEF12
:101F90000895FC01918D228D892F90E0805C9F4FE8
:101FA000821B91098F739927089585E493E00E941D
:101FB000C90F21E0892B09F420E0822F0895FC014C
:101FC000848DDF01A80FB11DA35ABF4F2C91848DC2
:101FD00090E001968F739927848FA689B7892C93F7
:101FE000A089B1898C91837080648C93938D848D4A
:101FF000981306C00288F389E02D80818F7D80834D
:102000000895EF92FF920F931F93CF93DF93EC010C
:1020100081E0888F9B8D8C8D981305C0E889F989A4
:10202000808185FD26C0F62E0B8D10E00F5F1F4FBF
:102030000F731127E02E8C8DE8120CC00FB607FC31
:10204000FACFE889F989808185FFF5CFCE010E941A
:10205000DF0FF1CF8B8DFE01E80FF11DE35AFF4F2B
:10206000F0829FB7F8940B8FEA89FB8980818062A8
:102070000AC09FB7F894EE89FF896083E889F989DF
:1020800080818370806480839FBF81E090E0DF91D6
:10209000CF911F910F91FF90EF900895CF93DF9311
:1020A000EC01888D8823C9F0EA89FB89808185FD50
:1020B00005C0A889B9898C9186FD0FC00FB607FCB1
:1020C000F5CF808185FFF2CFA889B9898C9185FFF2
:1020D000EDCFCE010E94DF0FE7CFDF91CF910895C2
:1020E00080E090E0892B29F00E94D50F81110C949B
:1020F00000000895FC018681845F0895FC01611150
:1021000002C082850895613011F48185089562309E
:1021100011F480850895633011F487810895643047
:1021200011F486850895653011F48585089566302B
:1021300011F484850895673011F48385089568301B
:1021400011F480890895693011F4878508956A3003
:1021500011F4818908956B3011F482890895048007
:10216000F581E02DE60FF11D3C97808108952091C7
:102170008802309189022817390771F490919901EA
:1021800080919801981741F0E0919901F0E0E656AE
:10219000FE4F808190E008958FEF9FEF08951F9389
:1021A000CF93DF93DC015C968D919C915D970097B6
:1021B00039F421E030E013963C932E9312973BC004
:1021C0005196ED91FC91529750962C915097322F49
:1021D00030951FB75E964C915E97742F727041FDDB
:1021E0006095F8944081772311F0422B01C043237E
:1021F0004083EC012197F1F748E0508160FF02C075
:10220000522B01C053235083EC012197F1F76695BF
:10221000415099F78081772319F08323808302C08E
:10222000282B20831FBF5C968D919C915D97019711
:10223000F1F781E090E0DF91CF911F910895209117
:102240008802309189022817390771F4809198012A
:102250002091990190E0805C9F4F821B910960E47E
:1022600070E00E946616089580E090E00895209145
:1022700088023091890228173907B9F490919901A1
:1022800080919801981789F0E0919901F0E0E65665
:10229000FE4F80812091990130E02F5F3F4F2F73D7
:1022A00033272093990190E008958FEF9FEF0895D1
:1022B000089580E090E008950E94C11A3FB7F89415
:1022C0008091170290911802A0911902B0911A0200
:1022D00026B5A89B05C02F3F19F00196A11DB11D81
:1022E0003FBFBA2FA92F982F8827820F911DA11DBC
:1022F000B11DBC01CD0142E0660F771F881F991FF9
:102300004A95D1F708952FB7F89460911302709110
:10231000140280911502909116022FBF08951F920A
:102320000F920FB60F9211242F933F938F939F9389
:10233000AF93BF938091130290911402A091150264
:10234000B09116023091120223E0230F2D3720F4B2
:102350000196A11DB11D05C026E8230F0296A11DFF
:10236000B11D209312028093130290931402A09344
:102370001502B09316028091170290911802A09155
:102380001902B0911A020196A11DB11D8093170286
:1023900090931802A0931902B0931A02BF91AF91C3
:1023A0009F918F913F912F910F900FBE0F901F9093
:1023B00018951F920F920FB60F9211242F933F93EF
:1023C0004F935F936F937F938F939F93AF93BF933D
:1023D000EF93FF9385E493E00E94DF0FFF91EF916D
:1023E000BF91AF919F918F917F916F915F914F912D
:1023F0003F912F910F900FBE0F901F9018951F9235
:102400000F920FB60F9211242F938F939F93EF93F8
:10241000FF93E0915503F09156038081E0915B03B7
:10242000F0915C0382FD12C0908180915E038F5F0A
:102430008F7320915F03821751F0E0915E03F0E00B
:10244000EB5BFC4F958F80935E0301C08081FF9111
:10245000EF919F918F912F910F900FBE0F901F9032
:1024600018951F920F920FB60F9211242F933F933E
:102470004F935F936F937F938F939F93AF93BF938C
:10248000EF93FF93E0918802F0918902309709F46D
:1024900051C0968DA685B785858591FF04C09C9116
:1024A000892329F447C09C91892309F043C0A3895B
:1024B000B4899C918589809589238C938689978995
:1024C0000197F1F7608D718DA685B785558538E048
:1024D00020E0CB010197F1F7822F90E09595879549
:1024E000282F4C91452309F02068315091F7868DB3
:1024F00081FD20958091980190E001968F73992736
:1025000030919901381749F0A0919801B0E0A65692
:10251000BE4F2C938093980103C0868D8160868F77
:10252000828D938D0197F1F7A389B4899C91858958
:10253000892B8C93FF91EF91BF91AF919F918F91D8
:102540007F916F915F914F913F912F910F900FBEAF
:102550000F901F90189508958CBD9DBD08958FE034
:102560000E941D0FBC01990F880B990B0E947A19CC
:102570009B01AC010E945E182AE137E64CE950E469
:102580000E94541A20E030E04CE852E40E945E18A9
:102590000E943C19CB010895CF9382E090E00E9405
:1025A0004E16C82F83E090E00E944E162C2F30E08C
:1025B000A901582BCA01CF910895FC018CE091E04C
:1025C000918380838091880290918902E817F907AE
:1025D00059F4A389B4899C918589809589238C932A
:1025E00010928902109288020895CF93DF93EC0134
:1025F0001B821A8288EE93E0A0E0B0E08C839D837A
:10260000AE83BF838CE091E0998388831F8A1E8A02
:10261000198E188E1B8E1A8E1D8E1C8E6E8D6E7FDF
:102620006D7F6E8F6695617081E0682789E00E94FA
:10263000A00961E089E00E94E10EE9E0F3E0E491A5
:10264000E88BE5EFF2E0E491F0E0EE0FFF1FEE51D2
:10265000FD4F859194919A8B898B60E082E00E9476
:10266000E10E8E8D81FD04C061E082E00E94A00930
:1026700082E08C87E2E0F3E0E491ED87EEEEF2E0B9
:10268000E491F0E0EE0FFF1FE852FD4F8591949129
:102690009F878E87DF91CF910895009769F0FC01A5
:1026A00001900020E9F73197AF01481B590BBC019D
:1026B00085E493E00C946E0F80E090E008950F9312
:1026C0001F93CF93DF938C01C0E0D0E0F801EC0FB3
:1026D000FD1F6491662341F085E493E00E940110A0
:1026E000892B11F02196F2CFCE01DF91CF911F916E
:1026F0000F910895CF93DF930E945F13EC018EE357
:1027000091E00E944D138C0F9D1FDF91CF91089592
:10271000A0911203B0911303ED91FC9111970190D8
:10272000F081E02D682FCD010994CF9393E8980FA5
:10273000923020F0982F9D7F913131F4C82F8DE792
:102740000E94881380E28C27CF910C948813CF923B
:10275000DF92EF92FF920F931F93CF93DF939091AD
:1027600020039F3F39F48EBD00000DB407FEFDCF5E
:102770008EB544C0E82EF12CC7E0D0E001E010E0B7
:10278000FF0C60E0809120030E94A009B8010C2E8C
:1027900001C0660F0A94EAF76E2180911E030E9421
:1027A000A00961E0809120030E94A00920911F03ED
:1027B00030E0F901EC53FD4F8491F901E050FD4FF9
:1027C000D490F901E451FD4FC490CC2071F08111F7
:1027D0000E947709EC2DF0E0EE0FFF1FE852FD4F4D
:1027E000A591B491EC91DE2229F4219708F0C8CF8D
:1027F0008F2D04C08F2D8160F82EF7CFDF91CF9100
:102800001F910F91FF90EF90DF90CF9008959091DE
:1028100065029111FCCF613208F060E291E0909383
:102820006502909364022FEF20936302109262027C
:10283000260F209361029093600290916002880FAE
:10284000892B8093600280915F02813061F4109245
:102850005F02809160028093BB008091BC0083FD89
:10286000F8CF85EC01C085EE8093BC0080916502B5
:102870008130E1F380916202861710F46091620268
:10288000EFE3F2E0A8E6B2E080E0861721F0919154
:102890009D938F5FFACF109267028093660208952E
:1028A00030913E02313208F04BC0809165028111B7
:1028B000FCCF90913D0222E02093650221E020931D
:1028C00064022FEF20936302109262023093610240
:1028D000EDE1F2E0AFE3B2E020E0321721F0419108
:1028E0004D932F5FFACF1092600220916002990FF2
:1028F000922B9093600290915F02913061F410925C
:102900005F02909160029093BB009091BC0093FD98
:10291000F8CF95EC01C095EE9093BC0090916502C4
:102920009230E1F3909163029F3F79F080916302CE
:10293000803241F080916302803331F084E005C041
:1029400081E003C082E001C083E010921C0210927B
:102950003E0210921B020895789484B5826084BD73
:1029600084B5816084BD85B5826085BD85B5816093
:1029700085BD80916E00816080936E001092810011
:1029800080918100826080938100809181008160CC
:10299000809381008091800081608093800080918D
:1029A000B10084608093B1008091B0008160809319
:1029B000B00080917A00846080937A0080917A00E0
:1029C000826080937A0080917A00816080937A009F
:1029D00080917A00806880937A001092C10080EE26
:1029E00096E09093E3018093E20189E994E090936B
:1029F000DB018093DA018EEC93E09093DD0180930C
:102A0000DC0184E492E09093E5018093E40186EB9D
:102A100091E09093E7018093E60180E793E0909343
:102A2000DF018093DE018DEF92E09093E9018093C6
:102A3000E80187E293E09093E1018093E00183E273
:102A400093E09093EB018093EA0186EC92E09093FF
:102A5000ED018093EC018CE792E09093EF0180937D
:102A6000EE011092F9011092F8011092FB01109200
:102A7000FA011092F0011092F1011092F2011092FD
:102A8000F30181E090E09093FD018093FC011092AE
:102A9000FF011092FE0110920002109201021092AA
:102AA0000202109203021092050210920402109288
:102AB0000702109206021092080210920902109268
:102AC0000A0210920B0210920D0210920C02109248
:102AD0000F0210920E0210921102109210020E9428
:102AE000E006E091DA01F091DB018AED91E00995D1
:102AF000E091DC01F091DD010995E091E801F091B0
:102B0000E9018AED91E00995892B39F0E091DE0128
:102B1000F091DF018AED91E00995E091E601F091F5
:102B2000E7018AED91E00995892B39F0E091E40104
:102B3000F091E5018AED91E00995E091EA01F091CB
:102B4000EB018AED91E00995892B39F0E091E001E4
:102B5000F091E1018AED91E00995E091EC01F091AD
:102B6000ED018AED91E00995892B39F0E091EE01B4
:102B7000F091EF018AED91E009950E947010BDCFB0
:102B80008DEF94E00E94DD128CE195E00E94DD1251
:102B900082EE93E00C94DD12CF93DF93EAE8F2E04B
:102BA0001382128288EE93E0A0E0B0E084839583E4
:102BB000A683B7832EE131E031832083C5E4D3E0DF
:102BC0001B821A828C839D83AE83BF8380E391E056
:102BD0009983888385EC90E09D878C8784EC90E0D6
:102BE0009F878E8780EC90E0998B888B81EC90E0BA
:102BF0009B8B8A8B82EC90E09D8B8C8B86EC90E09B
:102C00009F8B8E8B198E1A8E1B8E1C8EE6E9F2E03E
:102C1000128611861486158617821086158284EA1C
:102C200092E091838083D0931303C093120382EECA
:102C300093E00E94F512E4E1F3E08FEF8187828751
:102C400083878487E1E0F4E0128611861486158676
:102C50001782108615828FE094E091838083D09351
:102C60007E04C0937D048CE195E00E94F512EFE7AD
:102C7000F4E0128611861486158617821086158256
:102C80008DE894E091838083D093FC04C093FB048F
:102C90008DEF94E0DF91CF910C94F512F999FECF6E
:102CA00092BD81BDF89A992780B50895DB018F9375
:102CB0009F930E949C16BF91AF91A29F800D911D82
:102CC000A39F900DB29F900D1124089597FB072E9E
:102CD00016F4009407D077FD09D00E94341807FC41
:102CE00005D03EF4909581959F4F0895709561951C
:102CF0007F4F0895A1E21A2EAA1BBB1BFD010DC038
:102D0000AA1FBB1FEE1FFF1FA217B307E407F5079B
:102D100020F0A21BB30BE40BF50B661F771F881F77
:102D2000991F1A9469F760957095809590959B010D
:102D3000AC01BD01CF0108950E944E18A59F900DD2
:102D4000B49F900DA49F800D911D11240895B7FF8D
:102D50000C949C160E949C16821B930B0895DF9383
:102D6000CF931F930F939A9DF02D219FF00D8B9D74
:102D7000F00D8A9DE02DF10D039FF00D029FE00DF7
:102D8000F11D4E9DE00DF11D5E9DF00D4F9DF00D6E
:102D90007F936F93BF92AF925F934F93D5010E9441
:102DA0004E188B01AC01D7010E944E18EB01E80FC1
:102DB000F91FD6010E94FF162F913F91D6010E9464
:102DC0004E18C60FD71FE81FF91FAF91BF910E9481
:102DD000FF162F913F910E944E18C60FD71FE81F74
:102DE000F91FD6010E944E18E60FF71F9801BE0189
:102DF000CF0111240F911F91CF91DF9108950E946F
:102E00004E18460F571FC81FD91F08F43196089552
:102E1000689401C0E894F92FF12B12F00C943C1740
:102E2000A0E0B0E0E6E1F7E10C94AE17092E0594BE
:102E300022F40E949817112392F4F0E80F26FFEF76
:102E4000E094F09400951095B094C094D094A1941F
:102E5000BF0ACF0ADF0AEF0AFF0A0F0B1F0B0E94FF
:102E6000471707FC0E949817CDB7DEB7ECE00C942B
:102E7000CA17689401C0E8948F929F92CF93DF9312
:102E80000E944717DF91CF919F908F9008958824DB
:102E90009924F401E401B0E49F93AA279A158B04C6
:102EA0009C04ED05FE05CF05D007A10798F4AD2FD2
:102EB000DC2FCF2FFE2FE92D982C892E982F872FCE
:102EC000762F652F542F432F322F2227B85031F7FA
:102ED000BF9127C01B2EBF91BB27220F331F441F5A
:102EE000551F661F771F881F991F881C991CEE1F8E
:102EF000FF1FCC1FDD1FAA1FBB1F8A149B04EC05FC
:102F0000FD05CE05DF05A007B10748F08A189B082C
:102F1000EC09FD09CE09DF09A00BB10B21601A9461
:102F2000E1F62EF49401AF01BE01CD01000C08952D
:102F30006095709580959095309540955095219528
:102F40003F4F4F4F5F4F6F4F7F4F8F4F9F4F0895B2
:102F50002F923F924F925F926F927F928F929F92A9
:102F6000AF92BF92CF92DF92EF92FF920F931F9397
:102F7000CF93DF93CDB7DEB7CA1BDB0B0FB6F89448
:102F8000DEBF0FBECDBF09942A88398848885F8488
:102F90006E847D848C849B84AA84B984C884DF80F9
:102FA000EE80FD800C811B81AA81B981CE0FD11DDD
:102FB0000FB6F894DEBF0FBECDBFED0108950F939D
:102FC000083090F0982F872F762F652F542F432F9E
:102FD000322F22270850F4CF220F331F441F551FD2
:102FE000661F771F881F991F0A95B2F70F910895E2
:102FF00097FB10F8169400080F93083098F00850CB
:10300000232F342F452F562F672F782F892F902D60
:10301000F4CF05949795879577956795579547953C
:10302000379527950A95AAF70F9108952A0D3B1D0C
:103030004C1D5D1D6E1D7F1D801F911F08952A1957
:103040003B094C095D096E097F09800B910B0895BE
:103050000024A7FD00942A1730054005500560059F
:103060007005800590050895AA1BBB1B51E107C0A0
:10307000AA1FBB1FA617B70710F0A61BB70B881F08
:10308000991F5A95A9F780959095BC01CD01089597
:10309000EE0FFF1F0590F491E02D0994A29FB0015F
:1030A000B39FC001A39F700D811D1124911DB29F7C
:1030B000700D811D1124911D08955058BB27AA271A
:1030C0000E9475180C941A1A0E940C1A38F00E946B
:1030D000131A20F039F49F3F19F426F40C94F919CF
:1030E0000EF4E095E7FB0C94F319E92F0E942B1ADC
:1030F00058F3BA17620773078407950720F079F42D
:10310000A6F50C944D1A0EF4E0950B2EBA2FA02DB7
:103110000B01B90190010C01CA01A0011124FF2784
:10312000591B99F0593F50F4503E68F11A16F0407F
:10313000A22F232F342F4427585FF3CF469537957E
:103140002795A795F0405395C9F77EF41F16BA0B43
:10315000620B730B840BBAF09150A1F0FF0FBB1FF1
:10316000661F771F881FC2F70EC0BA0F621F731F3A
:10317000841F48F4879577956795B795F7959E3F97
:1031800008F0B0CF9395880F08F09927EE0F979528
:10319000879508950E94DE180C941A1A0E94131A3B
:1031A00058F00E940C1A40F029F45F3F29F00C946B
:1031B000F31951110C944E1A0C94F9190E942B1A00
:1031C00068F39923B1F3552391F3951B550BBB2756
:1031D000AA2762177307840738F09F5F5F4F220F9B
:1031E000331F441FAA1FA9F335D00E2E3AF0E0E892
:1031F00032D091505040E695001CCAF72BD0FE2FDC
:1032000029D0660F771F881FBB1F2617370748076F
:10321000AB07B0E809F0BB0B802DBF01FF27935827
:103220005F4F3AF09E3F510578F00C94F3190C94DF
:103230004E1A5F3FE4F3983ED4F3869577956795F1
:10324000B795F7959F5FC9F7880F911D969587955C
:1032500097F90895E1E0660F771F881FBB1F62177B
:1032600073078407BA0720F0621B730B840BBA0B39
:10327000EE1F88F7E09508950E9443196894B111F4
:103280000C944E1A08950E94331A88F09F5798F0B4
:10329000B92F9927B751B0F0E1F0660F771F881F5B
:1032A000991F1AF0BA95C9F714C0B13091F00E9475
:1032B0004D1AB1E008950C944D1A672F782F882786
:1032C000B85F39F0B93FCCF3869577956795B3959C
:1032D000D9F73EF490958095709561957F4F8F4F0B
:1032E0009F4F089597FB16F40E94FC190C94B61991
:1032F000E89409C097FB3EF4909580957095619590
:103300007F4F8F4F9F4F9923A9F0F92F96E9BB2745
:103310009395F695879577956795B795F111F8CFC1
:10332000FAF4BB0F11F460FF1BC06F5F7F4F8F4F2C
:103330009F4F16C0882311F096E911C0772321F022
:103340009EE8872F762F05C0662371F096E8862FBA
:1033500070E060E02AF09A95660F771F881FDAF711
:10336000880F9695879597F90895E894F92F96EB2D
:10337000FF2381F0121613061406440B9395F6955D
:1033800087957795679557954040FF23B9F71BC000
:1033900099270895882351F49850D2F7872B762FD8
:1033A000652F542F432F322F20E0B1F3121613064E
:1033B0001406440B88233AF09A95440F551F661F54
:1033C000771F881FCAF755234AF4440F551F11F47D
:1033D00060FF04C06F5F7F4F8F4F9F4F880F9695A0
:1033E000879597F9089597F99F6780E870E060E006
:1033F00008959FEF80EC0895909580957095609565
:1034000050954095309521953F4F4F4F5F4F6F4FEF
:103410007F4F8F4F9F4F089500240A94161617066A
:1034200018060906089500240A94121613061406B5
:1034300005060895092E0394000C11F4882352F018
:10344000BB0F40F4BF2B11F460FF04C06F5F7F4FD0
:103450008F4F9F4F089557FD9058440F551F59F0B7
:103460005F3F71F04795880F97FB991F61F09F3F71
:1034700079F087950895121613061406551FF2CF9A
:103480004695F1DF08C0161617061806991FF1CFEA
:1034900086957105610508940895E894BB27662711
:1034A0007727CB0197F908950E94671A0C941A1A8E
:1034B0000E940C1A38F00E94131A20F0952311F084
:1034C0000C94F3190C94F91911240C944E1A0E94BF
:1034D0002B1A70F3959FC1F3950F50E0551F629F13
:1034E000F001729FBB27F00DB11D639FAA27F00D5D
:1034F000B11DAA1F649F6627B00DA11D661F829F84
:103500002227B00DA11D621F739FB00DA11D621F68
:10351000839FA00D611D221F749F3327A00D611D85
:10352000231F849F600D211D822F762F6A2F112467
:103530009F5750409AF0F1F088234AF0EE0FFF1F9A
:10354000BB1F661F771F881F91505040A9F79E3FF1
:10355000510580F00C94F3190C944E1A5F3FE4F37C
:10356000983ED4F3869577956795B795F795E79547
:103570009F5FC1F7FE2B880F911D9695879597F950
:10358000089581E090E0F8940C94C61A11E0CBE81D
:10359000D1E004C0FE010E9448182196CC38D10722
:0635A000C9F7F894FFCF0B
:1035A600000000007E107A1000000000CF106E0FA1
:1035B60059111E071F113711B710000000007707B9
:1035C6004A0759111E0742072E071F070000000071
:1035D60001106E0F980F4E10C90FA70FBB0F0D0AE3
:1035E600005B005D2000250020506100206D560024
:00000001FF
