:100000000C944E010C9476010C9476010C94F80734
:100010000C94F8070C94F8070C9476010C94760174
:100020000C9476010C9476010C9476010C94760174
:100030000C9476010C9476010C9476010C94760164
:100040000C94C90C0C9476010C94EC060C94130DD2
:100050000C9476010C9476010C9476010C94760144
:100060000C94CF090C94760147656E3A206170704C
:100070006C65323300426F617264204F707473009C
:10008000426F61726420536574757020446F6E65B1
:1000900000426F61726420536574757020537461FF
:1000A000727400504F535420456E6400206D56000A
:1000B0005B505D20736F6C61722070616E656C20A7
:1000C00076616C75653A20005B505D2062617474E6
:1000D0006572792076616C75653A20005B505D2011
:1000E00061706F6765655F535032313220736F6C9A
:1000F000617220697272616469616E636520766104
:100100006C75653A2000204B005B505D20424D45E8
:100110003238302054656D70657261747572652077
:1001200076616C75653A20005B505D2009457272FE
:100130006F723A205072657373757265206F7574B3
:10014000206F662072616E6765005B505D20424DD6
:100150004532383020507265737375726520766150
:100160006C75653A20005B505D20424D4532383059
:100170002048756D69646974792076616C75653A9B
:1001800020005B505D206E6F646520616464723A8C
:100190002000504F535420426567696E0053616DD3
:1001A000706C6520456E640053616D706C65205302
:1001B000746172740052756E6E696E6720504F5391
:1001C0005400434D44204D6F646520636D64004CC2
:1001D000656176696E6720434D44206D6F646500EC
:1001E000474F54204120434D443A2000456E7465EA
:1001F0007220434D44204D6F64650054582048657B
:100200006172746265617420456E640054582048C0
:100210006561727462656174205374617274005315
:10022000616D706C6520545820456E640053616D9B
:10023000706C652054582053746172740000000083
:1002400000240027002A000000000800020100002E
:10025000030407000000000000000000000000236D
:10026000002600290000000000250028002B0004C3
:10027000040404040404040202020202020303034D
:100280000303030102040810204080010204081047
:1002900020010204081020008210761011241FBED5
:1002A000CFEFD8E0DEBFCDBF11E0A0E0B1E0ECEDD4
:1002B000F2E202C005900D92A035B107D9F725E012
:1002C000A0E5B1E001C01D92AB33B207E1F711E048
:1002D000CDE4D1E004C02197FE010E945611CC3438
:1002E000D107C9F70E94620F0C9461110C940000B1
:1002F000FC01538D448D252F30E0842F90E0821B2C
:10030000930B541710F0CF96089501970895FC01B0
:10031000918D828D981761F0828DDF01A80FB11D3C
:100320005D968C91928D9F5F9F73928F90E0089560
:100330008FEF9FEF0895FC01918D828D981731F01A
:10034000828DE80FF11D858D90E008958FEF9FEF6E
:100350000895FC01918D228D892F90E0805C9F4F44
:10036000821B91098F739927089580E090E0892B73
:1003700029F00E94C50981110C9400000895FC0128
:100380008681845F0895FC01611102C08285089511
:10039000613011F481850895623011F480850895EB
:1003A000633011F487810895643011F486850895CF
:1003B000653011F485850895663011F484850895BB
:1003C000673011F483850895683011F480890895A9
:1003D000693011F4878508956A3011F48189089590
:1003E0006B3011F4828908950480F581E02DE60FC9
:1003F000F11D3C97808108952091880230918902F7
:100400002817390771F49091920180919101981702
:1004100041F0E0919201F0E0EF5AFE4F808190E0D0
:1004200008958FEF9FEF08951F93CF93DF93DC0123
:100430005C968D919C915D97009739F421E030E0B6
:1004400013963C932E9312973BC05196ED91FC91DD
:10045000529750962C915097322F30951FB75E9639
:100460004C915E97742F727041FD6095F8944081B5
:10047000772311F0422B01C043234083EC012197E5
:10048000F1F748E0508160FF02C0522B01C05323B6
:100490005083EC012197F1F76695415099F78081DF
:1004A000772319F08323808302C0282B20831FBF6A
:1004B0005C968D919C915D970197F1F781E090E0BA
:1004C000DF91CF911F910895209188023091890288
:1004D0002817390771F4809191012091920190E0E1
:1004E000805C9F4F821B910960E470E00E940C11B8
:1004F000089580E090E0089520918802309189026B
:1005000028173907B9F490919201809191019817B9
:1005100089F0E0919201F0E0EF5AFE4F8081209146
:10052000920130E02F5F3F4F2F73332720939201CA
:1005300090E008958FEF9FEF0895089580E090E098
:10054000089585E493E00C94A90180E090E008957B
:10055000CF9382E090E00E940411C82F83E090E0E6
:100560000E9404112C2F30E0A901582BCA01CF9111
:100570000895EF92FF921F93CF93DF93CDB7DEB72D
:1005800063970FB6F894DEBF0FBECDBF20E12B837B
:1005900021E02C839E838D836F8384E091E09A8396
:1005A0008983188619861A861B861C861D861E86D8
:1005B0001F868EEF9FEF998B888B1A8A1B8A8EE796
:1005C0000E94E40D1F818CE0810F90E00296892F3C
:1005D0000E94F10D8EE0810F0E94F10D8B810E942F
:1005E000F10D8C810E94F10D1B818C81180FE12C83
:1005F000F12C8F81845F90E0E816F9068CF46E2D63
:10060000CE0101960E94C3010E94F10D6E2DCE0114
:1006100001960E94C301180F8FEFE81AF80AE9CF7C
:10062000812F80950E94F10D809112039091130308
:10063000DC01ED91FC910680F781E02D0995639630
:100640000FB6F894DEBF0FBECDBFDF91CF911F91E3
:10065000FF90EF9008950F931F93CF93DF93CDB743
:10066000DEB7C659D1090FB6F894DEBF0FBECDBFB5
:100670008C018DE292E00E94D60DCE01019626E912
:10068000FC0111922A95E9F7F801B29626E1DC0106
:1006900001900D922A95E1F766E170E00E94B9029F
:1006A000F801178E168E8FE192E00E94D60DCA5681
:1006B000DF4F0FB6F894DEBF0FBECDBFDF91CF91F5
:1006C0001F910F910895CF92DF92EF92FF920F93B7
:1006D0001F93CF93DF93CDB7DEB7C659D1090FB6BD
:1006E000F894DEBF0FBECDBF0E94BD0C6B017C0134
:1006F0000E94A8028C018CE092E00E94D60DCE01EF
:10070000019626E9FC0111922A95E9F71C830B83D7
:10071000CD82DE82EF82F8862BE232E03A872987AB
:100720006AE070E00E94B9028BEF91E00E94D60D62
:10073000CA56DF4F0FB6F894DEBF0FBECDBFDF91B4
:10074000CF911F910F91FF90EF90DF90CF90089580
:10075000CF93DF93EC010E94BD0C2A8D3B8D621B71
:10076000730B683B7B404CF00E94BD0C6A8F7B8F03
:100770008C8F9D8F81E090E002C080E090E0DF915F
:10078000CF9108950F931F93CF93DF93EC010E94B5
:10079000BD0C0E891F89288D398DDC01CB01801B92
:1007A000910BA20BB30B80339547A105B10548F01F
:1007B0000E94BD0C6E8B7F8B888F998F81E090E0BB
:1007C00002C080E090E0DF91CF911F910F910895DA
:1007D000CF93DF93EC018EE391E00E94A90D0E947C
:1007E000BD0C4AE00E94030E80E491E00E94A90D36
:1007F00088EA91E00E94D60D0E94BD0C6EA37FA3F3
:1008000088A799A78BE292E09BA78AA79DA78CA7B0
:1008100040E157E260E070E04EA75FA768AB79ABBC
:1008200024E630E03BAB2AAB22E330E03DAB2CAB1F
:100830009FAB8EAB88A199A19DA38CA38DE991E07C
:100840000E94D60D1F8E1E8ECE01DF91CF910C948B
:100850002B0382E991E00E94D60D82E891E00E948C
:10086000BB0D0E94A802BC01990F880B990B0E9436
:10087000440E83E491E00E94A90D86E691E00E9477
:10088000BB0D4AE062E370E080E090E00E94030E5E
:1008900086E491E00E94700E8AE491E00E94BB0D14
:1008A00060E177E280E090E00E94440E88E491E00D
:1008B0000E94700E88E291E00E94D60D89E091E0DE
:1008C0000E94BB0D4AE064E670E080E090E00E9488
:1008D000030E86E091E00E94D60D8CED90E00E9420
:1008E000BB0D6BE272E080E090E00E94440E8CE46D
:1008F00091E00E94700E88EC90E00E94BB0D6BE2CC
:1009000072E080E090E00E94440E8CE491E00E944E
:10091000700E80EB90E00E94BB0D6BE272E080E015
:1009200090E00E94440E8CEA90E00E94D60D83EA8B
:1009300090E00C94D60D1F93CF93DF93EC010E94AF
:100940007E0E81E990E00E94D60D1092FD03109278
:10095000FC031092FB031092FA031092F903109219
:10096000F8038DE991E09093FF038093FE0390914B
:10097000EE03963108F058C02DEB30E03093F903C8
:100980002093F8032BE931E03093FB032093FA0323
:100990002CE231E03093FD032093FC03409168008A
:1009A000983058F031E09E3008F430E021E0822F9A
:1009B00001C0880F3A95EAF701C084E0842B809348
:1009C0006800983038F09E3040F0963148F020E0D2
:1009D00030E008C02DE630E005C02BE630E002C074
:1009E0002CE630E03093F6032093F503983030F492
:1009F00081E001C0880F9A95EAF70EC0292F30E0F8
:100A00009E3018F42850310902C02E50310981E07F
:100A100001C0880F2A95EAF78093F7038091FE03BF
:100A20009091FF030197F1F78091FC039091FD03F2
:100A3000892B49F1E0918802F091890243E0E23E7E
:100A4000F40709F1309739F0A389B4899C9185891D
:100A5000809589238C93809100048E7F809300047D
:100A6000109291011092920182EE93E0909389028C
:100A700080938802E091F503F091F60390818091D4
:100A8000F703892B808382EE93E090931303809386
:100A9000120360E080E10E94470C60E081E10E9467
:100AA000470C60E08FE00E94470C87E780931403B7
:100AB00080911D038F3FA1F510929801109297012C
:100AC00010926502109287021092630281E0809377
:100AD000620210923D0261E082E10E94260B61E019
:100AE00083E10E94260B8091B9008E7F8093B9002C
:100AF0008091B9008D7F8093B90088E48093B8001D
:100B000085E48093BC008AEE98E0909394018093F2
:100B100093018BEE98E090939601809395014EC0DF
:100B200061E00E94260B61E080911D030E94470C4A
:100B3000809120038F3F09F034C01FB7F894809153
:100B40005001811127C0E9E7F2E08491EDE8F2E07D
:100B50009491E82FF0E0EE0FFF1FE35CFD4FA591AD
:100B6000B491EC91E92321F461E08AE00E94260B24
:100B700061E08AE00E94470C8CB580618CBD8CB529
:100B800080648CBD61E08DE00E94470C61E08BE0E9
:100B90000E94470C809150018F5F809350011FBFCE
:100BA0000DC061E00E94470C61E080911E030E942D
:100BB000470C60E080911F030E94470C80ED0E946B
:100BC0009B0B803609F0EDC066EB80EE0E94550B62
:100BD0006CE271E080E090E00E94830C83EF0E9461
:100BE0009B0B80FF05C064E670E080E090E0F4CFEE
:100BF00088E80E94E60B90932203809321038AE801
:100C00000E94E60B90932403809323038CE80E94B8
:100C1000E60B90932603809325038EE80E94E60B53
:100C2000909328038093270380E90E94E60B90931A
:100C30002A038093290382E90E94E60B90932C03F8
:100C400080932B0384E90E94E60B90932E038093FC
:100C50002D0386E90E94E60B9093300380932F03C7
:100C600088E90E94E60B90933203809331038AE96E
:100C70000E94E60B90933403809333038CE90E9427
:100C8000E60B90933603809335038EE90E94E60BC2
:100C9000909338038093370381EA0E949B0B8093E3
:100CA000390381EE0E94E60B90933B0380933A0355
:100CB00083EE0E949B0B80933C0384EE0E949B0B6F
:100CC000182F85EE0E949B0B90E1199F9001112433
:100CD0008F70282B30933E0320933D0386EE0E94B5
:100CE0009B0B182F85EE0E949B0B40E1149F9001F7
:100CF000112490E044E0959587954A95E1F7822B81
:100D0000932B9093400380933F0387EE0E949B0BAD
:100D1000809341038DEE80934303809144038F7150
:100D2000806A8093440380914203807C80934203D5
:100D300065E082EF0E94550B90914203692F677026
:100D400080E2689F90011124892F8695869586956B
:100D5000877048E0849FB0011124622B732B97FBAE
:100D6000992790F9692B85EF0E94550B90914303C9
:100D7000692F677080E2689F90011124892F869502
:100D800086958695877048E0849FB0011124622B78
:100D9000732B9295969596959370692B84EF0E948C
:100DA000550B0E94A80299A388A364E670E080E036
:100DB00090E00E94830C80E890E0DF91CF911F913A
:100DC0000C94D60D0E947E0E85E790E00E94D60D11
:100DD00088E690E00C94D60D1F920F920FB60F92FA
:100DE00011242F938F939F93EF93FF93E0915503DB
:100DF000F09156038081E0915B03F0915C0382FDEA
:100E000012C0908180915E038F5F8F7320915F038A
:100E1000821751F0E0915E03F0E0EB5BFC4F958FA1
:100E200080935E0301C08081FF91EF919F918F912C
:100E30002F910F900FBE0F901F901895FC01848D7D
:100E4000DF01A80FB11DA35ABF4F2C91848D90E0F4
:100E500001968F739927848FA689B7892C93A089CF
:100E6000B1898C91837080648C93938D848D981359
:100E700006C00288F389E02D80818F7D80830895EC
:100E8000EF92FF920F931F93CF93DF93EC0181E0DA
:100E9000888F9B8D8C8D981305C0E889F989808196
:100EA00085FD26C0F62E0B8D10E00F5F1F4F0F73D0
:100EB0001127E02E8C8DE8120CC00FB607FCFACF7C
:100EC000E889F989808185FFF5CFCE010E941E0750
:100ED000F1CF8B8DFE01E80FF11DE35AFF4FF08239
:100EE0009FB7F8940B8FEA89FB89808180620AC0E2
:100EF0009FB7F894EE89FF896083E889F98980813A
:100F00008370806480839FBF81E090E0DF91CF9108
:100F10001F910F91FF90EF9008950F931F93CF9320
:100F20008C018CEE91E00E94D60D85E493E00E9446
:100F300087010A97D1F785E493E00E94A901892BE4
:100F4000D1F385E493E00E948701C82F80EE91E001
:100F50000E94BB0D6C2F85E493E00E94400783E460
:100F600091E00E94A90D85E493E00E9487010A9711
:100F7000D1F7C53439F48FEC91E0CF911F910F91E7
:100F80000C94D60DC03539F0C435A9F682EC91E049
:100F90000E94D60DD0CF85EB91E00E94D60DD801EE
:100FA0001296ED91FC9113970995C5CFCF93DF93DE
:100FB000EC01888D8823C9F0EA89FB89808185FD51
:100FC00005C0A889B9898C9186FD0FC00FB607FCB2
:100FD000F5CF808185FFF2CFA889B9898C9185FFF3
:100FE000EDCFCE010E941E07E7CFDF91CF9108958C
:100FF0001F920F920FB60F9211242F933F934F938E
:101000005F936F937F938F939F93AF93BF93EF9370
:10101000FF93E0918802F0918902309709F451C062
:10102000968DA685B785858591FF04C09C918923FF
:1010300029F447C09C91892309F043C0A389B4894E
:101040009C918589809589238C93868997890197BE
:10105000F1F7608D718DA685B785558538E020E064
:10106000CB010197F1F7822F90E095958795282F76
:101070004C91452309F02068315091F7868D81FD10
:1010800020958091910190E001968F73992730917E
:101090009201381749F0A0919101B0E0AF5ABE4FCC
:1010A0002C938093910103C0868D8160868F828D01
:1010B000938D0197F1F7A389B4899C918589892B38
:1010C0008C93FF91EF91BF91AF919F918F917F9101
:1010D0006F915F914F913F912F910F900FBE0F90A5
:1010E0001F90189508958CBD9DBD08959091630241
:1010F0009111FCCF91E090936302909362022FEFE5
:101100002093610210926002260F20935F02909359
:101110003E0290913E02880F892B80933E0280917F
:101120003D02813061F410923D0280913E02809335
:10113000BB008091BC0083FDF8CF85EC01C085EE3B
:101140008093BC00809163028130E1F38091600262
:10115000861710F460916002AFE3B2E0EDE1F2E0D7
:1011600080E0861721F09D9191938F5FFACF0895CB
:1011700085ED8093BC008091BC0084FDFCCF109273
:10118000630208954091FA01262F30E0240F311DAB
:1011900021323105DCF4209163022430C9F4FC01D2
:1011A00080E090E0861758F43091FA012191DC013B
:1011B000A652BE4FA30FB11D2C930196F3CF809181
:1011C000FA01680F6093FA0180E0089581E00895C4
:1011D00082E00895089508950895E091980180911E
:1011E0009701E81730F4F0E0E35EFD4F808190E076
:1011F00008958FEF9FEF0895909198018091970146
:10120000981750F4E92FF0E0E35EFD4F208130E0C5
:101210009F5F9093980102C02FEF3FEFC90108959F
:101220008091970190E020919801821B9109089587
:10123000CF92DF92EF92FF920F931F93CF93DF93A2
:101240007C01CB018A0120916402222389F0EB0109
:101250006B01C40ED51ECC15DD0569F06991D7016F
:10126000ED91FC910190F081E02DC7010995F3CF3C
:10127000642F0E94C208C801DF91CF911F910F9186
:10128000FF90EF90DF90CF900895CF93DF931F9260
:10129000CDB7DEB76983209164022223D1F020917B
:1012A0008702203240F021E030E0FC0133832283CA
:1012B00080E090E015C080916502E82FF0E0EA59E7
:1012C000FD4F998190838F5F8093650280938702A1
:1012D00005C061E0CE0101960E94C20881E090E065
:1012E0000F90DF91CF9108953FB7F8948091D60188
:1012F0009091D701A091D801B091D90126B5A89BB2
:1013000005C02F3F19F00196A11DB11D3FBFBA2F97
:10131000A92F982F8827820F911DA11DB11DBC01F7
:10132000CD0142E0660F771F881F991F4A95D1F7BC
:101330000895CF92DF92EF92FF920F931F93CF9376
:10134000DF936C017A018B01C0E0D0E0CE15DF05A0
:1013500081F0D8016D918D01D601ED91FC91019044
:10136000F081E02DC6010995892B11F02196EECF71
:101370007E01C701DF91CF911F910F91FF90EF90F8
:10138000DF90CF9008950E945C1185E493E00E9465
:10139000A90121E0892B09F420E0822F08951F92F2
:1013A0000F920FB60F9211242F933F934F935F9399
:1013B0006F937F938F939F93AF93BF93EF93FF931D
:1013C0008091B900887F803609F49CC068F5883226
:1013D00009F45BC090F4803109F454C038F48823D8
:1013E00009F4F6C0883009F44DC0F6C0883109F41C
:1013F0004CC0803209F45DC0EFC0803409F468C08D
:1014000048F4803309F455C0883309F0E5C080936F
:101410006102D8C0803509F44FC0883509F45DC039
:10142000883409F0D9C0D6C0883909F4C7C0A8F4F7
:10143000883709F467C038F4883609F463C0803708
:1014400009F460C0C9C0883809F4B8C0803909F40B
:101450005FC0803809F0C0C05BC0803B09F486C023
:1014600038F4803A09F466C0883A09F47FC0B4C001
:10147000803C09F4A7C0883C09F4A4C0883B09F467
:101480008AC0AAC080913E0210C0909160028091F3
:101490005F02981770F5E091600281E08E0F8093F3
:1014A0006002F0E0E15CFD4F80818093BB0085EC41
:1014B00086C0809361028EC0E091600281E08E0F51
:1014C000809360028091BB00F0E0E15CFD4F80837F
:1014D0009091600280915F026EC0E091600281E0B5
:1014E0008E0F809360028091BB00F0E0E15CFD4FC5
:1014F00080838091620281116DC081E080933D0202
:1015000084EA61C083E08093630210921C02CFCF13
:1015100080911C02803208F051C0E0911C0281E0F1
:101520008E0F80931C028091BB00F0E0E450FE4FD0
:101530008083BDCF85EC8093BC00109263028091C4
:101540001C02803230F4E0911C02F0E0E450FE4FC7
:10155000108260911C0270E0E0919501F09196017B
:101560008CEF91E0099510921C0236C084E08093C4
:1015700063021092FB011092FA01E0919301F09145
:10158000940109958091FA01811105C081E0809351
:10159000FA011092DA01E091FB0181E08E0F809355
:1015A000FB01F0E0E652FE4F80818093BB009091FA
:1015B000FB018091FA01981708F479CF85E88093B0
:1015C000BC000AC085EC8093BC001092630204C08A
:1015D000109261020E94B808FF91EF91BF91AF9104
:1015E0009F918F917F916F915F914F913F912F913B
:1015F0000F900FBE0F901F901895833081F028F444
:10160000813099F08230A1F008958730A9F08830B8
:10161000B9F08430D1F4809180008F7D03C0809137
:1016200080008F7780938000089584B58F7702C003
:1016300084B58F7D84BD08958091B0008F7703C0FD
:101640008091B0008F7D8093B00008951F93CF9359
:10165000DF93282F30E0F901E95BFD4F8491F90118
:10166000ED57FD4FD491F901E159FD4FC491CC23C1
:10167000C1F0162F81110E94FD0AEC2FF0E0EE0F51
:10168000FF1FEB59FD4FA591B4919FB7F89411112D
:1016900004C08C91D095D82302C0EC91DE2BDC9352
:1016A0009FBFDF91CF911F910895CF93DF93D82FE4
:1016B000C62F80911D038F3FD1F48091140391E0D8
:1016C00090936402809386021092650210928702C2
:1016D0006D2F8AE892E00E9445096C2F8AE892E01B
:1016E0000E94450981E0DF91CF910C94060F809113
:1016F00020038F3F21F482E591E00E94730860E0AF
:1017000080911D030E94260B8D2F8F770E94A60EBD
:101710008C2F0E94A60E61E080911D030E94260B73
:10172000809120038F3F21F4DF91CF910C947208B8
:10173000DF91CF910895CF93C82F80911D038F3FE4
:1017400011F58091140391E09093640280938602D6
:1017500010926502109287026C2F8AE892E00E9434
:10176000450981E00E94060F61E0809114030E9408
:10177000760810929801809397018AE892E00E947F
:10178000FC08C82F20C0809120038F3F21F482E500
:1017900091E00E94730860E080911D030E94260B77
:1017A0008C2F80680E94A60E80E00E94A60EC82F93
:1017B00061E080911D030E94260B809120038F3FE2
:1017C00011F40E9472088C2FCF910895CF93DF936C
:1017D000C82F80911D038F3F61F58091140391E024
:1017E00090936402809386021092650210928702A1
:1017F0006C2F8AE892E00E94450981E00E94060F62
:1018000062E0809114030E94760810929801809300
:1018100097018AE892E00E94FC08C82F8AE892E0CB
:101820000E94FC0820E030E03C2FE901C82BD92BB6
:1018300029C0809120038F3F21F482E591E00E942E
:10184000730860E080911D030E94260B8C2F806836
:101850000E94A60E80E00E94A60EC82F80E00E9483
:10186000A60E2C2F30E0322F2227E901C82B61E091
:1018700080911D030E94260B809120038F3F11F45D
:101880000E9472089C2F8D2FDF91CF910895CF93E6
:10189000DF9390E0FC01ED57FD4F2491FC01E159ED
:1018A000FD4F8491882361F190E0880F991FFC011E
:1018B000E35CFD4FC591D491FC01EB59FD4FA5911F
:1018C000B491611109C09FB7F89488812095822353
:1018D0008883EC912E230BC0623061F49FB7F8949B
:1018E0008881322F309583238883EC912E2B2C9383
:1018F0009FBF06C08FB7F894E8812E2B28838FBF37
:10190000DF91CF9108958F929F92AF92BF92CF9225
:10191000DF92EF92FF926B017C010E9474094B01F0
:101920005C01C114D104E104F104F1F00E947409D6
:10193000DC01CB0188199909AA09BB09883E9340AB
:10194000A105B10570F321E0C21AD108E108F10840
:1019500088EE880E83E0981EA11CB11CC114D1042E
:10196000E104F10419F7DDCFFF90EF90DF90CF9005
:10197000BF90AF909F908F9008952FB7F89460918B
:10198000D2017091D3018091D4019091D5012FBFE4
:1019900008951F920F920FB60F9211242F933F9329
:1019A0008F939F93AF93BF938091D2019091D30176
:1019B000A091D401B091D5013091D10123E0230F42
:1019C0002D3720F40196A11DB11D05C026E8230F77
:1019D0000296A11DB11D2093D1018093D201909355
:1019E000D301A093D401B093D5018091D6019091F9
:1019F000D701A091D801B091D9010196A11DB11DC7
:101A00008093D6019093D701A093D801B093D901C8
:101A1000BF91AF919F918F913F912F910F900FBEEA
:101A20000F901F9018951F920F920FB60F921124CE
:101A30002F933F934F935F936F937F938F939F93D6
:101A4000AF93BF93EF93FF9385E493E00E941E074B
:101A5000FF91EF91BF91AF919F918F917F916F9186
:101A60005F914F913F912F910F900FBE0F901F905C
:101A70001895FC018CE091E091838083809188022D
:101A800090918902E817F90759F4A389B4899C91C8
:101A90008589809589238C931092890210928802FF
:101AA0000895CF93DF93EC011B821A8288EE93E0B6
:101AB000A0E0B0E08C839D83AE83BF838CE091E097
:101AC000998388831F8A1E8A198E188E1B8E1A8E00
:101AD0001D8E1C8E6E8D6E7F6D7F6E8F6695617014
:101AE00081E0682789E00E94260B61E089E00E947E
:101AF000470CECE8F2E0E491E88BE8E7F2E0E491EF
:101B0000F0E0EE0FFF1FEB59FD4F859194919A8BFA
:101B1000898B60E082E00E94470C8E8D81FD04C0BD
:101B200061E082E00E94260B82E08C87E5E8F2E02B
:101B3000E491ED87E1E7F2E0E491F0E0EE0FFF1FC2
:101B4000E55AFD4F859194919F878E87DF91CF91C4
:101B50000895009769F0FC0101900020E9F73197A2
:101B6000AF01481B590BBC0185E493E00C94990923
:101B700080E090E008950F931F93CF93DF938C0143
:101B8000C0E0D0E0F801EC0FFD1F6491662341F046
:101B900085E493E00E944007892B11F02196F2CF53
:101BA000CE01DF91CF911F910F910895CF93DF93D5
:101BB0000E94BB0DEC0183E491E00E94A90D8C0F03
:101BC0009D1FDF91CF910895A0911203B09113034F
:101BD000ED91FC9111970190F081E02D682FCD01DE
:101BE0000994CF9393E8980F923020F0982F9D7F1F
:101BF000913131F4C82F8DE70E94E40D80E28C27EB
:101C0000CF910C94E40D8F929F92AF92BF920F935D
:101C10001F93CF93DF93CDB7DEB7A1970FB6F8949C
:101C2000DEBF0FBECDBF19A2423008F44AE08E01DC
:101C30000F5D1F4F842E912CA12CB12CA501940176
:101C40000E942011E62FB901CA0101501109EA30A2
:101C500014F4E05D01C0E95CD801EC93232B242B44
:101C6000252B61F7C8010E94A90DA1960FB6F89423
:101C7000DEBF0FBECDBFDF91CF911F910F91BF90FF
:101C8000AF909F908F900895CF92DF92EF92FF9246
:101C9000CF93DF9397FF1BC06B017C016DE285E45E
:101CA00093E00E944007EC0166277727CB016C196F
:101CB0007D098E099F094AE00E94030E8C0F9D1F2B
:101CC000DF91CF91FF90EF90DF90CF9008954AE0A1
:101CD000DF91CF91FF90EF90DF90CF900C94030EA7
:101CE000CF93DF930E94A90DEC0183E491E00E9461
:101CF000A90D8C0F9D1FDF91CF910895E5E4F3E0CE
:101D0000A089B18982E08C93A485B5851C92A685B3
:101D1000B7858FEC8C93108EA489B58986E08C935F
:101D2000A289B3898C9180618C93A289B3898C91AB
:101D300088608C93A289B3898C9180688C93028887
:101D4000F389E02D80818F7D80830895CF92DF928B
:101D5000EF92FF920F931F93CF93DF939091200305
:101D60009F3F39F48EBD00000DB407FEFDCF8EB548
:101D700044C0E82EF12CC7E0D0E001E010E0FF0CF9
:101D800060E0809120030E94260BB8010C2E01C058
:101D9000660F0A94EAF76E2180911E030E94260BBB
:101DA00061E0809120030E94260B20911F0330E008
:101DB000F901E95BFD4F8491F901ED57FD4FD49096
:101DC000F901E159FD4FC490CC2071F081110E94BE
:101DD000FD0AEC2DF0E0EE0FFF1FE55AFD4FA59137
:101DE000B491EC91DE2229F4219708F0C8CF8F2D11
:101DF00004C08F2D8160F82EF7CFDF91CF911F9116
:101E00000F91FF90EF90DF90CF900895282F3091A1
:101E10008702313208F04AC0809163028111FCCF01
:101E20009091860242E040936302209362022FEF7A
:101E3000209361021092600230935F02E6E6F2E0C6
:101E4000AFE3B2E020E0321721F041914D932F5FD4
:101E5000FACF10923E0220913E02990F922B90935E
:101E60003E0290913D02913061F410923D029091BA
:101E70003E029093BB009091BC0093FDF8CF95EC8F
:101E800001C095EE9093BC00909163029230E1F313
:101E9000909161029F3F79F080916102803241F020
:101EA00080916102803331F084E005C081E003C09D
:101EB00082E001C083E010926502109287021092C6
:101EC00064020895789484B5826084BD84B581608D
:101ED00084BD85B5826085BD85B5816085BD8091F5
:101EE0006E00816080936E0010928100809181006D
:101EF0008260809381008091810081608093810065
:101F0000809180008160809380008091B100846026
:101F10008093B1008091B00081608093B000809187
:101F20007A00846080937A0080917A008260809346
:101F30007A0080917A00816080937A0080917A00A3
:101F4000806880937A001092C10082EE96E09093B0
:101F5000A2018093A1018BE994E090939A01809370
:101F6000990189E294E090939C0180939B018BE21C
:101F700093E09093A4018093A30185EA92E090936B
:101F8000A6018093A50188EE93E090939E01809333
:101F90009D0182EC93E09093A8018093A7018DE8C6
:101FA00097E09093A00180939F0181EA92E0909343
:101FB000AA018093A90188EA93E09093AC018093F1
:101FC000AB0183E693E09093AE018093AD01109254
:101FD000B8011092B7011092BA011092B901109293
:101FE000AF011092B0011092B1011092B20181E0E4
:101FF00090E09093BC018093BB011092BE011092BF
:10200000BD011092BF011092C0011092C101109247
:10201000C2011092C4011092C3011092C601109225
:10202000C5011092C7011092C8011092C901109207
:10203000CA011092CC011092CB011092CE011092E5
:10204000CD011092D0011092CF010E94E206E091E2
:102050009901F0919A0189E991E00995E0919B013C
:10206000F0919C010995E091A701F091A80189E9FF
:1020700091E00995892B39F0E0919D01F0919E0145
:1020800089E991E00995E091A501F091A60189E91E
:1020900091E00995892B39F0E091A301F091A40119
:1020A00089E991E00995E091A901F091AA0189E9F6
:1020B00091E00995892B39F0E0919F01F091A00101
:1020C00089E991E00995E091AB01F091AC0189E9D2
:1020D00091E00995892B39F0E091AD01F091AE01C5
:1020E00089E991E009950E94B501BDCF8DEF94E09B
:1020F0000E94390D8CE195E00E94390D82EE93E04B
:102100000C94390DCF93DF93EAE8F2E01382128248
:1021100088EE93E0A0E0B0E084839583A683B78344
:102120002EE131E031832083C5E4D3E01B821A82A3
:102130008C839D83AE83BF8380E391E09983888302
:1021400085EC90E09D878C8784EC90E09F878E875C
:1021500080EC90E0998B888B81EC90E09B8B8A8B54
:1021600082EC90E09D8B8C8B86EC90E09F8B8E8B2D
:10217000198E1A8E1B8E1C8EE6E9F2E012861186ED
:102180001486158617821086158284EA92E0918360
:102190008083D0931303C093120382EE93E00E94D6
:1021A000510DE4E1F3E08FEF818782878387848795
:1021B000E1E0F4E0128611861486158617821086F7
:1021C00015828FE094E091838083D0937E04C09346
:1021D0007D048CE195E00E94510DEFE7F4E012865A
:1021E0001186148615861782108615828DE894E074
:1021F00091838083D093FC04C093FB048DEF94E023
:10220000DF91CF910C94510DF999FECF92BD81BD14
:10221000F89A992780B5089597FB072E16F4009435
:1022200007D077FD09D00E94421107FC05D03EF48B
:10223000909581959F4F0895709561957F4F089572
:10224000A1E21A2EAA1BBB1BFD010DC0AA1FBB1FBA
:10225000EE1FFF1FA217B307E407F50720F0A21B2C
:10226000B30BE40BF50B661F771F881F991F1A9499
:1022700069F760957095809590959B01AC01BD01C3
:10228000CF010895AA1BBB1B51E107C0AA1FBB1FAA
:10229000A617B70710F0A61BB70B881F991F5A95F2
:1022A000A9F780959095BC01CD010895EE0FFF1F11
:1022B0000590F491E02D099481E090E0F8940C945D
:1022C000611111E0CDE4D1E004C0FE010E9456117D
:0C22D0002196CE34D107C9F7F894FFCF57
:1022DC0000000000C301BF010000000014029909B6
:1022EC009E02EC0864027C02FC010000000045091F
:1022FC0018099E02EC081009FC08ED08000000000B
:10230C00400799097801D607A90187019B015B0059
:10231C005D20000D0A00250020506100206D560044
:00000001FF
