:100000000C94B5010C94DD010C94DD010C940406F4
:100010000C9404060C9404060C94DD010C94DD0190
:100020000C94DD010C94DD010C94DD010C94DD01D8
:100030000C94DD010C94DD010C94DD010C94DD01C8
:100040000C94430D0C94DD010C94B30D0C948D0DA8
:100050000C94DD010C94DD010C94DD010C94DD01A8
:100060000C947E060C94DD0147656E3A2064726143
:10007000676F6E667275697400426F617264204FBB
:1000800070747300426F61726420536574757020E0
:10009000446F6E6500426F617264205365747570C1
:1000A000205374617274005B505D206E6F64652034
:1000B000616464723A200020634B005B505D206DE8
:1000C000706C313135613274315F74656D70657299
:1000D00061747572655F63656E74696B2076616CBF
:1000E00075653A20005B505D20436865636B206D49
:1000F000706C313135613274315F74656D70657269
:1001000061747572655F63656E74696B2076616C8E
:1001100075650025005B505D2068696836313331B4
:100120005F68756D69646974795F70637420766166
:100130006C75653A20005B505D20436865636B20F9
:10014000686968363133315F68756D6964697479DF
:100150005F7063742076616C756500205061005B90
:10016000505D206D706C313135613274315F707269
:100170006573737572655F70612076616C75653A41
:1001800020005B505D20436865636B206D706C31AF
:100190003135613274315F70726573737572655F8A
:1001A00070612076616C756500206D56005B505D56
:1001B0002061706F6765655F7370323135206972D9
:1001C00072616469616E63652076616C75653A2061
:1001D000005B505D20436865636B2061706F6765ED
:1001E000655F53503231355F697272616469616E67
:1001F00063652076616C756500206D56005B505D0F
:1002000020626174746572792076616C75653A203C
:10021000005B505D20436865636B206261747465A8
:1002200072792076616C756500206D56005B505DBB
:1002300020736F6C61722070616E656C2076616CEA
:1002400075653A20005B505D20636865636B2073C1
:100250006F6C61722070616E656C2073656E736F78
:10026000722076616C756500504F535420456E6462
:1002700000504F535420426567696E0053616D70A2
:100280006C6520456E640053616D706C652053741D
:100290006172740052756E6E696E6720504F5354D0
:1002A00000434D44204D6F646520636D6400474FEB
:1002B00054204120434D443A2000456E746572201D
:1002C000434D44204D6F6465005458204865617269
:1002D000746265617420456E6400545820486561FD
:1002E0007274626561742053746172740053616D3D
:1002F000706C6520545820456E640053616D706CBD
:10030000652054582053746172740000000000246A
:100310000027002A0000000008000201000003047A
:10032000070000000000000000000000002300267D
:1003300000290000000000250028002B0004040410
:10034000040404040402020202020203030303037E
:10035000030102040810204080010204081020015B
:10036000020408102000F10DE50D11241FBECFEF8F
:10037000D8E0DEBFCDBF11E0A0E0B1E0EEE3F2E2F5
:1003800002C005900D92A634B107D9F725E0A6E486
:10039000B1E001C01D92AA32B207E1F711E0C4EB4F
:1003A000D1E004C02197FE010E940C10C33BD1078D
:1003B000C9F70E94A00E0C9412110C94000080E06A
:1003C00090E0892B29F00E94390A81110C940000D9
:1003D0000895FC018681845F0895FC01611102C0CB
:1003E00082850895613011F481850895623011F499
:1003F00080850895633011F487810895643011F485
:1004000086850895653011F485850895663011F468
:1004100084850895673011F483850895683011F458
:1004200080890895693011F4878508956A3011F440
:10043000818908956B3011F4828908950480F581D3
:10044000E02DE60FF11D3C978081089520913C023C
:1004500030913D022817390771F49091EA0180919B
:10046000E901981741F0E091EA01F0E0E755FE4F0D
:10047000808190E008958FEF9FEF089508951F9376
:10048000CF93DF93DC015C968D919C915D970097F3
:1004900039F421E030E013963C932E9312973BC041
:1004A0005196ED91FC91529750962C915097322F86
:1004B00030951FB75E964C915E97742F727041FD18
:1004C0006095F8944081772311F0422B01C04323BB
:1004D0004083EC012197F1F748E0508160FF02C0B2
:1004E000522B01C053235083EC012197F1F76695FD
:1004F000415099F78081772319F08323808302C0CC
:10050000282B20831FBF5C968D919C915D9701974E
:10051000F1F781E090E0DF91CF911F910895209154
:100520003C0230913D022817390771F48091E901AE
:100530002091EA0190E0805C9F4F821B910960E46A
:1005400070E00E94C20F089580E090E0089520912D
:100550003C0230913D0228173907B9F49091EA0125
:100560008091E901981789F0E091EA01F0E0E75500
:10057000FE4F80812091EA0130E02F5F3F4F2F73C3
:1005800033272093EA0190E008958FEF9FEF0895BD
:1005900085ED8093BC008091BC0084FDFCCF10925F
:1005A0001702089540916601262F30E0240F311D77
:1005B00021323105DCF4209117022430C9F4FC010A
:1005C00080E090E0861758F4309166012191DC01BB
:1005D000AA5BBE4FA30FB11D2C930196F3CF809160
:1005E0006601680F6093660180E0089581E00895D8
:1005F00082E0089508950895E091F0018091EF015F
:10060000E81730F4F0E0E757FE4F808190E008955E
:100610008FEF9FEF08959091F0018091EF0198176F
:1006200050F4E92FF0E0E757FE4F208130E09F5F64
:100630009093F00102C02FEF3FEFC90108958EE3C0
:1006400092E00E940B0308958091EF0190E02091C9
:10065000F001821B91090895CF92DF92EF92FF92F1
:100660000F931F93CF93DF937C01CB018A012091DD
:100670001802222389F0EB016B01C40ED51ECC15A4
:10068000DD0569F06991D701ED91FC910190F08150
:10069000E02DC7010995F3CF642F0E94D202C80153
:1006A000DF91CF911F910F91FF90EF90DF90CF904E
:1006B0000895CF93DF931F92CDB7DEB76983209162
:1006C00018022223D1F020913B02203240F021E099
:1006D00030E0FC013383228380E090E015C08091FC
:1006E0001902E82FF0E0E65EFD4F998190838F5F5D
:1006F0008093190280933B0205C061E0CE01019610
:100700000E94D20281E090E00F90DF91CF91089596
:10071000089580E090E0089580E090E00895AF9221
:10072000BF92CF92DF92EF92FF920F931F93CF93DE
:10073000DF93EC0181E08093180280E680933A0217
:100740001092190210923B0264E08EE392E00E9444
:10075000590381E00E94A30B809117028111FCCF05
:1007600081E080931702809316029FEF9093150209
:100770001092140297E0909313028093F2018091FB
:10078000F201806C8093F2018091F101813061F47B
:100790001092F1018091F2018093BB008091BC0026
:1007A00083FDF8CF85EC01C085EE8093BC0080917D
:1007B00017028130E1F380911402883018F490918F
:1007C000140201C098E0A3EFB1E0E9E8F1E080E0B5
:1007D000891721F02D9121938F5FFACF1092F001AC
:1007E0008093EF010E941F03A82E0E941F03B82EC2
:1007F0000E941F03C82E0E941F03E82E0E941F03A1
:10080000D82E0E941F03082F0E941F03F82E0E945B
:100810001F03182F6B2D70E07A29072E000C880B10
:10082000990B0E94141020E030E040E05EE30E944B
:100830004F10688379838A839B836E2D70E07C29B7
:10084000072E000C880B990B0E94141020E030E05A
:1008500040E059E30E944F106C837D838E839F8319
:10086000602F70E07D29072E000C880B990B0E94E9
:10087000141020E030E040E858E30E944F106887F1
:1008800079878A879B87612F70E07F2976956795A6
:1008900076956795072E000C880B990B0E94141013
:1008A00020E030E040E854E30E944F106C877D87E1
:1008B0008E879F87DF91CF911F910F91FF90EF90CF
:1008C000DF90CF90BF90AF900895EF92FF921F936B
:1008D000CF93DF93CDB7DEB763970FB6F894DEBF43
:1008E0000FBECDBF20E12B8321E02C839E838D831F
:1008F0006F8384E091E09A838983188619861A862B
:100900001B861C861D861E861F868EEF9FEF998B89
:10091000888B1A8A1B8A8EE70E94EF0A1F818CE05F
:10092000810F90E00296892F0E94FC0A8EE0810FD1
:100930000E94FC0A8B810E94FC0A8C810E94FC0AA6
:100940001B818C81180FE12CF12C8F81845F90E04A
:10095000E816F9068CF46E2DCE0101960E94ED0189
:100960000E94FC0A6E2DCE0101960E94ED01180F27
:100970008FEFE81AF80AE9CF812F80950E94FC0AD0
:100980008091C6029091C702DC01ED91FC91068036
:10099000F781E02D099563960FB6F894DEBF0FBE80
:1009A000CDBFDF91CF911F91FF90EF9008950F93EE
:1009B0001F93CF93DF93CDB7DEB7C659D1090FB6DA
:1009C000F894DEBF0FBECDBF8C018BEF92E00E948A
:1009D000E10ACE01019626E9FC0111922A95E9F778
:1009E000F801B29628E1DC0101900D922A95E1F719
:1009F00068E170E00E946504F801178E168E8DEE96
:100A000092E00E94E10ACA56DF4F0FB6F894DEBFAB
:100A10000FBECDBFDF91CF911F910F910895CF935E
:100A2000DF93EC010E94370D2A8D3B8D621B730B07
:100A3000683B7B404CF00E94370D6A8F7B8F8C8F18
:100A40009D8F81E090E002C080E090E0DF91CF9147
:100A500008950F931F93CF93DF93EC010E94370DFE
:100A60000E891F89288D398DDC01CB01801B910BEC
:100A7000A20BB30B80339547A105B10548F00E9446
:100A8000370D6E8B7F8B888F998F81E090E002C04D
:100A900080E090E0DF91CF911F910F91089588EE53
:100AA00092E00C942D0A0F931F93CF938C018AEB45
:100AB00092E00E94E10A88EE92E00E940B0A0A97F7
:100AC000D1F788EE92E00E942D0A892BD1F388EEAF
:100AD00092E00E940B0AC82F8EEA92E00E94C60A9A
:100AE0006C2F88EE92E00E94450A8EE391E00E940E
:100AF000B40A88EE92E00E940B0A0A97D1F7C53437
:100B0000A1F0C03539F0C435E1F681EA92E00E94E7
:100B1000E10AD7CF84E992E00E94E10AD801129657
:100B2000ED91FC9113970995CCCFCF911F910F9127
:100B30000895CF93DF93EC0181E491E00E94B40A21
:100B40000E94370D4AE00E940E0B83E491E00E9460
:100B5000B40A87E892E00E94E10A0E94370D6EA372
:100B60007FA388A799A78BE292E09BA78AA79DA75E
:100B70008CA740EA56E861E070E04EAB5FAB68AF2F
:100B800079AF1BAA1AAA9DAB8CAB8BE292E0A0E0D6
:100B9000B0E08EA79FA7A8ABB9AB8CE792E00E940C
:100BA000E10A1F8E1E8ECE01DF91CF910C94D704E7
:100BB0000E947B0B89E790E00E94E10A88E690E0C2
:100BC0000C94E10AFC01848DDF01A80FB11DA35A2A
:100BD000BF4F2C91848D90E001968F739927848F5D
:100BE000A689B7892C93A089B1898C918370806480
:100BF0008C93938D848D981306C00288F389E02D21
:100C000080818F7D808308951F920F920FB60F927F
:100C100011242F933F934F935F936F937F938F9301
:100C20009F93AF93BF93EF93FF93E0913C02F091BA
:100C30003D02309709F451C0968DA685B78585850C
:100C400091FF04C09C91892329F447C09C9189237A
:100C500009F043C0A389B4899C9185898095892333
:100C60008C93868997890197F1F7608D718DA685A0
:100C7000B785558538E020E0CB010197F1F7822F49
:100C800090E095958795282F4C91452309F0206891
:100C9000315091F7868D81FD20958091E90190E09A
:100CA00001968F7399273091EA01381749F0A09186
:100CB000E901B0E0A755BE4F2C938093E90103C032
:100CC000868D8160868F828D938D0197F1F7A38940
:100CD000B4899C918589892B8C93FF91EF91BF9169
:100CE000AF919F918F917F916F915F914F913F91C4
:100CF0002F910F900FBE0F901F9018951F920F927B
:100D00000FB60F9211242F933F934F935F936F93DE
:100D10007F938F939F93AF93BF93EF93FF938091B4
:100D2000B900887F803609F49CC068F5883209F4E0
:100D30005BC090F4803109F454C038F4882309F47E
:100D4000F6C0883009F44DC0F6C0883109F44CC0B3
:100D5000803209F45DC0EFC0803409F468C048F403
:100D6000803309F455C0883309F0E5C0809315023B
:100D7000D8C0803509F44FC0883509F45DC0883487
:100D800009F0D9C0D6C0883909F4C7C0A8F488379B
:100D900009F467C038F4883609F463C0803709F471
:100DA00060C0C9C0883809F4B8C0803909F45FC090
:100DB000803809F0C0C05BC0803B09F486C038F4BD
:100DC000803A09F466C0883A09F47FC0B4C0803C18
:100DD00009F4A7C0883C09F4A4C0883B09F48AC080
:100DE000AAC08091F20110C0909114028091130268
:100DF000981770F5E091140281E08E0F8093140231
:100E0000F0E0ED50FE4F80818093BB0085EC86C002
:100E1000809315028EC0E091140281E08E0F8093C2
:100E200014028091BB00F0E0ED50FE4F8083909162
:100E30001402809113026EC0E091140281E08E0FC3
:100E4000809314028091BB00F0E0ED50FE4F808350
:100E50008091160281116DC081E08093F10184EAD6
:100E600061C083E08093170210928801CFCF8091F8
:100E70008801803208F051C0E091880181E08E0F36
:100E8000809388018091BB00F0E0E859FE4F808399
:100E9000BDCF85EC8093BC00109217028091880131
:100EA000803230F4E0918801F0E0E859FE4F108282
:100EB0006091880170E0E091EB01F091EC0188E62F
:100EC00091E009951092880136C084E08093170262
:100ED0001092670110926601E091ED01F091EE0130
:100EE000099580916601811105C081E080936601BA
:100EF00010924601E091670181E08E0F80936701B7
:100F0000F0E0EA5BFE4F80818093BB009091670127
:100F100080916601981708F479CF85E88093BC002A
:100F20000AC085EC8093BC001092170204C0109296
:100F300015020E94C802FF91EF91BF91AF919F915E
:100F40008F917F916F915F914F913F912F910F9072
:100F50000FBE0F901F901895CF9382E090E00E94F3
:100F6000BA0FC82F83E090E00E94BA0F2C2F30E018
:100F7000A901582BCA01CF910895CF92DF92EF9229
:100F8000FF920F931F93CF93DF93CDB7DEB7C65970
:100F9000D1090FB6F894DEBF0FBECDBF0E94370D4A
:100FA0006B017C010E94AC078C018AED92E00E94EB
:100FB000E10ACE01019626E9FC0111922A95E9F792
:100FC0001C830B83CD82DE82EF82F8862BE232E037
:100FD0003A8729876AE070E00E94650489EC92E014
:100FE0000E94E10ACA56DF4F0FB6F894DEBF0FBE6B
:100FF000CDBFDF91CF911F910F91FF90EF90DF90C8
:10100000CF90089581E792E00E94E10A87EA90E09C
:101010000E94C60A0E94AC07BC01990F880B990B6D
:101020000E944F0B8EE391E00E94B40A85EE90E09F
:101030000E94E10A8BEB90E00E94C60A4AE060E061
:1010400070E0CB010E940E0B87EB90E00E94E10A5A
:1010500086E391E00E94E10A85E191E00E94C60AE0
:101060006BE272E080E090E00E944F0B83E191E040
:101070000E94E10A82E891E00E94E10A8FE591E096
:101080000E94C60A4AE060EA76E881E090E00E94A9
:101090000E0B8BE591E00E94E10A81ED91E00E9448
:1010A000E10A8DEA91E00E94C60A6BE272E080E0FC
:1010B00090E00E944F0B89EA91E00E94E10A81E1F1
:1010C00092E00E94E10A8DEF91E00E94C60A4AE098
:1010D0006BE272E080E090E00E940E0B89EF91E0FD
:1010E0000E94E10A85E492E00E94E10A8DE292E02A
:1010F0000E94C60A4AE06BE272E080E090E00E9443
:101100000E0B89E292E00E94E10A88E692E00C94DC
:10111000E10A8F929F92AF92BF92CF92DF92EF92AD
:10112000FF92CF93DF93EC010E947B0B85E990E067
:101130000E94E10A61E084E00E94FF0B1092A0038C
:1011400010929F0310929E0310929D0310929C0395
:1011500010929B038DE991E09093A2038093A103E9
:1011600090919103963108F058C02DEB30E0309308
:101170009C0320939B032BE931E030939E03209343
:101180009D032CE231E03093A00320939F03409114
:101190006800983058F031E09E3008F430E021E0EB
:1011A000822F01C0880F3A95EAF701C084E0842BB2
:1011B00080936800983038F09E3040F0963148F0C7
:1011C00020E030E008C02DE630E005C02BE630E03E
:1011D00002C02CE630E030939903209398039830B6
:1011E00030F481E001C0880F9A95EAF70EC0292FEC
:1011F00030E09E3018F42850310902C02E503109D9
:1012000081E001C0880F2A95EAF780939A038091C4
:10121000A1039091A2030197F1F780919F03909110
:10122000A003892B49F1E0913C02F0913D0223E0BB
:10123000E538F20709F1309739F0A389B4899C9118
:101240008589809589238C938091A3038E7F8093D9
:10125000A3031092E9011092EA0185E893E09093CC
:101260003D0280933C02E0919803F09199039081B4
:1012700080919A03892B808385E893E09093C7023D
:101280008093C60261E083E00E94FF0B61E08FE083
:101290000E947E0C60E08FE00E94FF0B60E080E126
:1012A0000E947E0C60E081E10E947E0C0E944C0C4A
:1012B0001092BA000E944C0C88EC92E00E948F03BE
:1012C0000E944C0C88ED92E00E948F0360E085E163
:1012D0000E947E0C60E08EE00E947E0C0E944C0C0E
:1012E00081E08093180288E480933A0210921902F8
:1012F00010923B026CE88EE392E00E94590381E079
:101300000E94A30B0E94AC0799A388A30E94120D10
:101310004B015C0184E6C82ED12CE12CF12C0E94FB
:10132000120DDC01CB0188199909AA09BB09883E75
:101330009340A105B10598F381E0C81AD108E108EE
:10134000F10828EE820E23E0921EA11CB11CC114EC
:10135000D104E104F10419F784E890E0DF91CF9122
:10136000FF90EF90DF90CF90BF90AF909F908F90C5
:101370000C94E10AFC018CE091E0918380838091E0
:101380003C0290913D02E817F90759F4A389B4890A
:101390009C918589809589238C9310923D021092AF
:1013A0003C020895CF92DF92EF92FF920F931F932A
:1013B000CF93DF936C017A018B01C0E0D0E0CE15B2
:1013C000DF0581F0D8016D918D01D601ED91FC9181
:1013D0000190F081E02DC6010995892B11F021962D
:1013E000EECF7E01C701DF91CF911F910F91FF904A
:1013F000EF90DF90CF900895FC01538D448D252F01
:1014000030E0842F90E0821B930B541710F0CF969E
:10141000089501970895FC01918D828D981761F0D0
:10142000828DDF01A80FB11D5D968C91928D9F5F1B
:101430009F73928F90E008958FEF9FEF0895FC01C6
:10144000918D828D981731F0828DE80FF11D858D79
:1014500090E008958FEF9FEF0895FC01918D228D0C
:10146000892F90E0805C9F4F821B91098F73992791
:10147000089588EE92E00E942D0A21E0892B09F45C
:1014800020E0822F08950E940D11EF92FF920F939A
:101490001F93CF93DF93EC0181E0888F9B8D8C8D20
:1014A000981305C0E889F989808185FD26C0F62E4C
:1014B0000B8D10E00F5F1F4F0F731127E02E8C8DE7
:1014C000E8120CC00FB607FCFACFE889F9898081D1
:1014D00085FFF5CFCE010E94E205F1CF8B8DFE0195
:1014E000E80FF11DE35AFF4FF0829FB7F8940B8F7E
:1014F000EA89FB89808180620AC09FB7F894EE89EF
:10150000FF896083E889F9898081837080648083A2
:101510009FBF81E090E0DF91CF911F910F91FF90ED
:10152000EF900895CF93DF93EC01888D8823C9F065
:10153000EA89FB89808185FD05C0A889B9898C91DC
:1015400086FD0FC00FB607FCF5CF808185FFF2CF77
:10155000A889B9898C9185FFEDCFCE010E94E20563
:10156000E7CFDF91CF910895009769F0FC010190DA
:101570000020E9F73197AF01481B590BBC0188EEF9
:1015800092E00C94D20980E090E008950F931F93AD
:10159000CF93DF938C01C0E0D0E0F801EC0FFD1F8A
:1015A0006491662341F088EE92E00E94450A892BFF
:1015B00011F02196F2CFCE01DF91CF911F910F91C3
:1015C0000895CF93DF930E94C60AEC018EE391E069
:1015D0000E94B40A8C0F9D1FDF91CF910895A091B6
:1015E000C602B091C702ED91FC9111970190F08174
:1015F000E02D682FCD010994CF9393E8980F923096
:1016000020F0982F9D7F913131F4C82F8DE70E94F3
:10161000EF0A80E28C27CF910C94EF0A8F929F9271
:10162000AF92BF920F931F93CF93DF93CDB7DEB7E7
:10163000A1970FB6F894DEBF0FBECDBF19A24230FE
:1016400008F44AE08E010F5D1F4F842E912CA12CCF
:10165000B12CA50194010E94D60FE62FB901CA0151
:1016600001501109EA3014F4E05D01C0E95CD801D1
:10167000EC93232B242B252B61F7C8010E94B40A7D
:10168000A1960FB6F894DEBF0FBECDBFDF91CF910C
:101690001F910F91BF90AF909F908F900895CF9220
:1016A000DF92EF92FF92CF93DF9397FF1BC06B0106
:1016B0007C016DE288EE92E00E94450AEC0166270B
:1016C0007727CB016C197D098E099F094AE00E949A
:1016D0000E0B8C0F9D1FDF91CF91FF90EF90DF904D
:1016E000CF9008954AE0DF91CF91FF90EF90DF9087
:1016F000CF900C940E0BE8EEF2E0A089B18982E065
:101700008C93A485B5851C92A685B7858FEC8C93A8
:10171000108EA489B58986E08C93A289B3898C91B7
:1017200080618C93A289B3898C9188608C93A28903
:10173000B3898C9180688C930288F389E02D808135
:101740008F7D80830895282F30913B02313208F03D
:101750004AC0809117028111FCCF90913A0242E079
:1017600040931702209316022FEF20931502109238
:10177000140230931302EAE1F2E0A3EFB1E020E0BB
:10178000321721F041914D932F5FFACF1092F20161
:101790002091F201990F922B9093F2019091F10117
:1017A000913061F41092F1019091F2019093BB009D
:1017B0009091BC0093FDF8CF95EC01C095EE90930D
:1017C000BC00909117029230E1F3909115029F3F77
:1017D00079F080911502803241F0809115028033BA
:1017E00031F084E005C081E003C082E001C083E005
:1017F0001092190210923B0210921802089590E084
:10180000FC01EB5EFC4F2491FC01EF5AFC4F34913C
:10181000FC01E35CFC4FE491EE2309F43CC022237D
:1018200039F1233091F038F42130A9F0223001F55C
:1018300084B58F7D12C0273091F02830A1F024307C
:10184000B9F4809180008F7D03C0809180008F77F4
:10185000809380000DC084B58F7784BD09C08091CE
:10186000B0008F7703C08091B0008F7D8093B0006F
:10187000F0E0EE0FFF1FED5CFC4FA591B4919FB718
:10188000F894611104C08C913095382302C0EC911A
:101890003E2B3C939FBF08951092F0011092EF01F0
:1018A0001092190210923B021092170281E080936D
:1018B00016021092F10161E082E10E94FF0B61E0EB
:1018C00083E10E94FF0BE9EBF0E080818E7F808353
:1018D00080818D7F808388E48093B80085E4809345
:1018E000BC008AEF92E09093EE018093ED018BEFC4
:1018F00092E09093EC018093EB010895CF93DF93F6
:1019000090E0FC01EF5AFC4F2491FC01E35CFC4F9A
:101910008491882361F190E0880F991FFC01E55FB5
:10192000FC4FC591D491FC01ED5CFC4FA591B491A5
:10193000611109C09FB7F89488812095822388831C
:10194000EC912E230BC0623061F49FB7F89488812C
:10195000322F309583238883EC912E2B2C939FBFBD
:1019600006C08FB7F894E8812E2B28838FBFDF91B4
:10197000CF910895CF93DF93EC011B821A8288EEFA
:1019800093E0A0E0B0E08C839D83AE83BF838CE0C6
:1019900091E0998388831F8A1E8A198E188E1B8E68
:1019A0001A8E1D8E1C8E6E8D6E7F6D7F6E8F66956E
:1019B000617081E0682788E00E94FF0B61E088E0A9
:1019C0000E947E0CE9E5F3E0E491E88BE5E4F3E0C6
:1019D000E491F0E0EE0FFF1FED5CFC4F85919491D8
:1019E0009A8B898B60E082E00E947E0C8E8D81FD57
:1019F00004C061E082E00E94FF0B82E08C87E3E597
:101A0000F3E0E491ED87EFE3F3E0E491F0E0EE0F33
:101A1000FF1FE75DFC4F859194919F878E87DF9133
:101A2000CF9108953FB7F8948091E3039091E40338
:101A3000A091E503B091E60326B5A89B05C02F3F12
:101A400019F00196A11DB11D3FBFBA2FA92F982FE4
:101A50008827820F911DA11DB11DBC01CD0142E05F
:101A6000660F771F881F991F4A95D1F708952FB7E2
:101A7000F8946091DF037091E0038091E10390910D
:101A8000E2032FBF08951F920F920FB60F921124F9
:101A90002F933F938F939F93AF93BF938091DF03D7
:101AA0009091E003A091E103B091E2033091DE0355
:101AB00023E0230F2D3720F40196A11DB11D05C091
:101AC00026E8230F0296A11DB11D2093DE0380930B
:101AD000DF039093E003A093E103B093E2038091CE
:101AE000E3039091E403A091E503B091E60301962E
:101AF000A11DB11D8093E3039093E403A093E5033C
:101B0000B093E603BF91AF919F918F913F912F9139
:101B10000F900FBE0F901F9018951F920F920FB647
:101B20000F9211242F933F934F935F936F937F9363
:101B30008F939F93AF93BF93EF93FF9388EE92E0C1
:101B40000E94E205FF91EF91BF91AF919F918F911C
:101B50007F916F915F914F913F912F910F900FBEA9
:101B60000F901F9018951F920F920FB60F9211248D
:101B70002F938F939F93EF93FF93E091F802F0914F
:101B8000F9028081E091FE02F091FF0282FD12C015
:101B90009081809101038F5F8F73209102038217E0
:101BA00051F0E0910103F0E0E851FD4F958F8093F3
:101BB000010301C08081FF91EF919F918F912F913F
:101BC0000F900FBE0F901F90189583EE94E00E9427
:101BD000BA0982E095E00E94BA0985E893E00C9486
:101BE000BA09CF93DF93C8EED2E01B821A8288EE47
:101BF00093E0A0E0B0E08C839D83AE83BF832EE1B1
:101C000031E03983288325EC30E03D872C8724ECB4
:101C100030E03F872E8720EC30E0398B288B21EC99
:101C200030E03B8B2A8B22EC30E03D8B2C8B26EC7A
:101C300030E03F8B2E8B198E1A8E1B8E1C8EEEE39E
:101C4000F2E01382128284839583A683B78380E3B4
:101C500091E091838083E1E2F5E087E2808380E098
:101C600090E0A0E8BFE381839283A383B48385835C
:101C70009683A783B087EAE4F2E012861186148681
:101C8000158617821086158288E592E091838083FD
:101C9000D093C702C093C60285E893E00E94BA0CB5
:101CA000E8ECF2E010821182128213821482158213
:101CB0001682178210861186128613861486158660
:101CC00016861786E8EDF2E01082118212821382E6
:101CD0001482158216821782108611861286138648
:101CE0001486158616861786E7EEF3E012861186AF
:101CF0001486158617821086158285EF93E09183EE
:101D00008083D0936404C093630482E095E00E94D2
:101D1000BA0CE5E6F4E01286118614861586178261
:101D20001086158283E794E091838083D093E20448
:101D3000C093E10483EE94E0DF91CF910C94BA0C50
:101D4000789484B5826084BD84B5816084BD85B596
:101D5000826085BD85B5816085BD80916E008160A2
:101D600080936E0010928100809181008260809348
:101D7000810080918100816080938100809180004A
:101D80008160809380008091B10084608093B10075
:101D90008091B00081608093B00080917A0084606F
:101DA00080937A0080917A00826080937A0080919B
:101DB0007A00816080937A0080917A0080688093B5
:101DC0007A001092C10088ED95E09093AD03809366
:101DD000AC0389E898E09093A5038093A40382E084
:101DE00098E09093A7038093A60387ED94E09093E7
:101DF000AF038093AE038CE893E09093B10380939C
:101E0000B00389E995E09093A9038093A80389E240
:101E100095E09093B3038093B20383E595E09093AC
:101E2000AB038093AA038FE495E09093B50380936E
:101E3000B4038FE095E09093B7038093B6038DEBE6
:101E400097E09093B9038093B8031092C303109264
:101E5000C2031092C5031092C4031092BA031092E9
:101E6000BB031092BC031092BD0383E090E09093FB
:101E7000C7038093C6030E94AC079093C903809365
:101E8000C8031092CA031092CB031092CC03109295
:101E9000CD031092CF031092CE031092D103109273
:101EA000D0031092D2031092D3031092D403109255
:101EB000D5031092D7031092D6031092D903109233
:101EC000D8031092DA031092DB031092DC03109215
:101ED000DD030E94D805E091A403F091A50384EAF4
:101EE00093E00995E091A603F091A7030995E0918D
:101EF000B203F091B30384EA93E00995892B39F09A
:101F0000E091A803F091A90384EA93E00995E09198
:101F1000B003F091B10384EA93E00995892B39F07D
:101F2000E091AE03F091AF0384EA93E00995E0916C
:101F3000B403F091B50384EA93E00995892B39F055
:101F4000E091AA03F091AB0384EA93E00995E09154
:101F5000B603F091B70384EA93E00995892B39F031
:101F6000E091B803F091B90384EA93E009950E94E7
:101F7000DF01BDCFF999FECF92BD81BDF89A9927B7
:101F800080B5089597FB072E16F4009407D077FDCF
:101F900009D00E94F80F07FC05D03EF4909581957A
:101FA0009F4F0895709561957F4F0895A1E21A2E75
:101FB000AA1BBB1BFD010DC0AA1FBB1FEE1FFF1FED
:101FC000A217B307E407F50720F0A21BB30BE40B3D
:101FD000F50B661F771F881F991F1A9469F7609584
:101FE0007095809590959B01AC01BD01CF0108953E
:101FF000AA1BBB1B51E107C0AA1FBB1FA617B7072F
:1020000010F0A61BB70B881F991F5A95A9F780954A
:102010009095BC01CD010895EE0FFF1F0590F4913E
:10202000E02D0994E89409C097FB3EF490958095C3
:10203000709561957F4F8F4F9F4F9923A9F0F92F8E
:1020400096E9BB279395F695879577956795B7950C
:10205000F111F8CFFAF4BB0F11F460FF1BC06F5FF2
:102060007F4F8F4F9F4F16C0882311F096E911C004
:10207000772321F09EE8872F762F05C0662371F025
:1020800096E8862F70E060E02AF09A95660F771F39
:10209000881FDAF7880F9695879597F908950E941B
:1020A00062100C94D3100E94C51038F00E94CC101E
:1020B00020F0952311F00C94BC100C94C210112444
:1020C0000C9407110E94E41070F3959FC1F3950FD3
:1020D00050E0551F629FF001729FBB27F00DB11DAC
:1020E000639FAA27F00DB11DAA1F649F6627B00D3C
:1020F000A11D661F829F2227B00DA11D621F739F25
:10210000B00DA11D621F839FA00D611D221F749F32
:102110003327A00D611D231F849F600D211D822F79
:10212000762F6A2F11249F5750409AF0F1F08823A0
:102130004AF0EE0FFF1FBB1F661F771F881F9150CD
:102140005040A9F79E3F510580F00C94BC100C94B0
:1021500007115F3FE4F3983ED4F386957795679532
:10216000B795F795E7959F5FC1F7FE2B880F911DF7
:102170009695879597F9089597F99F6780E870E09D
:1021800060E008959FEF80EC089500240A941616ED
:10219000170618060906089500240A941216130655
:1021A000140605060895092E0394000C11F48823E3
:1021B00052F0BB0F40F4BF2B11F460FF04C06F5FFF
:1021C0007F4F8F4F9F4F089557FD9058440F551FD5
:1021D00059F05F3F71F04795880F97FB991F61F0A9
:1021E0009F3F79F087950895121613061406551F20
:1021F000F2CF4695F1DF08C0161617061806991F8C
:10220000F1CF86957105610508940895E894BB2780
:1022100066277727CB0197F9089581E090E0F8943D
:102220000C94121111E0C4EBD1E004C0FE010E9435
:0E2230000C102196C53BD107C9F7F894FFCFDB
:10223E0000000000ED01E901000000003F02D2099C
:10224E0089033E028F02A702260200000000450A03
:10225E00D209FC09920A2D0A0B0A1F0A000000007F
:10226E0059032C0389033E0224030B03FC020D0ABF
:06227E00005B005D200082
:00000001FF
