:100000000C9490010C94BA010C94BA010C94BA01AE
:100010000C94BA010C94BA010C94BA010C94BA0174
:100020000C94BA010C94BA010C94BA010C94BA0164
:100030000C94BA010C94BA010C94BA010C94BA0154
:100040000C94BA010C94BA010C94F00F0C94BA0100
:100050000C94E0060C943A100C94BA010C94BA017A
:100060000C94BA010C94BA010C94380D0C94BA019A
:100070000C94BA010C94BA010C94BA010C94BA0114
:100080000C94BA010C94BA010C94BA017E0E810E44
:10009000740E780E980E980E850E890E8F0E930EA4
:1000A00047656E3A206775617661323300426F6151
:1000B0007264204F70747300426F617264205365E4
:1000C00074757020446F6E6500426F6172642053D6
:1000D0006574757020537461727400504F535420CE
:1000E000456E64005B505D20094552524F523A20E4
:1000F000736F6C61722070616E656C2076616C75D7
:1001000065206F7574206F662072616E67650020D0
:100110006D56005B505D20736F6C61722070616E74
:10012000656C2076616C75653A20005B505D2062DD
:100130006174746572792076616C75653A20005B34
:10014000505D2061706F6765655F7370323132207A
:10015000736F6C617220697272616469616E63654C
:100160002076616C75653A2000204B005B505D2065
:10017000424D453238302054656D7065726174753A
:1001800072652076616C75653A20005B505D2009D0
:100190004572726F723A2050726573737572652082
:1001A0006F7574206F662072616E6765005B505DCD
:1001B00020424D4532383020507265737375726538
:1001C0002076616C75653A20005B505D20424D459C
:1001D0003238302048756D69646974792076616CB5
:1001E00075653A20005B505D206E6F646520616428
:1001F00064723A2000504F535420426567696E0084
:1002000053616D706C6520456E640053616D706C58
:10021000652053746172740052756E6E696E67204A
:10022000504F535400434D44204D6F646520636D1F
:1002300064004C656176696E6720434D44206D6FA4
:10024000646500474F54204120434D443A20004507
:100250006E74657220434D44204D6F6465005458A0
:100260002048656172746265617420456E64005453
:1002700058204865617274626561742053746172BC
:10028000740053616D706C6520545820456E640095
:1002900053616D706C652054582053746172740002
:1002A00000002100240027002A0000002200250071
:1002B00028002B0000002000230026002900020255
:1002C00002020202020204040404040404040303FC
:1002D0000303030303030101010101010101010201
:1002E0000408102040800102040810204080010210
:1002F0000408102040800102040810204080000003
:10030000000203000A0B00000000050409080000B9
:100310000000000000000000000000000000D713F3
:1003200011241FBECFEFD0E4DEBFCDBF11E0A0E0AF
:10033000B1E0E0EAF1E300E00BBF02C007900D92EC
:10034000AE33B107D9F724E0AEE3B1E001C01D92AE
:10035000A838B207E1F711E0C0E9D1E004C0219765
:10036000FE010E94B514CF38D107C9F70E94B4121C
:100370000C94CE180C94000080E090E00895FC01ED
:10038000538D448D252F30E0842F90E0821B930BFA
:10039000541710F0CF96089501970895FC01918DA0
:1003A000828D981761F0828DDF01A80FB11D5D96D7
:1003B0008C91928D9F5F9F73928F90E008958FEF45
:1003C0009FEF0895FC01918D828D981731F0828DF9
:1003D000E80FF11D858D90E008958FEF9FEF089550
:1003E000FC01918D228D892F90E0805C9F4F821BB4
:1003F00091098F739927089580E090E0892B21F06F
:100400000E94FA0881110DC080E090E0892B71F004
:1004100080E090E0892B51F00E940000811104C01F
:1004200008950E940000F0CF0C9400000895FC0194
:100430008681845F0895FC01611102C08285089560
:10044000613011F481850895623011F4808508953A
:10045000633011F487810895643011F4868508951E
:10046000653011F485850895663011F4848508950A
:10047000673011F483850895683011F480890895F8
:10048000693011F4878508956A3011F481890895DF
:100490006B3011F4828908950480F581E02DE60F18
:1004A000F11D3C978081089508958FEE92E00C94A1
:1004B000F00180E090E0089589E10E948F0FBC0177
:1004C000990F880B990B0E9482179B01AC010E9427
:1004D00066162AE137E64CE950E40E945C1820E0F9
:1004E00030E04CE852E40E9466160E944417CB01AB
:1004F000089588E10E948F0FBC01990F880B990B1A
:100500000E9482172AE038E240EA5BE30E945C180E
:1005100020E030E04AE754E40E945C180E9444174F
:10052000CB010895CF9382E090E00E947B14C82F06
:1005300083E090E00E947B142C2F30E0A901582B1F
:10054000CA01CF910895EF92FF921F93CF93DF934B
:10055000CDB7DEB763970FB6F894DEBF0FBECDBF41
:1005600020E12B8321E02C839E838D836F8384E0A5
:1005700091E09A838983188619861A861B861C86C1
:100580001D861E861F868EEF9FEF998B888B1A8A99
:100590001B8A8EE70E949F101F818CE0810F90E0E4
:1005A0000296892F0E94AC108EE0810F0E94AC1041
:1005B0008B810E94AC108C810E94AC101B818C81BD
:1005C000180FE12CF12C8F81845F90E0E816F9067A
:1005D0008CF46E2DCE0101960E941B020E94AC107D
:1005E0006E2DCE0101960E941B02180F8FEFE81AA4
:1005F000F80AE9CF812F80950E94AC108091BC024F
:100600009091BD02DC01ED91FC910680F781E02D17
:10061000099563960FB6F894DEBF0FBECDBFDF918C
:10062000CF911F91FF90EF9008950F931F93CF9359
:10063000DF93CDB7DEB7C659D1090FB6F894DEBF48
:100640000FBECDBF8C0180E992E00E94911061E065
:1006500086E10E94990ECE01019626E9FC011192D5
:100660002A95E9F7F801B29626E1DC0101900D9296
:100670002A95E1F766E170E00E94A302F801178E67
:10068000168E82E892E00E94911060E086E10E945E
:10069000990ECA56DF4F0FB6F894DEBF0FBECDBF1E
:1006A000DF91CF911F910F9108958F929F92AF92FA
:1006B000BF92EF92FF920F931F93CF93DF93CDB72B
:1006C000DEB7C659D1090FB6F894DEBF0FBECDBF55
:1006D0000E94E40F4B015C010E9479028C010E9490
:1006E00092027C018FE692E00E94911061E084E129
:1006F0000E94990ECE01019626E9FC0111922A95DD
:10070000E9F7FC82EB828D829E82AF82B8861A87DF
:1007100009876AE070E00E94A3028EE592E00E94E1
:10072000911060E084E10E94990ECA56DF4F0FB627
:10073000F894DEBF0FBECDBFDF91CF911F910F9117
:10074000FF90EF90BF90AF909F908F9008958F9201
:100750009F92AF92BF92CF92DF92EF92FF92CF9390
:10076000DF93EC010E94E40F6B017C018A8C9B8C6F
:10077000AC8CBD8C0E94E40F683A734485409105AF
:1007800080F4C818D90888EBC8168BE0D8064CF05E
:100790000E94E40F6A8F7B8F8C8F9D8F81E090E0A9
:1007A00002C080E090E0DF91CF91FF90EF90DF906A
:1007B000CF90BF90AF909F908F9008950F931F930D
:1007C000CF93DF93EC010E94E40F0E891F89288DDF
:1007D000398DDC01CB01801B910BA20BB30B803355
:1007E0009547A105B10548F00E94E40F6E8B7F8B01
:1007F000888F998F81E090E002C080E090E0DF91E7
:10080000CF911F910F910895CF93DF93EC018CE26C
:1008100091E00E9464100E94E40F4AE00E94940C50
:100820008EE291E00E9464108BE092E00E949110B1
:100830000E94E40F6EA37FA388A799A70E94790264
:100840009BA78AA70E945C029DA78CA70E94A50A6D
:100850000E944B176EA77FA788AB99AB0E94040933
:1008600020E030E848E853E40E9466160E944B17E7
:100870007BAB6AAB0E94A0090E944B177DAB6CABAF
:100880008DE10E948F0FBC01990F880B990B0E947C
:1008900082172AE137E64CE950E40E945C180E9476
:1008A00044177FAB6EAB88A199A19DA38CA380E078
:1008B00092E00E9491101F8E1E8ECE01DF91CF918B
:1008C0000C941503CF92DF92EF92FF9285EF91E0A7
:1008D0000E94911061E086E10E94990E85EE91E000
:1008E0000E9476100E949202BC01990F880B990B0E
:1008F00097FF03C00E94E90C03C04AE00E94940CD9
:1009000081E391E00E9464100E94A0096B017C01C8
:1009100089EC91E00E947610C701B6010E944B1746
:10092000CB010E94D50C84E391E00E94DB0C0E9475
:10093000A50A0E944B176B017C018DEA91E00E9491
:100940007610F7FE05C0C701B6010E94E90C05C08C
:100950004AE0C701B6010E94940C86E391E00E9430
:10096000DB0C80E8C81688E3D80681E0E806F104CD
:1009700024F48BE891E00E9491100E9404096B011D
:100980007C018CE691E00E94761020E030E848E897
:1009900053E4C701B6010E9466160E944B17CB01B3
:1009A0000E94D50C89E691E00E9491108DE10E9491
:1009B0008F0F7C018FE391E00E947610B701FF0C4E
:1009C000880B990B0E9482172AE137E64CE950E424
:1009D0000E945C180E944417CB010E94D50C8AE348
:1009E00091E00E94DB0C0E9479027C018BE291E095
:1009F0000E947610C7010E94D50C8AE391E00E9404
:100A0000DB0C0E945C027C0183E191E00E94761085
:100A1000C7010E94D50C8FE091E00E94911084E6FE
:100A2000E816F10420F484EE90E00E94911060E05A
:100A300086E10E94990E8BED90E0FF90EF90DF90A1
:100A4000CF900C9491101F93CF93DF93EC010E94F1
:100A50000A0D89EC90E00E9491100E940A0D8FEE21
:100A600092E09093BD028093BC0260E08DE10E9411
:100A7000530F60E088E10E94530F60E089E10E941B
:100A8000530F87E78093BE028091C7028F3FA1F585
:100A900010921302109212021092C8011092EA01F1
:100AA0001092110281E08093100210920B0261E01B
:100AB00081E10E94990E61E080E10E94990E80918F
:100AC000B9008E7F8093B9008091B9008D7F8093AB
:100AD000B90088E48093B80085E48093BC008FE17E
:100AE00098E09093400180933F0180E298E09093DA
:100AF0004201809341014EC061E00E94990E61E085
:100B00008091C7020E94530F8091CA028F3F09F063
:100B100034C01FB7F89480913E01811127C0E2ECE8
:100B2000F2E08491E2EEF2E09491E82FF0E0EE0F33
:100B3000FF1FE056FD4FA591B491EC91E92321F4FC
:100B400061E084E00E94990E61E084E00E94530F0E
:100B50008CB580618CBD8CB580648CBD61E087E014
:100B60000E94530F61E085E00E94530F80913E0187
:100B70008F5F80933E011FBF0DC061E00E94530F45
:100B800061E08091C8020E94530F60E08091C90229
:100B90000E94530F80ED0E940D0F803609F0EDC0CA
:100BA00066EB80EE0E94C80E6CE271E080E090E09F
:100BB0000E94AA0F83EF0E940D0F80FF05C064E61C
:100BC00070E080E090E0F4CF88E80E94320D9093CE
:100BD000CC028093CB028AE80E94320D9093CE0221
:100BE0008093CD028CE80E94320D9093D0028093C6
:100BF000CF028EE80E94320D9093D2028093D102F0
:100C000080E90E94320D9093D4028093D30282E94E
:100C10000E94320D9093D6028093D50284E90E94FF
:100C2000320D9093D8028093D70286E90E94320D4C
:100C30009093DA028093D90288E90E94320D909352
:100C4000DC028093DB028AE90E94320D9093DE027F
:100C50008093DD028CE90E94320D9093E002809334
:100C6000DF028EE90E94320D9093E2028093E1024E
:100C700081EA0E940D0F8093E30281EE0E94320D03
:100C80009093E5028093E40283EE0E940D0F80931F
:100C9000E60284EE0E940D0F182F85EE0E940D0FC4
:100CA00040E1149F900111248F70282B3093E802AB
:100CB0002093E70286EE0E940D0F182F85EE0E940A
:100CC0000D0F90E1199F9001112490E044E095955B
:100CD00087954A95E1F7822B932B9093EA028093B4
:100CE000E90287EE0E940D0F8093EB028DEE809358
:100CF000ED028091EE028F71806A8093EE02809106
:100D0000EC02807C8093EC0265E082EF0E94C80ECA
:100D10009091EC02692F677040E2649F900111246A
:100D2000892F869586958695877048E0849FB001C7
:100D30001124622B732B97FB992790F9692B85EF70
:100D40000E94C80E9091ED02692F677080E2689F43
:100D500090011124892F869586958695877048E0A5
:100D6000849FB0011124622B732B929596959695D2
:100D70009370692B84EF0E94C80E61E084E10E94A9
:100D8000530F61E086E10E94530F0E94920299A3E3
:100D900088A364E670E080E090E00E94AA0F88EBF0
:100DA00090E0DF91CF911F910C9491100E940A0D59
:100DB0008DEA90E00E94911080EA90E00C949110EE
:100DC0001F920F920FB60F9211240BB60F922F9312
:100DD0008F939F93EF93FF93E091FF02F0910003B5
:100DE0008081E0910503F091060382FD12C090819D
:100DF000809108038F5F8F7320910903821751F050
:100E0000E0910803F0E0E151FD4F958F80930803D6
:100E100001C08081FF91EF919F918F912F910F9051
:100E20000BBE0F900FBE0F901F901895FC01848D84
:100E3000DF01A80FB11DA35ABF4F2C91848D90E004
:100E400001968F739927848FA689B7892C93A089DF
:100E5000B1898C9180648C93938D848D981306C096
:100E60000288F389E02D80818F7D80830895EF9241
:100E7000FF920F931F93CF93DF93EC0181E0888F54
:100E80009B8D8C8D981305C0E889F989808185FD3B
:100E900024C0F62E0B8D10E00F5F1F4F0F7311272C
:100EA000E02E8C8DE8120CC00FB607FCFACFE88953
:100EB000F989808185FFF5CFCE010E941607F1CF19
:100EC0008B8DFE01E80FF11DE35AFF4FF0820B8F6F
:100ED000EA89FB898081806207C0EE89FF8960838F
:100EE000E889F98980818064808381E090E0DF91E6
:100EF000CF911F910F91FF90EF9008950F931F9343
:100F0000CF938C018FE492E00E9491108FEE92E0DB
:100F10000E94CE010A97D1F78FEE92E00E94F00175
:100F2000892BD1F38FEE92E00E94CE01C82F83E48B
:100F300092E00E9476106C2F8FEE92E00E943707AD
:100F400081E391E00E9464108FEE92E00E94CE0156
:100F50000A97D1F7C53439F482E392E0CF911F911B
:100F60000F910C949110C03539F0C435A9F685E283
:100F700092E00E949110D0CF88E192E00E949110FF
:100F8000D8011296ED91FC9113970995C5CFCF9397
:100F9000DF93EC01888D8823C9F0EA89FB89808181
:100FA00085FD05C0A889B9898C9186FD0FC00FB653
:100FB00007FCF5CF808185FFF2CFA889B9898C9194
:100FC00085FFEDCFCE010E941607E7CFDF91CF91CD
:100FD000089508958CBD9DBD089585ED8093BC0056
:100FE0008091BC0084FDFCCF1092110208954091C5
:100FF000A401262F30E0240F311D21323105DCF40D
:10100000209111022430C9F4FC0180E090E08617A1
:1010100058F43091A4012191DC01AC57BE4FA30FCD
:10102000B11D2C930196F3CF8091A401680F6093BA
:10103000A40180E0089581E0089582E00895089574
:1010400008950895E091130280911202E81730F498
:10105000F0E0EC5EFD4F808190E008958FEF9FEF10
:1010600008959091130280911202981750F4E92F7D
:10107000F0E0EC5EFD4F208130E09F5F9093130223
:1010800002C02FEF3FEFC90108958091120290E056
:1010900020911302821B91090895CF92DF92EF9263
:1010A000FF920F931F93CF93DF937C01CB018A01B3
:1010B0002091C701222389F0EB016B01C40ED51EDC
:1010C000CC15DD0569F06991D701ED91FC91019096
:1010D000F081E02DC7010995F3CF642F0E94F70737
:1010E000C801DF91CF911F910F91FF90EF90DF909A
:1010F000CF900895CF93DF931F92CDB7DEB769836A
:101100002091C7012223D1F02091EA01203240F042
:1011100021E030E0FC013383228380E090E015C0C1
:101120008091C801E82FF0E0E753FE4F998190834A
:101130008F5F8093C8018093EA0105C061E0CE0112
:1011400001960E94F70781E090E00F90DF91CF9128
:1011500008953FB7F8948091800190918101A0910A
:101160008201B091830126B5A89B05C02F3F19F0DD
:101170000196A11DB11D3FBFBA2FA92F982F882717
:10118000820F911DA11DB11DBC01CD0142E0660F72
:10119000771F881F991F4A95D1F70895CF92DF9244
:1011A000EF92FF920F931F93CF93DF936C017A011D
:1011B0008B01C0E0D0E0CE15DF0581F0D8016D9144
:1011C0008D01D601ED91FC910190F081E02DC601D9
:1011D0000995892B11F02196EECF7E01C701DF9191
:1011E000CF911F910F91FF90EF90DF90CF900895D6
:1011F0000E94C9188FEE92E00E94F00121E0892B35
:1012000009F420E0822F08958F929F92AF92BF92AF
:10121000CF92DF92EF92FF920F931F938AEF0E947B
:101220001E126115710520E88207910509F479C045
:101230000091CB021091CC0220E030E0C72ED82ED6
:10124000E92EFF24E7FCFA94C01AD10AE20AF30A55
:10125000DC01CB0157E0B595A795979587955A95F1
:10126000D1F7000F111F221F331F4C015D01801A9F
:10127000910AA20AB30AA5019401A091CD02B091EE
:10128000CE020E94C9144B015C017BE0B594A79487
:10129000979487947A95D1F7A7019601C701B60173
:1012A0000E9483149B01AC01ECE05595479537955E
:1012B0002795EA95D1F7A091CF02B091D0020E9474
:1012C000C914DC01CB01FEE0B595A79597958795EC
:1012D000FA95D1F7A5019401280F391F4A1F5B1F0A
:1012E0002093C3023093C4024093C5025093C602B8
:1012F000A5E0B0E00E94BE14DC01CB0180589F4FF6
:10130000AF4FBF4F692F7A2F8B2F992787FD9A9563
:101310000E94821720E030E048EC52E40E94D2168E
:1013200004C060E070E080EC9FE71F910F91FF9098
:10133000EF90DF90CF90BF90AF909F908F900895E7
:101340004F925F926F927F928F929F92AF92BF92D5
:10135000CF92DF92EF92FF920E9404098DEF0E94DC
:10136000C311A0E0B0E0811520E89207A105B10506
:1013700009F4DAC08090C3029090C402A090C50224
:10138000B090C6023CE2931A31E0A30AB1083EE0F5
:10139000880F991FAA1FBB1F3A95D1F74091E7020A
:1013A0005091E802052E000C660B770BE4E1440F28
:1013B000551F661F771FEA95D1F76C017D01C41A8E
:1013C000D50AE60AF70AA091E902B091EA02A5015E
:1013D00094010E94C914C61AD70AE80AF90A40E41F
:1013E000D40EE11CF11CFFE0F594E794D794C79468
:1013F000FA95D1F7A091E602B0E0A50194010E9410
:10140000BE142B013C01ABE075946794579447944C
:10141000AA95D1F750E8550E611C711CA091EB0202
:101420000A2E000CBB0BA50194010E94C914BAE05E
:101430009595879577956795BA95D1F7A301920110
:101440000E948314DC01CB012AE0B595A7959795FE
:1014500087952A95D1F79C01AD01405E5F4FA09121
:10146000E402B091E5020E94C914DC01CB01905E58
:10147000AF4FBF4FBC01CD013EE095958795779565
:1014800067953A95D1F7A70196010E9483146B01E5
:101490007C014FE095958795779567954A95D1F7AB
:1014A0009B01AC010E9483149B01AC0167E0559540
:1014B0004795379527956A95D1F7A091E302B0E05B
:1014C0000E94BE14DC01CB0174E0B595A7959795F9
:1014D00087957A95D1F7A7019601281B390B4A0BFE
:1014E0005B0BDA01C90157FF03C080E090E0DC012B
:1014F00081309105A10539E1B30724F080E090E047
:10150000A0E0B9E1BC01CD012CE0959587957795D8
:1015100067952A95D1F70E94821720E030E040E8D5
:101520005AE30E945C1804C060E070E080EC9FE722
:10153000FF90EF90DF90CF90BF90AF909F908F90F3
:101540007F906F905F904F9008952F923F924F92AF
:101550005F926F927F928F929F92AF92BF92CF9243
:10156000DF92EF92FF920F931F93CF93DF93CDB74C
:10157000DEB768970FB6F894DEBF0FBECDBF0E94EE
:10158000040987EF0E941E126B877C878D879E87D8
:10159000611571058048910509F4A5C18091C302C8
:1015A0009091C402A091C502B091C6026C017D0168
:1015B000FF0CCC08DC2C76019C01AD016C2D7C2D40
:1015C0008C2D9C2D345F41405109610971098109BD
:1015D000910929833A834B835C836D837E83888F53
:1015E0009F8B59016A017B018C010E94D1142F83CA
:1015F000388749875A876B8B7C8B8D8B9E8B30917C
:10160000D4022091D302932F990F990B492F592F70
:10161000692F792F892F0E94D1140CE00E940116A6
:101620001901942E852E762E672E582E492E309134
:10163000D6022091D502932F990F990BAF80B884D1
:10164000C984DA84EB88FC880D891E89492F592FBB
:10165000692F792F892F0E94D11408E00E941A1651
:101660005101C92CD82CE72CF62C052D142D0E94E5
:10167000381670588F4F9F4F2090D1023090D20271
:101680005101C12CD12CE12CF12C00E010E00E9482
:10169000D11401E20E941A16322E232E4F87588B46
:1016A000698B472E582E9A8BA0E00E944A1609F4A7
:1016B0001FC13091DC022091DB02932F990F990B0F
:1016C000AF80B884C984DA84EB88FC880D891E89D0
:1016D000492F592F692F792F892F0E94D1142F83D9
:1016E00038873A014B0189879A873091DA02209135
:1016F000D902932F990F990BA980BA80CB80DC80F7
:10170000ED80FE80088D1F89492F592F692F792F71
:10171000892F0E94D11401E10E940116AF80B88484
:101720006301740109851A850E94381659016A01FE
:101730007B018983192F4B855C856D857E8584E0CF
:1017400075956795579547958A95D1F780E090E014
:10175000A0E1B0E0841B950BA60BB70B3C014D013B
:10176000990C6608762C43019C01AD01662D762DFF
:10177000862D962D0FE10E94011649014B835A8355
:10178000B62FA72FF82FE92F3091D8022091D7023A
:10179000932F990F990B492F592F692F792F892F43
:1017A00003E20E94011609810E94381659016A015C
:1017B0007B018C0194014B815A816B2F7A2F8F2FE3
:1017C0009E2F0E944116E5E3AE2EFCE0BF2EC12CF9
:1017D000D12CE12CF12C00E010E00E94D114A32CBC
:1017E000B22CCF84D888E988F42C052D1A890E9460
:1017F0002C1528873F8349835A836B837C838D8391
:101800009E830DE00E941A16922E832E742E652E52
:10181000562E472E382E292E3091E2022091E102D9
:10182000932F990F990BA92CB82CC72CD62CE52CEB
:10183000F42C032D122D492F592F692F792F892F21
:101840000E94D1140E94D11409E10E941A16A884A2
:10185000BF80C980DA80EB80FC800D811E810E94F0
:10186000381619012A013B014C013091E002209108
:10187000DF02932F990F990B492F592F692F792F39
:10188000892F0E94D11403E10E941A1659016A019E
:101890007B018C019101A201B301C4010E943816A1
:1018A00008E00E941A1659016A017B01E82F192FDE
:1018B0003091DE022091DD02932F990F990B492F71
:1018C000592F692F792F892F04E00E9401160E2FBE
:1018D0000E9438160E947A1720E030E040E85BE36F
:1018E0000E945C1808C060E070E080EC9FE703C0D5
:1018F00060E070E0CB0168960FB6F894DEBF0FBED3
:10190000CDBFDF91CF911F910F91FF90EF90DF90AE
:10191000CF90BF90AF909F908F907F906F905F908F
:101920004F903F902F9008958F929F92AF92BF92C9
:101930000F931F93CF93DF93CDB7DEB7A1970FB669
:10194000F894DEBF0FBECDBF19A2423008F44AE0C2
:101950008E010F5D1F4F842E912CA12CB12CA5015F
:1019600094010E949314E62FB901CA010150110994
:10197000EA3014F4E05D01C0E95CD801EC93232B5C
:10198000242B252B61F7C8010E946410A1960FB685
:10199000F894DEBF0FBECDBFDF91CF911F910F91A5
:1019A000BF90AF909F908F900895BC0180E090E031
:1019B0004AE00C94940CCF93DF930E946410EC01E6
:1019C00081E391E00E9464108C0F9D1FDF91CF9105
:1019D0000895CF92DF92EF92FF92CF93DF936B0146
:1019E0007C016DE28FEE92E00E943707EC016627E2
:1019F0007727CB016C197D098E099F094AE00E9467
:101A0000940C8C0F9D1FDF91CF91FF90EF90DF9092
:101A1000CF900895EFEEF2E0A089B18982E08C9337
:101A2000A485B5851C92A685B7858FEC8C93108E06
:101A3000A489B58986E08C93A289B3898C91806151
:101A40008C93A289B3898C9188608C93A289B38985
:101A50008C9180688C930288F389E02D80818F7D42
:101A6000808308950E94C311982789279827089595
:101A70001F920F920FB60F9211240BB60F922F9355
:101A80003F934F935F936F937F938F939F93AF9306
:101A9000BF93EF93FF938091B900887F803609F45C
:101AA0009CC068F5883209F45BC090F4803109F479
:101AB00054C038F4882309F4F6C0883009F44DC0C6
:101AC000F6C0883109F44CC0803209F45DC0EFC023
:101AD000803409F468C048F4803309F455C0883371
:101AE00009F0E5C080930F02D8C0803509F44FC0DB
:101AF000883509F45DC0883409F0D9C0D6C088396A
:101B000009F4C7C0A8F4883709F467C038F48836E8
:101B100009F463C0803709F460C0C9C0883809F48B
:101B2000B8C0803909F45FC0803809F0C0C05BC01C
:101B3000803B09F486C038F4803A09F466C0883ADC
:101B400009F47FC0B4C0803C09F4A7C0883C09F404
:101B5000A4C0883B09F48AC0AAC080910C0210C0BE
:101B600090910E0280910D02981770F5E0910E028F
:101B700081E08E0F80930E02F0E0E551FE4F8081F0
:101B80008093BB0085EC86C080930F028EC0E091ED
:101B90000E0281E08E0F80930E028091BB00F0E078
:101BA000E551FE4F808390910E0280910D026EC030
:101BB000E0910E0281E08E0F80930E028091BB00B7
:101BC000F0E0E551FE4F80838091100281116DC0DD
:101BD00081E080930B0284EA61C083E0809311026C
:101BE0001092C601CFCF8091C601803208F051C05B
:101BF000E091C60181E08E0F8093C6018091BB0009
:101C0000F0E0EA55FE4F8083BDCF85EC8093BC00A9
:101C1000109211028091C601803230F4E091C60129
:101C2000F0E0EA55FE4F10826091C60170E0E0914D
:101C30004101F091420186EA91E009951092C601B6
:101C400036C084E0809311021092A5011092A40185
:101C5000E0913F01F091400109958091A40181112B
:101C600005C081E08093A40110928401E091A50158
:101C700081E08E0F8093A501F0E0EC57FE4F80814C
:101C80008093BB009091A5018091A401981708F45E
:101C900079CF85E88093BC000AC085EC8093BC00B6
:101CA0001092110204C010920F020E94ED07FF91E2
:101CB000EF91BF91AF919F918F917F916F915F91C4
:101CC0004F913F912F910F900BBE0F900FBE0F9031
:101CD0001F90189590E0FC013297EA30F10540F52D
:101CE000EA5BFF4F0C94B514809180008F7703C09E
:101CF000809180008F7D80938000089584B58F77D8
:101D000002C084B58F7D84BD08958091B0008F7727
:101D100003C08091B0008F7D8093B00008958091C2
:101D200090008F7703C0809190008F7D809390000A
:101D300008951F93CF93DF93282F30E0F901E250ED
:101D4000FD4F8491F901E252FD4FD491F901E25423
:101D5000FD4FC491CC23C1F0162F81110E946A0E51
:101D6000EC2FF0E0EE0FFF1FE655FD4FA591B4916B
:101D70009FB7F894111104C08C91D095D82302C05C
:101D8000EC91DE2BDC939FBFDF91CF911F910895E3
:101D9000CF93DF93D82FC62F8091C7028F3FC9F40E
:101DA0008091BE0291E09093C7018093E901109267
:101DB000C8011092EA016D2F84E392E00E947A0834
:101DC0006C2F84E392E00E947A08DF91CF910C940B
:101DD00067118091CA028F3F21F482E591E00E9451
:101DE000EA0760E08091C7020E94990E8D2F8F77DD
:101DF0000E94BE108C2F0E94BE1061E08091C7022D
:101E00000E94990E8091CA028F3F21F4DF91CF91F9
:101E10000C94E907DF91CF910895CF93C82F80915B
:101E2000C7028F3FE9F48091BE0291E09093C70111
:101E30008093E9011092C8011092EA016C2F84E3AB
:101E400092E00E947A080E94671161E08091BE02D0
:101E50000E941E1184E392E00E943108C82F20C026
:101E60008091CA028F3F21F482E591E00E94EA0747
:101E700060E08091C7020E94990E8C2F80680E94BA
:101E8000BE1080E00E94BE10C82F61E08091C702A2
:101E90000E94990E8091CA028F3F11F40E94E907B7
:101EA0008C2FCF910895CF93DF9390E0FC01E25205
:101EB000FD4F2491FC01E254FD4F8491882361F190
:101EC00090E0880F991FFC01E056FD4FC591D49119
:101ED000FC01E655FD4FA591B491611109C09FB772
:101EE000F8948881209582238883EC912E230BC05F
:101EF000623061F49FB7F8948881322F3095832344
:101F00008883EC912E2B2C939FBF06C08FB7F8943B
:101F1000E8812E2B28838FBFDF91CF9108958830E1
:101F200028F0883110F0885101C08FEF87708064ED
:101F300080937C0080917A00806480937A00809105
:101F40007A0086FDFCCF809178002091790090E0A6
:101F5000922B08958F929F92AF92BF92CF92DF9271
:101F6000EF92FF926B017C010E94A9084B015C017A
:101F7000C114D104E104F104F1F00E94A908DC01CC
:101F8000CB0188199909AA09BB09883E9340A1058C
:101F9000B10570F321E0C21AD108E108F10888EE1A
:101FA000880E83E0981EA11CB11CC114D104E10469
:101FB000F10419F7DDCFFF90EF90DF90CF90BF9045
:101FC000AF909F908F9008952FB7F89460917C0107
:101FD00070917D0180917E0190917F012FBF0895C6
:101FE0001F920F920FB60F9211242F933F938F934E
:101FF0009F93AF93BF9380917C0190917D01A091BD
:102000007E01B0917F0130917B0123E0230F2D37BA
:1020100020F40196A11DB11D05C026E8230F0296EC
:10202000A11DB11D20937B0180937C0190937D01C4
:10203000A0937E01B0937F018091800190918101F6
:10204000A0918201B09183010196A11DB11D8093E1
:10205000800190938101A0938201B0938301BF918D
:10206000AF919F918F913F912F910F900FBE0F9045
:102070001F9018951F920F920FB60F9211240BB656
:102080000F922F933F934F935F936F937F938F9311
:102090009F93AF93BF93EF93FF938FEE92E00E94D5
:1020A0001607FF91EF91BF91AF919F918F917F9113
:1020B0006F915F914F913F912F910F900BBE0F90B9
:1020C0000FBE0F901F901895009769F0FC010190CA
:1020D0000020E9F73197AF01481B590BBC018FEE87
:1020E00092E00C94CE0880E090E008950F931F9347
:1020F000CF93DF938C01C0E0D0E0F801EC0FFD1F1F
:102100006491662341F08FEE92E00E943707892B9D
:1021100011F02196F2CFCE01DF91CF911F910F9157
:102120000895CF93DF930E947610EC0181E391E054
:102130000E9464108C0F9D1FDF91CF910895A09194
:10214000BC02B091BD02ED91FC9111970190F0811C
:10215000E02D682FCD010994CF9393E8980F92302A
:1021600020F0982F9D7F913131F4C82F8DE70E9488
:102170009F1080E28C27CF910C949F10CF92DF921A
:10218000EF92FF920F931F93CF93DF939091CA0228
:102190009F3F39F48EBD00000DB407FEFDCF8EB514
:1021A00044C0E82EF12CC7E0D0E001E010E0FF0CC5
:1021B00060E08091CA020E94990EB8010C2E01C005
:1021C000660F0A94EAF76E218091C8020E94990E68
:1021D00061E08091CA020E94990E2091C90230E00C
:1021E000F901E250FD4F8491F901E252FD4FD49084
:1021F000F901E254FD4FC490CC2071F081110E948E
:102200006A0EEC2DF0E0EE0FFF1FEC54FD4FA59190
:10221000B491EC91DE2229F4219708F0C8CF8F2DDC
:1022200004C08F2D8160F82EF7CFDF91CF911F91E1
:102230000F91FF90EF90DF90CF9008959091110251
:102240009111FCCF613208F060E291E090931102AD
:10225000909310022FEF20930F0210920E02260F80
:1022600020930D0290930C0290910C02880F892B01
:1022700080930C0280910B02813061F410920B026A
:1022800080910C028093BB008091BC0083FDF8CF4D
:1022900085EC01C085EE8093BC00809111028130F5
:1022A000E1F380910E02861710F460910E02EBEEBE
:1022B000F1E0A4E1B2E080E0861721F091919D93D6
:1022C0008F5FFACF1092130280931202089530911B
:1022D000EA01313208F04BC0809111028111FCCF2C
:1022E0009091E90122E02093110221E02093100255
:1022F0002FEF20930F0210920E0230930D02E9ECA3
:10230000F1E0ABEEB1E020E0321721F041914D93C6
:102310002F5FFACF10920C0220910C02990F922B92
:1023200090930C0290910B02913061F410920B0289
:1023300090910C029093BB009091BC0093FDF8CF5C
:1023400095EC01C095EE9093BC00909111029230F3
:10235000E1F390910F029F3F79F080910F0280325C
:1023600041F080910F02803331F084E005C081E0BC
:1023700003C082E001C083E01092C8011092EA011C
:102380001092C7010895CF93DF93C82F8091C702A1
:102390008F3F39F58091BE0291E09093C701809301
:1023A000E9011092C8011092EA016C2F84E392E0D7
:1023B0000E947A080E94671162E08091BE020E942A
:1023C0001E1184E392E00E943108C82F84E392E05A
:1023D0000E94310820E030E03C2FE901C82BD92BC6
:1023E00029C08091CA028F3F21F482E591E00E94CA
:1023F000EA0760E08091C7020E94990E8C2F8068E6
:102400000E94BE1080E00E94BE10C82F80E00E9493
:10241000BE102C2F30E0322F2227E901C82B61E0BB
:102420008091C7020E94990E8091CA028F3F11F4D9
:102430000E94E907CE01DF91CF9108954F925F92FC
:102440006F927F928F929F92AF92BF92CF92DF92C4
:10245000EF92FF92CF93C82F8091C7028F3F09F070
:1024600040C08091BE0291E09093C7018093E90142
:102470001092C8011092EA016C2F84E392E00E944E
:102480007A080E94671163E08091BE020E941E11CB
:1024900084E392E00E9431082C01990F66087708C6
:1024A000762C652C542C442484E392E00E9431085D
:1024B0006C01990FEE08FF08C428D528E628F728F4
:1024C00088249C2CAD2CBE2C84E392E00E94310821
:1024D0006C01990FEE08FF08C828D928EA28FB28C4
:1024E00033C08091CA028F3F21F482E591E00E94BF
:1024F000EA0760E08091C7020E94990E8C2F8068E5
:102500000E94BE1080E00E94BE10C82ED12CE12C8B
:10251000F12CFE2CED2CDC2CCC2480E00E94BE1093
:10252000C82AFE2CED2CDC2CCC2480E00E94BE10AE
:10253000C82A61E08091C7020E94990E8091CA0268
:102540008F3F11F40E94E907C701B601CF91FF90B8
:10255000EF90DF90CF90BF90AF909F908F907F9043
:102560006F905F904F900895789484B5826084BD99
:1025700084B5816084BD85B5826085BD85B5816087
:1025800085BD80916E00816080936E001092810005
:1025900080918100826080938100809181008160C0
:1025A0008093810080918000816080938000809181
:1025B000B10084608093B1008091B000816080930D
:1025C000B000809191008260809391008091910091
:1025D0008160809391008091900081608093900051
:1025E00080917A00846080937A0080917A00826082
:1025F00080937A0080917A00816080937A00809144
:102600007A00806880937A001092C10086ED96E08F
:1026100090934C0180934B0183E295E090934401A9
:102620008093430182E694E09093460180934501B4
:1026300085E193E090934E0180934D0189E592E00E
:102640009093500180934F0184E094E0909348016F
:10265000809347018EED93E0909352018093510156
:102660008EE797E090934A018093490185E592E0D7
:10267000909354018093530187EA93E0909356011D
:102680008093550185E593E090935801809357011D
:102690001092620110926101109264011092630124
:1026A0001092590110925A0110925B0110925C0134
:1026B00084E090E090936601809365011092680138
:1026C000109267011092690110926A0110926B01D9
:1026D00010926C0110926E0110926D0110927001B7
:1026E00010926F0110927101109272011092730199
:1026F0001092740110927601109275011092780177
:102700001092770110927A01109279010E94D606F8
:10271000E0914301F091440183E491E00995E09157
:102720004501F09146010995E0915101F091520166
:1027300083E491E00995892B39F0E0914701F0910C
:10274000480183E491E00995E0914F01F091500137
:1027500083E491E00995892B39F0E0914D01F091E6
:102760004E0183E491E00995E0915301F091540109
:1027700083E491E00995892B39F0E0914901F091CA
:102780004A0183E491E00995E0915501F0915601E9
:1027900083E491E00995892B39F0E0915701F0919C
:1027A000580183E491E009950E94FC01BDCFE4E368
:1027B000F2E01382128288EE93E0A0E0B0E084831E
:1027C0009583A683B7832CE031E031832083EFEE3D
:1027D000F2E01382128284839583A683B7838EE10D
:1027E00091E09183808385EC90E09587848784ECE9
:1027F00090E09787868780EC90E0918B808B81ECCE
:1028000090E0938B828B82EC90E0958B848B86ECAE
:1028100090E0978B868B118E128E138E148EA0E40F
:10282000B2E01A961C921A9719961C9219971C9648
:102830001C921C971D961C921D9717961C92179719
:1028400018961C92189715961C9215978EE492E094
:102850008D939C93F093BD02E093BC02AEEBB2E08B
:102860008FEF19968C9319971A968C931A971B963B
:102870008C931B971C968C93ACE8B3E01A961C9231
:102880001A9719961C9219971C961C921C971D96C4
:102890001C921D9717961C92179718961C921897C2
:1028A00015961C9215978AE993E08D939C93F0936B
:1028B0000904E0930804AAE0B4E01A961C921A975F
:1028C00019961C9219971C961C921C971D961C9287
:1028D0001D9717961C92179718961C921897159685
:1028E0001C92159788E194E08D939C93F093870454
:1028F000E09386040895F999FECF92BD81BDF89AC0
:10290000992780B50895DB018F939F930E94BE1491
:10291000BF91AF91A29F800D911DA39F900DB29F7B
:10292000900D11240895A1E21A2EAA1BBB1BFD01D4
:102930000DC0AA1FBB1FEE1FFF1FA217B307E4079E
:10294000F50720F0A21BB30BE40BF50B661F771FF6
:10295000881F991F1A9469F76095709580959095D6
:102960009B01AC01BD01CF010895EE0FFF1F0024B4
:10297000001C0BBE0790F691E02D09940E9456169C
:10298000A59F900DB49F900DA49F800D911D1124C3
:102990000895B7FF0C94BE140E94BE14821B930BC3
:1029A0000895DF93CF931F930F939A9DF02D219F4E
:1029B000F00D8B9DF00D8A9DE02DF10D039FF00D24
:1029C000029FE00DF11D4E9DE00DF11D5E9DF00D8D
:1029D0004F9DF00D7F936F93BF92AF925F934F9394
:1029E000D5010E9456168B01AC01D7010E945616E4
:1029F000EB01E80FF91FD6010E9421152F913F919D
:102A0000D6010E945616C60FD71FE81FF91FAF91B7
:102A1000BF910E9421152F913F910E945616C60F1B
:102A2000D71FE81FF91FD6010E945616E60FF71FA1
:102A30009801BE01CF0111240F911F91CF91DF9119
:102A400008950E945616460F571FC81FD91F08F435
:102A500031960895689401C0E894F92FF12B12F093
:102A60000C945E15A0E0B0E0E8E3F5E10C94D0151D
:102A7000092E059422F40E94BA15112392F4F0E86D
:102A80000F26FFEFE094F09400951095B094C09459
:102A9000D094A194BF0ACF0ADF0AEF0AFF0A0F0BF6
:102AA0001F0B0E94691507FC0E94BA15CDB7DEB74F
:102AB000ECE00C94EC15689401C0E8948F929F921E
:102AC000CF93DF930E946915DF91CF919F908F90F4
:102AD000089588249924F401E401B0E49F93AA277F
:102AE0009A158B049C04ED05FE05CF05D007A107C0
:102AF00098F4AD2FDC2FCF2FFE2FE92D982C892EA7
:102B0000982F872F762F652F542F432F322F222770
:102B1000B85031F7BF9127C01B2EBF91BB27220FA2
:102B2000331F441F551F661F771F881F991F881C5E
:102B3000991CEE1FFF1FCC1FDD1FAA1FBB1F8A148D
:102B40009B04EC05FD05CE05DF05A007B10748F0A5
:102B50008A189B08EC09FD09CE09DF09A00BB10B0F
:102B600021601A94E1F62EF49401AF01BE01CD016B
:102B7000000C0895609570958095909530954095DE
:102B8000509521953F4F4F4F5F4F6F4F7F4F8F4F66
:102B90009F4F08952F923F924F925F926F927F9234
:102BA0008F929F92AF92BF92CF92DF92EF92FF925D
:102BB0000F931F93CF93DF93CDB7DEB7CA1BDB0B09
:102BC0000FB6F894DEBF0FBECDBF09942A883988AE
:102BD00048885F846E847D848C849B84AA84B984B5
:102BE000C884DF80EE80FD800C811B81AA81B981C1
:102BF000CE0FD11D0FB6F894DEBF0FBECDBFED01D5
:102C000008950F93083090F0982F872F762F652F17
:102C1000542F432F322F22270850F4CF220F331F77
:102C2000441F551F661F771F881F991F0A95B2F70B
:102C30000F91089597FB10F8169400080F93083031
:102C400098F00850232F342F452F562F672F782FB9
:102C5000892F902DF4CF0594979587957795679553
:102C600057954795379527950A95AAF70F91089597
:102C70002A0D3B1D4C1D5D1D6E1D7F1D801F911F6C
:102C800008952A193B094C095D096E097F09800BDB
:102C9000910B08950024A7FD00942A1730054005E4
:102CA000500560057005800590050895A29FB0014C
:102CB000B39FC001A39F700D811D1124911DB29F70
:102CC000700D811D1124911D08955058BB27AA270E
:102CD0000E947D160C9422180E94141838F00E944D
:102CE0001B1820F039F49F3F19F426F40C940118B6
:102CF0000EF4E095E7FB0C94FB17E92F0E943318C4
:102D000058F3BA17620773078407950720F079F420
:102D1000A6F50C9455180EF4E0950B2EBA2FA02DA5
:102D20000B01B90190010C01CA01A0011124FF2778
:102D3000591B99F0593F50F4503E68F11A16F04073
:102D4000A22F232F342F4427585FF3CF4695379572
:102D50002795A795F0405395C9F77EF41F16BA0B37
:102D6000620B730B840BBAF09150A1F0FF0FBB1FE5
:102D7000661F771F881FC2F70EC0BA0F621F731F2E
:102D8000841F48F4879577956795B795F7959E3F8B
:102D900008F0B0CF9395880F08F09927EE0F97951C
:102DA000879508950E94E6160C9422180E941B181D
:102DB00058F00E94141840F029F45F3F29F00C9459
:102DC000FB1751110C9456180C9401180E943318DB
:102DD00068F39923B1F3552391F3951B550BBB274A
:102DE000AA2762177307840738F09F5F5F4F220F8F
:102DF000331F441FAA1FA9F335D00E2E3AF0E0E886
:102E000032D091505040E695001CCAF72BD0FE2FCF
:102E100029D0660F771F881FBB1F26173707480763
:102E2000AB07B0E809F0BB0B802DBF01FF2793581B
:102E30005F4F3AF09E3F510578F00C94FB170C94CD
:102E400056185F3FE4F3983ED4F3869577956795DF
:102E5000B795F7959F5FC9F7880F911D9695879550
:102E600097F90895E1E0660F771F881FBB1F62176F
:102E700073078407BA0720F0621B730B840BBA0B2D
:102E8000EE1F88F7E09508950E944B176894B111E2
:102E90000C94561808950E943B1888F09F5798F09C
:102EA000B92F9927B751B0F0E1F0660F771F881F4F
:102EB000991F1AF0BA95C9F714C0B13091F00E9469
:102EC0005518B1E008950C945518672F782F88276E
:102ED000B85F39F0B93FCCF3869577956795B39590
:102EE000D9F73EF490958095709561957F4F8F4FFF
:102EF0009F4F089597FB16F40E9404180C94BE1778
:102F0000E89409C097FB3EF4909580957095619583
:102F10007F4F8F4F9F4F9923A9F0F92F96E9BB2739
:102F20009395F695879577956795B795F111F8CFB5
:102F3000FAF4BB0F11F460FF1BC06F5F7F4F8F4F20
:102F40009F4F16C0882311F096E911C0772321F016
:102F50009EE8872F762F05C0662371F096E8862FAE
:102F600070E060E02AF09A95660F771F881FDAF705
:102F7000880F9695879597F90895E894F92F96EB21
:102F8000FF2381F0121613061406440B9395F69551
:102F900087957795679557954040FF23B9F71BC0F4
:102FA00099270895882351F49850D2F7872B762FCC
:102FB000652F542F432F322F20E0B1F31216130642
:102FC0001406440B88233AF09A95440F551F661F48
:102FD000771F881FCAF755234AF4440F551F11F471
:102FE00060FF04C06F5F7F4F8F4F9F4F880F969594
:102FF000879597F9089597F99F6780E870E060E0FA
:1030000008959FEF80EC0895909580957095609558
:1030100050954095309521953F4F4F4F5F4F6F4FE3
:103020007F4F8F4F9F4F089500240A94161617065E
:1030300018060906089500240A94121613061406A9
:1030400005060895092E0394000C11F4882352F00C
:10305000BB0F40F4BF2B11F460FF04C06F5F7F4FC4
:103060008F4F9F4F089557FD9058440F551F59F0AB
:103070005F3F71F04795880F97FB991F61F09F3F65
:1030800079F087950895121613061406551FF2CF8E
:103090004695F1DF08C0161617061806991FF1CFDE
:1030A00086957105610508940895E894BB27662705
:1030B0007727CB0197F908950E946F180C94221876
:1030C0000E94141838F00E941B1820F0952311F06C
:1030D0000C94FB170C94011811240C9456180E94A0
:1030E000331870F3959FC1F3950F50E0551F629F01
:1030F000F001729FBB27F00DB11D639FAA27F00D51
:10310000B11DAA1F649F6627B00DA11D661F829F77
:103110002227B00DA11D621F739FB00DA11D621F5C
:10312000839FA00D611D221F749F3327A00D611D79
:10313000231F849F600D211D822F762F6A2F11245B
:103140009F5750409AF0F1F088234AF0EE0FFF1F8E
:10315000BB1F661F771F881F91505040A9F79E3FE5
:10316000510580F00C94FB170C9456185F3FE4F364
:10317000983ED4F3869577956795B795F795E7953B
:103180009F5FC1F7FE2B880F911D9695879597F944
:10319000089581E090E0F8940C94CE18F894FFCF55
:1031A000000000001B021702000000007A084D0812
:1031B000BC0121084508310822080000000037073B
:1031C000CE08BF01C707F001CE01E2015B005D2020
:0E31D000000D0A00250020506100206D560001
:00000001FF
