:100000000C9492010C94BC010C94BC010C94BC01A6
:100010000C947B0D0C947B0D0C947B0D0C947B0D40
:100020000C94BC010C94BC010C94BC010C94BC015C
:100030000C94BC010C94BC010C94BC010C94BC014C
:100040000C94BC010C94BC010C945A080C94BC0197
:100050000C94CE080C94A4080C94BC010C94BC0124
:100060000C94BC010C94BC010C94A1050C94BC0133
:100070000C94BC010C94BC010C94BC010C94BC010C
:100080000C94BC010C94BC010C94BC01E706EA067C
:10009000DD06E10601070107EE06F206F806FC069A
:1000A00000002100240027002A0000002200250073
:1000B00028002B0054582048656172746265617491
:1000C00020456E6400545820486561727462656111
:1000D000742053746172740053616D706C652054A8
:1000E0005820456E640053616D706C652054582033
:1000F00053746172740047656E3A2067756176616A
:10010000323300426F617264204F70747300426F2B
:1001100061726420536574757020446F6E6500428F
:100120006F617264205365747570205374617274CA
:10013000000A504F535420456E64005B505D200907
:100140004552524F523A20736F6C61722070616E4B
:10015000656C2076616C7565206F7574206F662004
:1001600072616E676500206D56005B505D20736F95
:100170006C61722070616E656C2076616C75653A99
:1001800020005B505D206261747465727920766135
:100190006C75653A20005B505D2061706F67656526
:1001A0005F737032313220736F6C617220697272CA
:1001B000616469616E63652076616C75653A2000E3
:1001C000204B005B505D20424D4532383020546555
:1001D0006D70657261747572652076616C75653AD3
:1001E00020005B505D20094572726F723A20507298
:1001F000657373757265206F7574206F6620726108
:100200006E6765005B505D20424D453238302050AE
:10021000726573737572652076616C75653A20003E
:100220005B505D20424D453238302048756D696421
:100230006974792076616C75653A20005B505D20A9
:100240006E6F646520616464723A2000504F5354AD
:1002500020426567696E0053616D706C6520456E64
:10026000640053616D706C65205374617274005248
:10027000756E6E696E6720504F535400434D442095
:100280004D6F646520636D64004C656176696E67CF
:1002900020434D44206D6F646500474F542041203A
:1002A000434D443A2000456E74657220434D44200E
:1002B0004D6F646500000020002300260029000225
:1002C00002020202020202040404040404040403FD
:1002D0000303030303030301010101010101010100
:1002E0000204081020408001020408102040800110
:1002F0000204081020408001020408102040800001
:100300000000010200090A000000000403080700C1
:1003100000000000000000000000000000000000DD
:10032000BC179E1711241FBECFEFD0E4DEBFCDBF98
:1003300011E0A0E0B1E0EEE9F9E300E00BBF02C09C
:1003400007900D92A236B107D9F725E0A2E6B1E0F9
:1003500001C01D92AD34B207E1F711E0C1E9D1E06F
:1003600004C02197FE010E948D18C039D107C9F73A
:100370000E947B160C94C21C0C94000085ED8093A7
:10038000BC008091BC0084FDFCCF109279020895DE
:100390000895E0917B0280917A02E81730F4F0E052
:1003A000E458FD4F808190E008958FEF9FEF08950E
:1003B00090917B0280917A02981750F4E92FF0E037
:1003C000E458FD4F208130E09F5F90937B0202C094
:1003D0002FEF3FEFC901089580917A0290E02091BC
:1003E0007B02821B91090895CF92DF92EF92FF92D8
:1003F0000F931F93CF93DF937C018A0180912F028B
:10040000882389F0EB016B01C40ED51ECC15DD05E8
:10041000F1F06991D701ED91FC910190F081E02D0F
:10042000C7010995F3CF842F413288F49091790266
:10043000943069F44093C501FB0123EA31E0D9010E
:100440009A2F921B981718F491919D93F9CFC80198
:10045000DF91CF911F910F91FF90EF90DF90CF90A0
:10046000089520912F022223C9F0209152022032B8
:1004700040F021E030E0FC013383228380E090E013
:10048000089580913002E82FF0E0EF5CFD4F60832B
:100490008F5F809330028093520209C0809179026D
:1004A000843029F481E08093C5016093A30181E049
:1004B00090E008953FB7F89480919F019091A0013A
:1004C000A091A101B091A20126B5A89B05C02F3F24
:1004D00019F00196A11DB11D3FBFBA2FA92F982F6A
:1004E0008827820F911DA11DB11DBC01CD0142E0E5
:1004F000660F771F881F991F4A95D1F70895CF92ED
:10050000DF92EF92FF920F931F93CF93DF936C01D3
:100510007A018B01C0E0D0E0CE15DF0589F0D8016B
:100520006D918D01D601ED91FC910190F081E02D4E
:10053000C6010995892B11F47E0102C02196ECCFEA
:10054000C701DF91CF911F910F91FF90EF90DF9046
:10055000CF9008950E94B51C89ED92E00E94260973
:1005600021E0892B09F420E0822F08952F923F92F9
:100570004F925F926F927F928F929F92AF92BF92B3
:10058000CF92DF92EF92FF920F931F93CF93DF935F
:10059000CDB7DEB7A2970FB6F894DEBF0FBECDBFC2
:1005A0000E94DA1487EF0E9454146F83788789873A
:1005B0009A87611571058048910509F4FDC1809104
:1005C000AD029091AE02A091AF02B091B0026C0169
:1005D0007D01FF0CCC08DC2C76019C01AD016C2D5B
:1005E0007C2D8C2D9C2D345F41405109610971098E
:1005F000810991092AA339A349835A836B837C8398
:100600008D839E8359016A017B018C010E94A91888
:100610002E8B3F8B488F598F6A8F7B8F8C8F9D8F4E
:100620008091C5028E8F9091C6029B87A091C302D4
:10063000AF8FB091C402BC87E091C102E8A3F091F2
:10064000C202FD87B090BE02A090BD021B2D110F0B
:10065000110BC12ED12EE12EF12E012F2AA139A18D
:1006600049815A816B817C818D819E810E94A9186C
:100670000CE00E94D91919012A013B014C01B090EC
:10068000C002A090BF021B2D110F110BC12ED12E45
:10069000E12EF12E012F2E893F89488D598D6A8DCB
:1006A0007B8D8C8D9D8D0E94A91808E00E94F21907
:1006B00051016201730184010E94101A70588F4F1A
:1006C0009F4F2090BB023090BC025101C12CD12C15
:1006D000E12CF12C00E010E00E94A91801E20E9438
:1006E000F2192E873F87488B598B6A8B7B8B8C8BBB
:1006F0009D8BA0E00E94221A09F463C1AE8C1B8579
:10070000110F110BBB84C12ED12EE12EF12E012F22
:100710002E893F89488D598D6A8D7B8D8C8D9D8D5D
:100720000E94A91819012A013B014C01AF8C1C85BC
:10073000110F110BBC84C12ED12EE12EF12E012FF1
:100740002AA139A149815A816B817C818D819E8149
:100750000E94A91801E10E94D91959016A017B017F
:100760008C019101A201B301C4010E94101A190168
:100770002A013B014C014F81588569857A8584E0C7
:1007800075956795579547958A95D1F780E090E0E4
:10079000A0E1B0E0841B950BA60BB70B6C017D01AB
:1007A000FF0CCC08DC2C76019C01AD016C2D7C2D5E
:1007B0008C2D9C2D0FE10E94D919F901B42FA52F82
:1007C0006C837D8389839A8328A19D85990F990BDA
:1007D0003D85492F592F692F792F892F03E20E94D8
:1007E000D91959016A017B018C019101A201B30160
:1007F000C4010E94101A59016A017B018C019F01FA
:100800004B2F5A2F6C817D8189819A810E94191A00
:100810004901542E652EB62FA72FF82FE92F03E09C
:100820000E94D9195401C52CD62CEB2EFA2E0F2F6D
:100830001E2F0E94191A59016A017B01782E192F67
:1008400003E00E94D919072D0E94191A03E00E94A3
:10085000D9195401C52CD62CEB2EFA2E0F2F1E2F92
:100860000E94191A02E00E94D9190F2F0E94191A2A
:1008700001E00E94D9190F2F0E94191AAE84BF847B
:10088000C888D988EA88FB880C891D890E940419C8
:100890002B873F8349835A836B837C838D839E831D
:1008A0000DE00E94F219922E832E742E652E562E84
:1008B000472E382E292E3091CC022091CB02932F37
:1008C000990F990BA92CB82CC72CD62CE52CF42CFD
:1008D000032D122D492F592F692F792F892F0E940F
:1008E000A9180E94A91809E10E94F21959016A0188
:1008F0007B018C012B853F8149815A816B817C81F1
:100900008D819E810E94101A19012A013B014C0120
:100910003091CA022091C902932F990F990BAB8491
:10092000BF80C980DA80EB80FC800D811E81492F59
:10093000592F692F792F892F0E94A91803E10E944E
:10094000F21959016A017B018C019101A201B301E5
:10095000C4010E94101A08E00E94F219522E632E60
:10096000742E852E962EF72FE82FB92F3091C802BE
:100970002091C702932F990F990B492F592F692F57
:10098000792F892F04E00E94D91959016A017B014E
:100990008C01252D362D472D582D692D7F2F8E2F1B
:1009A0009B2F0E94101A0E94661B20E030E040E856
:1009B0005BE30E94481C08C060E070E080EC9FE7A9
:1009C00003C060E070E0CB01A2960FB6F894DEBFE2
:1009D0000FBECDBFDF91CF911F910F91FF90EF9090
:1009E000DF90CF90BF90AF909F908F907F906F904F
:1009F0005F904F903F902F9008958F929F92AF926B
:100A0000BF920F931F93CF93DF93CDB7DEB7A1971C
:100A10000FB6F894DEBF0FBECDBF19A2423008F466
:100A20004AE08E010F5D1F4F842E912CA12CB12C1A
:100A3000A50194010E946B18E62FB901CA0101506B
:100A40001109EA3014F4E05D01C0E95CD801EC93CF
:100A5000232B242B252B61F7C8010E948F12A1960E
:100A60000FB6F894DEBF0FBECDBFDF91CF911F91BF
:100A70000F91BF90AF909F908F900895CF93DF9389
:100A80000E948F12EC0180E591E00E948F128C0F82
:100A90009D1FDF91CF910895CF92DF92EF92FF9249
:100AA000CF93DF936B017C01E091D902F091DA02E0
:100AB0000190F081E02D6DE289ED92E00995EC0165
:100AC00066277727CB016C197D098E099F094AE0BB
:100AD0000E94FD048C0F9D1FDF91CF91FF90EF903E
:100AE000DF90CF900895E9EDF2E0A089B18982E02E
:100AF0008C93A485B5851C92A685B7858FEC8C93C5
:100B0000108EA489B58986E08C93A289B3898C91D3
:100B100080618C93A289B3898C9188608C93A2891F
:100B2000B3898C9180688C930288F389E02D808151
:100B30008F7D808308950E94F9139827892798272D
:100B400008951F920F920FB60F9211240BB60F92B9
:100B50002F933F934F935F936F937F938F939F93C5
:100B6000AF93BF93EF93FF938091B900887F803656
:100B700009F49CC068F5883209F45BC090F48031B8
:100B800009F454C038F4882309F4F6C0883009F415
:100B90004DC0F6C0883109F44CC0803209F45DC004
:100BA000EFC0803409F468C048F4803309F455C0BC
:100BB000883309F0E5C080937702D8C0803509F406
:100BC0004FC0883509F45DC0883409F0D9C0D6C05B
:100BD000883909F4C7C0A8F4883709F467C038F425
:100BE000883609F463C0803709F460C0C9C088380A
:100BF00009F4B8C0803909F45FC0803809F0C0C07A
:100C00005BC0803B09F486C038F4803A09F466C0C2
:100C1000883A09F47FC0B4C0803C09F4A7C0883C7E
:100C200009F4A4C0883B09F48AC0AAC08091740268
:100C300010C09091760280917502981770F5E0913E
:100C4000760281E08E0F80937602F0E0ED5AFD4F40
:100C500080818093BB0085EC86C0809377028EC034
:100C6000E091760281E08E0F809376028091BB0046
:100C7000F0E0ED5AFD4F80839091760280917502ED
:100C80006EC0E091760281E08E0F809376028091B3
:100C9000BB00F0E0ED5AFD4F808380917802811116
:100CA0006DC081E08093730284EA61C083E0809329
:100CB00079021092E901CFCF8091E901803208F0EA
:100CC00051C0E091E90181E08E0F8093E9018091AC
:100CD000BB00F0E0E753FE4F8083BDCF85EC8093EF
:100CE000BC00109279028091E901803230F4E091E9
:100CF000E901F0E0E753FE4F10826091E90170E0F6
:100D0000E091C701F091C80189EC91E0099510923A
:100D1000E90136C084E0809379021092C6011092F6
:100D2000C501E091C301F091C40109958091C5010D
:100D3000811105C081E08093C5011092A301E0916B
:100D4000C60181E08E0F8093C601F0E0ED55FE4FA5
:100D500080818093BB009091C6018091C501981756
:100D600008F479CF85E88093BC000AC085EC8093B5
:100D7000BC001092790204C0109277020E94BE015A
:100D8000FF91EF91BF91AF919F918F917F916F9163
:100D90005F914F913F912F910F900BBE0F900FBE1F
:100DA0000F901F90189590E0FC013197EA30F10503
:100DB00040F5EA5BFF4F0C948D18809180008F778F
:100DC00003C0809180008F7D80938000089584B55A
:100DD0008F7702C084B58F7D84BD08958091B00067
:100DE0008F7703C08091B0008F7D8093B00008950D
:100DF000809190008F7703C0809190008F7D8093C9
:100E0000900008951F93CF93DF93282F30E0F901CE
:100E1000E150FD4F8491F901E152FD4FD491F90168
:100E2000E154FD4FC491CC23C9F0162F81110E94CB
:100E3000D306EC2FF0E0EE0FFF1FE655FF4FA59114
:100E4000B4918FB7F894111105C09C91ED2FE095E6
:100E5000E92302C0EC91ED2BEC938FBFDF91CF9192
:100E60001F910895CF93DF93D82FC62F8091B102A1
:100E70008F3FC9F48091A80291E090932F02809354
:100E8000510210923002109252026D2F8CE992E0C2
:100E90000E9431026C2F8CE992E00E943102DF91B6
:100EA000CF910C949C138091B4028F3F21F482E582
:100EB00091E00E94120D60E08091B1020E94020751
:100EC0008D2F8F770E94F1128C2F0E94F11261E01A
:100ED0008091B1020E9402078091B4028F3F21F4F9
:100EE000DF91CF910C94110DDF91CF910895CF93A5
:100EF000C82F8091B1028F3FE9F48091A80291E060
:100F000090932F028093510210923002109252025D
:100F10006C2F8CE992E00E9431020E949C1361E0E8
:100F20008091A8020E9451138CE992E00E94D8019E
:100F3000C82F20C08091B4028F3F21F482E591E058
:100F40000E94120D60E08091B1020E9402078C2F76
:100F500080680E94F11280E00E94F112C82F61E0C7
:100F60008091B1020E9402078091B4028F3F11F478
:100F70000E94110D8C2FCF910895CF93DF9390E0B5
:100F8000FC01E152FD4F2491FC01E154FD4F84919D
:100F9000882361F190E0880F991FFC01E056FF4F14
:100FA000C591D491FC01E655FF4FA591B491611113
:100FB00009C09FB7F8948881209582238883EC919B
:100FC0002E230BC0623061F49FB7F8943881822FD2
:100FD000809583238883EC912E2B2C939FBF06C092
:100FE0008FB7F894E8812E2B28838FBFDF91CF91A4
:100FF0000895883028F0883110F0885101C08FEFB3
:101000008770806480937C0080917A0080648093F4
:101010007A0080917A0086FDFCCF80917800209143
:10102000790090E0922B08958F929F92AF92BF9299
:10103000CF92DF92EF92FF926B017C010E945A02E5
:101040004B015C01C114D104E104F104F1F00E94F0
:101050005A02DC01CB0188199909AA09BB09883E0B
:101060009340A105B10570F321E0C21AD108E1084F
:10107000F10888EE880E83E0981EA11CB11CC114F3
:10108000D104E104F10419F7DDCFFF90EF90DF9078
:10109000CF90BF90AF909F908F9008952FB7F89406
:1010A00060919B0170919C0180919D0190919E01A6
:1010B0002FBF08951F920F920FB60F9211242F93F6
:1010C0003F938F939F93AF93BF9380919B01909198
:1010D0009C01A0919D01B0919E0130919A0123E065
:1010E000230F2D3720F40196A11DB11D05C026E860
:1010F000230F0296A11DB11D20939A0180939B019D
:1011000090939C01A0939D01B0939E0180919F01BB
:101110009091A001A091A101B091A2010196A11D01
:10112000B11D80939F019093A001A093A101B09362
:10113000A201BF91AF919F918F913F912F910F90FD
:101140000FBE0F901F9018951F920F920FB60F921F
:1011500011240BB60F922F933F934F935F936F938E
:101160007F938F939F93AF93BF93EF93FF9389EDFB
:1011700092E00E94870CFF91EF91BF91AF919F91F8
:101180008F917F916F915F914F913F912F910F9030
:101190000BBE0F900FBE0F901F9018951F920F92CD
:1011A0000FB60F9211240BB60F922F938F939F932C
:1011B000EF93FF93E091E902F091EA028081E091E0
:1011C000EF02F091F00282FD12C090818091F20254
:1011D0008F5F8F732091F302821751F0E091F2023A
:1011E000F0E0E752FD4F958F8093F20201C08081BD
:1011F000FF91EF919F918F912F910F900BBE0F90C8
:101200000FBE0F901F901895FC01918D828D98173D
:1012100061F0828DDF01A80FB11D5D968C91928DDA
:101220009F5F9F73928F90E008958FEF9FEF0895D7
:10123000FC01918D828D981731F0828DE80FF11DA0
:10124000858D90E008958FEF9FEF0895FC01918DBB
:10125000228D892F90E0805C9F4F821B91098F73B4
:101260009927089580E090E0892B21F00E94AC023C
:1012700081110DC080E090E0892B71F080E090E05A
:10128000892B51F00E940000811104C008950E9432
:101290000000F0CF0C94000008952091EC013091F3
:1012A000ED012817390781F49091EB018091EA0153
:1012B000981751F0E091EB01F0E0E251FE4F808190
:1012C000082E000C990B08958FEF9FEF0895209141
:1012D000EC013091ED012817390739F48FB7F894F4
:1012E0001092EA011092EB018FBF08951F93CF93E4
:1012F000DF93DC015C962D913C915D9721153105C2
:1013000039F481E090E013969C938E9312973DC040
:101310005196ED91FC91529750969C915097892F40
:1013200080951FB75E964C915E9741FB772770F9C9
:1013300041FD6095F8944081772311F0492B01C05D
:1013400048234083E9012197F1F748E0508160FF8D
:1013500002C0592B01C058235083E9012197F1F7AE
:101360006695415099F7772321F0908189238083F6
:1013700003C08081982B90831FBF5C968D919C91B8
:101380005D970197F1F721E030E0C901DF91CF913E
:101390001F9108952091EC013091ED012817390734
:1013A00071F48091EA012091EB0190E0805C9F4F05
:1013B000821B910960E470E00E945718089580E054
:1013C00090E008952091EC013091ED012817390744
:1013D000B9F49091EB018091EA01981789F0E091BE
:1013E000EB01F0E0E251FE4F80812091EB0130E013
:1013F0002F5F3F4F2F7333272093EB0190E0089529
:101400008FEF9FEF0895FC018681845F0895FC01B2
:10141000611102C082850895613011F481850895BB
:10142000623011F480850895633011F48781089546
:10143000643011F486850895653011F4858508952A
:10144000663011F484850895673011F4838508951A
:10145000683011F480890895693011F48785089502
:101460006A3011F4818908956B3011F482890895EE
:101470000480F581E02DE60FF11D3C9780810895F1
:101480008F929F92AF92BF92CF92DF92EF92FF9294
:10149000CF93DF93EC010E944E086B017C018A8C94
:1014A0009B8CAC8CBD8C0E944E08683A734485407E
:1014B000910580F4C818D90888EBC8168BE0D806C7
:1014C0004CF00E944E086A8F7B8F8C8F9D8F81E03D
:1014D00090E002C080E090E0DF91CF91FF90EF902C
:1014E000DF90CF90BF90AF909F908F900895BF9264
:1014F000CF92DF92EF92FF920F931F93CF93DF93E0
:10150000B82E8B01C0E0D0E06A01550FEE08FF084D
:10151000C017D107ACF461E08B2D0E940207C70110
:10152000B6010E94140860E08B2D0E9402072196EC
:10153000C017D1076CF7C701B6010E941408E8CFA5
:10154000DF91CF911F910F91FF90EF90DF90CF909F
:10155000BF9008958F929F92AF92BF92DF92EF92C9
:10156000FF920F931F93CF93DF93CDB7DEB76397AF
:101570000FB6F894DEBF0FBECDBF20E12B8321E074
:101580002C839E838D836F8384E091E09A8389838B
:1015900080E092EAA3E1B0E088879987AA87BB87B9
:1015A00088E097EBACE6B0E48C879D87AE87BF8779
:1015B0008EEF9FEF998B888B1A8A1B8A8EE70E9489
:1015C000D0121F812CE0210F30E02E5F3F4F61E0F1
:1015D000832F0E94DD1261E08EE0810F0E94DD12F8
:1015E00061E08B810E94DD1261E08C810E94DD123E
:1015F0001B818C81180FE12CF12C8F81845F90E08E
:10160000E816F90694F46E2DCE0101960E94070AA1
:1016100061E00E94DD126E2DCE0101960E94070A44
:10162000180F8FEFE81AF80AE8CF61E0812F809554
:101630000E94DD128091110490911204DC01ED9161
:10164000FC910284F385E02D099561E086E10E941A
:10165000BD0761E087E10E94BD070E944E084B0173
:101660005C0100E282E0F82E11E093E0E92E24E034
:10167000D22E0E944E0868197909643F71400CF01F
:10168000F4C080919C038111C1C080919D038111A0
:10169000BDC002C010939E0380911104909112046A
:1016A000DC01ED91FC910480F581E02D0995892BF9
:1016B00009F4A2C08091110490911204DC01ED9113
:1016C000FC910680F781E02D09958093A00390910D
:1016D0009F03992311F18E3719F4E0929D038CC07A
:1016E0008D37D9F48091110490911204DC01ED91B1
:1016F000FC910480F581E02D0995892B59F28091A8
:10170000110490911204DC01ED91FC910680F781A7
:10171000E02D099580278093A00380919E03882364
:1017200039F08091A00380278093A00310929E033C
:1017300080919F03833038F02091A0039091A10302
:10174000920F9093A1038130A1F058F08230C1F044
:101750008330E9F48091A00380939703D0929F0394
:101760009BCF8091A0038E3709F096CF10939F03F3
:1017700093CF8091A00380939803F0929F038CCF26
:101780008091A00380939903E0929F0385CF8F36C9
:1017900018F0F0929D0330C0282F30E0409199035B
:1017A00050E04D5F5F4F24173507A9F49091A103D6
:1017B0009F3F49F49091A00390939A0310939C0348
:1017C00010929D0302C010939D03845080939B034D
:1017D00010929F0311C08091A003E0919503F091B6
:1017E00096032E0F3F1FF9013497808380919F034A
:1017F0008F5F80939F0350CF80919C0381111BC00A
:1018000080919D03882309F434CF2FC010929F0349
:1018100010929E031092A10310929C0310929D03BC
:1018200010929A03109297031092980310929903C2
:1018300010929B0331CF809197038B38B1F4E091E4
:101840009503F09196038481811107C044E650E02E
:1018500065E070E086E190E006C044EF51E063E0AF
:1018600070E087E190E00E94770A63960FB6F894E3
:10187000DEBF0FBECDBFDF91CF911F910F91FF90C3
:10188000EF90DF90BF90AF909F908F9008950F934F
:101890001F93CF93DF93CDB7DEB7C659D1090FB6EB
:1018A000F894DEBF0FBECDBF8C0186EE90E00E94A3
:1018B000C21261E085E10E940207CE01019626E98D
:1018C000FC0111922A95E9F7F801B29626E1DC01B4
:1018D00001900D922A95E1F766E170E00E94AA0A54
:1018E000F801178E168E88ED90E00E94C21260E01B
:1018F00085E10E940207CA56DF4F0FB6F894DEBF9B
:101900000FBECDBFDF91CF911F910F910895FC01C4
:10191000848DDF01A80FB11DA35ABF4F2C91848D78
:1019200090E001968F739927848FA689B7892C93AD
:10193000A089B1898C9180648C93938D848D981348
:1019400006C00288F389E02D80818F7D8083089511
:10195000EF92FF920F931F93CF93DF93EC0181E0FF
:10196000888F9B8D8C8D981305C0E889F9898081BB
:1019700085FD24C0F62E0B8D10E00F5F1F4F0F73F7
:101980001127E02E8C8DE8120CC00FB607FCFACFA1
:10199000E889F989808185FFF5CFCE010E94870C07
:1019A000F1CF8B8DFE01E80FF11DE35AFF4FF0825E
:1019B0000B8FEA89FB898081806207C0EE89FF89ED
:1019C0006083E889F98980818064808381E090E088
:1019D000DF91CF911F910F91FF90EF900895CF93DA
:1019E000DF93EC01888D8823C9F0EA89FB89808127
:1019F00085FD05C0A889B9898C9186FD0FC00FB6F9
:101A000007FCF5CF808185FFF2CFA889B9898C9139
:101A100085FFEDCFCE010E94870CE7CFDF91CF91FC
:101A2000089508958CBD9DBD08950F931F93CF9386
:101A3000DF93EC01162F042F1B821A8288EE93E0AD
:101A4000A0E0B0E08C839D83AE83BF8384E491E00B
:101A5000998388831F8A1E8A198E188E1B8E1A8E70
:101A60001D8E1C8E6E8D6E7F20FB61F96E8F6695CC
:101A7000617081E06827842F0E94020761E0802F57
:101A80000E94BD07402F50E0FA01E152FD4FE49162
:101A9000E88BFA01E154FD4FE491F0E0EE0FFF1FF7
:101AA000E655FF4F859194919A8B898B60E0812F49
:101AB0000E94BD078E8D81FD04C061E0812F0E94D0
:101AC00002071C87612F70E0FB01E152FD4FE4919A
:101AD000ED87FB01E154FD4FE491F0E0EE0FFF1FB5
:101AE000EB54FD4F859194919F878E87DF91CF9125
:101AF0001F910F9108951F920F920FB60F9211240C
:101B00000BB60F922F933F934F935F936F937F93F7
:101B10008F939F93AF93BF93EF93FF93E091EC016B
:101B2000F091ED01309709F451C0968DA685B785E7
:101B3000858591FF04C09C91892329F447C09C911D
:101B4000892309F043C0A389B4899C918589809534
:101B500089238C93868997890197F1F7608D718D20
:101B6000A685B785558538E020E0CB010197F1F7D0
:101B7000822F90E095958795282F4C91452309F069
:101B80002068315091F7868D81FD20958091EA0182
:101B900090E001968F7399273091EB01381749F047
:101BA000A091EA01B0E0A251BE4F2C938093EA01CC
:101BB00003C0868D8160868F828D938D0197F1F7AA
:101BC000A389B4899C918589892B8C93FF91EF918E
:101BD000BF91AF919F918F917F916F915F914F9145
:101BE0003F912F910F900BBE0F900FBE0F901F9043
:101BF0001895E091EC01F091ED01E817F90769F40F
:101C0000A389B4899C918589809589238C931092AE
:101C1000ED011092EC0181E0089580E0089589E1E2
:101C20000E94F907BC01990F880B990B0E946E1B4B
:101C30009B01AC010E94521A2AE137E64CE950E4BC
:101C40000E94481C20E030E04CE852E40E94521A06
:101C50000E94301BCB010895CF9382E090E00E9458
:101C6000BA1CC82F83E090E00E94BA1C2C2F30E0F1
:101C7000A901582BCA01CF91089588E10E94F90764
:101C8000BC01990F880B990B0E946E1B2AE038E269
:101C900040EA5BE30E94481C20E030E04AE754E45D
:101CA0000E94481C0E94301BCB010895AF92BF9246
:101CB000CF92DF92EF92FF920F931F93CF93DF9318
:101CC000CDB7DEB7C659D1090FB6F894DEBF0FBE47
:101CD000CDBF0E944E086B017C010E943D0E8C011D
:101CE0000E942C0E5C0185EC90E00E94C21261E023
:101CF00084E10E940207FE01319686E9DF011D9210
:101D00008A95E9F7BC82AB82CD82DE82EF82F886CB
:101D10001A8709876AE070E0CF010E94AA0A84EB63
:101D200090E00E94C21260E084E10E940207CA565D
:101D3000DF4F0FB6F894DEBF0FBECDBFDF91CF915E
:101D40001F910F91FF90EF90DF90CF90BF90AF90D9
:101D5000089580E090E0089589ED92E00C942609C2
:101D60000F931F93CF938C0186EA92E00E94C212D8
:101D700089ED92E00E9404090A97D1F789ED92E07B
:101D80000E942609892BD1F389ED92E00E94040973
:101D9000C82F8AE992E00E94A112E091D902F09145
:101DA000DA020190F081E02D6C2F89ED92E0099527
:101DB00080E591E00E948F1289ED92E00E94040973
:101DC0000A97D1F7C53439F489E892E0CF911F9191
:101DD0000F910C94C212C03539F0C43579F68CE7F6
:101DE00092E00E94C212CACF8FE692E00E94C21215
:101DF000D8011296ED91FC9113970995BFCF0F93DF
:101E00001F93CF93DF93EC010E944E080E891F8928
:101E1000288D398DDC01CB01801B910BA20BB30BFC
:101E200080339547A105B10548F00E944E086E8B9E
:101E30007F8B888F998F81E090E002C080E090E0F6
:101E4000DF91CF911F910F910895CF93DF93EC0114
:101E500083E591E00E948F120E944E084AE00E94A2
:101E6000FD0485E591E00E948F1282E692E00E94D7
:101E7000C2120E944E086EA37FA388A799A70E9452
:101E80003D0E9BA78AA70E940F0E9DA78CA70E94BC
:101E9000B6020E94371B6EA77FA788AB99AB0E9442
:101EA000DA1420E030E848E853E40E94521A0E9415
:101EB000371B7BAB6AAB0E9475150E94371B7DAB4D
:101EC0006CAB8DE10E94F907BC01990F880B990B4F
:101ED0000E946E1B2AE137E64CE950E40E94481C40
:101EE0000E94301B7FAB6EAB88A199A19DA38CA3F0
:101EF00087E592E00E94C2121F8E1E8ECE01DF91F6
:101F0000CF910C94470CCF92DF92EF92FF92CF9338
:101F1000DF938CE492E00E94C21261E085E10E94AE
:101F200002078CE392E00E94A1120E942C0EBC01D9
:101F3000990F880B990B97FF03C00E944C0503C0B3
:101F40004AE00E94FD0480E591E00E948F120E9409
:101F500075156B017C0180E292E00E94A112C7011D
:101F6000B6010E94371B80E090E04AE00E94FD0429
:101F700088E591E00E943E050E94B6020E94371B50
:101F80006B017C0184E092E00E94A112F7FE05C083
:101F9000C701B6010E944C0505C04AE0C701B60161
:101FA0000E94FD048AE591E00E943E0580E8C81683
:101FB00088E3D80681E0E806F10424F482EE91E09B
:101FC0000E94C2120E94DA146B017C0183EC91E042
:101FD0000E94A11220E030E848E853E4C701B601AE
:101FE0000E94521A0E94371B80E090E04AE00E9453
:101FF000FD0480EC91E00E94C2128DE10E94F9077D
:10200000EC0186E991E00E94A112BE01DD0F880B70
:10201000990B0E946E1B2AE137E64CE950E40E94BE
:10202000481C0E94301B80E090E04AE00E94FD04C2
:102030008EE591E00E943E050E943D0E7C0182E803
:1020400091E00E94A112B70180E090E04AE00E9476
:10205000FD048EE591E00E943E050E940F0E7C017A
:102060008AE691E00E94A112B70180E090E04AE088
:102070000E94FD0486E691E00E94C21284E6E81602
:10208000F10420F48BE391E00E94C21260E085E14C
:102090000E94020781E391E0DF91CF91FF90EF90E2
:1020A000DF90CF900C94C2121F93CF93DF93EC017B
:1020B0000E9473058FE191E00E94C2121092910379
:1020C0001092900310928F0310928E0310928D0342
:1020D00010928C038DE991E0909393038093920387
:1020E00080918203803208F04AC02DEB30E03093BB
:1020F0008D0320938C032BE931E030938F032093E1
:102100008E032CE231E030939103209390032091D1
:102110006800883030F0803130F0883130F091E064
:1021200005C092E003C098E001C094E0922B909328
:102130006800883038F0803140F0883148F02BE674
:1021400030E008C02CE630E005C023E730E002C0F4
:102150002DE630E030938A0320938903877021E0D5
:1021600030E0A90102C0440F551F8A95E2F7409361
:102170008B0380919203909193030197F1F78091E3
:10218000900390919103892B21F18091EC01909122
:10219000ED0153E086379507E1F0009711F00E94BA
:1021A000F90D809194038E7F809394031092EA013D
:1021B0001092EB0186E793E09093ED018093EC01A0
:1021C000E0918903F0918A03908180918B03892BA0
:1021D000808386E793E0909312048093110460E07B
:1021E0008DE10E94BD0760E088E10E94BD0760E0CC
:1021F00089E10E94BD0787E78093A8028091B10220
:102200008F3F41F510927B0210927A0210923002B9
:10221000109252021092790281E08093780210921B
:10222000730261E081E10E94020761E080E10E94A7
:1022300002078091B9008E7F8093B9008091B90028
:102240008D7F8093B90088E48093B80085E4809303
:10225000BC004EC061E00E94020761E08091B102C3
:102260000E94BD078091B4028F3F09F034C01FB7B0
:10227000F89480912E02811127C0E3ECF2E0849162
:10228000E3EEF2E09491E82FF0E0EE0FFF1FE0564E
:10229000FF4FA591B491EC91E92321F461E084E032
:1022A0000E94020761E084E00E94BD078CB5806156
:1022B0008CBD8CB580648CBD61E087E00E94BD0759
:1022C00061E085E00E94BD0780912E028F5F8093C0
:1022D0002E021FBF0DC061E00E94BD0761E080912A
:1022E000B2020E94BD0760E08091B3020E94BD0768
:1022F00080ED0E947707803609F0EEC066EB80EE35
:102300000E9432076CE271E080E090E00E941408C5
:1023100083EF0E94770780FF05C064E670E080E0ED
:1023200090E0F4CF88E80E949B059093B6028093DA
:10233000B5028AE80E949B059093B8028093B70289
:102340008CE80E949B059093BA028093B9028EE8B4
:102350000E949B059093BC028093BB0280E90E947F
:102360009B059093BE028093BD0282E90E949B056B
:102370009093C0028093BF0284E90E949B059093D2
:10238000C2028093C10286E90E949B059093C40219
:102390008093C30288E90E949B059093C6028093B4
:1023A000C5028AE90E949B059093C8028093C702E8
:1023B0008CE90E949B059093CA028093C9028EE922
:1023C0000E949B059093CC028093CB0281EA0E94ED
:1023D00077078093CD0281EE0E949B059093CF02F8
:1023E0008093CE0283EE0E9477078093D00284EE22
:1023F0000E947707182F85EE0E947707282F2F70ED
:1024000030E1139FC0011124822B9093D20280935C
:10241000D10286EE0E947707182F85EE0E9477077B
:1024200090E024E0959587952A95E1F740E1149F87
:1024300090011124822B932B9093D4028093D3028A
:1024400087EE0E9477078093D5028DEE8093D702A6
:102450008091D8028F71806A8093D8028091D602D1
:10246000807C8093D60265E082EF0E9432079091D3
:10247000D602692F677050E2659F90011124892F61
:10248000869586958695877048E0849FB0011124D3
:10249000622B732B97FB992790F9692B85EF0E948C
:1024A00032079091D702692F677050E2659F9001C3
:1024B0001124892F869586958695877048E0849F9C
:1024C000B0011124622B732B92959695969593707B
:1024D000692B84EF0E94320761E084E10E94BD070E
:1024E00061E085E10E94BD070E942C0E99A388A39C
:1024F00064E670E080E090E00E9414088EE091E0D5
:10250000DF91CF911F910C94C2120E94730583E05A
:1025100091E00E94C21286EF90E00C94C2120097E4
:1025200069F0FC0101900020E9F73197AF01481BE9
:10253000590BBC0189ED92E00C947F0280E090E0A1
:1025400008950F931F93CF93DF938C01C0E0D0E0E9
:10255000F801EC0FFD1F6491662371F0E091D90240
:10256000F091DA020190F081E02D89ED92E0099579
:10257000892B11F02196ECCFCE01DF91CF911F91E5
:102580000F910895CF93DF930E94A112EC0180E593
:1025900091E00E948F128C0F9D1FDF91CF910895C3
:1025A000A0911104B0911204ED91FC91119701904A
:1025B000F081E02D682FCD010994CF93662371F04F
:1025C00093E8980F923020F0982F9D7F913131F44D
:1025D000C82F8DE70E94D01280E28C27CF910C94F7
:1025E000D012CF92DF92EF92FF920F931F93CF936F
:1025F000DF939091B4029F3F39F48EBD00000DB47B
:1026000007FEFDCF8EB544C0E82EC7E0D0E0D12C48
:1026100001E010E0DD0C60E08091B4020E9402074E
:10262000B8010C2E01C0660F0A94EAF76E21809162
:10263000B2020E94020761E08091B4020E94020788
:102640002091B30230E0F901E150FD4F8491F9018E
:10265000E152FD4FC490F901E154FD4FF490FF2089
:1026600071F081110E94D306EF2DF0E0EE0FFF1FF5
:10267000EB54FD4FA591B491EC91EC2129F42197F5
:1026800008F0C8CF8D2D04C08D2D8160D82EF7CFD6
:10269000DF91CF911F910F91FF90EF90DF90CF903E
:1026A0000895909179029111FCCF613208F060E2B7
:1026B00091E090937902909378022FEF2093770224
:1026C00010927602260F20937502909374029091D7
:1026D0007402880F892B8093740280917302813079
:1026E00061F410927302809174028093BB00809118
:1026F000BC0083FDF8CF85EC01C085EE8093BC0063
:10270000809179028130E1F380917602861710F48E
:1027100060917602A3E5B2E02CE732E0F9018E2F5A
:10272000821B861718F48D918193F9CF10927B024A
:1027300060937A02862F089520915202909151025F
:10274000213208F04AC0809179028111FCCF32E039
:102750003093790231E0309378023FEF3093770283
:102760001092760220937502A1E3B2E043E552E0B5
:10277000FA013E2F341B321718F43D913193F9CFF3
:102780001092740220917402990F922B909374020C
:1027900090917302913061F41092730290917402DF
:1027A0009093BB009091BC0093FDF8CF95EC01C0D5
:1027B00095EE9093BC00909179029230E1F3909164
:1027C00077029F3F79F080917702803241F08091CB
:1027D0007702803331F084E005C081E003C082E0FD
:1027E00001C083E0109230021092520210922F0228
:1027F0000895CF93DF93C82F8091B1028F3F39F5B1
:102800008091A80291E090932F0280935102109240
:102810003002109252026C2F8CE992E00E94310239
:102820000E949C1362E08091A8020E9451138CE9DF
:1028300092E00E94D801C82F8CE992E00E94D80152
:1028400020E030E03C2FE901C82BD92B29C0809132
:10285000B4028F3F21F482E591E00E94120D60E006
:102860008091B1020E9402078C2F80680E94F112B1
:1028700080E00E94F112C82F80E00E94F1122C2FFC
:1028800030E0322F2227E901C82B61E08091B102AC
:102890000E9402078091B4028F3F11F40E94110D33
:1028A000CE01DF91CF910895CF92DF92EF92FF9208
:1028B000CF93C82F8091B1028F3F09F040C0809123
:1028C000A80291E090932F0280935102109230025F
:1028D000109252026C2F8CE992E00E9431020E9409
:1028E0009C1363E08091A8020E9451138CE992E04E
:1028F0000E94D8016C01990FEE08FF08FE2CED2C08
:10290000DC2CCC248CE992E00E94D801AC01990F18
:10291000660B770BC42AD52AE62AF72AFE2CED2C63
:10292000DC2CCC248CE992E00E94D801AC01990FF8
:10293000660B770BC42AD52AE62AF72A33C0809182
:10294000B4028F3F21F482E591E00E94120D60E015
:102950008091B1020E9402078C2F80680E94F112C0
:1029600080E00E94F112C82ED12CE12CF12CFE2C1B
:10297000ED2CDC2CCC2480E00E94F112C82AFE2C25
:10298000ED2CDC2CCC2480E00E94F112C82A61E0FE
:102990008091B1020E9402078091B4028F3F11F42E
:1029A0000E94110DC701B601CF91FF90EF90DF900B
:1029B000CF9008958F929F92AF92BF92CF92DF9265
:1029C000EF92FF928AEF0E9454146115710520E87E
:1029D0008207910509F47CC04091B5025091B6027E
:1029E0004A01A12CB12CC72ED82EE92EFF24E7FCDA
:1029F000FA94C818D908EA08FB08DC01CB0137E0D3
:102A0000B595A795979587953A95D1F7B501A40106
:102A1000440F551F661F771F4C015D01841A950AEC
:102A2000A60AB70AA5019401A091B702B091B80215
:102A30000E94A1184B015C01FBE0B594A794979408
:102A40008794FA95D1F7A7019601C701B6010E94B4
:102A500047189B01AC01ACE05595479537952795F4
:102A6000AA95D1F7A091B902B091BA020E94A1181B
:102A7000DC01CB012EE0B595A795979587952A9512
:102A8000D1F7A5019401280F391F4A1F5B1F20931E
:102A9000AD023093AE024093AF025093B002A5E076
:102AA000B0E00E949618DC01CB0180589F4FAF4FD9
:102AB000BF4F692F7A2F8B2F992787FD9A950E94F8
:102AC0006E1B20E030E048EC52E40E94BE1A04C0C5
:102AD00060E070E080EC9FE7FF90EF90DF90CF9098
:102AE000BF90AF909F908F9008954F925F926F929A
:102AF0007F928F929F92AF92BF92CF92DF92EF928E
:102B0000FF920E94DA148DEF0E94F913A0E0B0E06A
:102B1000811520E89207A105B10509F4DBC080907A
:102B2000AD029090AE02A090AF02B090B0023CE235
:102B3000931A31E0A30AB1083EE0880F991FAA1F3B
:102B4000BB1F3A95D1F74091D1025091D202052E88
:102B5000000C660B770BE4E1440F551F661F771FCF
:102B6000EA95D1F76C017D01C41AD50AE60AF70A85
:102B7000A091D302B091D402A50194010E94A118A2
:102B8000C61AD70AE80AF90A40E4D40EE11CF11C7F
:102B9000FFE0F594E794D794C794FA95D1F7A09104
:102BA000D5020A2E000CBB0BA50194010E94A118AE
:102BB0002B013C01AAE07594679457944794AA9519
:102BC000D1F7A091D002B0E00E949618DC01CB01B1
:102BD0002BE0B595A795979587952A95D1F7BC01D8
:102BE000CD0170588F4F9F4FA30192010E9447184B
:102BF000DC01CB013AE0B595A795979587953A9575
:102C0000D1F79C01AD01405E5F4FA091CE02B09123
:102C1000CF020E94A118DC01CB01905EAF4FBF4FE5
:102C2000BC01CD014EE095958795779567954A95BE
:102C3000D1F7A70196010E9447186B017C015FE064
:102C400095958795779567955A95D1F79B01AC0136
:102C50000E9447189B01AC0167E055954795379551
:102C600027956A95D1F7A091CD02B0E00E94961801
:102C7000DC01CB0174E0B595A795979587957A957A
:102C8000D1F7A7019601281B390B4A0B5B0BDA0120
:102C9000C90157FF03C080E090E0DC01813091055D
:102CA000A10539E1B30724F080E090E0A0E0B9E1AC
:102CB000BC01CD012CE095958795779567952A9570
:102CC000D1F70E946E1B20E030E040E85AE30E94FA
:102CD000481C04C060E070E080EC9FE7FF90EF903C
:102CE000DF90CF90BF90AF909F908F907F906F902C
:102CF0005F904F900895789484B5826084BD84B5C8
:102D0000816084BD85B5826085BD85B5816085BDE6
:102D100080916E00816080936E001092810080919E
:102D20008100826080938100809181008160809326
:102D30008100809180008160809380008091B1004B
:102D400084608093B1008091B00081608093B00076
:102D500080919100826080939100809191008160C8
:102D60008093910080919000816080939000809189
:102D70007A00846080937A0080917A0082608093E8
:102D80007A0080917A00816080937A0080917A0045
:102D9000806880937A001092C10085E892E1909358
:102DA0006B0180936A0184E590E1909363018093C5
:102DB000620183E89FE0909365018093640187E45A
:102DC0009CE090936D0180936C0189EA9EE0909362
:102DD0006F0180936E0185E29FE09093670180937D
:102DE00066018FEF9EE0909371018093700180EBFC
:102DF0009EE090936901809368018CEA9EE0909335
:102E000073018093720180E49AE09093750180933E
:102E1000740186E59EE0909377018093760110928D
:102E20008101109280011092830110928201109210
:102E300078011092790110927A0110927B0184E05E
:102E400090E0909385018093840110928701109205
:102E50008601109288011092890110928A011092C5
:102E60008B0110928D0110928C0110928F011092A3
:102E70008E01109290011092910110929201109285
:102E80009301109295011092940110929701109263
:102E9000960110929901109298010E948512E0917A
:102EA0006201F091630182E691E00995E09164018D
:102EB000F09165010995E0917001F091710182E650
:102EC00091E00995892B39F0E0916601F091670155
:102ED00082E691E00995E0916E01F0916F0182E642
:102EE00091E00995892B39F0E0916C01F0916D0129
:102EF00082E691E00995E0917201F091730182E61A
:102F000091E00995892B39F0E0916801F091690110
:102F100082E691E00995E0917401F091750182E6F5
:102F200091E00995892B39F0E0917601F0917701D4
:102F300082E691E009950E943209BDCFCF93DF93DD
:102F4000C4E4D1E0D0931404C093130483E194E06B
:102F50000E94F90DD093B104C093B00480EB94E0CB
:102F60000E94F90DD0937703C093760386E793E030
:102F7000DF91CF910C94F90DCF93DF93ECE9F2E060
:102F80001382128288EE93E0A0E0B0E08483958300
:102F9000A683B7832CE031E031832083C9EDD2E0F2
:102FA0001B821A828C839D83AE83BF838CE191E068
:102FB0009983888385EC90E09D878C8784EC90E0F2
:102FC0009F878E8780EC90E0998B888B81EC90E0D6
:102FD0009B8B8A8B82EC90E09D8B8C8B86EC90E0B7
:102FE0009F8B8E8B198E1A8E1B8E1C8EE5E9F3E05B
:102FF000128611861486158617821086158283EA3A
:1030000093E091838083D0931204C093110420E055
:103010004CE06DE086E793E00E94150DE8EAF2E0EF
:103020008FEF8187828783878487EFECF4E01286B5
:103030001186148615861782108615828DED94E010
:1030400091838083D0934C05C0934B0520E04CE0E6
:103050006DE080EB94E00E94150DE2E3F4E012864F
:1030600011861486158617821086158280E494E0F6
:1030700091838083D093AF04C093AE0420E04CE0F2
:103080006DE083E194E0DF91CF910C94150DDB01AD
:103090008F939F930E949618BF91AF91A29F800D2E
:1030A000911DA39F900DB29F900D1124089597FB41
:1030B000072E16F4009407D077FD09D00E942E1A2F
:1030C00007FC05D03EF4909581959F4F089570952B
:1030D00061957F4F0895A1E21A2EAA1BBB1BFD012B
:1030E0000DC0AA1FBB1FEE1FFF1FA217B307E407E7
:1030F000F50720F0A21BB30BE40BF50B661F771F3F
:10310000881F991F1A9469F760957095809590951E
:103110009B01AC01BD01CF010895EE0FFF1F0024FC
:10312000001C0BBE0790F691E02D09940E94421AF4
:10313000A59F900DB49F900DA49F800D911D11240B
:103140000895B7FF0C9496180E949618821B930B53
:103150000895DF93CF931F930F939A9DF02D219F96
:10316000F00D8B9DF00D8A9DE02DF10D039FF00D6C
:10317000029FE00DF11D4E9DE00DF11D5E9DF00DD5
:103180004F9DF00D7F936F93BF92AF925F934F93DC
:10319000D5010E94421A8B01AC01D7010E94421A4C
:1031A000EB01E80FF91FD6010E94F9182F913F910A
:1031B000D6010E94421AC60FD71FE81FF91FAF9110
:1031C000BF910E94F9182F913F910E94421AC60F99
:1031D000D71FE81FF91FD6010E94421AE60FF71FFA
:1031E0009801BE01CF0111240F911F91CF91DF9162
:1031F00008950E94421A460F571FC81FD91F08F48E
:1032000031960895689401C0E894F92FF12B12F0DB
:103210000C943619A0E0B0E0E0E1F9E10C94A819B3
:10322000092E059422F40E949219112392F4F0E8D9
:103230000F26FFEFE094F09400951095B094C094A1
:10324000D094A194BF0ACF0ADF0AEF0AFF0A0F0B3E
:103250001F0B0E94411907FC0E949219CDB7DEB7DF
:10326000ECE00C94C419689401C0E8948F929F928A
:10327000CF93DF930E944119DF91CF919F908F9060
:10328000089588249924F401E401B0E49F93AA27C7
:103290009A158B049C04ED05FE05CF05D007A10708
:1032A00098F4AD2FDC2FCF2FFE2FE92D982C892EEF
:1032B000982F872F762F652F542F432F322F2227B9
:1032C000B85031F7BF9127C01B2EBF91BB27220FEB
:1032D000331F441F551F661F771F881F991F881CA7
:1032E000991CEE1FFF1FCC1FDD1FAA1FBB1F8A14D6
:1032F0009B04EC05FD05CE05DF05A007B10748F0EE
:103300008A189B08EC09FD09CE09DF09A00BB10B57
:1033100021601A94E1F62EF49401AF01BE01CD01B3
:10332000000C089560957095809590953095409526
:10333000509521953F4F4F4F5F4F6F4F7F4F8F4FAE
:103340009F4F08952F923F924F925F926F927F927C
:103350008F929F92AF92BF92CF92DF92EF92FF92A5
:103360000F931F93CF93DF93CDB7DEB7CA1BDB0B51
:103370000FB6F894DEBF0FBECDBF09942A883988F6
:1033800048885F846E847D848C849B84AA84B984FD
:10339000C884DF80EE80FD800C811B81AA81B98109
:1033A000CE0FD11D0FB6F894DEBF0FBECDBFED011D
:1033B00008950F93083090F0982F872F762F652F60
:1033C000542F432F322F22270850F4CF220F331FC0
:1033D000441F551F661F771F881F991F0A95B2F754
:1033E0000F91089597FB10F8169400080F9308307A
:1033F00098F00850232F342F452F562F672F782F02
:10340000892F902DF4CF059497958795779567959B
:1034100057954795379527950A95AAF70F910895DF
:103420002A0D3B1D4C1D5D1D6E1D7F1D801F911FB4
:1034300008952A193B094C095D096E097F09800B23
:10344000910B08950024A7FD00942A17300540052C
:10345000500560057005800590050895AA1BBB1BEB
:1034600051E107C0AA1FBB1FA617B70710F0A61B84
:10347000B70B881F991F5A95A9F780959095BC01A5
:10348000CD010895A29FB001B39FC001A39F700D0D
:10349000811D1124911DB29F700D811D1124911D5C
:1034A00008955058BB27AA270E94691A0C940E1C35
:1034B0000E94001C38F00E94071C20F039F49F3F46
:1034C00019F426F40C94ED1B0EF4E095E7FB0C9434
:1034D000E71BE92F0E941F1C58F3BA1762077307F6
:1034E0008407950720F079F4A6F50C94411C0EF49E
:1034F000E0950B2EBA2FA02D0B01B90190010C0104
:10350000CA01A0011124FF27591B99F0593F50F41B
:10351000503E68F11A16F040A22F232F342F442773
:10352000585FF3CF469537952795A795F04053956B
:10353000C9F77EF41F16BA0B620B730B840BBAF03B
:103540009150A1F0FF0FBB1F661F771F881FC2F7A6
:103550000EC0BA0F621F731F841F48F487957795BA
:103560006795B795F7959E3F08F0B0CF9395880F74
:1035700008F09927EE0F9795879508950E94D21A23
:103580000C940E1C0E94071C58F00E94001C40F076
:1035900029F45F3F29F00C94E71B51110C94421C55
:1035A0000C94ED1B0E941F1C68F39923B1F3552363
:1035B00091F3951B550BBB27AA2762177307840746
:1035C00038F09F5F5F4F220F331F441FAA1FA9F3DC
:1035D00035D00E2E3AF0E0E832D091505040E695CA
:1035E000001CCAF72BD0FE2F29D0660F771F881F2B
:1035F000BB1F261737074807AB07B0E809F0BB0B1E
:10360000802DBF01FF2793585F4F3AF09E3F510531
:1036100078F00C94E71B0C94421C5F3FE4F3983E57
:10362000D4F3869577956795B795F7959F5FC9F71A
:10363000880F911D9695879597F90895E1E0660F9B
:10364000771F881FBB1F621773078407BA0720F014
:10365000621B730B840BBA0BEE1F88F7E09508957D
:103660000E94371B6894B1110C94421C08950E946B
:10367000271C88F09F5798F0B92F9927B751B0F0C1
:10368000E1F0660F771F881F991F1AF0BA95C9F7E6
:1036900014C0B13091F00E94411CB1E008950C9427
:1036A000411C672F782F8827B85F39F0B93FCCF3DA
:1036B000869577956795B395D9F73EF49095809563
:1036C000709561957F4F8F4F9F4F089597FB16F42C
:1036D0000E94F01B0C94AA1BE89409C097FB3EF4CF
:1036E00090958095709561957F4F8F4F9F4F99234F
:1036F000A9F0F92F96E9BB279395F69587957795CD
:103700006795B795F111F8CFFAF4BB0F11F460FF8C
:103710001BC06F5F7F4F8F4F9F4F16C0882311F0E4
:1037200096E911C0772321F09EE8872F762F05C0F8
:10373000662371F096E8862F70E060E02AF09A9593
:10374000660F771F881FDAF7880F9695879597F988
:103750000895E894F92F96EBFF2381F012161306D3
:103760001406440B9395F69587957795679557952D
:103770004040FF23B9F71BC099270895882351F4CF
:103780009850D2F7872B762F652F542F432F322F47
:1037900020E0B1F3121613061406440B88233AF006
:1037A0009A95440F551F661F771F881FCAF7552328
:1037B0004AF4440F551F11F460FF04C06F5F7F4F40
:1037C0008F4F9F4F880F9695879597F9089597F992
:1037D0009F6780E870E060E008959FEF80EC0895B7
:1037E0009095809570956095509540953095219570
:1037F0003F4F4F4F5F4F6F4F7F4F8F4F9F4F0895FA
:1038000000240A94161617061806090608950024BF
:103810000A9412161306140605060895092E039439
:10382000000C11F4882352F0BB0F40F4BF2B11F4AD
:1038300060FF04C06F5F7F4F8F4F9F4F089557FD0C
:103840009058440F551F59F05F3F71F04795880F0E
:1038500097FB991F61F09F3F79F0879508951216A5
:1038600013061406551FF2CF4695F1DF08C0161651
:1038700017061806991FF1CF869571056105089402
:103880000895E894BB2766277727CB0197F9089519
:103890000E945B1C0C940E1C0E94001C38F00E94BD
:1038A000071C20F0952311F00C94E71B0C94ED1BE2
:1038B00011240C94421C0E941F1C70F3959FC1F3AD
:1038C000950F50E0551F629FF001729FBB27F00DCE
:1038D000B11D639FAA27F00DB11DAA1F649F662723
:1038E000B00DA11D661F829F2227B00DA11D621F72
:1038F000739FB00DA11D621F839FA00D611D221F2C
:10390000749F3327A00D611D231F849F600D211D0F
:10391000822F762F6A2F11249F5750409AF0F1F092
:1039200088234AF0EE0FFF1FBB1F661F771F881FFB
:1039300091505040A9F79E3F510580F00C94E71B31
:103940000C94421C5F3FE4F3983ED4F38695779540
:103950006795B795F795E7959F5FC1F7FE2B880FA1
:10396000911D9695879597F9089581E090E0F894D8
:103970000C94C21CF999FECF92BD81BDF89A99278B
:1039800080B5089511E0C1E9D1E004C0FE010E94B4
:0E3990008D182196C239D107C9F7F894FFCFE0
:10399E0000000000070A030A000000003102F401D3
:1039AE00EC01D801C901C80100000000A80C7F027B
:1039BE00260904091809EF0C00000000AA027F0274
:1039CE00AA02AA02AA02AA0200000000AA027F020C
:1039DE000000000076097F02CA09E2094D09670955
:1039EE000D0A005B005D2000250020506100206D57
:0239FE00560071
:00000001FF
